:10000000F03F0020912100005B61000065210000AD
:1000100065210000652100006521000065210000C8
:10002000000000000000000000000000011D0000B2
:10003000652100000000000065210000652100002E
:10004000611D0000611D0000611D0000611D0000B8
:10005000611D0000611D0000611D0000611D0000A8
:10006000611D0000611D0000611D0000611D000098
:10007000611D0000611D0000611D0000611D000088
:10008000611D0000611D0000611D0000611D000078
:10009000611D0000611D0000611D0000611D000068
:1000A000611D0000611D0000611D0000611D000058
:1000B000611D0000611D0000611D0000611D000048
:1000C000611D0000611D0000611D0000611D000038
:1000D000611D0000611D0000611D0000611D000028
:1000E000611D0000611D0000611D0000611D000018
:1000F000611D0000611D0000611D0000611D000008
:10010000611D0000611D0000611D0000611D0000F7
:10011000611D0000611D0000611D0000611D0000E7
:10012000611D0000611D0000611D0000611D0000D7
:10013000611D0000611D0000611D0000611D0000C7
:04014000611D00003D
:1001440053B94AB9002908BF00281CBF4FF0FF313A
:100154004FF0FF3000F00CB8ADF1080C6DE904CE9F
:1001640000F008F8DDF804E0DDE9022304B070478C
:10017400704700BF2DE9F04786468C460846089E26
:10018400154674461946002B40F0C1808542B2FAE8
:1001940082F245D94AB1C2F1200300FA02FC95402B
:1001A40094402EFA03F343EA0C0C4FEA154EA8B21E
:1001B400230CBCFBFEF80EFB18CC08FB00F943EA49
:1001C4000C43994528D9EB1808F1FF3704D2994517
:1001D40002D9A8F102072B44A3EB0903A4B2B3FB91
:1001E400FEFC0EFB1C330CFB00F044EA0344A0426B
:1001F40014D92C190CF1FF3304D2A04202D9ACF16A
:1002040002032C44241A43EA07401EB1D4400023BD
:1002140034607360BDE8F0874746DDE76346F1E785
:1002240092BB431B01214FEA154EAFB2200CB3FB26
:10023400FEFC0EFB1C330CFB07F840EA0343984515
:1002440061D9EB180CF1FF3004D2984502D9ACF116
:1002540002002B44A3EB0803A4B2B3FBFEFC0EFB89
:100264001C330CFB07F744EA0344A7424DD92C196D
:100274000CF1FF3304D2A74202D9ACF102032C449F
:10028400E41B43EA0040C0E7C2F1200395409440D8
:1002940020FA03F12EFA03F34FEA154E9040AFB261
:1002A4000343B1FBFEFC0EFB1C10190C0CFB07F8FE
:1002B40041EA0041884522D969180CF1FF3004D283
:1002C400884502D9ACF102002944A1EB08019BB294
:1002D400B1FBFEFC0EFB1C110CFB07F743EA0143C8
:1002E4009F420ED9EB180CF1FF3104D29F4202D980
:1002F400ACF102012B44DB1B41EA004193E7604669
:10030400E3E76146F7E76046A4E76346B8E783425C
:1003140006D916B9002108467CE7C6E900E0F9E7EA
:10032400B3FA83F78FB9834201D3724508D8BEEB81
:10033400020460EB030301209C461EB9002169E717
:100344003846FAE7C6E9004CF8E7C7F1200CBB4091
:100354000EFA07F522FA0CF42EFA0CF1BA401C43FB
:1003640020FA0CF3B8404FEA144901431FFA84FE03
:10037400B3FBF9F809FB18300B0C08FB0EFA43EA3F
:1003840000439A4540D9E31808F1FF3004D29A4556
:1003940002D9A8F102002344A3EB0A0389B2B3FBF8
:1003A400F9F809FB183308FB0EFE41EA03418E45B8
:1003B4002CD9611808F1FF3304D28E4502D9A8F173
:1003C4000203214443EA0040A1EB0E01A0FB029882
:1003D4004145CE46434602D306D14D4504D20138A9
:1003E400B9EB020E68EB0403002EA7D0B5EB0E02A6
:1003F40061EB030101FA0CFC22FA07F3F9404CEA21
:100404000303C6E9003199E74046C5E74346D9E707
:10041400F0B52F4B2F4A4921C3F800262E48C3F8C4
:10042400042685B0C3F80826C3F80C26C3F81026A2
:10043400C3F81426C3F81826C3F81C2605F000FEDA
:1004440005F0A7F901A800F07FFC244B1B68834248
:1004540004D04521224805F0F3FDFEE7039A492123
:10046400204805F0EDFD49211F4805F0E9FD4FF452
:100474008031002002F058FE044620B145211B487B
:1004840005F0DEFDFEE769469DF8080000F032F84D
:10049400009B039D1D44019B1E8900F05BFFAF1967
:1004A40000F03CFF01F0B4FE84F30B8884F30A8867
:1004B400AB5983F3088884F31488BFF36F8FBFF3B9
:1004C4006F8F7B6898474521094805F0B9FDFEE721
:1004D400008001503546526E30700000D00100207B
:1004E400497000006C7000009B700000C070000038
:1004F400F3700000024608B538B1054800234521D1
:1005040005F09EFD6FF0150008BD0860FCE700BF14
:10051400167100001FB50C46014601AA044805F0F7
:1005240070FF18B9019B2360029B636004B010BD87
:10053400F86900002DE9F04F1E46834BDBB01446EA
:10054400DDE96657D3F80080DDF8A0B100F0B0FE15
:1005540001227E4B3AA8C3F8002504F049F835B1CE
:10056400002F04DD3A4629463AA805F064FC4FF012
:100574000009638927891F44E3681F444F4525D830
:100584000DA93AA804F0A6F80022704BC3F8002580
:10059400C3F80025BBF1000F04D0202258460DA952
:1005A40005F0F7FD00233246009321464FF6FF7312
:1005B40007A805F0EFF80546D0B930460C9C00F0CA
:1005C40083F984421FD94FF0FF3511E0659BA7EBF7
:1005D400090A9A4528BF9A46494653463046649AC2
:1005E40005F03CFD054638B10022584BC3F8002500
:1005F40028465BB0BDE8F08F524664993AA805F0EE
:100604001AFCD144BAE74FF0FF37DFF84CB1DFF8FA
:100614003C910DF1160305AA06A907A805F008F9EF
:10062400041EC0F28F8040F08280BDF816A0BAF19B
:10063400100F18D1BDF81450202DC4D12B463046CC
:1006440006993AAA05F00AFD044600287AD12A46FA
:100654003AA90DA805F064F905463D4B1B68834291
:10066400C6D10125D5E7BAF1010F3ED1BDF814304A
:10067400202BA8D8304606993AAA05F0EFFC044688
:1006840000285FD19DF81430202B029309D8DBF8A1
:100694000030304F0393039B9C4205DB0023C9F8D1
:1006A40000354FF0FF341CE000F002FEC9F800A54D
:1006B4001DA803F09DFF7A681DA8126857F8081B4F
:1006C40005F0B9FB15A91DA804F004F80022C9F827
:1006D4000025029A3AA915A805F04BFD18B9C9F8E6
:1006E4000005274695E70134D5E7BAF1220F90D1EA
:1006F4007B1C8ED0DBF80030BB4215DDBDF8143016
:10070400802B3FF660AF304606993AAA05F0A6FC66
:100714000446B8B9FFB22021BDF8143000973AAAB4
:100724000DA800F01BF880464FF0FF3771E745B184
:10073400074B1B6843451CBF034BD3F80080454659
:1007440056E70124254653E70000002000008450AA
:10075400D0010020BC6C0000B86C00002DE9F04111
:1007640096B017461D469DF87020354B0E4653F83B
:10077400321003EBC2035B6801918046186802AA39
:100784000144302301A805F0E4FA20B14FF0FF3012
:1007940016B0BDE8F081DDE901431C44214606ABF7
:1007A40003AA01A805F0FDFA0028EFD1049A072A4C
:1007B400ECD12449059805F0DCFC0028E6D1079A21
:1007C400082AE3D12049089805F0D3FC0028DDD19C
:1007D400214602AA01A805F0D0FA0028D6D1DDE905
:1007E400013213449C42D1D1412ACFD13D4430231C
:1007F400294603AA02A8029705F0ABFA0028C5D13E
:10080400DDE9023213449D42C0D32A4602A906A858
:1008140005F05AF80028B9D12A4602A90EA805F015
:1008240053F80028B2D1202EB0D101990B78042BB3
:10083400ACD13346404606AA013100F051FDA7E78A
:10084400BC6C0000457100003C7100002DE9F041D2
:10085400032386B00D466F460026DFF86880ADF8A6
:10086400003017F8010B01A901F038F90446A0B9CA
:1008740001981023816802AA103905F0EFFB0446A1
:10088400019805F0EAFB44B91022414602A805F09C
:1008940070FC40B12EB14FF0FF34204606B0BDE8E5
:1008A400F0810126DDE7019805F08FFE0423A0F115
:1008B40008012A46019805F0D1FB0446019805F089
:1008C400CCFBEAE72070000007B505F03DF8694667
:1008D400FFF720FE38B10548452105F0B1FB0020A3
:1008E40003B05DF804FB0098FAE700BF4D71000007
:1008F4002DE9F041354B88B0064600200C461D68B2
:1009040004F03CFF06A9C0B201F0E8F8002857D172
:10091400214604F033FF2C2507A9C0B205FB04656A
:1009240001F0DCF8002833D02C27674306EB0708D6
:10093400D8F81010069B11F0100138D14FF48072D2
:100944000192234A08460092CDE903112A460291F6
:10095400FFF7F0FD05461F4BF25906989A420CD159
:10096400D8F80C20B8F808309B1806D28268934255
:1009740003D2194B1B68AB421FD02CB382680021F1
:1009840005F096FB154A4521154805F059FB13E07F
:10099400079805F0AAFB0746079805F05EFB6B1E57
:1009A400EA1C13F8011FB942BED19342F9D11CB11C
:1009B4003046069905F0ACF80125069805F04DFB84
:1009C400284608B0BDE8F081064ADCE700000020B4
:1009D400E40E00203DB8F396D00100209071000091
:1009E4009A7100008871000073B50D460021044619
:1009F4002846CDE9001105F04AF830B3164E2368B5
:100A0400B34203D1204601AA04F0D6FFE36AB342FD
:100A140004D16A460121204604F0CEFFDDE900320C
:100A2400934288BF0193019BAB60019A29462046FB
:100A340000F034FB094B1A68002A03DD57210848EB
:100A440005F0FEFA002002B070BD05F10801FFF7C1
:100A5400FDFEAB680193E8E73DB8F396340E002041
:100A6400C27100002DE9F84F884691469A46002647
:100A7400DFF870B0194C1A4D0B9B9E4201D3002035
:100A84000FE00B9B40469F1BB7F5806F28BF4FF4C8
:100A94008067144A3B4606EB0A0105F0DFFA10B101
:100AA4000120BDE8F88F0A993B465A46484671181A
:100AB40005F0E9FA0028F3D1C4F800563E44C4F81E
:100AC4000456C4F80856C4F80C56C4F81056C4F8B2
:100AD4001456C4F81856C4F81C56CDE700800150CB
:100AE4003546526ED40900202DE9FF410E460021FF
:100AF4008E4B044643628E4B0365084604F03EFE6B
:100B040004F12001C0B200F0E9FF0121002004F04B
:100B140035FE04F14C01C0B200F0E0FF054620466A
:100B240004F08BFF074668B900222046114604F002
:100B34002DFF074600B3002257217E4805F080FAB6
:100B440001238FE0802257217B4805F079FA0123A5
:100B54009F4284F85830E7D194F85830042B8DF82C
:100B6400073000F28280012B00F2858000F09C8027
:100B7400FF2384F8583097E0204600F0A7F90028B6
:100B8400DED0684604F07AFF6946204605F015F881
:100B940018B13A4657216948D0E7684604F077FF10
:100BA40080F001016A462046C9B204F0EFFE024615
:100BB4000028C0D1684604F06AFF074660BB694656
:100BC4002046FFF711FF9DF8073084F85830033BA7
:100BD400012B06D8384605F03FF810B1FF2384F8FE
:100BE40058309DF80730023B022B0BD8002005F04B
:100BF40021F838B1FF2384F858304521504805F0D6
:100C04001FFAFEE794F85830FF2BF6D06A4600210D
:100C1400204604F0BBFE93E79DF80780B8F1010F6E
:100C240015D1104602F01EFB831E022B07460BD87B
:100C340041462046FFF75CFE424B1B68984203D0B6
:100C4400012814BF0527012784F8587084E701217F
:100C54002046FFF74DFE3B4B1B68984214BF05230B
:100C64009DF8073084F8583076E7052B80D10020B2
:100C740004F0F2FF13E069462046FFF7B5FE94F84E
:100C840058300546DA1E012A0CD8002004F0E4FF8F
:100C9400054600287FF46CAF002004F0CBFF054626
:100CA40010B165E7022BF7D094F85830FF2B04D12C
:100CB4004521234805F0C4F9FEE7012B10D06A460C
:100CC4000021204604F062FE054648B1E06C05F0C0
:100CD400C4F9206A05F0C1F9284604B0BDE8F081E2
:100CE40000212046FFF704FE0746DFF85880D8F8B5
:100CF400003098420FD110220021684605F054FAC2
:100D0400206A04F044FD3071236A5B683460D8F8CB
:100D14000050B360DAE7E06C05F09FF9206A05F053
:100D24009CF9002D08BF3D46D6E700BFD40500203E
:100D3400D401002033720000F17100005F720000E2
:100D440089720000D001002038B5064D04466022A7
:100D54000021284605F028FA21462846FFF7C4FE5C
:100D640038BD00BFD40D002073B516461D4643B1EF
:100D74005B79012B07D121B9204B2A681B689A4261
:100D840017D8002418E0022BFBD12B68012B07D9BC
:100D94001A4A12689342F4D8B1FA81F14909F0E78A
:100DA400EFD131B10129ECD12979023918BF0121E0
:100DB400E7E70021436A5C68002004F0DFFC01A936
:100DC400C0B200F08BFE30B10124019805F045F962
:100DD400204602B070BD214620233246019805F01A
:100DE4003DF904460028EFD1002DEED03468044BC1
:100DF400E41A18BF4FF0FF34E7E700BF04000020F7
:100E04003DB8F3962DE9F04F07460C4685B00146F0
:100E14000020164604F08BFD051E50DB3846E46DB9
:100E240004F092FD5FFA84F94FF0000A4FF0010BD1
:100E34004FF0FF346B1E09FB03089DB9BAF1010F93
:100E440003DD4521204805F0FBF8631C06D07F2C08
:100E54002ADC40F2011301343460B380284605B023
:100E6400BDE8F08F6B1E00934146012338460DF117
:100E74000F0205F0F3F8031E019322DB012238462A
:100E84000DF10F0105F0B5FB019B40B15B4501D0AD
:100E94000AF1010A9B46009DA8EB0908CDE7B4F1CD
:100EA400FF3F08BF2C46F5E70223803C73716310B3
:100EB40004F001040133013433603471CEE70725B3
:100EC400CCE70125CAE700BF9572000038B5816AF6
:100ED400426D914208D0531C8B4205D057211348D0
:100EE40005F0AEF8002038BD80291CD957211048E0
:100EF400F6E7446A056D04EBC30405EBC3056468B7
:100F04006D68AC4202D057210A48E9E701339A429E
:100F1400EFD1914205D9436A03EBC2035B68A34254
:100F2400F1D10120DFE700231C46F0E7B87200008E
:100F3400F07200001F73000000B589B0032004A9FB
:100F440005F0C9FB9DF81020012A41D0254B264904
:100F5400032A08BF0B469DF81320492102929DF8ED
:100F64001220224801929DF811200092204A05F097
:100F740067F8092006A905F0AEFB9DF81820012AA0
:100F840028D0184B1849032A08BF0B469DF81B208C
:100F9400492102929DF81A20144801929DF81920C3
:100FA4000092144A05F04CF89DF81030012B13D12F
:100FB4009DF81230032B0FD19DF81830012B0BD064
:100FC4000D48492105F03CF8022009B05DF804FB06
:100FD4000A4BC0E7094BD9E70948492105F030F825
:100FE4000020F2E74B7300005473000068730000A4
:100FF4005A730000A9730000B97300004F73000016
:10100400D873000070B54B6814461E4A03F0FF23E2
:10101400934206460D4686B02FD10B68012B2CD186
:10102400204604A902F0C8F89DF81020012A26D011
:10103400154B1649032A08BF0B469DF81320492176
:1010440002929DF81220124801929DF811200092FC
:10105400104A04F0F5FF9DF81030032B0DD1214602
:10106400304604F055FD204605F028FB2046A968CB
:1010740004F07DFC204602F07FF806B070BD064BFC
:10108400DBE700BF000100044B7300005473000051
:1010940068730000A97300004F7300002DE9F04F3E
:1010A40005460C467D48492189B0174604F0C8FF1F
:1010B4006B6A01225E6800233344BB42114602F18D
:1010C4000102F9D3764F2046396004F0E0FC08B3FE
:1010D400E86D04F027FCAB6A03F1FF3800233344C6
:1010E400834202D208F1FF38F9E73B68434511D344
:1010F40057216C4804F0A4FF3A6808FB06F3572113
:1011040002FB0662684804F09BFF0123E37109B007
:10111400BDE8F08F06A9032000F0E0FC07A9092030
:1011240000F0DCFC21462846079AFFF76BFF637941
:10113400012B0BD1D7F80080DFF870B13B68DDF8E4
:101144001890B8F1000F11D10123236002234FF04E
:10115400010863713B68DDF818A0984549D95046E9
:1011640004F07BFF079804F078FFD0E7226801338E
:101174009B1A98453AD86B6A012A196853F83800C3
:1011840003EBC80353F8083CA0EB010AA3EB0103EB
:10119400049311D1079B0393E368022B08D04946BB
:1011A400284604F0B5FC22464946284604F0E6FCED
:1011B4002846039904F0ACFC32465146484604F0F4
:1011C400A5FC049B4A4649462846CDE900A6FFF7FC
:1011D40049FC2146284604F067FC23680133236058
:1011E40020B1DBF800300133CBF8003008F1FF38D0
:1011F400A4E7236898454ED36A6A4FEAC80352F8B5
:101204003810083B04911168DDF81CB00391D158E3
:101214002A6DD0581368A0EB03092379012B38D128
:10122400039B3246C91A5046059104F06FFC059998
:101234004B4652460091284659460196FFF712FC48
:101244002146284604F030FC0223237118B1174AC2
:1012540013680133136032464946584604F056FC7D
:10126400DDE9032351469B1A28465A46CDE90096E8
:10127400FFF7F8FB2146284604F016FC23680133E7
:1012840023600123237130B1084A136801331360CA
:1012940001E0022BDFD008F101085BE7EF730000E7
:1012A400040000201874000047740000340E00206D
:1012B40070B5094D2B780BB1002070BD0126074C89
:1012C400C4F8006503F036FA18B92E70C4F80005A6
:1012D400F2E74FF0FF30F0E7E40F00200000845005
:1012E4002DE9F041ACB01F4606460C461546FFF703
:1012F400DFFF0123DFF820802A46C8F800352146A5
:101304003346009703A805F0ECFA0023C8F800352B
:101314002CB0BDE8F08100BF00008450BFF36F8F94
:1013240072B600234FF0FF30094A03F12001013364
:10133400102B42F82100F8D100234FF0FF30044A6B
:1013440003F160010133102B42F82100F8D17047FA
:1013540000E100E038B501224FF0FF3400251A4BBC
:1013640029465A60C3F84843C3F8084303F5805339
:101374005A60C3F84843C3F80843A3F55043C3F87D
:1013840000558022C3F80843104804F00DFF802262
:1013940029460F4804F008FF0E4B8022C3F800557D
:1013A4002946C3F808430C4804F0FEFE802229466F
:1013B4000A4804F0F9FE0A4BC3F808454FF05023DD
:1013C400C3F8084338BD00BF00400150808000507E
:1013D4008081005000900050809000508091005017
:1013E40000700150014B1B68184700BF0800002023
:1013F400014B1860704700BF0800002007B50B467A
:10140400002102460091034800F014F903B05DF88E
:1014140004FB00BFE91300002DE9F047058B0446E7
:101424002807904611D4022905F0070540F0CD8025
:10143400204604F02AFD78B10138218B042811D804
:10144400DFE800F0C3106D85950001290CBF45F05D
:10145400100545F02005258388F31188BFF36F8FAD
:10146400BDE8F08701F0070AAA4500F0A68000272E
:10147400B9463E46A368002B00F0BD8041F0080148
:10148400218388F31188BFF36F8FA168002900F0CE
:10149400BB800D68002900F0B780334652462046D1
:1014A400D1F80480C047002D76D02B6829461D460C
:1014B400F0E701F007035A1F012A1BD8002221F08C
:1014C4000701062B276889B2C4E9002209D13B46EB
:1014D40003E0628B013262831B68002BF9D141F077
:1014E40002012046218304F0D0FC00287BD041F087
:1014F400200177E0042B0AD121F0070189B22046AC
:10150400218304F0C2FC10B141F020012183218B1E
:1015140001F0070AAA4550D00027B946AAE7236973
:1015240021F0070141F00601062DD3F80090218334
:101534002DD1B9F1000F40D041F00801218388F387
:101544001188BFF36F8F20463949C84729E021F03D
:101554000701236941F0040189B2042DD3F80490F2
:101564002183E6D000274FF0040A3E4682E721F0AB
:101574000701236941F0050189B2052DD3F80890CC
:101584002183D6D000274FF0050A3E4672E7002794
:101594004FF0060A3E466DE72B4687E7B9F1000F88
:1015A400D1D14FF02003EFF3118883F31288BFF3F6
:1015B4006F8F238B23F008032383258BEA062ED514
:1015C40025F01003238305F007056669218B002E9F
:1015D400BFF66FAF00232768C4E9003321F0070189
:1015E40041F001012183218B4FF0000901F0070A2A
:1015F400AA457FF43FAF002F9BD041F0080121831F
:1016040088F31188BFF36F8F002FC7D03D68394628
:1016140033465246204604F064FC2F46F4E7AB06FA
:101624007FF51AAF25F02003238305F00705FFE6B5
:10163400135F00002DE9F04F82464FF000098DB092
:101644001D46531E01910393039B58785C1C252867
:1016540019D100204FF0FF381E4644460346023697
:10166400029031780396392955D81F2914D80029B6
:1016740000F0EE8101992520D04701993078D047B8
:1016840009F10209E0E7002800F0E2810199D0475E
:1016940009F101090394D7E7A1F12002192AE9D835
:1016A40001A757F822F000BF1517000079160000B3
:1016B4007916000015170000791600009517000030
:1016C40079160000791600007916000079160000DA
:1016D400E11700001517000079160000F517000047
:1016E400A117000079160000AF170000CF17000003
:1016F400CF170000CF170000CF170000CF1700004E
:10170400CF170000CF170000CF170000CF1700003D
:1017140008460136A5E7582900F0EB80A1F16302E1
:10172400D7B2172FA6D8172AA4D801A757F822F0A2
:101734009D1900001B18000079160000791600009E
:1017440079160000FB1700001B1800007916000032
:1017540079160000FB1700007916000079160000C6
:1017640079160000D11800007916000079160000DF
:1017740071190000791600001B180000791600008A
:1017840079160000D118000079160000FB1700003C
:1017940025200199D04709F1010955E7029A4FF034
:1017A400000802F0FE020292B3E7002C0DDAB8F151
:1017B400000F0DDA029A002A00F042810A2224EA7C
:1017C400E47402FB0414303CA3E7B8F1000FF5DB2A
:1017D4000A2202FB0812A2F130089AE7B8F1000FBE
:1017E40055F8042B80F22E81002A80F22D81544278
:1017F400022202928DE7682903D1682B06D148237F
:1018040087E76C2902D16C2B00F02081002B7FF438
:1018140031AF0B467DE77A2B06D1752955F8046B59
:1018240014D14FF0000B0CE06C2BF6D04C2BF4D100
:10183400073525F00703752903F10805D3E9006B83
:1018440006D120283BD1844F013C09E04FEAE67BD6
:10185400BBF1000FF5DA7642804F6BEB4B0B013C8A
:101864000DF12D03059300230493304659460A22B3
:101874000023FEF765FC049B8E46591E04910599CE
:10188400B446303201F8012D5A46BCF10A0F72F108
:1018940000020646F3460591E7D2C3F1010B30334B
:1018A4000DEB0306B8F1000FA6F104066DDA029BF6
:1018B400D9077CD4A8EB0B03A4EB0B0413E02B286F
:1018C4000ABF674F674F04F1FF34C9E770290FD18E
:1018D40055F8042B0023FAB96FF004034FF0050BFD
:1018E400614E053C5F4F029A92076FD4A04665E0B3
:1018F40078216C2B03D1002355F8042B08E04C2BE2
:10190400F9D1073525F007031D465B6855F8082B08
:10191400232825D1880621D5544F023C002601F006
:101924006001A1F1390B0DF12D0E02F00F0109290F
:1019340088BF594430310EF8011D102A4FEA1211A4
:1019440041EA03714FEA131073F1000306F1FF3CFF
:1019540008D2C6F1010B06F13003A1E7444FDCE7DE
:10196400404FDBE766460A460346DEE755F8046B5C
:10197400304604F0F7FBB8F1000F834602DB404524
:10198400A8BFC3464FF00008364FA8EB0B03002B4B
:1019940092DDA4EB0804A6E755F8043B4FF0010BD5
:1019A4008DF81830013C4FF0FF3306AE9AE7A0469D
:1019B400EBE7029320200199D047029BB8F101087C
:1019C400F7D524EAE472013C9144A41AB84606E02F
:1019D400049302920199D047029A049B904642468E
:1019E40012F8010B0028F3D11A46013A15D5002B41
:1019F400ACBFC7EB03077F425B46013B15D5BBF188
:101A0400000FA8BF5F4426464F44013E14D5002C66
:101A1400A8BF3F1907EB080916E604930292302089
:101A24000199D047049B029ADFE70293019916F8C3
:101A3400010BD047029BE0E701992020D047E4E75F
:101A44000122D6E6904664E6144662E64C2360E63C
:101A540048460DB0BDE8F08FBC780000E474000087
:101A6400E6740000207C0000EE740000E8740000BE
:101A7400EB74000008B54FF02002EFF3118382F3FA
:101A84001288BFF36F8F00F0B1FB034804F0F0F944
:101A940000F088F8FCE700BFF47400004FF0200267
:101AA400EFF3118382F31288BFF36F8F0121044A8D
:101AB400C2F8401583F31188BFF36F8F002070477D
:101AC4000090035020B1034B800143F001031847F9
:101AD400704700BFB06C000001F03ABC70B5114B08
:101AE4000D461C68DCB1104B196800238B4202DBE5
:101AF4006FF0010070BD224612F8106B864202D0CE
:101B040014460133F2E7E06810B96FF01200F1E710
:101B140004F0CDFE0028F8D000202C60EAE76FF036
:101B24000C00E7E70C000020C86C000070B588B01A
:101B340005460C46C0B269461646FFF7CFFF00289B
:101B44001BDB0098C8B1436822680293836801953F
:101B5400CDE903360023CDE906230593C56804F0D7
:101B64007CFA6DB12846084901AA04F04EFC079896
:101B740008B9059B236008B070BD6FF01500FAE743
:101B84006FF01200F7E700BFFD600000014802F0AB
:101B940077BA00BF6C6D0000014910220A607047DB
:101BA40010ED00E072B6404080F31188BFF36F8FF0
:101BB400BFF34F8F30BF62B6BFF36F8F704700BF64
:101BC40072B6494081F31188BFF34F8F20BF80F371
:101BD400118862B6704700BF37B505460C46C9B1D7
:101BE4008B6810480093D1E90023452104F028FABA
:101BF400636945210093D4E903230B4804F020FAD8
:101C04004521E269094804F01BFA4521A269084804
:101C140004F016FA2146284603B0BDE8304002F02D
:101C240069B800BF21750000557500008975000072
:101C34009D75000040B2002807DB01234109034AD7
:101C440000F01F00834042F82130704700E100E0BB
:101C5400054B420953F82220012300F01F0003FA28
:101C640000F01040704700BF00E100E040B20028DF
:101C740001F10101ACBF00F16040064B4FEA411194
:101C8400C9B2ABBF00F5614000F00F0080F800134B
:101C94001954704714ED00E030BFFFF7FDBF00BFDB
:101CA400144A08B5144B22F07F029A60BFF34F8F99
:101CB400BFF36F8FD3F8882022F47002C3F8882012
:101CC400D3F8882042F4A002C3F888204FF04042A1
:101CD400C3F83422BFF34F8FBFF36F8F0023E1EEBD
:101CE400103A02F07FF802F0C1F800F043FA02F073
:101CF40085F800BF0000000000ED00E01EF0040FB6
:101D04000CBFEFF30880EFF30980816911F8021C1E
:101D14000229FFD001B504F016FA01BD04460846B5
:101D240011461A460023E1EE103A83F30B880A4B5E
:101D34002025A3F5205686F30B8883F3098863B620
:101D44004FF0000383F31188BFF36F8FA04785F32F
:101D54001188BFF36F8FFEE7F03F002001B5EFF36A
:101D64000580A0F110004FEAC0000449014409C9EC
:101D74009847BDE80140024908470000106A000086
:101D8400891D0000704700BF38B5214C452121480A
:101D940004F056F9A36A9D0103D545211E4804F0B9
:101DA4004FF9A36ADC0103D545211C4804F048F926
:101DB400174DAC6A14F4801404D04521184804F07B
:101DC4003FF90224AB6A180303D54521154804F0F2
:101DD40037F90F4DAB6A590303D54521124804F076
:101DE4002FF9AB6A9A0303D54521104804F028F96A
:101DF400074DAB6ADB0303D545210D4804F020F9F8
:101E0400AB6A20466FEA03436FEA1343AB6238BD03
:101E140000ED00E0D0750000ED75000005760000CF
:101E2400247600005376000076760000A076000049
:101E3400BF76000070B5234C06460D462248452166
:101E440004F0FEF8A36AD90403D545211F4804F021
:101E5400F7F8A36A1A0503D545211D4804F0F0F8E4
:101E6400184CA36A9B0510D51A48452104F0E8F8DC
:101E7400A26BA36A180408D54521174804F0E0F8BA
:101E84001EB1A36A23F40043A3620E4CA36A59054E
:101E940003D54521114804F0D3F8A36ADA050BD51C
:101EA40045210F4804F0CCF80020064A936A43F415
:101EB4007F439362287070BDA36A9B04F4D54521C7
:101EC4000848EFE700ED00E0EF7600000A77000035
:101ED4002077000038770000567700007077000004
:101EE40090770000AD77000070B5264C06460D468D
:101EF4002548452104F0A4F8A36AD80603D5452152
:101F0400224804F09DF8A36A190703D54521204807
:101F140004F096F81B4CA36A9A0710D545211D4876
:101F240004F08EF8626BA36A1B0608D545211A4893
:101F340004F086F81EB1A36A23F08003A362114C57
:101F4400A36ADE0703D54521144804F079F8A36A8F
:101F5400980603D54521124804F072F80020094B75
:101F64009A6AD10658BF9A6A9A6A920642BF5A6A16
:101F740022F400525A629A6A42F0FF029A6228706E
:101F840070BD00BF00ED00E0E1770000FC770000C9
:101F94002077000034780000517800006C7800004D
:101FA400AD7700002DE9F0415C4B05465F680026E3
:101FB4008AB0C7F3080486F31188BFF36F8F02F069
:101FC4007F43B3F17F4F07D102F00C03082B14D1E8
:101FD4004521534804F034F8002635464FF00008F4
:101FE400E31E8DF80780092B00F28680DFE803F0FA
:101FF4000A797D7584848484848110074CBF0D46DE
:102004000126EBE745214748444C04F019F88DF8C4
:102014000780E36A9A0705D54521434804F010F880
:10202400002432E0E36A002B02DA45213F48F5E759
:10203400E36A5B00F4D545213D4804F001F8636987
:10204400AA6943F480736361BFF34F8FBFF36F8F4B
:10205400636932F8022C23F480736361BFF34F8FFA
:10206400BFF36F8F4DF602739A4208D0A36ADBB2B6
:102074002BB301200DF10701FFF736FF2FE04521B7
:102084002A682C4803F0DCFF2C689DF807309BB9C4
:102094002022294602A804F07CF8099B002E38D09F
:1020A400C3F3080222B96FEA53236FEA4323099367
:1020B400204602A9FFF790FD0AB0BDE8F081A36AAB
:1020C40013F47F4F05D001200DF10701FFF7B2FE95
:1020D40005E0A36AB3F5803FA2D3FFF755FE04469B
:1020E400D3E700200DF10701C6E700200DF1070139
:1020F400ECE74521104891E7104917F4F87F104A9E
:10210400104808BF0A46A4F11003452103F098FFC4
:1021140086E723F4FF7323F00103C8E700ED00E032
:10212400BE780000EE7800000A79000030790000E3
:1021340043790000677900008879000090780000F6
:10214400A5780000B1790000044B5A6942F01002EE
:102154005A615A6942F480625A61704700ED00E0A6
:10216400EFF30880EFF3098101B57246FFF71AFF18
:1021740001BD00BF002320210348C2180133412BB5
:1021840082F80013F9D1704700E100E0002080F3E9
:102194001488BFF36F8F002080F30A8880F30B88C4
:1021A400FFF79AFC00200E490860BFF34F8F0D48DB
:1021B40080F3088800F03EF8202080F311880A4854
:1021C4004FF40061401880F30988EFF31480022172
:1021D400084380F31488BFF36F8FFFF761FD00009D
:1021E40094ED00E0F03F0020F00F0020BFF34F8F8C
:1021F4000549064BCA6802F4E0621343CB60BFF39F
:102204004F8F00BFFDE700BF00ED00E00400FA05BA
:10221400002318460649D1F89020C2F307229342BE
:1022240000DB7047C1F89830C1F8A0000133F6E72D
:1022340000ED00E010B572B6002484F31388FFF7B4
:10224400E7FF23464FF0FF300C4A03F1200101332E
:10225400102B42F82100F8D100234FF0FF30074A39
:1022640003F160010133102B42F82100F8D162B66A
:10227400BFF34F8FBFF36F8F10BD00BF00E100E0CD
:10228400014B1860704700BF10000020084B70B568
:10229400C31A0D4607499B10044659434022064879
:1022A40003F0AAFF2B4601462046BDE870401847BC
:1022B4004C0E0020B76DDBB698690000402373B55F
:1022C4000B4C0093041B0B460D460A49A4106143B2
:1022D4000646094A094803F0BBFF011E05DA3046E9
:1022E4002B4602B0BDE87040184702B070BD00BF75
:1022F4004C0E0020B76DDBB6C56200009869000083
:1023040010B54FF02003EFF3118483F31288BFF369
:102314006F8F074A136823F00201DB07116002D4B0
:10232400012004F0B8FA84F31188BFF36F8F10BD55
:102334009C0E002070B50022012104460520FFF701
:1023440095FC0F4801F008F90E4B984215D104F0A2
:1023540054FA26690C49304603F0E8FD00280BDBEB
:10236400012535642469084904F11C0003F0DEFDED
:10237400002801DB0020E56470BD6FF00400FBE77A
:10238400C52300000000AD0B746D000001460C2352
:10239400002270B54B430848C4184033D4E90E56A4
:1023A4001844A26303F015FF2DB132462B46BDE855
:1023B40070400248184770BD4C0E00209869000018
:1023C40010B1012804D07047034B1B6C5B0701D18B
:1023D400FFF7DCBF704700BF4C0E002008B54FF07C
:1023E4002003EFF3118183F31288BFF36F8F124A36
:1023F400136843F002001060DA0708D481F31188EF
:10240400BFF36F8FBDE80840012004F004BA4FF019
:102414005023D3F80C24D3F80C34D307EED5074853
:1024240003F0D7FE81F31188BFF36F8FBDE8084036
:102434000020FFF7ABBF00BF9C0E00208C0E0020D5
:102444002DE9F843012207463449D1E8EF3FC1E8BA
:10245400E02F0028F9D133B9314932484B60CB60C1
:102464008A6003F076FD7B1E012B2DD8012F07D146
:102474004FF05023D3F81C3403F00303022B23D072
:1024840004F024FA054608BB274B1B78F3B14FF040
:10249400502302220646C3F808234FF050244FF07D
:1024A4000008DFF88890D4F81834D4F81824D2033C
:1024B40016D503F00303022B01D0012F10D13DB335
:1024C40086F31188BFF36F8FBDE8F8834FF02003C4
:1024D400EFF3118683F31288BFF36F8F0125DCE7D6
:1024E4003046FFF76DFBD4F81835DBB2012BDAD197
:1024F400D4F80421002AD6D0C4F80481D4F80421E5
:102504000222C4F818252022C9F88021A360CAE752
:102514004FF050230222C3F80423D5E7480E0020CD
:10252400380E0020680E0020E90F002000E100E0D2
:1025340008B5074804F0BBF938B10648FFF7A0FE18
:102544000448FEF755FF002008BD6FF01200FBE7BA
:10255400E06900005D2500000A2838B50446074DEF
:1025640004D1AB680D2128465B689847AB680348E3
:102574005B68E1B29847204638BD00BFE0690000BF
:1025840030B5406801F01F04057BB2F5001F85B02B
:1025940044EA451405D1204601F074FA002005B040
:1025A40030BD0025B2F5800FCDE9025514D1B3F149
:1025B400007F0CBF042305238DF808300023204638
:1025C400194602AA01F094F81C4B984233D1012118
:1025D400204601F013FAE1E7B3F1C06F20D0B3F164
:1025E400007F14BF012302238DF808308368CB4099
:1025F400D907E3D4B2F1A07FE0D1114A04F01F035C
:10260400803352F82330DB07D8D40DF1070529466F
:10261400204601F09FF90B4B984203D00395CDE778
:102624000323E1E7284601F0E3F9044B9842F5D08F
:102634006FF00B00B3E76FF01500B0E70000AD0BCF
:10264400002584500400AD0B10B501F0C1F9044617
:1026540068B901F095F9084B98420AD12146074818
:1026640001F072F9224605210D20FFF7FFFA002040
:1026740010BD6FF00400FBE70000AD0B85260000E1
:10268400430970B507D10B4B596821B101250C687A
:10269400094E854001B970BD8A682A4002D030468F
:1026A4004B6898471CB1236821461C46F2E7234631
:1026B400FAE700BFA00E0020B06900002DE9FF4139
:1026C400476801F01F053B7B144645EA43150E4657
:1026D40028460DF1030101F03DF914F4403F804612
:1026E4000BD1284601F0F6F93C4B984503D19DF8EF
:1026F400030001F077F900200CE000232846194676
:1027040002AACDE9023300F0F3FF344B984204D01F
:102714006FF0150004B0BDE8F081804503D19DF849
:10272400030001F05FF9A30349D540F206332340C7
:10273400B3F5837F19D00CD8062B17D004D8ABB1CE
:10274400022BE5D1042311E0B3F5807FE0D101230E
:102754000CE040F20222934226D0B3F5407F25D00C
:10276400B3F5007FD4D1022300E007238DF80430B1
:1027740084F48033C3F30043E0068DF805304CBF86
:102784000323C4F3401321038DF8063010D501232D
:102794007A68B34093600022284601A901F054F8F6
:1027A4000E4B9842A7D0B3E70523DFE70323DDE709
:1027B400620341BF01237A68B340D360EBE7E306C9
:1027C4004FF000034CBF0324C4F340141A462846B8
:1027D40001A98DF8044000F08BFFE1E70000AD0B88
:1027E400024B0B6001231360704700BFAC0E002046
:1027F40000487047FC6D000010B504F054F8034C19
:10280400206004F04DF86060002010BDAC0E002084
:10281400F8B50E46144604F043F821460546304602
:1028240003F0ABFD374600B3B6FBF5F305FB1363CA
:1028340023B9B4FBF5F305FB134343B123463246F6
:1028440045210C4803F0FCFB6FF0150002E0A542A3
:1028540001D90020F8BD04F023F80546384601F0FC
:102864001BFA641B2F44F9D1F3E723463246452172
:102874000148E7E7FA7900001E7A0000F8B50E4631
:102884001946304617461D4603F077FD40B92B46DE
:1028940032464521114803F0D3FB6FF01500F8BD13
:1028A40046EA050414F0030404D02B4632464521BD
:1028B4000B48F0E74DB12B19032BA6EB040006D807
:1028C400084AD2F80034DB07FBD50020E7E73B1BBE
:1028D400196801F0FFF9043CEDE700BF1E7A00001F
:1028E400407A00000090035070B50D461946284602
:1028F40016461C4603F041FD40B9084823462A46C3
:10290400452103F09DFB6FF0150070BD24B12246F4
:102914002946304603F03DFC0020F6E71E7A00000D
:10292400F8B504460D46076903F0D0FF90B92C4B67
:102934001B787BB16426606803F0B6FDE0B9012022
:1029440003F0FFFE013EF6D1F4E786F31188BFF3EE
:102954006F8FEFE74FF02003EFF3118683F31288B4
:10296400BFF36F8F6068314603F09EFD90B986F324
:102974001188BFF36F8FEDE74FF02003EFF311865B
:1029840083F31288BFF36F8F6068314603F08CFDC8
:102994000028DAD03B691D70626838691368C3F88F
:1029A40044050120C3F848050020C3F82001D3F8EA
:1029B4002051C3F858015268D3F85801D20608D5FB
:1029C400082062681268C2F800054FF48002C3F858
:1029D400042301229A6081F31188BFF36F8FF8BD3D
:1029E400E90F0020F0B54B79012B26D0032B21D120
:1029F40010258B79032B1DD1CE790EB1012E19D15F
:102A04000A7912B1022A15D10E220B684468B3F573
:102A1400164F276867D02DD8B3F5165F66D016D841
:102A2400B3F5966F64D00AD8B3F5967F63D0B3F547
:102A3400167F63D06FF0850054E00025D9E7B3F525
:102A4400166F5ED0B3F5965FF4D1384B3CE0B3F526
:102A5400E14F59D007D8B3F5615F57D0B3F5964F1E
:102A6400E8D1334B30E047F61224A342E2D14FF4CD
:102A7400000329E0B3F5613F4AD013D8B3F5963F7C
:102A840049D009D84DF6C024A34246D0B3F5614FCE
:102A9400D0D14FF46B0317E0B3F5E13FCAD14FF047
:102AA400EB7311E0B3F5612F3AD008D8214CA3425F
:102AB40039D0B3F5E12FBDD14FF0E86304E01E4CEB
:102AC400A342B7D14FF080530469C7F82435436853
:102AD40035431B682A43C3F86C25231D03C983E8C7
:102AE40003000020F0BD4FF41D03EDE7134BEBE7AB
:102AF4004FF49E23E8E74FF4A033E5E74FF41C338B
:102B0400E2E74FF41D23DFE70D4BDDE70D4BDBE779
:102B14004FF06C73D8E70C4BD6E74FF46503D3E75B
:102B24004FF07063D0E74FF08063CDE700B013003F
:102B340000A04E0090D0030040420F000050270038
:102B440000C0750000F03A0000903A012DE9F74307
:102B54000021476806693C688046C4F80015306067
:102B6400D7F80C9001AA484603F011FD051E1EDBA0
:102B7400019BD9F800201979186800F051FA051E54
:102B840015DB4046311DFFF72DFF054678B97B68FC
:102B940099071DD506F1180000F022FD204B98423C
:102BA40009D045211F4803F04BFA6FF0040528466D
:102BB40003B0BDE8F083337E43F00043C4F8A03192
:102BC400C4F88C300123327E9340174AC2F804358E
:102BD4000823C4F800353B7A53B9C4F81031D4F84B
:102BE40010317369C4F834350123C4F838352360CF
:102BF4007B689A075CBF4FF48073C4F804337B6826
:102C0400DB0644BF4FF48003C4F804333369C4F8CB
:102C140044350023C4F848350123A360E360C6E7C4
:102C24000000AD0B847A0000007001500123834042
:102C340070B5DC430B4AD2E8EF1F01EA0405C2E891
:102C4400E65F002EF7D14FF4803282400648C0F888
:102C54000823BFF35F8FBFF36F8F0B4214BF0120B4
:102C6400002070BDB80E00200050015070B40E4911
:102C740022F07F46D1E90034D01AC31844F100048D
:102C8400C1E90034A6F50013B3F5400F09D2074B90
:102C94001B681A0A1B069C19054B42F10005C3E97F
:102CA400004570BC01F042B938010020BC0E002080
:102CB40040010020D9B101230D4A8340D2E8EFCF6F
:102CC4004CEA030CC2E8E1CF0029F7D14FF480337A
:102CD400084A8340C2F80433074BD3E8AF3FC340EC
:102CE400DB0742BF4FF40012044BC3F800217047C6
:102CF400B80E002000500150B40E002000E100E0A6
:102D04000D4B1868010A0006BFF35F8F0B4BD3F815
:102D14000435181841F10001B3F5801F0AD2084B9D
:102D2400D3E90023904271EB030303D210F18070C6
:102D340041F10001704700BFBC0E0020005001505B
:102D4400400100202DE9F74F16461F460446FFF7C1
:102D54006DFF0090FFF7D4FFB04271EB070351D22F
:102D6400384B301A67EB0101984271F1000166D2C9
:102D7400354B03EB0413D3E902239F4208BF964269
:102D84004AD04FF48039314909FA04F9204626F033
:102D94007F4BC1F8489303F0EEFB4FF0030A58460B
:102DA40004F15005AD00ADB205F1502504F5A8734A
:102DB400DFF8A0C005F580350193019A20F07F4328
:102DC40041F82230C1F84493D1F80485A0EB0800FF
:102DD400033820F07F4060451ED9286868B1D1F8D7
:102DE4000485A8EB0B0020F07F40B0F5000F13D949
:102DF400204603F0C0FBDFF85CC00AEB08000AF1D0
:102E0400010ADAE70123124AA340D2E8EF0F18437C
:102E1400C2E8E10F0029F8D100250B490C982301E1
:102E240001EB0412C850C2E902670D9B53602046AF
:102E34000099FFF73FFF284603B0BDE8F08F6FF01D
:102E44001505F4E70100800028010020005001501E
:102E5400B40E0020FDFF7F0073B500244FF0FF3057
:102E64004FF0FF31164D174BC5F80845C3E9020171
:102E74004FF4803302264FF40012C5F80433124B8A
:102E84000121C5F804631520C3F880212246FEF70A
:102E9400EDFE1520FEF7CEFE01230C4AAB602B603D
:102EA40013600B4B0B4A0093204600230194FFF759
:102EB40049FF3046FFF7C4FA204602B070BD00BF98
:102EC400005001502801002000E100E0B80E00206D
:102ED400712C0000FFFF7F002DE9F7432E4BD3F840
:102EE400042390070BD5D3F8042142B10022C3F880
:102EF40004212A4AD3F80431136801331360264AA3
:102F0400D2F80433D90327D5254BD3E8EF1F21F09A
:102F14000100C3E8E40F002CF7D1CB0702D4D2F8A8
:102F24004031CBB100251C4CC4F84051D4F8403199
:102F3400FFF7E6FE4FF02003EFF3118283F31288CC
:102F4400BFF36F8F174BD3E90267B042B94106D282
:102F540082F31188BFF36F8F03B0BDE8F0834FF0A5
:102F6400FF38D3E900104FF0FF391D60C3E902892F
:102F74004FF48033C4F84833C4F84051D4F8403196
:102F840082F31188BFF36F8F0029E5D00090324699
:102F94003B4628468847DFE700500150BC0E00201E
:102FA400B40E002028010020431C13B521D00128B1
:102FB40021DD124A124B9042D4BF04461C46FFF74F
:102FC4009FFE104B0E49D3E90023801AB0F5000F81
:102FD40028BF002404448C4228BF0C4600200A4920
:102FE400A2180190009143F10003FFF7ABFE02B079
:102FF40010BD034CE3E70124E1E700BFFEFF7F00BF
:10300400FFFF7F0038010020712C000008B5FFF796
:1030140077FE024B1B68C01A08BD00BF38010020B0
:103024002DE9F04101273F4E00EB8101814202D19D
:103034000020BDE8F081056805F07F03C5F3432453
:103044007F2B4FEA154508BF4FF0FF33192D66D883
:10305400DFE805F00D161B1E212D1E656565653123
:1030640051656565656565656565545C5F62C2F853
:103074000C3503F01F0507FA05F5B560012502E0DC
:10308400C2F814350025AC461CE0C2F80835F0E758
:10309400C2F81035F6E70025C2F8083503F01F0C16
:1030A40007FA0CFCC6F80CC04FF0010C0AE0C2F899
:1030B4000C350125F2E7C2F80835002CE2D10025D1
:1030C4000624AC4650F804EB24020EF40058B8F180
:1030D400000F1CBF4FF0000C0125CEF3C11E44EAC3
:1030E4008E0403F01F0344EA0C0444EA45048033CD
:1030F40046F823409AE7C2F80C35DEE7C2F860359B
:103104000568C5F38035002DD3D0B2E7C2F8643525
:10311400F6E7C2F86835F3E7C2F86C35F0E76FF00C
:10312400850086E70025845040EA0103C3F30E03BB
:1031340030B58BB940F21515094CC90BC0F3C73033
:10314400994201D1002030BDC218D2B202F5C0723A
:1031540044F822500133F3E76FF01500F3E700BFA2
:10316400003000500348452108B502F069FF0020F3
:10317400FFF73CF8CC7A000030B5816885B010398F
:1031840021F00704054602F0B0FF1022014668460C
:1031940003F00AF810226846064902F0FAFF1023E9
:1031A4006A462146284602F06EFF003818BF012007
:1031B40005B030BD2070000030B50D46816887B081
:1031C400102302AA1039044602F048FF002802DA4C
:1031D400012007B030BD1022204602A903F009FAED
:1031E40000283AD110221E4902A802F0C2FF00288A
:1031F4000CBF012302232B70204603F0E6F90123C0
:1032040001460DF10702204602F028FF0028DFDB0B
:103214009DF80730204603F00F021B096A702B71DA
:1032240001220DF1070103F0E4F910B96B78042BC6
:1032340003D901236B7000232B71A2682046183A2E
:1032440022F00702083AA91C03F0E6F90028BFD1CE
:103254002046E91C03F039FABBE70323CBE700BFA0
:10326400207000007FB505466946032003F033FA59
:10327400044610B1FF2004B070BD092002A903F078
:103284002AFA012836D12A464921284802F0D8FED4
:10329400274B8DF80C40029300229DF800509DF8B6
:1032A4000860244C2946207803F095F948B3314648
:1032B400607803F090F920B3A378042B03D09DF831
:1032C400031099421DD1E378042B03D09DF80B1011
:1032D400994216D12379042B0FD16379022B1BD188
:1032E400154A1648492102F0ABFE6079831E022B71
:1032F400C1D9BFE70028CFD0BCE79DF8021099429E
:10330400EBD00132032A04F10604CBD10C48492145
:1033140002F096FE0120AEE7032B05D0094A0A49C4
:10332400042B08BF0A46DCE7084ADAE7117B0000F1
:1033340003010303847B0000F37A00005C7B00003C
:103344006F7B0000F87A00000A7B0000EE7A000030
:1033540008B54FF47F03D3F83021D3F83431BFF3E9
:103364004F8F092A01BF4FF050230022C3F81421C4
:10337400C3F8182103F0D4F928B10122524BC3F841
:10338400382AC3F878254FF47F03D3F83021D3F8D3
:103394003431BFF34F8F092A05D1012B1EBF0122FF
:1033A400494BC3F8782503F0BBF918B10E22474BFB
:1033B400C3F8E42E4FF47F03D3F83021D3F834312B
:1033C400BFF34F8F092A06D100223F4BC3F80C27C5
:1033D4000122C3F810270022D30003F57F03D3F89A
:1033E4000013BFF34F8F013108D0D3F8001301321B
:1033F400D3F80433B2F5807F0B60EDD1344BDA6936
:10340400BFF34F8FD10745D5BFF34F8F314BD3F85F
:103414000024012AFBD1C3F80425D3F80024012A8F
:10342400FBD12B4BDA69BFF34F8FD2070AD5DA6988
:1034340022F00102DA61BFF34F8F264AD2F800343A
:10344400012BFBD1224A136ABFF34F8F01330CD1F6
:10345400136A23F0FF0343F020031362BFF34F8F7B
:103464001C4AD2F80034012BFBD10022194BC3F8BB
:103474000425D3F80024012AFBD1BFF34F8F16494A
:10348400164BCA6802F4E0621343CB60BFF34F8F5C
:1034940000BFFDE71B6ABFF34F8F0133B4D00E4B5F
:1034A400D3F88C2042F44062C3F88C20D3F88820EF
:1034B40042F47002C3F88820BFF34F8FBFF36F8FBD
:1034C400074B084A1A6008BD0040005000A0035092
:1034D4000080FF000090035000ED00E00400FA05B6
:1034E4004C0000200090D00370B501250268B2FAA8
:1034F40082F3C3F11F03DBB205FA03F422EA0404E6
:10350400D0E8EF6F964204D1C0E8EC4FBCF1000F55
:10351400F6D1EBD101480B7070BD00BF0000AD0BBC
:1035240010B50368CB40DB0710D401238B4002683D
:1035340043EA0201D0E8EF4F944204D1C0E8EC1F03
:10354400BCF1000FF6D1F2D1014810BD0148FCE7EF
:103554000000AD0B0400AD0B044B1A7922B9012213
:1035640018601A710248704702487047C00E002064
:103574000000AD0B0C00AD0B4FF0502310B5D3F889
:10358400002152B10020C3F80001D3F80021012228
:10359400C3F80823114B1B6898474FF05023D3F806
:1035A40004218AB10022C3F80421D3F80421D3F8FA
:1035B4001824D3F8181402F00302012A4FF0020170
:1035C40003D1C3F818159A6010BDC3F80813034B50
:1035D4000120BDE810401B68184700BFC00E002042
:1035E40001460148FFF780BF50000020064A00F062
:1035F4001F0002EB8002D2F8003223F4403343EA86
:103604000143C2F80032704700258450034B083050
:1036140033F81000C0F34010704700BF540000207E
:1036240070B50D4C00F1080334F813300546DA0583
:103634000E4607D5C3F3432304EBC302526854F880
:1036440033309847A3682BB131462846E268BDE879
:103654007040184770BD00BF5400002010B4134AD6
:10366400083032F81030D9051CD5C3F3432123F4B4
:10367400F85322F81030002002F10E0434F8023F0F
:1036840013F4807F03D0C3F3432399420AD001305B
:103694002028F3D1002342F8313005485DF8044B6B
:1036A400FFF73EBF5DF8044B704700BF5400002095
:1036B400A800002038B50246FFF7A8FF0B4C02F122
:1036C400080560B1002134F815305B0B9B0003F151
:1036D400A04303F55043C3F81015C3F81015104662
:1036E400FFF7BCFF002324F8153038BD5400002038
:1036F4002DE9F34104461D4609B34E4F00F1080875
:1037040037F81860B30706D5FFF780FF18B14A48A9
:1037140002B0BDE8F081494804F01F0300EB8300C8
:10372400D0F80032097823F00F0326F0020643EAAA
:10373400810346F00106C0F8003227F818609AB1F8
:103744003C4E04F1080736F81710137811F0020FF5
:1037540050680CD00028DAD136F8172022F01C0269
:1037640042EA830326F81730D5BB3548D0E721F069
:103774002001C904C90C26F817100028ECD0032B2B
:10378400C5D8526892F800C06246920002F1A04285
:1037940002F5504223B9C2F81035C2F81035DBE700
:1037A400D2F8100541EA4C3120F00300C2F81005AC
:1037B400D2F8100541F0200120F4473020F4407085
:1037C400C2F810052002D2F810E500F4F85040EADF
:1037D400034040EA0E00C2F8100526F81710BBE7B4
:1037E4002046D5E90067FFF739FF002EBDD0114D03
:1037F400D5E90023964201D19F4218D011480DF11A
:103804000701FFF771FE0E4B984281D19DF8072006
:1038140005EBC20308345F6035F8143045F83260B4
:1038240043EA422343F4807325F814309DE70022D1
:10383400EEE700BF540000200400AD0B00258450C7
:103844000000AD0BA8000020F8B5044679B33A4E49
:1038540000F1080736F81750AB0704D4FFF7D6FE7B
:1038640008B13648F8BD15F01C0F4B7822D104F08E
:103874001F00DFF8CCC000F1800E5CF82EC091F878
:1038840002E05B002CF4E16C097843EA8E032CF02F
:10389400070C43EA0C0343EA0123294943F00103DB
:1038A400803045F0030541F8203026F8175022B93E
:1038B4002448D7E7012BDAD1D3E71F4E04F10807D8
:1038C40036F817008307CCD592F800C00023614670
:1038D40020F02000890001F1A041C00401F550410D
:1038E400C00CC1F8103526F81700C1F8103555780A
:1038F400002DDDD0D1F81035927823F4981323F4F9
:10390400F853C1F81035D1F810E5230203F4F85345
:103914002D0443EA0E0305F4403512052B4302F44B
:10392400801240EA4C30134340F02000C1F81035B7
:1039340026F81700BCE700BF540000200400AD0BBC
:10394400002584500000AD0B014BC3E90201704710
:103954005400002008B50246FFF758FE38B1054B65
:10396400083233F8123004485B0B0B7008BD03486F
:10397400FCE700BF540000200000AD0B0400AD0BB9
:1039840038B50F4C94F85850BDB94022294604F17B
:10399400100002F009FC0D20FEF74CF9094B0A480F
:1039A400C3F87C51D3F87C214FF00042C3F80423C0
:1039B400012384F85830636538BD0448FCE700BF30
:1039C4005400002000D000500000AD0B0500AD0BEA
:1039D400034B93F85800003818BF0120704700BF0C
:1039E4005400002001460148FFF79ABDA4000020BE
:1039F40001460148FFF778BDA4000020024610B537
:103A0400FFF704FE1C4B02F1080433F81430E0B154
:103A140013F0020419D15B0B9A0002F1A04000F5E7
:103A2400514002F1A042046002F550420068D2F80D
:103A3400100540F00100C2F8100529B1012202FA74
:103A440003F30E4AC2F8043310BDC3F38203042BFC
:103A54000ED0052B0ED00A4B196902F01F03D94072
:103A640001F0010102311046BDE81040FFF7BEBD70
:103A74000321F8E70221F6E75400002000D00050AB
:103A84000025845008B50246FFF7C0FDC0B10F4BB6
:103A940002F1080133F81130990711D401225B0BAC
:103AA4009A400B499B0003F1A043C1F8082303F596
:103AB4005043D3F8102522F00302C3F8102508BDA3
:103AC4000021BDE808401046FFF790BD54000020D7
:103AD40000D0005010B50C4B00F1080233F812303E
:103AE4000446DB070DD5FFF7CDFF2046FFF7E2FDC7
:103AF4000222064B04F01F048034054843F82420B6
:103B040010BD0448FCE700BF540000200025845089
:103B14000000AD0B0400AD0B2DE9F04F0025012290
:103B24002C464D4B4D484E4985B01E6836B1D0F8F1
:103B3400046316421EBF1C601E68154304338B4287
:103B44004FEA4202F1D1454FD7F87C3193B1454E4B
:103B5400336A039333624FF0010A0DF10C090398A1
:103B640070B9C7F87C01D7F87C31336A03933362A8
:103B7400002BF0D10124002D56D105B0BDE8F08F03
:103B840090FAA0FBBBFA8BFB374A0BF108034FEA10
:103B9400DB0C32F813100BF0070419F80C300AFA96
:103BA40004F423EA040309F80C3006EB8B03D3F87E
:103BB4000042C1F38202C9069046C4F3014418D5F9
:103BC400114658460193FFF72BFD019BE4B2D3F84D
:103BD4000032C3F301439C4207D100215846FFF74A
:103BE40005FD21465846FFF701FD0AFA0BF0306245
:103BF400B5E7022C0CD103215846FFF7F7FC08F077
:103C04000503012BF1D141465846FFF709FDECE7C6
:103C1400022158460192FFF7E9FC019A032AF2D0E7
:103C2400032CE2D18A42EDE795FAA5F3B3FA83F3C4
:103C340004FA03F29B0003F1A04303F55043D3F8C5
:103C44001005D3F81015C0F30420C1F3014125EA8F
:103C54000205FFF7E5FC8EE700D1005000D00050CC
:103C640020D1005000258450540000200022034B32
:103C7400C3F88425C3F80425704700BF009003509F
:103C8400044AD2F80834DB07FBD50160BFF35F8F29
:103C9400704700BF0090035008B5C0F30B0383B90D
:103CA4000222094BC3F88425C3F804254FF0FF32E0
:103CB4000260D3F80024D207FBD5FFF7D7FF0348EF
:103CC40008BD0348FCE700BF009003500000AD0BA3
:103CD4000A00AD0B012208B5054BC3F88425C3F8CF
:103CE4000425FFF7CDFFBDE80840FFF7BFBF00BFC5
:103CF4000090035073B504460D464FF02003EFF3D4
:103D0400118683F31288BFF36F8F0022042896BFB5
:103D1400114B124B53F820300092452102461048B3
:103D240002F08EF93DB1EB69C3F308031BB14521E1
:103D34000C4802F085F900220B4B45210B4802F098
:103D44007FF929462046FFF70DFA86F31188BFF361
:103D54006F8F02B070BD00BF806E0000C07B00009A
:103D6400CE7B0000FB7B0000217C0000297C00004E
:103D74000F4B70B553F82040013053F82060A64231
:103D840000D870BDD4E90035284698476DB138B1E4
:103D94000028B8BF4042FF28A8BFFF20EB68187076
:103DA400EA68537843F0010353700834E7E700BF2F
:103DB400946E0000012208B5084B03201A70FFF727
:103DC400D7FF00F00FF90420FFF7D2FFFCF720FB28
:103DD400034A137B23F00103137308BDE90F00208A
:103DE4004801002008B50348034A0021121A02F0D2
:103DF40069FD08BD28010020EC0F002008B5002053
:103E0400FFF7B6FF164B03F5006282F3088883F3CD
:103E14000A880025E023134C84F82230E5772576C0
:103E24006576A57684F82050636A43F4E0236362E0
:103E340084F82350FEF788F9FDF7AEFE4FF0FF3308
:103E4400A362E36202F032FD0120FFF791FF02203A
:103E5400FFF78EFF2B462A4629460348FDF75EFFEF
:103E6400F00F002000ED00E0B93D000008B5064861
:103E7400064A0749121A02F027FDBDE80840054A20
:103E84000549064802F020BD000000202201002060
:103E9400C47C000000000000C47C0000000000207E
:103EA400034B1B680BB9FFF7B1B80020704700BF84
:103EB400C80E002010B50E4B1C689C4204D1FFF7BD
:103EC400EFFF6FF0004010BDFFF7EAFF002CF8D0C1
:103ED400D4E904321B1A62EBE072B3F1004F72F1C1
:103EE4000001EEDA002AACBF18460020EBE700BF61
:103EF400B000002030B570B10B4B5B6898420AD01B
:103F0400036843B1D3E90421D0E90445121941EB14
:103F14000501C3E90421D0E9003213605A6000238B
:103F2400C0E9003330BD00BFB00000202DE9F843E4
:103F340003464FF02002EFF3118482F31288BFF39B
:103F44006F8F254FDFF89490D9F80000DFF890C008
:103F540048453B604FEAE375DCE9001E0CD058B1DC
:103F6400D0E90486434575EB060217DAB8EB030281
:103F740066EB0506C0E9042659184EEB0505CCE9A5
:103F8400001500253D60FFF795FF2946FFF70CF863
:103F940084F31188BFF36F8FBDE8F88318EB010138
:103FA4004EEBE8730022CCE900130023C0E904239C
:103FB400FFF7A0FF84F31188BFF36F8F83689847DE
:103FC4004FF02003EFF3118483F31288BFF36F8F54
:103FD4003B68A3EB0803B7E7C80E0020B00000203D
:103FE400C8010020014801F043BF00BF937C0000DA
:103FF40010B50A4C23681BB101230020236010BDB7
:1040040000F050F80028F7D00138062803D8044BF4
:1040140053F8200010BD034810BD00BFCC0E002093
:10402400AC6E0000FE8FFFFFBFF34F8F0549064BB8
:10403400CA6802F4E0621343CB60BFF34F8F00BF42
:10404400FDE700BF00ED00E00400FA0530B44FF0D6
:10405400FE320025074B084C08494968C3F8002480
:10406400C3F80424C3F80824C3F80C24C4F8005586
:1040740030BC08470010845000008450B800002071
:10408400024BD0E90012C3E900127047B8000020C7
:1040940038B131B1002201440346013088421A701C
:1040A400FAD1704738B500F02FF820B1032400F09E
:1040B40063F8204638BD00F031F898B900F0ACF848
:1040C40098B90F4DD5F828391B0EF02B08D1D5F827
:1040D400242A0C4B9A420AD0072400F017F8E6E78A
:1040E4000624FAE70424204638BD0024F5E701201D
:1040F40000F092F804460028F7D1C5F80C0AD8E776
:10410400001084500000E020002070470020704719
:10411400014BC3F8040A70470010845010B51148CD
:1041240000F048F800B110BD0F4800F043F8002833
:10413400F9D10E4C204600F03DF80028F3D10C4B89
:104144000C481C6000F036F801460028EBD100F062
:104154002DF8044608B1204610BD00F03FF8204673
:10416400FAE700BFCC000020C0000020C8000020F7
:10417400D0000020C400002008B5084800F024F84E
:10418400074800F021F8074800F01EF8064800F040
:104194001BF8BDE8084000F00BB800BFCC000020BD
:1041A400C0000020C8000020C40000200020704788
:1041B400704700BF08B5034B02681B681068984736
:1041C400002008BDDC00002008B5034B02685B68D2
:1041D40010689847002008BDDC00002070B5094C29
:1041E400094D2069AB68984718B1084B08485B68CB
:1041F40098470021074AEB6811602069BDE87040C8
:10420400184700BFEC000020DC000020B8000020AC
:10421400C86E0000D00E0020F8B51A4D1A4E0446A0
:10422400B26828699047E8B9184F3B684CB1A3B10C
:10423400012B19D0013B3B602869F36898470020A3
:10424400F8BD43B90121124AC2F800151149D1F849
:104254001029002AFBD101333B60F3682869984791
:104264000020F8BD0C48F8BD0A4AD2F81039002BDA
:10427400FBD1074A6FF07E40C2F80035FFF748FFD4
:104284003B68D7E7EC000020DC000020D00E0020C3
:104294000000845000108450E98FFFFF10B50446DD
:1042A40050B1636813F0685F05D0064A934202D0A8
:1042B40000236260236010BD034B04485B68984789
:1042C400EFE700BF2C5F5CA9B8000020E86E000097
:1042D400C8B143680D4A934213D013F0685F0ED0FF
:1042E400012350E8002F194640E8001C9CF0000F01
:1042F400F7D1012AF5D0BFF35F8F0020704704483F
:104304007047044870476FF4E04070472C5F5CA925
:10431400E98FFFFFEA8FFFFF034680B14268094936
:104324008A420AD012F0685F05D0BFF35F8F002283
:1043340010461A60704704487047044870476FF489
:10434400E04070472C5F5CA9E98FFFFFEA8FFFFF15
:1043540010B5044620B10023034A2360626010BDF7
:104364000248FFF773FEF6E73A00003A106F0000C8
:1043740030B10268034B04489A4208BF00207047DA
:1043840002487047DD55AABB8208F0007108F000AE
:1043940038B50D460446B0B1A0220021043002F025
:1043A400B9FA95B10822294604F1640002F0B8FA7A
:1043B400082205F1200104F1840002F0B1FA002082
:1043C400034B236038BD0348FCE70348FAE700BF0A
:1043D400DD55AABB7108F0008308F0002DE9F7430E
:1043E40005460E4699461146FFF7C2FF04460028CB
:1043F40040F08480002E00F08580002900F0848045
:10440400B9F1200F40F0828005F14404082205F13F
:104414000408204602F084FA05F1240708223146F4
:10442400404602F07DFA06F120010822384602F0E7
:1044340077FA02A941F8049D4FF4807002F064FAFF
:10444400002865D14FF48073324A012113609360D0
:104454000823314A00F034FB0121052308462F4A82
:1044640000F02EFB0823424601211C2000F028FB0B
:1044740008233A460121032000F022FB22460823A8
:104484000121022000F01CFB0823254A01211A20E7
:1044940000F016FB0523234A01211B2000F010FB2A
:1044A4000823214A0121142000F00AFB08231F4A93
:1044B4000121152000F004FB082305F16402012109
:1044C400162000F0FDFA082305F1840201211720CB
:1044D40000F0F6FA0823164A01210B2000F0F0FA46
:1044E40000F04AFB0446019800F0D8FA114B002C66
:1044F40018BF1C46A421284602F00EFA204603B039
:10450400BDE8F0830C4CF9E70C4CF7E70C4CF5E7ED
:10451400084CEFE790108450746F0000EC6F0000BB
:10452400346F0000D86F0000986F0000B86F00006F
:10453400546F00008408F0007608F0008008F00052
:104544008108F000C2690C4B1A60826943F8042C9C
:10455400426943F8082C026943F80C2CC26843F8FA
:10456400102C826843F8142C426843F8182C026813
:1045740043F81C2C704700BF5C1684500C4B1B681E
:10458400C3610C4B1B6883610B4B1B6843610B4B72
:104594001B6803610A4B1B68C3600A4B1B6883607A
:1045A400094B1B684360094B1B680360704700BFDD
:1045B4005C168450581684505416845050168450F7
:1045C4004C16845048168450441684504016845027
:1045D40030B10268034B04489A4208BF0020704778
:1045E40002487047DD55AABB0202F0000002F00049
:1045F40038B5044668B1051D7021284602F08CF9CF
:1046040028462022044902F083F90020034B23604A
:1046140038BD0348FCE700BF00700000DD55AABBAD
:104624000002F0002DE9F04385B015466F46274B94
:1046340004460E460FCB87E80F002DB94FF0000952
:10464400484605B0BDE8F0832046FFF7C1FF814628
:104654000028F5D1231D0193636AA3BB236F8BB19B
:10466400C3F14008A84528BFA84604F130003146EC
:104674001844424602F04CF9236F464443442367EE
:10468400A5EB0805226F402A06D104F13001384613
:1046940000F0B4FB0023236705F03F0835F03F0525
:1046A40005D031462A46384600F0A8FB2E44B8F11E
:1046B400000FC3D04246314604F1300002F028F91D
:1046C400C4F87080BCE7DFF80890B9E7A06C00007C
:1046D4000C02F0002DE9FF4104466F46134B0E46D1
:1046E4000FCB87E80F002046FFF772FF8046B0B972
:1046F400CEB1636A251D01953BB90123226F636224
:1047040004F13001384600F079FB2B46043E243492
:1047140053F8042B12BAA34246F8042FF8D14046AA
:1047240004B0BDE8F081DFF80880F8E7A06C000071
:104734000502F000084B1B681B0EF02B08D1074B39
:104744001A68074B9A4205D10020064B186070473F
:10475400052070470620704728198450241A845075
:104764000000E0200C1A8450002230B5134640F6B5
:10477400FC754900023802F1A15404F582349042D8
:104784004FEA840402F10102CABF236025605B186A
:104794001E2AF0D1034A13600B445360024B034AB0
:1047A4001A6030BD781084508410845020F80F00B3
:1047B4001E4B30B51A4685B0196800910099CC0794
:1047C400FAD500F1A15000F5823080000168136829
:1047D4000193019BD807FAD5154B164C1868202372
:1047E4001F3090FBF3F0144D0138002810DA002339
:1047F4000130400153B14FF00042A0F120011342B7
:1048040004D1013888424FEA5202F8D105B030BDD4
:1048140013680393039BDB07FAD5431823602B68C3
:104824000293029B002BE3D10138DEE7B4108450DD
:10483400AC108450E4108450DC108450F0B51D6832
:1048440085B001F01F040DB91F2C28D1174D2E4639
:104854002F680197019FFF07FAD500F1A15000F5D9
:1048640082308000006835680395039DED07FAD512
:104874001F2C00EB611018BFC9430D4D18BF01F088
:104884001F0128600B480068029002981CBF00FAC0
:1048940001F111604FF0000108BF10601960106849
:1048A4004300C00F136005B0F0BD00BFB4108450C6
:1048B400E4108450DC1084500C4B890118603F30A4
:1048C40020F03F004030586099600948D960196170
:1048D400596199611C3382B0196002680192019A8E
:1048E400D207FAD5196002B0704700BF9010845007
:1048F400B410845038B5A0F12003B3F5426F0546D7
:104904002CD88F2826D800F1470300F16604DB0673
:104914004FEA541400D0013464013F34A409013433
:1049240011B1A1421AD30C464FF48050E300B0FBFE
:10493400F3F0202828BF202002B110600122084B88
:1049440021461A60FFF710FF28462146FFF7B4FFFF
:10495400002038BD00F11F046409DDE70148F8E7D1
:104964001C1884502221F000464BF0B51D4689B036
:104974001C680194019CE407FAD5434B00241344BA
:104984009B001A680B181E2B88BFC0F11E011F3232
:104994000B1852095343B3F5806F84BF4FF4806101
:1049A400B1FBF2F1274688BF091ADFF8E4E000F111
:1049B400A150DFF8E0C000F58230A14233DC2B685F
:1049C4000493049BDB07FAD5304B1B6829680591D7
:1049D4000599CF07FAD52E4C2E49236000231E4695
:1049E400934203F1010040D11946002620F0010250
:1049F40028488A423CD8296806910699CE07FAD5F8
:104A040025490968286807900798C007FAD52160E6
:104A140000210C461F488B422DD100201D499A428B
:104A24002CD809B0F0BD2B680293029BDB07FAD5A2
:104A340003199B001B682E680396039EF607FAD59C
:104A4400CEF800300023934203F1010306D1164649
:104A540023F00103B34204D80134AEE7CCF800706C
:104A6400F1E7CCF800700136F4E70E600346B7E7CF
:104A740006600131BDE704600131CCE70860013311
:104A8400CDE700BFB4108450240421147C1084505A
:104A9400D4108450D81084507810845008B540B194
:104AA400202801464FF0070228BF20210020FFF7ED
:104AB4005BFF0022014B1A6008BD00BF1C18845024
:104AC400F0B5294D85B02C462E680096009EF60759
:104AD400FAD500F1A15000F5823080000568206805
:104AE40001900198C707FAD52048214F056002EBD1
:104AF4008306B24229D100275A1C1D4E22F001021E
:104B04009A4227D823680293029BDE07FAD5194BF1
:104B14000B449B001B681F335B099A4213D2216824
:104B240003910399C907FAD5002115440560084685
:104B34009B1A0F4A8B4210D800205A1C0C4922F0B1
:104B440001029A420CD805B0F0BD52F804CBC7F864
:104B540000C0CEE737600133D2E710600131E9E7E6
:104B640008600133EDE700BFB4108450D4108450C2
:104B7400D8108450240421142DE9F041814BA0B0B5
:104B84001D68986820331E461A680192019AD70757
:104B9400FAD57D4B7D4A1A6032680292029AD40794
:104BA400FAD57B4A1A607B4A14461168039103992B
:104BB400C907FAD5784A1168C1F3402137680497C8
:104BC400049FFF07FAD5754F1F6027680597059F57
:104BD400FF07FAD51768002900F0CF80B90540F126
:104BE400CC80316806910699CF07FAD56C491960D3
:104BF400216807910799C907FAD51168C1F34021C3
:104C040037680897089FFF07FAD5664F1F60276823
:104C14000997099FFF07FAD51268002900F0AF80B1
:104C2400910540F1AC8032680A920A9AD207FAD50B
:104C3400564A1A6032680B920B9AD707FAD55A4A29
:104C44001A6031680C910C99CC07FAD55749196050
:104C540031680D910D99C907FAD555491960316824
:104C64000E910E99CF07FAD55249196031680F9108
:104C74000F99CC07FAD550491960504B1E46196854
:104C840010911099C907FAD53F4C4D4B23603368F6
:104C94001193119BDB07FAD54A4B236033681293B7
:104CA400129BDF07FAD5484B23603A4B98461968A4
:104CB40013911399C907FAD5324F386033681493A6
:104CC400149BDB07FAD5226033681593159BD8072C
:104CD400FAD53E4B236033681693169BD907FAD551
:104CE4003B4B236033681793179BDA07FAD5394B8C
:104CF400236033681893189BDB07FAD5364B23607F
:104D040033681993199BD807FAD5344B2360336859
:104D14001A931A9BD907FAD5314B236033681B9336
:104D24001B9BDA07FAD52F4B236000F01DFC08BB50
:104D3400D8F800301C931C9BDB07F9D53D60336821
:104D44001D931D9BD907FAD5274B236033681E9307
:104D54001E9BDA07FAD5254B2360D8F800301F9341
:104D64001F9BDB07F9D50C4B1B6813F4805F204BAA
:104D740008BF184620B0BDE8F0811E48FAE71E4877
:104D8400F8E700BF90108450801084500010025146
:104D9400C01F7229B410845088108450C0CF0129D8
:104DA400C01F0E29C03F002940010249003184A8D8
:104DB40000001649400108A180440888B0108450BE
:104DC400C044708880077A41C0077E4100006A4968
:104DD4008006164940006E4900020021008220210D
:104DE400408220218082242140A161A100C8615118
:104DF4000308F1000108F1000208F100324B2DE92B
:104E0400F74F80469246994644681A68002AFCD1B6
:104E14002E4B9B461A68002AFCD14FF0FF300191BB
:104E240000F094FC802000F097FC01230720284A1E
:104E3400284DA2F59E722B60C2F83C011360636A90
:104E4400254F264E3B60A36A20463360D8F80030D5
:104E540042F8043CD8F8083098470199D9F8003052
:104E6400002BFBD1BAF1000F20D104221C4B1A6095
:104E7400D9F80030002BFBD1DBF800A0BAF1000F09
:104E8400FAD1D8F80C30204698473B6863623368FF
:104E9400A362144BC3F800A0C3F844A1D9F80030AE
:104EA400002BFBD12B6003B0BDE8F08F236A4020B8
:104EB400012B04BF0B4A13600B4B1960C3F804A009
:104EC40000F050FCD4E700BF10198450201C84501B
:104ED4000019845018188450CC178450D01784506B
:104EE400C817845084168450281C8450544B10B521
:104EF400194698B01A680192019AD207FAD5514B13
:104F0400514A1A600A680292029AD407FAD54F4AA3
:104F14001A600A680392039AD007FAD54C481860BD
:104F24000A680492049AD207FAD54A4A1A600A68AF
:104F34000592059AD407FAD5474A1A600A68069278
:104F4400069AD207FAD5454A1A600A680792079A60
:104F5400D407FAD5424A1A600A680892089AD20716
:104F6400FAD5404A1A600A680992099AD407FAD510
:104F74003D4A1A600A680A920A9AD207FAD53B4A4D
:104F84001A600A680B920B9AD407FAD5384A1A6049
:104F94000A680C920C9AD207FAD5364A1A600A6843
:104FA4000D920D9AD407FAD5334A1A600A680E9204
:104FB4000E9AD207FAD5314A1A600A680F920F9AEC
:104FC400D407FAD52E4A1A600A681092109AD207AA
:104FD400FAD52C4A1A601A4B19461C681194119C74
:104FE400E407FAD5174B1860086812901298C407A2
:104FF400FAD51A600A681392139AD007FAD5124A9E
:105004001A600A681492149AD207FAD51E4A1A60D2
:105014000A681592159AD407FAD51C4A1A600A68C8
:105024001692169AD007FAD5194A1A600A68179286
:10503400179AD207FAD5174A1A6018B010BD00BFE4
:10504400B010845080108450009365210004319086
:10505400409665900083612100C3302100C36490B1
:1050640000816190004610210081112100414421FA
:1050740000C320290C4610C80086312100C36021DA
:1050840040C1282940966521001331904096252976
:10509400594614C840043249494B10B5194694B0D6
:1050A4001A680092009AD207FAD5464B464A1A600B
:1050B4000A680192019AD407FAD5444A1A600A6828
:1050C4000292029AD007FAD5414818600A680392FE
:1050D400039AD207FAD53F4A1A600A680492049ADE
:1050E400D407FAD53C4A1A600A680592059AD20791
:1050F400FAD53A4A1A600A680692069AD407FAD58B
:10510400374A1A600A680792079AD207FAD5354ACD
:105114001A600A680892089AD407FAD5324A1A60C3
:105124000A680992099AD207FAD5304A1A600A68BD
:105134000A920A9AD407FAD52D4A1A600A680B9281
:105144000B9AD207FAD52B4A1A600A680C920C9A69
:10515400D407FAD5284A1A600A680D920D9AD20724
:10516400FAD5264A1A600A680E920E9AD407FAD51E
:10517400234A1A600A680F920F9AD207FAD5214A75
:105184001A600F4B19461C681094109CE407FAD55A
:105194000C4B1860086811901198C407FAD51A606E
:1051A4000A681292129AD007FAD5174A1A600A6846
:1051B4001392139AD207FAD5144A1A6014B010BD88
:1051C400B0108450801084508090652100040990B0
:1051D4004096659080806121802008218020649021
:1051E4000081619000461021008111210041442179
:1051F40080202029024610C80086092180206021D1
:10520400402128294096652140962529594614C8ED
:10521400504B10B51C4696B01A680192019AD207F9
:10522400FAD54D4B4D4A1A6022680292029AD2076F
:10523400FAD54B4A1A604B4A42EA804022680392EC
:10524400039AD207FAD5186022680492049AD00708
:10525400FAD5454A1A60A2F5800242EA81412268E1
:105264000592059AD207FAD5196022680692069A21
:10527400D007FAD53D4A1A6022680792079AD107E7
:10528400FAD53B4A1A6022680892089AD207FAD5DE
:10529400384A1A6022680992099AD007FAD5364A20
:1052A4001A6022680A920A9AD107FAD5334A1A6018
:1052B40022680B920B9AD207FAD5314A1A602268F7
:1052C4000C920C9AD007FAD52E4A1A6022680D92D5
:1052D4000D9AD107FAD52C4A1A6022680E920E9ABA
:1052E400D207FAD5294A1A6022680F920F9AD0077A
:1052F400FAD5274A1A60216810911099C907FAD57E
:105304001A60144B1A46196811911199C807FAD5F5
:10531400114B20491960116812911299C907FAD5E5
:105324001D491960116813911399CC07FAD50B49DB
:105334001960116814911499C807FAD517491960AE
:10534400116815911599C907FAD5154A1A6016B04E
:1053540010BD00BFB01084508010845040044190B0
:1053640000862929D81001C84014419040142129ED
:10537400401465210034409000310C90C0400C90E2
:10538400C030202940960D9000416090031645C816
:105394000086112100416021594644C840144590BB
:1053A40040142D90264870B5054688B004680094D2
:1053B400009CE607FAD5234C23480460234C44EAB6
:1053C40083432C680194019CE407FAD5036093019C
:1053D40043EA824242F0104444F4C0442B680293EE
:1053E400029BDE07FAD504602B680393039BDB075B
:1053F400FAD5174B03608B0143EA814141F0104316
:1054040043F4C0432E680496049EF607FAD503605D
:105414002B680593059BDE07FAD5046041F05841DB
:105424002B680693069BDC07FAD5016042F05842CC
:105434002B680793079BDB07FAD5026008B070BDA1
:10544400B0108450C02102298010845080710098CB
:1054540080611890354B8EB019461A680092009AF4
:10546400D207FAD5324B334A1A600A680192019A7C
:10547400D007FAD5304A1A600A680292029AD20713
:10548400FAD52E4A1A600A680392039AD007FAD50D
:105494002B4A1A600A680492049AD207FAD5294A58
:1054A4001A600A680592059AD007FAD5264A1A6046
:1054B4000A680692069AD207FAD5244A1A600A683C
:1054C4000792079AD007FAD5214A1A600A68089207
:1054D400089AD207FAD51F4A1A600A680992099AEB
:1054E400D007FAD51C4A1A600A680A920A9AD207A7
:1054F400FAD51A4A1A6008680B900B98C007FAD5B7
:105504001A600A680C920C9AD007FAD5144A1A60E9
:105514000A680D920D9AD207FAD5124A0E211A6022
:1055240000200D230F220EB0FFF73CBFB0108450B3
:1055340080108450804301294063392180700129FF
:105544008020542100D13490C0403490C0302029B0
:10555400C0530D9000413890832308C880E3102184
:1055640000413821CF4308C801232DE9F04192B00E
:10557400CDE90333624B1D461A680592059AD2079A
:10558400FAD5604B604C2360604B19461A6806924A
:10559400069AD707FAD55E4B1A68D60400F1A8809C
:1055A4002A680792079AD007FAD55A4A22600A68ED
:1055B4000892089AD207FAD51E68C6F30036002E60
:1055C40040F098801220FFF7F3F807461320FFF706
:1055D400EFF887428CBF12201320FFF7E9F8471E2B
:1055E400FFF738FF03AB01AA39461220FFF726F96B
:1055F40004AB804602AA39461320FFF71FF900EBDB
:105604004800022832D003283ED0012874D12B68E8
:105614000993099BDB07FAD53F4B23602B680A9358
:105624000A9BD807FAD53D4B23602B680F930F9B39
:10563400D907FAD53A4B23602B681093109BDA07ED
:10564400FAD5384B23602B681193119BDB07FAD5ED
:10565400354B2360013F25D5102319221821002042
:10566400FFF7A0FE304612B0BDE8F0812B680B9323
:105674000B9BD907FAD52D4B23602B680C930C9BFD
:10568400DA07FAD52A4BCFE72B680D930D9BDB077E
:10569400FAD5284B23602B680E930E9BD807FAD5B6
:1056A400254BC1E703AB01AA39461220FFF7C6F820
:1056B40004AB044602AA39461320FFF7BFF810EBE7
:1056C400440402D1FFF712FCC4E7FFF7E5FC022C07
:1056D40008D0032C09D0012C10D117211620FFF774
:1056E40097FDB7E715211420F9E70F210E20F6E7FF
:1056F400124EB7E7124EB5E7124EB3E7124EB1E7BA
:10570400B010845000084A5180108450B410845062
:105714008810845000084E5100065A4940065E49DC
:10572400000442410014424940042E4900065249F3
:105734004006564900063A4940063E490608F1002B
:105744000708F1000408F1000508F100014B186096
:10575400704700BF081A8450014B1860704700BF9F
:10576400041A8450034A13681842FCD0024A106099
:1057740018467047001A8450081A845029B1012928
:105784000CBF09206FF015007047032070470020FC
:10579400704770472DE9F7430E461746994604466D
:1057A40028B94FF0FF38404603B0BDE8F083002924
:1057B400F7D0002AF5D0CB680D8938461D44042360
:1057C40029460DEB030200F049FC80460028E8D18D
:1057D40046F60812BDF804107389914225D1BDF82C
:1057E40006109942DDD1042338460DEB0302294407
:1057F40000F034FC0028D4D146F60713BDF8042089
:105804009A42CED1C4E900679DF82830A4F80890E4
:10581400A3727389BDF806202B44E3607389134493
:105824002B44043563612561BDE7002BE4D0B8E760
:105834002DE9F3410E4617461D46044620B94FF0A4
:10584400FF3002B0BDE8F0810368002BF7D0436855
:10585400002BF4D04FF6FF78D4E904239A4216D2F1
:1058640023685B8923B1E368934204BF0433236153
:105874000423216960680DEB030200F0EFFB0028AC
:10588400DDD1A37A2BB1D4E903329A4201D30120AA
:10589400D7E72389BDF80610434501F1040203D07C
:1058A400BDF804C09C450BD115B1BDF804302B8064
:1058B4002369043333603980236913442361C0E7C7
:1058C400236913442361C7E773B50C4606461146A2
:1058D4000223204601AA00F03CFA0546E8B9019AE1
:1058E4001F2A0ED9A2F12001304620222368194430
:1058F40000F04FFC2368019A13442360284602B049
:1059040070BD0146C2F12002304600F04DFC019A00
:105914002168C2F120003044EAE76FF00205EDE7A8
:1059240000F027BC4FF4C0735843303070470B78F5
:10593400032B06D0092B14BF4FF0FF304FF4C07077
:1059440070474FF4C070704710B5044600F0C6FBB2
:105954004FF4C072A368303B02FB103010BD816865
:105964000122183921F00701083900F09DBE13B552
:105974000446019100F029FE0423A0F108010DEB77
:105984000302204600F064FE02B010BD70B5134659
:105994000E461546002102460446FBF7E5F950B9C8
:1059A4002B460121204604F12C02FBF7DDF910B14E
:1059B400002E08BF002070BD73B5044600200D46BC
:1059C4001646FFF7DBFE6946C0B2FCF787F830BB2A
:1059D4002C2303FB0544E368258900981D44042314
:1059E40029460DEB030200F039FBC0B946F6081353
:1059F400BDF8042064899A42009815D1BDF8063098
:105A04009C420CD1042361190DEB030200F026FB28
:105A140028B946F60713BDF804209A4207D0009827
:105A240000F01BFB02B070BD002CF2D0F7E7BDF80C
:105A34000610214429443160F1E737B58025044636
:105A4400426A01A903200195FCF770F858B9019B3B
:105A54000920226DA36201A90195FCF767F80546A8
:105A640028B1092500E00125284603B030BD019B7B
:105A7400206A636500F032FBE065F5E7012303600B
:105A840003F1012343600023C0E9023370474379E3
:105A9400012B07D10368012B04D10079431E58421E
:105AA40058417047002070477FB506460D460320D5
:105AB40001A9FCF713F838BB0198FFF745FFF16D16
:105AC4000446284600F0E6F80444019800F006FB7A
:105AD4000646019800F009FB082201460DEB02007E
