:020000040001F9
:1080000060480120D99B01005F750300AD9B010012
:10801000AD9B0100AD9B0100AD9B0100AD9B01003C
:10802000000000000000000000000000D1980100E6
:10803000AD9B01000000000071980100AD9B0100A4
:108040005599010055990100559901005599010074
:108050005599010055990100559901005599010064
:108060005599010055990100559901005599010054
:108070005599010055990100559901005599010044
:108080005599010055990100559901005599010034
:108090005599010055990100559901005599010024
:1080A0005599010055990100559901005599010014
:1080B0005599010055990100559901005599010004
:1080C00055990100559901005599010055990100F4
:1080D00055990100559901005599010055990100E4
:1080E00055990100559901005599010055990100D4
:1080F00055990100559901005599010055990100C4
:1081000055990100559901005599010055990100B3
:1081100055990100559901005599010055990100A3
:108120005599010055990100559901005599010093
:108130005599010055990100559901005599010083
:108140005599010053B94AB9002908BF00281CBF3E
:108150004FF0FF314FF0FF3000F00CB8ADF1080CDC
:108160006DE904CE00F008F8DDF804E0DDE9022353
:1081700004B07047704700BF2DE9F04786468C4633
:108180000846089E154674461946002B40F0C180EB
:108190008542B2FA82F245D94AB1C2F1200300FA0F
:1081A00002FC954094402EFA03F343EA0C0C4FEA8C
:1081B000154EA8B2230CBCFBFEF80EFB18CC08FB36
:1081C00000F943EA0C43994528D9EB1808F1FF3729
:1081D00004D2994502D9A8F102072B44A3EB090365
:1081E000A4B2B3FBFEFC0EFB1C330CFB00F044EA14
:1081F0000344A04214D92C190CF1FF3304D2A0423D
:1082000002D9ACF102032C44241A43EA07401EB100
:10821000D440002334607360BDE8F0874746DDE753
:108220006346F1E792BB431B01214FEA154EAFB203
:10823000200CB3FBFEFC0EFB1C330CFB07F840EAE2
:108240000343984561D9EB180CF1FF3004D29845EF
:1082500002D9ACF102002B44A3EB0803A4B2B3FB98
:10826000FEFC0EFB1C330CFB07F744EA0344A74259
:108270004DD92C190CF1FF3304D2A74202D9ACF12D
:1082800002032C44E41B43EA0040C0E7C2F1200390
:108290009540944020FA03F12EFA03F34FEA154E6D
:1082A0009040AFB20343B1FBFEFC0EFB1C10190C57
:1082B0000CFB07F841EA0041884522D969180CF106
:1082C000FF3004D2884502D9ACF102002944A1EB69
:1082D00008019BB2B1FBFEFC0EFB1C110CFB07F767
:1082E00043EA01439F420ED9EB180CF1FF3104D24F
:1082F0009F4202D9ACF102012B44DB1B41EA004151
:1083000093E76046E3E76146F7E76046A4E7634624
:10831000B8E7834206D916B9002108467CE7C6E9CA
:1083200000E0F9E7B3FA83F78FB9834201D37245CE
:1083300008D8BEEB020460EB030301209C461EB983
:10834000002169E73846FAE7C6E9004CF8E7C7F1CB
:10835000200CBB400EFA07F522FA0CF42EFA0CF1B1
:10836000BA401C4320FA0CF3B8404FEA14490143C9
:108370001FFA84FEB3FBF9F809FB18300B0C08FB5D
:108380000EFA43EA00439A4540D9E31808F1FF305A
:1083900004D29A4502D9A8F102002344A3EB0A03B0
:1083A00089B2B3FBF9F809FB183308FB0EFE41EA6A
:1083B00003418E452CD9611808F1FF3304D28E4554
:1083C00002D9A8F10203214443EA0040A1EB0E01C7
:1083D000A0FB02984145CE46434602D306D14D4507
:1083E00004D20138B9EB020E68EB0403002EA7D0CB
:1083F000B5EB0E0261EB030101FA0CFC22FA07F364
:10840000F9404CEA0303C6E9003199E74046C5E765
:108410004346D9E710F8012B11F8013B012A28BF88
:108420009A42F7D0D01A7047034613F8012B002A5E
:10843000FBD1181A0138704713B50446074801A943
:1084400083685B68984738B9012303FA04F0019BFD
:10845000184214BF0120002002B010BDD457040000
:1084600070B403460A46012406489C4006698568A4
:10847000316821EA040131602C681946234670BC3A
:10848000184700BFD457040008B54FF40031192035
:10849000FFF7E6FF4FF400311520FFF7E1FF4FF43F
:1084A00000311620FFF7DCFF4FF400311820FFF7F2
:1084B000D7FF4FF400311720FFF7D2FF004808BD67
:1084C000D4570400F8B50646FFF7AEFF0024054672
:1084D000054FAC4200DBF8BD315DBB6802485B680C
:1084E00098470134F5E700BF045804002DE9F04334
:1084F000754891B0FFF7E6FFFFF7C6FF4FF4003174
:1085000005460420FFF7ACFF4FF480310820FFF749
:10851000A7FF4FF480310720FFF7A2FF00220421BC
:108520006A481EF094FA6A4E30462CF050FA30B980
:108530003146684811B0BDE8F0431EF047BB1EF05D
:108540007FFA0022114623F07CFB1EF079FA00220C
:108550004FF0FF3123F08AFB5F4825F034FE4FF0E7
:1085600000015D4825F0C8FC00215B4825F0ECFCCB
:108570001EF066FA06F058FDA0225021044622F0B3
:1085800055FE002320461A46092122F07DFE0022D6
:108590005149204620F09DFE1EF052FA09F020FAC3
:1085A0000446012123F055FE20464C4909F080FE87
:1085B0006FF03B0300220921204622F065FE1EF0E9
:1085C0003FFA09F00DFA07460121204623F041FE4B
:1085D0003846434909F06CFE6FF02C030022092154
:1085E000384622F051FE1EF02BFA09F0F9F93D4908
:1085F000044609F05DFE002309211A46204622F0B8
:1086000043FE0EF0EBFDB36830465B689847364F8B
:10861000DFF8D88000240022214628461EF053FAB5
:1086200000263246214628461EF04DFA4FF40050EF
:10863000002101361CF060FF0A2EF2D10134002225
:10864000214628461EF03FFA0A2CE4D13846FFF7AF
:1086500039FF0720FFF7F0FE06460820FFF7ECFE83
:1086600081461EF0EDF909F0BBF9012E044602D156
:10867000414609F01DFE4B46202168461C4A1DF06C
:108680007BFD202133461B4A0DEB01001DF074FDDC
:108690006946204609F00CFE002305211A462046B3
:1086A00022F0F2FD1EF0CCF909F09AF9044608A96F
:1086B00009F0FEFD6FF00E0300220521204622F096
:1086C000E3FD0EF08BFDA5E776720400D45704009D
:1086D0004C58040090720400600B0120A672040044
:1086E000B2720400B9720400BD720400D1720400B9
:1086F000DC720400E77204002DE9F043079D15B910
:108700001560002012E00324B5FBF4F404EB4407E9
:10871000BD4218BF0134B4F1804F09D2A400013426
:108720008C4200D838B96FF00B001460BDE8F083BC
:108730004FF0FF34F7E704460021DFF8B4E0B94218
:1087400003F1030C04F104062BD3A942274623D2DC
:1087500001F1010CAC451F7828BF002324494FEAE2
:10876000A70E38BF5B7811F80EE0AC4584F800E046
:1087700001EB131E2EBF3D239B0003F03C034FEA89
:10878000071738BFCB5C07F030071EF80770A370DF
:108790003D2367703746E3700023381A10603B7042
:1087A000AFE71CF8034C1CF8023C4FEAA4091EF882
:1087B000099024011CF8018C04F0300406F8049C94
:1087C0000EEB131919F804409B0006F8034C03F054
:1087D0003C030EEB9814E35C08F03F0806F8023CFB
:1087E0001EF80830344606F8013C03316346A6E71C
:1087F000717304002DE9F04300273C463D46DDF847
:108800001CE0DFF8288175451FD3E4BB002014600D
:10881000BDE8F0830136764533D013F806C0BCF1CD
:10882000200FF7D0AEEB0609B9F1010FA6EB050555
:108830000DD0BCF10D0F0AD103EB060999F8019098
:10884000B9F10A0F6ED1751CDDE72E46E3E7BCF1E6
:108850000A0FF8D02DB9BCF13D0F05D10137022F19
:108860000DD96FF01500D3E71CF0800FF9D118F87F
:108870000C507F2DF5D03F2D01D8002FF1D10134C0
:10888000E1E73546C1E74FF0060C04F00706E408BF
:108890000CFB06F60CFB04F40736E41B04EBD604D1
:1088A00070B18C420CD80027014603263C46DFF805
:1088B0007CE0DFF87C801D449D4205D10C1AA5E7C1
:1088C0006FF00B001460A3E713F8019BA9F10A0CE9
:1088D0005FFA8CFCBCF1160F04D848FA0CFC1CF0B3
:1088E000010FE9D01EF809C00134BCF1400F08BFE8
:1088F000013E0CF03F0C042C4CEA8717DCD17EB112
:108900003C0C012E0C7002D101310024D4E7022E60
:108910004FEA17244C7016BF8F7002310331F4E711
:108920003446C9E7002DA2D09BE700BFF1720400D6
:10893000F6FFBFFF014B1B68184700BF80C5002032
:10894000014B1860704700BF80C5002007B50B467B
:10895000002102460091034800F076F903B05DF86B
:1089600004FB00BF358901002DE9F047058B044663
:108970002807904611D4022905F0070540F0CD8064
:1089800020461EF093FB78B10138218B042811D8C2
:10899000DFE800F0C3106D85950001290CBF45F09C
:1089A000100545F02005258388F31188BFF36F8FEC
:1089B000BDE8F08701F0070AAA4500F0A68000276D
:1089C000B9463E46A368002B00F0BD8041F0080187
:1089D000218388F31188BFF36F8FA168002900F00D
:1089E000BB800D68002900F0B78033465246204610
:1089F000D1F80480C047002D76D02B6829461D464B
:108A0000F0E701F007035A1F012A1BD8002221F0CA
:108A10000701062B276889B2C4E9002209D13B4629
:108A200003E0628B013262831B68002BF9D141F0B5
:108A30000201204621831EF039FB00287BD041F043
:108A4000200177E0042B0AD121F0070189B22046EA
:108A500021831EF02BFB10B141F020012183218BDB
:108A600001F0070AAA4550D00027B946AAE72369B2
:108A700021F0070141F00601062DD3F80090218373
:108A80002DD1B9F1000F40D041F00801218388F3C6
:108A90001188BFF36F8F20463949C84729E021F07C
:108AA0000701236941F0040189B2042DD3F8049031
:108AB0002183E6D000274FF0040A3E4682E721F0EA
:108AC0000701236941F0050189B2052DD3F808900B
:108AD0002183D6D000274FF0050A3E4672E70027D3
:108AE0004FF0060A3E466DE72B4687E7B9F1000FC7
:108AF000D1D14FF02003EFF3118883F31288BFF335
:108B00006F8F238B23F008032383258BEA062ED552
:108B100025F01003238305F007056669218B002EDD
:108B2000BFF66FAF00232768C4E9003321F00701C7
:108B300041F001012183218B4FF0000901F0070A68
:108B4000AA457FF43FAF002F9BD041F0080121835D
:108B500088F31188BFF36F8F002FC7D03D68394667
:108B60003346524620461EF0CDFA2F46F4E7AB06B8
:108B70007FF51AAF25F02003238305F00705FFE6F4
:108B800031710300F0B5024601680A270020074E44
:108B90000B461C780131355D6D0701D41360F0BDC3
:108BA00007FB0043A3F13000F2E700BFBCBB0400A9
:108BB0002DE9F84F15469A46D378224A6F2B12F8C2
:108BC00003B080460F460BF0030B29D024D8582B56
:108BD0000CBF10260A26DDF82890324600234046B6
:108BE0003946FFF7AFFA092AD4B21ED83034B0455F
:108BF000E4B277F1000709F8014D01D3D14511D84E
:108C00002B789B0605D5082E15D1AB7843F00803C9
:108C1000AB704846BDE8F88F03F0F703702BD7E739
:108C20000826D8E780460F46D7E7BBF1010F0CBFF7
:108C300037345734DBE7102EEBD1AB7843F0100319
:108C4000E6E700BFBCBB04002DE9F04F82461746A3
:108C50001C46002597B00391387808B9284649E3A7
:108C60007B1C2528049306D00399D0470028C0F226
:108C700041830135F0E11822002110A82CF056FAAA
:108C80007B78252B00F0A380002398469E469C46C7
:108C90001846791C0E4611F8012B2B2A00F0C680CD
:108CA00000F2BD80202A00F0C480232A00F0C48096
:108CB0002BB19DF8483043F040038DF84830B8F1AF
:108CC000000F05D09DF8483043F020038DF8483060
:108CD000BEF1000F05D09DF8483043F010038DF829
:108CE0004830BCF1000F05D09DF8483043F0080330
:108CF0008DF8483028B19DF8483043F004038DF8D2
:108D000048309DF8483003F04401442903D16FF303
:108D100086138DF848309DF848302A2A43F08003A6
:108D200009968DF8483040F08C809DF8493043F02A
:108D300001038DF84930731C1A782E2A0CBF0121CB
:108D400000219DF8492061F341028DF849200CD1A2
:108D50005A1C09925A782A2A40F083809DF84920AB
:108D6000023342F004028DF849201A786C2A00F090
:108D7000A48000F28680682A00F08C806A2A00F0C5
:108D8000A5804C2A00F0AA801A4612F8013B782BE5
:108D900004928DF84B309DF8492000F217816D2B1D
:108DA00000F2A980692B00F21181572B00F2BE80DE
:108DB000412B03D0453B022B00F2088104229DF891
:108DC0004A3062F302038DF84A300123CAE0BA1C2C
:108DD00004928DF84B309DF84930DA0740F1FD8060
:108DE00054F8049BB9F1000F07DA9DF84820C9F147
:108DF000000942F004028DF848205E0740F1F68039
:108E000054F804BBBBF1000F80F2F5809DF84930A7
:108E10006FF341038DF849304FF0FF3BEBE02D2A13
:108E20000DD0302A7FF444AF012333E74FF0010C1B
:108E300030E74FF0010E2DE74FF001082AE701203F
:108E400028E709A8FFF79EFE099BB3423FF474AFE1
:108E50009DF848201390C00F60F341028DF8482020
:108E60006AE709A8FFF78EFE9DF848301490C3F317
:108E7000400242EAD07262F341038DF84830099B08
:108E800073E7742A26D07A2A7FF47EAF06219DF8F4
:108E900049200CE05A78682A9DF8492006D1012122
:108EA00061F3C6028DF8492002336DE7022161F3B8
:108EB000C6028DF84920013366E75A786C2A9DF87E
:108EC000492001D10421EBE70321F0E705219DF8BA
:108ED0004920ECE707219DF84920E8E7BDF8482044
:108EE00022F4F04222F0020242F4804242F00202F6
:108EF000ADF84820DFE76E3BD9B201238B4040F24A
:108F000082410B4238D113F0240F52D1D8075DD5DE
:108F100003219DF84A3061F302038DF84A3002F0D4
:108F20007803A3F140014B424B411BE00120A3F128
:108F30005801C9B200FA01F111F4624F7FF43EAF5B
:108F400040F6010631421DD111F4043F3ED09DF898
:108F50004A3060F3020302F07802402A8DF84A306A
:108F600034D000239DF84820C2F340010B4363F343
:108F700041028DF848202EE702219DF84A3061F326
:108F80000203E8E702209DF84A1002F0780260F33D
:108F90000201402A8DF84A1002BF9DF8481041F0A6
:108FA00001018DF84810632BDBD1131E18BF01237C
:108FB000D8E703219DF84A3012F0780F61F30203DD
:108FC0008DF84A3014BF01230023CBE79DF84830C9
:108FD00043F001038DF84830C3E79DF94820002A8B
:108FE000ACBF4FF0FF39DDF84C9006E798077FF5EE
:108FF00013AFDDF850B00023CDE913339DF84A30AC
:109000009DF8491003F00703012BC1F3C30133D1CD
:10901000CB1E042B04D8DFE803F0214646212100B3
:10902000236801294FEAE372CDE910321CD19DF982
:109030004030DA17CDE9103204349DF8483013F08F
:10904000030650D03A465046049B03991EF01BF984
:109050000028C0F24F810544049FFDE554F8043B0D
:10906000DA17CDE91032E8E70229E5D11AB243F365
:10907000C033CDE91023DFE7022B24D1CB1E042B14
:1090800004D8DFE803F018101018180001294FF079
:10909000000254F8043B14D00229CDE91032CCD19F
:1090A0009BB21093C9E7073424F00704F4E80223C5
:1090B000CDE91023C1E754F8043B1093002311932A
:1090C000BBE7DBB2CDE7042B08D1073424F007045B
:1090D000D4E900230834CDE91023AEE7032BACD14B
:1090E00054F8043BDDE79DF84B007828B4D862289B
:1090F0001CD825283FF4B8AD5828ADD1DDE91001C2
:109100000DF13E03009312AA0AABFFF751FDBBF12C
:10911000000F074680F29780002F9DD00DF13E088A
:10912000A8EB0700002E4ED001304CE06338152824
:1091300092D801A252F820F0B79101001D920100CF
:109140005990010059900100599001005990010077
:109150001D920100599001005990010059900100A1
:1091600059900100A592010041920100679201000F
:10917000599001005990010091910100599001000E
:109180004192010059900100599001004192010063
:10919000BBF1000F109F0ADB594638462CF082F8CD
:1091A00007EB0008002F3FF457AF00260BE03846CE
:1091B000FFF73AF9F4E700260120109B0DF129088A
:1091C0008DF828300AAF9DF84A3013F0100205924E
:1091D00000F0838002305B06DDF84CB048BF149B82
:1091E000584448BFC018B9F1000F40F390809DF873
:1091F0004820A9EB0009C2F380035007069300F151
:109200008680510679D53EB130460399D047002873
:1092100070DB069B01351E4630226FE019075ABFEE
:10922000C3F300135E012B26DDE91023002BBFF6EC
:1092300065AF524263EB43032D26CDE910235DE772
:1092400000265BE700269DF848200DF13E03DB1B5E
:109250006FF386129B458DF848207FF65DAFABEB30
:109260000303139358E7109880B30DF13E080AAB3F
:109270000021CDF8008012AAFFF79AFCBDF84A3011
:10928000BBF1000F03F0EF0343F4F04343F010038E
:109290000746ADF84A30D5DA00283FF4DDAEA8EB3A
:1092A000000082E7109B07293FF6D6AEDFE801F009
:1092B0000C04060C08080C0C1D70CDE61D80CBE6D6
:1092C000EA17C3E90052C7E61D60C5E6DFF8BC80B7
:1092D0000646A8F10507052075E71A0748BF0130C3
:1092E00079E71046079306920399D047DDE90623F4
:1092F000002804DA17B0BDE8F08F20224B4619464B
:10930000002903F1FF33ECDC4D4499466D1A2EB170
:1093100030460399D0470028ECDB01359DF84A30F0
:10932000DA0601D41B0705D530200399D047002861
:10933000E0DB0135059B33B103999DF84B00D04725
:109340000028D7DB0135AB4405E030200399D04736
:109350000028CFDB0135ABEB0503002BF5DC4346E2
:109360003A46504603991DF08EFF0028C2DB0544A3
:10937000A944A9EB0503002B7FF76EAE20200399CB
:10938000D0470028B6DB0135F3E700BFC773040000
:1093900008B54FF02002EFF3118382F31288BFF378
:1093A0006F8F00F049FC03481DF010FC00F0C6F977
:1093B000FCE700BFC87304004FF02002EFF31183F5
:1093C00082F31288BFF36F8F0121044AC2F840155F
:1093D00083F31188BFF36F8F002070470090034024
:1093E00020B1034B800143F001031847704700BFD1
:1093F000905B040003F0A2BB70B5114B0D461C68D6
:10940000DCB1104B196800238B4202DB6FF00100C6
:1094100070BD224612F8106B864202D0144601330A
:10942000F2E7E06810B96FF01200F1E72BF0CFFA25
:109430000028F8D000202C60EAE76FF00C00E7E786
:1094400088C50020985B04002DE9F7430D46DDE94F
:109450000A8691461F46044620B96FF00D0003B0FE
:10946000BDE8F0830029F8D0002AF6D0009300234D
:10947000084601931DF0CDFFB7FBF0F303FB10701E
:109480000028EAD16A46284611491EF0F6FF019BE2
:10949000002BE2D008EB06029342DED328461DF0F3
:1094A000B8FFB8FBF0F303FB10800028D5D1C4E966
:1094B0000097E5602061A060C4F8148016B9019E91
:1094C000A6EB08060C9B0020A661E361C7E700BF7E
:1094D0001F7403002DE9F84305464FF02003EFF316
:1094E000118683F31288BFF36F8F4FF00C090D4B79
:1094F0000D4F1C68DFF834802CB986F31188BFF358
:109500006F8FBDE8F883D4E90123002D18BF1346FF
:109510002BB198F8142009FB02F2B85C9847246834
:10952000EAE700BF800B0120740B012050210120CD
:10953000012270B5164B1C7D04F01F039A40D043E6
:10954000144B610903EB8103D3E8EF1F01EA000527
:10955000C3E8E65F002EF7D10A4213D00E4B0F4D41
:109560008BB10C236343EA185178E85C1DF0AFFE21
:109570000020FFF7AFFF0C235C4300232A192B5177
:10958000C2E9013370BD83F31188BFF36F8FEFE73A
:1095900050210120880B0120CF720300740B0120A1
:1095A0002DE9F041324B07461D7D4FF02003EFF3CC
:1095B000118883F31288BFF36F8F0C246C432D4BFB
:1095C0002D4E195D1A19002947D007CA06EB040C65
:1095D0008CE8070000221A5588F31188BFF36F8FBB
:1095E0000C236B43F05CF218A8B37B1C10D04FF433
:1095F00000400021D2F808C0204C0023ECFB0041C1
:109600001F4A2046FEF79EFD0121381A2BF0DDFC93
:109610001BF0B4FE0120FFF75DFF1A4B6A0903EB54
:109620008203012205F01F018A40D3E8EF0F1043A7
:10963000C3E8E10F0029F8D1134B3BB10C2303FB26
:1096400005F033185978305C1DF035FEFFF770FFD8
:109650001BF0A8FE0120BDE8F0810146284600F07D
:1096600015F80028B8D007C8344484E80700B3E7E9
:1096700050210120680B0120740B01203F420F0094
:1096800040420F00880B0120B77203002DE9F04F14
:1096900085B00E4603A900F043F84FF40047044696
:1096A0004FF0000B1B4B039DD3F800A0431E1BB2D1
:1096B00003EB4303DFF8608005EB830524B9A14683
:1096C000484605B0BDE8F08FC44659466868002397
:1096D000E0FB07C1114A6046FEF734FDC446594617
:1096E0000190A8680023E0FB07C10C4A6046FEF722
:1096F00029FDBAF1FF3FA94601D0824505D9731C67
:10970000DED0019B1844B042DAD9013CA4B20C3D32
:10971000D4E700BF84C500203F420F0040420F0045
:1097200008B9024B0B600020704700BF985B040033
:10973000014910220A60704710ED00E072B6404007
:1097400080F31188BFF36F8FBFF34F8F30BF62B6C6
:10975000BFF36F8F704700BF72B6494081F3118825
:10976000BFF34F8F20BF80F3118862B6704700BFF0
:1097700040B2002807DB01234109034A00F01F0023
:10978000834042F82130704700E100E040B20028F9
:109790000CDB01220649430900F01F008240203300
:1097A00041F82320BFF34F8FBFF36F8F704700BF87
:1097B00000E100E0054B420953F82220012300F0AC
:1097C0001F0003FA00F01040704700BF00E100E006
:1097D00040B2002801F10101ACBF00F16040064B2E
:1097E0004FEA4111C9B2ABBF00F5614000F00F0074
:1097F00080F800131954704714ED00E030BFFFF7F4
:10980000FDBF00BF0B4A08B50B4B22F07F029A60E8
:10981000BFF34F8FBFF36F8FD3F8882022F470020D
:10982000C3F888201AF064FF1BF0F8FE00F0C8F9B6
:109830001AF09EFF0080010000ED00E0094A0A498D
:10984000936809685867996708494B6843F08053E3
:109850004B60002383F31188BFF36F8F9368986F79
:10986000704700BF50210120106E040000ED00E0A1
:1098700015498A6882F87DE04FF030001044EFF31C
:10988000098C80E8F01F202080F31288BFF36F8FCF
:109890000E4F4FF00066CA698A603E6092F97DE023
:1098A000506F0023536780F3118802F1300090E875
:1098B000F01F8CF3098802F1000004B51DF056FE7C
:1098C000BDE80440704700005021012004ED00E095
:1098D0001EF0040F0CBFEFF30880EFF309808169DD
:1098E00011F8021C0229FFD001B51DF030FE01BDA8
:1098F00042F8203C009B0C4942F81C3C019B21F0A3
:10990000010142F8183C029B42F8081C42F8143C42
:109910004FF0807342F8043C002343674FF43C430C
:10992000203A0265C3677047E76B0300084B9860F5
:10993000436E83F30B88104681F30988002163B6D8
:1099400081F31188BFF36F8F002200231DF04BF9C4
:109950005021012001B572B60B4A906900281EBF44
:10996000002191612BF023F962B6EFF30580A0F19D
:1099700010004FEAC0000549014409C99847BDE8F5
:1099800001400349084700005021012064580400A9
:1099900095990100044B9968D869884203D003491E
:1099A0004FF080520A6070475021012004ED00E022
:1099B000084B9A6A9A6A986A9A6A9A6A9A6A9A6A3A
:1099C0009A6AC0F300506FEA02426FEA1242400006
:1099D0009A62704700ED00E00D4B9A6A9A6A9A6AA3
:1099E000920508D59A6B9A6A120404D518B19A6A3E
:1099F00022F400429A6200209A6A9A6AD205044AC6
:109A000058BF9B6A936A43F47F4393620870704720
:109A100000ED00E0124B9A6A9A6A9A6A920708D59A
:109A20005A6B9A6A120604D518B19A6A22F080021B
:109A30009A629A6A9A6A9A6AD0064FF0000058BFF2
:109A40009B6A074B9A6A920642BF5A6A22F40052F6
:109A50005A629A6A42F0FF029A620870704700BF29
:109A600000ED00E0F0B54A4B04465B6800258BB082
:109A7000C3F3080385F31188BFF36F8F02F07F40B3
:109A8000B0F17F4F16D1D60714D4550603D4100772
:109A900004D4012504E012F0040200D00C46002595
:109AA0000022033B8DF80720032B05D8DFE803F0E5
:109AB0002462665F2C46F3E700239DF80720CAB9AD
:109AC00002AE04F12007324620686168083403C200
:109AD000BC421646F7D1099A002D53D0C2F30801B3
:109AE00021B96FEA52226FEA42220992184602A96E
:109AF0001DF02BFD0BB0F0BD254BDA6A9107DBD4CE
:109B0000DA6A002AD8DBDA6A5200D5D55A69A16927
:109B100042F480725A61BFF34F8FBFF36F8F5A695F
:109B200031F8021C22F480725A61BFF34F8FBFF3E9
:109B30006F8F4DF60272914201D12368BDE79A6A98
:109B4000D2B232B101200DF10701FFF763FF0346E6
:109B5000B3E79A6A12F47F4F05D001200DF1070197
:109B6000FFF73AFFF3E79B6AB3F5803FA4D3FFF713
:109B70001FFFECE700200DF10701E6E700200DF1E3
:109B80000701EDE722F4FF7222F00102ADE700BF0A
:109B900000ED00E0044B5A6942F010025A615A6924
:109BA00042F480625A61704700ED00E0EFF30880F4
:109BB000EFF3098101B57246FFF754FF01BD00BF05
:109BC000002320210348C2180133412B82F80013DF
:109BD000F9D1704700E100E0002080F31488BFF362
:109BE0006F8F002080F30A8880F30B88FFF702FC58
:109BF00000200E490860BFF34F8F0D4880F308889E
:109C000000F03EF8202080F311880A484FF40061EC
:109C1000401880F30988EFF314800221084380F391
:109C20001488BFF36F8FFFF7EDFD000094ED00E0A7
:109C300060480120202F0120BFF34F8F0549064BBC
:109C4000CA6802F4E0621343CB60BFF34F8F00BFDA
:109C5000FDE700BF00ED00E00400FA050023184610
:109C60000649D1F89020C2F30722934200DB7047E7
:109C7000C1F89830C1F8A0000133F6E700ED00E02C
:109C800010B572B6002484F31388FFF7E7FF23466C
:109C90004FF0FF300C4A03F120010133102B42F842
:109CA0002100F8D100234FF0FF30074A03F1600193
:109CB0000133102B42F82100F8D162B6BFF34F8F69
:109CC000BFF36F8F10BD00BF00E100E0084B9B6841
:109CD00083420BD1EFF3058343B1064B5A6842F040
:109CE00080525A605A6A22F400425A621BF024BC25
:109CF0005021012000ED00E01FB5094C094A234620
:109D00000121094800F0EAF800230393074B0121E1
:109D1000E41A01A80193029400F0EAF804B010BD1F
:109D20000000042080C500203C5C0400F8C800202E
:109D300010B50C7A0B6804F01F0223F01F031A43BE
:109D4000CB68640923F01F03054943EA440343F049
:109D50000103C1F89800C1F89C20C1F8A03010BDE3
:109D600000ED00E02DE9F04F0F46144606464FF097
:109D700000084E4D85B0B84580F29480D6F8049026
:109D8000B9F1000F36D0B9F11F0F40F2898019F0F8
:109D90001F0F40F08580D6F800A01AF01F0F7FD16A
:109DA00050461DF0E9FB834609EB0A0001381DF01F
:109DB000E3FB834574D11BF1160F71D05C456FDD59
:109DC000C5F898B0D5F89C10C5F898B0D5F8A03073
:109DD00021F01F0143F01F0AD6E900321A449942CC
:109DE00002F1FF391ED1CA4508D131465FFA8BF026
:109DF0001DF0CBFB08F101080C36BCE73146C5F875
:109E000098B0D5F89C3022F01F0203F01F031343D3
:109E1000C5F89C30E0B21DF0B8FB10F1160F3FD032
:109E2000441CE7E7C5F898B0D5F8A020013B23F023
:109E30001F0302F01F021343CA453146E0B2C5F8C2
:109E4000A030E8D01DF0A1FB10F1160F28D0C5F806
:109E500098B0D5F89C209DF808300AF1FF3A62F3DB
:109E600004038DF80830D5F8A0309DF808205B0871
:109E700063F347128DF80820D6E9003213440093AB
:109E800023F01F03411C5344A3EB0903C8B223F082
:109E90001F030F28039303D86946FFF749FFBFE765
:109EA0006FF01504204605B0BDE8F08F00ED00E02E
:109EB0000522044BC3F89420BFF34F8FBFF36F8F7D
:109EC000704700BF00ED00E0BFF35F8F0022024B40
:109ED000C3F89420704700BF00ED00E010B5034CBC
:109EE0002278FFF73FFF207010BD00BFCC2101207A
:109EF0002DE9F74F294D8A4606464FF00008AB463C
:109F0000274FD0451BDAD6F80490B9F1000F3FD0A7
:109F10003168084601911DF02FFB0199044609EBB9
:109F2000010001381DF028FB84424FF014021D4B44
:109F300008D002FB08F36FF015024BF8032003B0C2
:109F4000BDE8F08F14F1160F2C60F8D01978A142FB
:109F5000F5DD02FB08B0C7F89840C7F89840D7F87D
:109F60009C4000F10801007B64F304000871D7F8FD
:109F7000A0000C79400860F347140C71D7F89C10CE
:109F800021F01F016960D7F8A01021F01F0129619D
:109F900008F1010814350C36B3E700BF8C0B012023
:109FA00000ED00E0CC21012038B50E4D2C68102CBE
:109FB00015D80020FFF788FF0B4B0C4AC3F8C020D0
:109FC000844205D10A4B00201C70FFF771FF38BD99
:109FD000696801EB0011FFF7ABFE0130F0E74FF0CD
:109FE000FF30F4E7485C040000ED00E0AAFF440005
:109FF000CC210120014B1860704700BF90C50020A4
:10A00000F8B506460D460024064FAC4208DA3B6818
:10A0100098470A28305504F1010401D00D28F4D1E5
:10A020002046F8BD8CC50020F8B50D46094F461EE8
:10A03000C0F10104A3199D4201DC2846F8BD7378E4
:10A040000A2B02D10D203B6898473B6816F8010F98
:10A050009847EFE790C5002008B505210148FFF7B4
:10A06000E3FFFEE70974040010B5074C2368C2182B
:10A070000648C0F1005101F580218A4236BF2260B6
:10A080004FF0FF30C01810BDA00B0120E06101208F
:10A0900008B51D210448FFF7C7FF404080F3118831
:10A0A0004FF0030002DF00BF0F74040038B5064C08
:10A0B000064DAC4201D3002038BD54F8043B002BC0
:10A0C000F7D09847F5E700BF545B04005C5B0400E1
:10A0D00070B5104B0546186818B10268CC0010B96D
:10A0E00070BD0246FAE74389AB4208D103898B422F
:10A0F0000CD943681E59181956B9406840B91AB1AD
:10A10000136810461A46EAE71346FAE70020E7E725
:10A110001819E5E7A40B012000230360044B5A68DB
:10A1200012B9C3E90000704710605860704700BF63
:10A13000A40B01202DE9F04F05460E4687B001F132
:10A140000C08348A34B9304629681DF03AFC0020E6
:10A15000296870E0072C40F2CB80F26802AB1068EF
:10A16000516803C3BDF80A305BBA1FFA83F9ADF832
:10A170000A30BDF80C305BBA1FFA83FBADF80C3027
:10A1800009F10703A34280F2B580304629681DF02B
:10A1900004FC0746002800F0AF80082140466C68A8
:10A1A0001DF0C0FC02462046012140F8046B338AB2
:10A1B000009104212AF0A8F93946A8681DF04EFA4A
:10A1C00058469DF80F10D5F808A0FFF781FF00282A
:10A1D00069D09DF8083013F0070332D0022B44D029
:10A1E00003243946A8681DF039FAD5F808900221F1
:10A1F00009F1040840462AF02BFA00285AD04FF003
:10A20000020A3E4B404604A90493CDF814A02AF05C
:10A2100018FA00284ED0214640462AF0F7F9514658
:10A22000002849D140462AF01BFA304629681DF023
:10A23000C8FB384629681DF0C4FB204607B0BDE8BE
:10A24000F08F0468A86874B30F2104302AF000FA74
:10A250002846A0470446A8680F2104302AF000FAD7
:10A2600028B9002C08BF0724BBE74468EAE7002CA4
:10A27000B7D1DAE90032DB6804A9D21A083A02A899
:10A280001DF0D6F9DAE90023D0681B1A1382A868FA
:10A290001DF0FEF92B6838461B6A9847044620B12A
:10A2A000374600269DE708249BE7494640461DF0B7
:10A2B00039FC46E70221B5E740462AF0D1F90028EB
:10A2C000B3D0D9E90032DB6804A9D21A083A02A84F
:10A2D0001DF0AEF9D9E90023D0681B1A1382A868D3
:10A2E0001DF0D6F92B6838461B6A984700279CE773
:10A2F000092428E70924D3E70224D1E73C740400A9
:10A300002DE9F0418468064614F0030490B005D0AE
:10A310004921174B174A18481BF0D0FB1DF072F863
:10A320004FF0013303FB00F7D6F80880444503DB08
:10A33000012010B0BDE8F081A8EB0405402DA8BFB6
:10A3400040256A462B46214630461DF014F8002869
:10A35000EFDB6A460023AD109D4201D14034E5E7B2
:10A3600052F8041BB94201D10133F5E70020E0E7C0
:10A370003F740400B47404005474040070B50C46B7
:10A3800015461E4648B133462A46214607481CF06A
:10A39000BEFF003818BF012070BD054B0348197877
:10A3A0001CF0C7FF0028EED00120F5E7AC0B012020
:10A3B000D00D01207FB50C4600283FD1214B6946C6
:10A3C0001878FFF719F800283AD100981DF018F80E
:10A3D000064630B9012400981CF0CCFF204604B09A
:10A3E00070BD009B5B68013B191901AA1EF041F882
:10A3F00001460028EED1DDE90005029B1D444368BB
:10A40000ED1A2A461CF0E1FF04460028E2D1009B29
:10A4100099682039A942DED35B68194401AA304605
:10A420001EF027F80098019943688268C91A521AE9
:10A430001CF0CBFF041E18BF0124CCE70324CDE79A
:10A440000124CBE7D00D0120012808B505D9322120
:10A45000064B074A07481BF031FB00201DF041FB6B
:10A460000138042828BFFF2008BD00BF5274040033
:10A470009D740400547404007FB50C4605461822F0
:10A48000002120462AF052FE6B68581C02D103209E
:10A4900004B070BD002B5FD12A691F2AF7D9AA68C2
:10A4A000511CF4D0C4E90023EE68314B32689A4263
:10A4B000EDD1AA69202AEAD88AB900201DF001FA54
:10A4C000E0B101201DF0FDF920B901201DF039F99E
:10A4D000002817DA4FF0FF330520E360D8E725485E
:10A4E00003680133E9D0037B9A42E6D169690D30F4
:10A4F0002AF0D2FD0028E0D10020C9E71DF021F9A3
:10A500000028DEDBE0602B7FBBB9207B01A9FEF7D2
:10A5100073FF064630B90198FFF7F2FE0646019830
:10A520001CF028FF002E0CDB0CBF012300236374FA
:10A530002B69A36001232374DEE702A81DF00AFA49
:10A5400008B10120A4E706F1140102A81DF001F9E9
:10A550000028DADB06209BE7064B1A68E2609A685F
:10A560002260002262606A685B689A42C4D1DFE7B9
:10A570003DB8F396D00D012020232DE9F0418468E9
:10A5800094B004340CAD062220466149039504932F
:10A590001DF05FF918B1022120462AF055F8002677
:10A5A00000F0010060B9072014B0BDE8F0816B46EF
:10A5B0002A46304601A900F069F98046B8B1013653
:10A5C000022EF4D1314620462AF046F80028EAD07F
:10A5D0000B2220464F491DF03CF90028E3D0002112
:10A5E00020462AF013F80028DDD00020DCE73046B2
:10A5F0001DF038F90F21074620462AF029F8D8B176
:10A600000422204644491DF024F9A8B131462046D1
:10A6100029F0FCFF80B10722204640491DF019F9BE
:10A6200050B105A901A800F0E3F8002868DA052276
:10A630003B4920461DF00DF93A48FDF7F5FE394932
:10A64000024620461DF005F90028ACD0204603A99B
:10A6500029F0F4FF0028A6D00822204632491DF038
:10A66000F8F800289FD00099204681F01001C1F32E
:10A67000001129F0F7FF002895D0072220462B492A
:10A680001DF0E7F800288ED0204607F0010129F0E0
:10A69000E9FF002887D00922204625491DF0D9F876
:10A6A000002880D02046C7F3400129F0DBFF0028B6
:10A6B0003FF479AF062220461E491DF0CAF8002853
:10A6C0003FF471AF2046C7F3800129F0CBFF00288B
:10A6D0003FF469AF0922204617491DF0BAF8002857
:10A6E0003FF461AF2046C7F3C00129F0BBFF00284B
:10A6F0003FF459AF0F21204629F0B2FF013651E750
:10A7000005A88DF82C80FDF78FFE05A9024690E77D
:10A71000E574040030750400EC740400F174040066
:10A72000F9740400FF740400047504000D7504003E
:10A73000157504001F750400267504000021F0B58E
:10A7400097B00446182210A8CDE902118DF8031025
:10A7500001912AF0EBFC224B02AD0C9304230D93E4
:10A76000204B6068CDE90E351F4B02221193072361
:10A7700012931E4B0CA913930DF103031493043091
:10A7800001AB1CF08CFF00BB039B4BB99DF8033061
:10A79000DBB11DF0BBF8C8B92046FFF7EDFE15E0B0
:10A7A000202B12D104AA1646029B03F1200715465E
:10A7B00018685968083303C5BB422A46F7D10021FF
:10A7C00030461DF0ABF8002802DA032017B0F0BDC8
:10A7D0009DF8031001D10029DBD11DF07AF8DAE7EA
:10A7E000FF740400494404003C7504008D440400D7
:10A7F00073B50E46438804460193437819210093AC
:10A800000378084A30461BF0B7FC6368054633B14D
:10A81000C0F11901044A30181BF0AEFC0346E818D9
:10A8200002B070BD44750400507504000148FFF784
:10A8300073BC00BF94C5002013B5114B041D0093D9
:10A84000022369462046019329F0FBFE98B10021BE
:10A85000204629F0DBFE70B10A4B694600930323C2
:10A860002046019329F0EDFE28B1074B2046596898
:10A8700029F0E2FE10B9072002B010BD0020FBE76E
:10A880003C74040054750400D00D01202DE9F04300
:10A890008BB00C460DF10301064690461D461CF098
:10A8A000BFFF0146002866D12023304602AA1CF0D3
:10A8B00098FF00285FD19DF80370DFF8F890A4BBE3
:10A8C000029B4B453ED10DB1069B2B60059BBDF80D
:10A8D000104030461C44042321460DEB03021CF0BB
:10A8E00080FF40B946F60813BDF804209A4204BF21
:10A8F000BDF80630E4180423214630460DEB030270
:10A900001CF06FFF0546B0BB46F60713BDF80420E8
:10A910009A4230D1BDF806700434274404F104098A
:10A92000B94516D985F0010026E0082239462046AF
:10A930002AF0FCFB029B4B4504D107AB03CB206004
:10A940006160C0E74FF0013257439F4213D10520A9
:10A9500012E00423214630460DEB03021CF041FFB8
:10A9600048B99DF80420BDF80630FF2A07D14FF6FC
:10A97000FF72934207D101200BB0BDE8F083102A8B
:10A9800001D1202B04D0043303EB04094C46C5E766
:10A99000002DF0D1B8F1000F01D10125F6E72434E4
:10A9A000BC42E8D84246494630461CF01AFF00280F
:10A9B000F3D0E0E73DB8F39608B5054B2C22002113
:10A9C00018462AF0B3FB4FF0FF3240F8042C08BDC4
:10A9D000D40D01200023012230B58DB0CDE9012333
:10A9E000D0E901450B931C4B07A907930423089357
:10A9F0001A4B201D099301AB0A9302AB1CF04FFECA
:10AA0000034630BB024603A90198FFF73FFFC8B1D8
:10AA100001981CF0B5FE0446FFF7CEFF7CB9104B41
:10AA2000043505930223284605A9069329F009FE5B
:10AA300020B12146284629F0E9FD00B90724204627
:10AA40000DB030BD01981CF03CFF0028E0D006247A
:10AA5000F5E70324F3E700BFEC7404002544040089
:10AA60003C7404002DE9F0410024B6B008AD214645
:10AA7000476820220646284601942AF057FB4FF0EB
:10AA8000FF33214668221CA8CDE909332AF04EFB8A
:10AA90004F4B03241893052319934E4B0BAACDE972
:10AAA0001A354D4B20921D9304231E934B4B4C4A59
:10AAB0001F932E930DAB2F934A4B22923193072372
:10AAC000494A0AA924922992329309AA474B25910F
:10AAD0002A924749474A043733930FABCDE92714ED
:10AAE000CDE92C2434930622384601AB18A92394CF
:10AAF0001CF0D5FD002867D1284602A9FFF7BCFC51
:10AB00000446002860D19DF8183023B9B068FFF7DB
:10AB100093FE044658E0384D059BDDF824802B60F9
:10AB2000029BAB60B8F1000F0BD0D5E901120C9B72
:10AB30005BBB8A42EAD1194610AA0120FFF7A6FEA4
:10AB4000E4E70E9F23233A460D99686005F10D0056
:10AB50002F732AF0BEFA07F10D002146C7F120023B
:10AB600028442AF0E3FA9DF81930002BDDD0204666
:10AB70000A99FFF71FFC04460028D6D0002310AA2C
:10AB800019460120FFF782FE1EE00B449A1A534239
:10AB900053410B99049A0998FFF7F0FB04460028EB
:10ABA000ECD16B68049A1344AA686B609342ADD1F0
:10ABB0000346014610AA0120FFF768FEB068FFF7C0
:10ABC0003BFE0446FFF7F8FE204636B0BDE8F081B4
:10ABD00058750400254404002C84040049440400F2
:10ABE0005E75040066750400434404008D4404004F
:10ABF0005475040062750400D00D012001481AF05C
:10AC000075B900BFACC500200148FFF785BA00BF89
:10AC1000A0C50020002370B544688568043486B060
:10AC20002046CDE9003329F015FC10B9012006B00B
:10AC300070BD204602A929F00AFC0028F6D0039E28
:10AC4000012E1ED1029B1B78642B1AD16946204627
:10AC500029F0FDFB0028E9D0204629F015FC00284A
:10AC6000E4D00B4B0435284604A9CDE9043629F07D
:10AC7000E8FC20B16946284629F0E3FC30B90720FA
:10AC8000D5E70021204618F0C3FBCEE70020CEE731
:10AC9000BD75040007B5002200230648CDE9002356
:10ACA0004FF4005200231AF07FFE002003B05DF83D
:10ACB00004FB00BF08C8002013B5084C20462AF04A
:10ACC00063F8074B204600934FF4006203230549C5
:10ACD0001AF012F9002002B010BD00BFF8C8002021
:10ACE000E05C0400202701200022002301481CF022
:10ACF00010BF00BFD0C800202DE9F8430446DDE9AD
:10AD000008981D460F461646002134222AF00EFAF6
:10AD10002046C4E90876C4E90A590549C4F83080D8
:10AD20002AF004F804F11000BDE8F84329F0C3BF8D
:10AD30006979030010B5044610301CF0F1FE21467D
:10AD4000BDE8104001482AF00EB800BFF8C8002046
:10AD500013B50024064A23460649CDE900440648B7
:10AD6000FFF7CAFF054800F00DFC204602B010BDF9
:10AD7000DD790300E3790300000E012081AD0100BD
:10AD800008B50146034829F09EFFBDE80840024887
:10AD90001AF0ACB8C0C80020BCC50020F8B50D4EF4
:10ADA0000D4F00220023304619F02EFF044600B953
:10ADB000F8BD3846D4F88420211D1CF036FE054627
:10ADC000204600F051FB002DEBD029460348FFF749
:10ADD000B1FFE6E7C0C80020340E0120000E0120BC
:10ADE0002DE9F74F05460E4614460A460146002057
:10ADF0001CF035FA4FF0000A074640F606134FF0F4
:10AE00005D08D1464FF0010BB245ADF8023001DBD1
:10AE1000002062E002210DEB0100A04700285CD178
:10AE2000BBF1000F13D0B31C5BBAADF80230ADF824
:10AE300004302B782246032101A88DF806301CF03F
:10AE4000E5FD002849D10AF1010AA8F10308A6EBA3
:10AE50000A0343459B46A8EB0303A8BFC346012B47
:10AE600005D84FF000090BF1FF3BD34414E0FCDDA3
:10AE70004FF00109F9E735F80A2005EB0A039B7842
:10AE8000ADF804200321224601A88DF806301CF0FD
:10AE9000BDFD10BB0AF1030AABEB0A03022B5246BD
:10AEA000E9DCB9F1000F0FD0A6EB0A03012B17D094
:10AEB000022B22D043B9224602217BBAADF80430DE
:10AEC00001A81CF0A3FD40B901211948A0474FF08B
:10AED000000B41F20443002896D003B0BDE8F08F88
:10AEE000AB5C03218DF804303B0A22460AF1010ACB
:10AEF0008DF805308DF80670E2E70AF1010315F8C8
:10AF00000A20EB5C8DF804208DF8053022463B0AC0
:10AF1000032101A80AF1020A8DF806301CF076FD23
:10AF20000028DAD1224601218DF80470C8E700BF5D
:10AF30001EBB04002421827A054B01FB02331A6AEE
:10AF40001B7D801A1B3323F00303B0FBF3F0704723
:10AF5000D0C8002038B52424827A094B04FB023380
:10AF6000DB690C685B681A68944294BF0C600A60E5
:10AF7000D3E90054FFF7DEFF05FB004038BD00BFFA
:10AF8000D0C800202DE9F74F05460191104619461B
:10AF90009146984617461E462AF03DF882468B4653
:10AFA0004FF02003EFF3118183F31288BFF36F8F0B
:10AFB0006B8A002B59D02A8A9A423DD900910022EF
:10AFC0000023284619F020FE00990446002833D0BB
:10AFD00081F31188BFF36F8F019B002B56D058EA85
:10AFE00009030FD0B8F1FF3F08BFB9F1FF3F09D007
:10AFF0001AF056FCBAEB00076BEB0106002EBCBF43
:10B0000000273E462422A37A264D204602FB035306
:10B01000DB693A461B6801A9D3F800803346C04774
:10B020006061002833D1A07A214600EBC00005EB17
:10B03000800029F053FE24E0688A431E6B8281F36E
:10B040001188BFF36F8F2B7D2A8A2C6A1B3323F064
:10B050000303121A02FB0344124B134AEB1A9B1010
:10B060005343A3722B7DE372B6E781F31188BFF3DC
:10B070006F8F4A464346284619F0C6FD044600280D
:10B08000AAD10024204603B0BDE8F08F63610023FD
:10B090000122636022812382019A63696282E360F4
:10B0A000F0E700BFD0C80020398EE3382DE9F04129
:10B0B000044600262427164D0CB9BDE8F081237AFA
:10B0C000D4F80480013BDBB22372002BF5D1616917
:10B0D00059B1637ADB0707D4A37A204607FB0353F1
:10B0E000DB691B689B6898476661A07AE66007FB8E
:10B0F000005366609B691BB1204698474446DBE7D6
:10B1000000EBC000214605EB800029F0E7FDF5E7E4
:10B11000D0C80020084B70B5C31A0D4607499B10D4
:10B1200004465943402206481CF032FD2B46014696
:10B130002046BDE870401847500E0120B76DDBB6C1
:10B14000BC570400402373B50B4C0093041B0B4603
:10B150000D460A49A41061430646094A09481CF0F5
:10B1600044FD011E05DA30462B4602B0BDE87040B2
:10B17000184702B070BD00BF500E0120B76DDBB69E
:10B18000577C0300BC57040070B50022012104461F
:10B190000520FEF71DFB0F4801F06AFD0E4B98429B
:10B1A00015D101F075FD26690C4930461BF0CEFF24
:10B1B00000280BDB012535642469084904F11C00D3
:10B1C0001BF0C4FF002801DB0020E56470BD6FF0B8
:10B1D0000400FBE715B201000000AD0BF45C0400B5
:10B1E00001460C23002270B54B430848C418403375
:10B1F000D4E90E561844A2631CF0B7FC2DB13246B8
:10B200002B46BDE870400248184770BD500E012023
:10B21000BC57040010B1012804D07047034B1B6CCD
:10B220005B0701D1FFF7DCBF704700BF500E012064
:10B2300008B54FF02003EFF3118183F31288BFF3B9
:10B240006F8F114A136843F002001060DA0708D4C8
:10B2500081F31188BFF36F8FBDE80840012001F032
:10B2600027BD0A4BD3F80C24D3F80C34D307EFD501
:10B2700007481CF07AFC81F31188BFF36F8FBDE89B
:10B2800008400020FFF7ACBFA00E01200050004096
:10B29000900E01201FB500220123CDE902236B4649
:10B2A000084ACDF800D0CDF804D01CF0CDFC002821
:10B2B00005DB4FF480420023684619F0F9FC05B025
:10B2C0005DF804FB757C030010B54FF02003EFF32D
:10B2D000118483F31288BFF36F8F074A136823F03A
:10B2E0000201DB07116002D401201DF0DDFB84F3B5
:10B2F0001188BFF36F8F10BDA00E01202DE9F04122
:10B30000012207463549D1E8EF3FC1E8E02F002888
:10B31000F9D133B9324933484B60CB608A601BF0B6
:10B3200028FF7B1E012B28D8012F06D12E4BD3F8E6
:10B330001C3403F00303022B1FD029F02DFC05461B
:10B34000E8B92A4B1B78D3B102220646264BC3F834
:10B350000823254CDFF89880D4F81834D4F8182442
:10B36000D20316D503F00303022B01D0012F10D115
:10B3700075B386F31188BFF36F8FBDE8F0814FF08E
:10B380002003EFF3118683F31288BFF36F8F01253B
:10B39000DFE7C5B13046FEF7DFF9D4F81835DBB288
:10B3A000012BD9D1D4F80421002AD5D00022C4F829
:10B3B0000421D4F804210222C4F818252022C8F858
:10B3C0008021A360C8E7002121201AF095F8E4E766
:10B3D0000222054BC3F80423CFE700BF4C0E012027
:10B3E0003C0E01206C0E0120005000401927012066
:10B3F00000E100E008B5074829F0E9FA38B106484D
:10B40000FEF7F8FD0448FDF79BFA002008BD6FF039
:10B410001200FBE7045804001DB401000A2838B5E7
:10B420000446074D04D1AB680D2128465B68984758
:10B43000AB6803485B68E1B29847204638BD00BF5F
:10B440000458040070B50446064E4518AC4201D1BC
:10B45000002070BD14F8011BB36802485B68984770
:10B46000F4E700BF0458040007B5019001A90348A0
:10B4700029F069FB03B05DF804FB00BF40C8002061
:10B480002DE9F047374D8AB0374CA76802E02046D7
:10B49000984748B97B6C002B58D1A668336C002BB9
:10B4A0005BD1736B002BF2D1B36913B96FF0570600
:10B4B00006E020222C4802A9984706460028E9D039
:10B4C0004FF00009294C02AFB145DDDA2B7817F8AF
:10B4D000018B7BB9D4F800A0BAF1000F0AD1002289
:10B4E0000023234801A919F0D7F9D8B9019BC3F863
:10B4F0008400236095F800A02068BAF1000F09D1FC
:10B50000D0F884307F2B12D9FFF7AEFF0123C4F8A7
:10B5100000A02B70B8F10A0F01D100232B7009F1A4
:10B520000109D1E70123C4F800A02B70E2E75A1CFF
:10B53000B8F10A0F0344C0F8842083F80480EED1E8
:10B540000C4BC4F800A01B689847E8E720469847D2
:10B550000028A2D10AB0BDE8F0872046984700280D
:10B560009FD1F7E7CD21012004580400A40E01204B
:10B5700040C80020A80E0120014AFFF731BC00BFDF
:10B5800045B40100144B73B51860144C204629F0E3
:10B590001EFAF8B1A368DB6A0BB120469847A5688C
:10B5A0002B6A0BB10D4898470C4EAB69002BFCD0B1
:10B5B000012230460DF10701984702460028F4D1D8
:10B5C000AB6C13B1064905489847A3689B6A0BB159
:10B5D0000248984702B070BDA80E0120045804002C
:10B5E00081B4010030B5406801F01F04057BB2F55D
:10B5F000001F85B044EA451405D1204601F01CFE29
:10B60000002005B030BD0025B2F5800FCDE9025510
:10B6100014D1B3F1007F0CBF042305238DF808304B
:10B6200000232046194602AA01F03CFC1C4B98421C
:10B6300033D10121204601F0BBFDE1E7B3F1C06F3A
:10B6400020D0B3F1007F14BF012302238DF808300E
:10B650008368CB40D907E3D4B2F1A07FE0D1114A8F
:10B6600004F01F03803352F82330DB07D8D40DF1E8
:10B6700007052946204601F047FD0B4B984203D0B1
:10B680000395CDE70323E1E7284601F08BFD044B4A
:10B690009842F5D06FF00B00B3E76FF01500B0E7FC
:10B6A0000000AD0B002584400400AD0B10B501F087
:10B6B00069FD044668B901F03DFD084B98420AD186
:10B6C0002146074801F01AFD224605213120FEF7E8
:10B6D0007FF8002010BD6FF00400FBE70000AD0B09
:10B6E000E5B60100430970B507D10B4B596821B18C
:10B6F00001250C68094E854001B970BD8A682A4051
:10B7000002D030464B6898471CB1236821461C463E
:10B71000F2E72346FAE700BFAC0E0120D45704003D
:10B720002DE9FF41476801F01F053B7B144645EAC0
:10B7300043150E4628460DF1030101F0E5FC14F413
:10B74000403F80460BD1284601F09EFD3C4B98457A
:10B7500003D19DF8030001F01FFD00200CE0002341
:10B760002846194602AACDE9023301F09BFB344B6F
:10B77000984204D06FF0150004B0BDE8F081804518
:10B7800003D19DF8030001F007FDA30349D540F262
:10B7900006332340B3F5837F19D00CD8062B17D07E
:10B7A00004D8ABB1022BE5D1042311E0B3F5807FBF
:10B7B000E0D101230CE040F20222934226D0B3F5FF
:10B7C000407F25D0B3F5007FD4D1022300E00723CA
:10B7D0008DF8043084F48033C3F30043E0068DF821
:10B7E00005304CBF0323C4F3401321038DF806300A
:10B7F00010D501237A68B34093600022284601A93E
:10B8000001F0FCFB0E4B9842A7D0B3E70523DFE71E
:10B810000323DDE7620341BF01237A68B340D360AD
:10B82000EBE7E3064FF000034CBF0324C4F34014DE
:10B830001A46284601A98DF8044001F033FBE1E7E0
:10B840000000AD0B7FB504694668A56C236D8DB90A
:10B85000002B37D11D460022204611461CF0CFFC9C
:10B86000256304F1200019F003FA002384F85C300A
:10B8700004B070BD616C0BBB39BB41F6FF72AA42CC
:10B8800028BF2A46636CA26500911BB1A36C002BF4
:10B8900018BF13460193E36C02931BB1236D002B79
:10B8A00018BF1346002269463046039301F08CFF0F
:10B8B0000D4B9842DCD06FF00405CCE79D4228BFC9
:10B8C0001D46D9E71D46616CD7E701F06043B3F12F
:10B8D000005FD2D0082D28BF0825206E2A4629F007
:10B8E000EBFB216EC9E700BF0000AD0B2DE9F04F67
:10B8F00098468B880746046998040D4691468BB09C
:10B9000000F1CF804FF0FF324FF0FF3304F1100011
:10B9100019F0CEF96560D7F804B0D7F810A0DBF8BD
:10B92000083003939AF85D3001931BB1DAF80030C8
:10B930009D4265D0AE88310500F1E28016F0090F16
:10B9400040F0DB80C6F34513082B40F0D6802B680F
:10B950000293029A764B9A4240F2CF800DF1140C7A
:10B960000BF10C0EBEE80F00ACE80F00DEF8003063
:10B97000CCF80030DDE90223934228BF13466D4A1C
:10B98000934240F297806C4A934240F296806B4A11
:10B99000934240F295806A4A934240F29480694A09
:10B9A000934240F29380684A93422CBF4FF0004389
:10B9B0004FF08043B207079306F0040340F18980FB
:10B9C000002B14BF032302238DF82030019BC6F304
:10B9D00000168DF821602BB1584601F0ADFE002312
:10B9E0008AF85D3053465846584A05A901F0FCFDD7
:10B9F000574B984271D10123CAF800508AF85D3044
:10BA0000012384F85C30B9F1000F7CD1C4F8349084
:10BA10000023A36304F1480204F1380104F1340067
:10BA20001CF0C6FB6064B8F1000F75D1C4F83C800F
:10BA30000023236404F1500204F1400104F13C00AE
:10BA40001CF0B6FB002601213246E0642663204646
:10BA50001CF0D5FB3846FFF7F5FE256DA36C274695
:10BA60009D4238BF1D464FF4FA535D4357F8203BC3
:10BA70004FF4004C1B683146B5FBF3F540F2E7305C
:10BA8000C8354FF47A720023E5FB0C01FCF75AFB32
:10BA900002460B46384619F00BF9002844D1256BB5
:10BAA0001DE0A369002B7FF42DAF636899427FF4FA
:10BAB00029AF30E74FF000737CE74FF0806379E700
:10BAC0004FF0006376E74FF0805373E74FF0005379
:10BAD00070E7003B18BF012376E76FF00405236889
:10BAE0009B8813F4005304D1636004F1100019F033
:10BAF000BFF828460BB0BDE8F08F6FF01505EEE7F4
:10BB00006FF08505EBE7D9F800306363002B3FF455
:10BB10007FAFD9F804307CE7D8F80030E363002B1E
:10BB200086D0D8F8043084E76FF07305D7E700BFFC
:10BB300047E801008FD003001FA107003F420F001C
:10BB40007F841E00FF083D0000127A00338303004B
:10BB50000000AD0B024B0B6001231360704700BF68
:10BB6000B80E0120004870475C5E040010B5012249
:10BB70000648114629F0BCF81CF09EFF044C2060DA
:10BB80001CF097FF6060002010BD00BFC00E0120B8
:10BB9000B80E012070B50C4615461CF08AFF2946E8
:10BBA000064620461CF008FC08B3B4FBF6F306FB7F
:10BBB0001343E3B9B5FBF6F306FB1353BBB9AE422F
:10BBC00001D9002070BD4FF0FF324FF0FF3309481C
:10BBD00019F06EF81CF06DFF0646204601F0C2FC1D
:10BBE000AD1B3444F9D1034819F042F8E9E76FF08E
:10BBF0001500E7E7C00E0120F8B50E46194630469D
:10BC000017461C461CF0D8FB08B344EA060515F09D
:10BC100003051CD1A4B14FF0FF324FF0FF330D48A4
:10BC200019F046F824F00304A54206EB050009D1FB
:10BC3000094AD2F80034DB07FBD5064819F018F89A
:10BC40000020F8BD795901F0A9FC0435ECE76FF04C
:10BC50001500F6E7C00E012000900340F0B54B79C7
:10BC6000012B26D0032B21D110258B79032B1DD13D
:10BC7000CE790EB1012E19D10A7912B1022A15D14D
:10BC80000E220B684468B3F5164F276867D02DD88D
:10BC9000B3F5165F66D016D8B3F5966F64D00AD8A0
:10BCA000B3F5967F63D0B3F5167F63D06FF0850050
:10BCB00054E00025D9E7B3F5166F5ED0B3F5965F73
:10BCC000F4D1384B3CE0B3F5E14F59D007D8B3F588
:10BCD000615F57D0B3F5964FE8D1334B30E047F66C
:10BCE0001224A342E2D14FF4000329E0B3F5613FEF
:10BCF0004AD013D8B3F5963F49D009D84DF6C024A1
:10BD0000A34246D0B3F5614FD0D14FF46B0317E097
:10BD1000B3F5E13FCAD14FF0EB7311E0B3F5612FFA
:10BD20003AD008D8214CA34239D0B3F5E12FBDD188
:10BD30004FF0E86304E01E4CA342B7D14FF08053AC
:10BD40000469C7F82435436835431B682A43C3F8A0
:10BD50006C25231D03C983E803000020F0BD4FF4C8
:10BD60001D03EDE7134BEBE74FF49E23E8E74FF499
:10BD7000A033E5E74FF41C33E2E74FF41D23DFE780
:10BD80000D4BDDE70D4BDBE74FF06C73D8E70C4B49
:10BD9000D6E74FF46503D3E74FF07063D0E74FF079
:10BDA0008063CDE700B0130000A04E0090D00300E8
:10BDB00040420F000050270000C0750000F03A001C
:10BDC00000903A012DE9F743804600220121082026
:10BDD000FDF7FEFC0820FDF7CBFC0021D8F804702D
:10BDE000D8F810603C6801AAC4F80015C6F80080B5
:10BDF000D7F80C9048461CF002FD051E4DDB019B58
:10BE0000D9F800201979186800F098FA051E44DB6B
:10BE10004046311DFFF722FF054600283DD17B68D3
:10BE2000990713D506F11C0000F0B6FF1E4B98428F
:10BE300037D1337F43F00043C4F8A031C4F88C30CD
:10BE40000123327F9340194AC2F804350823C4F80D
:10BE500000353B7A53B9C4F81031D4F81031B369C6
:10BE6000C4F834350123C4F8383523607B689A0759
:10BE70005CBF4FF48073C4F804337B68DB0644BFB7
:10BE80004FF48003C4F804337369C4F844350023C5
:10BE9000C4F848350123A360E360284603B0BDE839
:10BEA000F0836FF00405F8E70000AD0B007001406F
:10BEB000F8B504460D46076928F06EFEB0B9214B6F
:10BEC0001B789BB1642660681CF0D2FB00BB01208C
:10BED0001CF0E8FD013EF6D10021212019F00CFBF9
:10BEE000F0E781F31188BFF36F8FF5E74FF0200380
:10BEF000EFF3118183F31288BFF36F8F60680E46F2
:10BF00001CF0B6FB90B981F31188BFF36F8FEDE79A
:10BF10004FF02003EFF3118183F31288BFF36F8F8B
:10BF200060680E461CF0A4FB0028DAD07B69012271
:10BF30001D70204679691CF0DBFA86F31188BFF387
:10BF40006F8FF8BD192701200123834070B5DC43B2
:10BF50000B4AD2E8EF1F01EA0405C2E8E65F002EB3
:10BF6000F7D14FF4803282400648C0F80823BFF36F
:10BF70005F8FBFF36F8F0B4214BF0120002070BD95
:10BF8000D40E01200050014070B40E4922F07F46CB
:10BF9000D1E90034D01AC31844F10004C1E90034D7
:10BFA000A6F50013B3F5400F09D2074B1B681A0A18
:10BFB0001B069C19054B42F10005C3E9004570BC06
:10BFC00019F012BCA8C90020D80E0120B0C9002069
:10BFD000D9B101230D4A8340D2E8EFCF4CEA030CDC
:10BFE000C2E8E1CF0029F7D14FF48033084A8340FB
:10BFF000C2F80433074BD3E8AF3FC340DB0742BF6F
:10C000004FF40012044BC3F800217047D40E0120F6
:10C0100000500140D00E012000E100E00D4B1868F7
:10C02000010A0006BFF35F8F0B4BD3F804351818D5
:10C0300041F10001B3F5801F0AD2084BD3E9002378
:10C04000904271EB030303D210F1807041F10001C3
:10C05000704700BFD80E012000500140B0C9002039
:10C060002DE9F74F16461F460446FFF76DFF009077
:10C07000FFF7D4FFB04271EB070350D2384B301AB0
:10C0800067EB0101984271F1000165D2354B03EB7A
:10C090000413D3E902239F4208BF964249D04FF4CC
:10C0A0008039314909FA04F9204626F07F4BC1F85E
:10C0B00048931CF098FB4FF0030A584604F15005D2
:10C0C000AD00ADB205F1804504F5A873274A05F52A
:10C0D000A8350193DDF804C020F07F4341F82C30EF
:10C0E000C1F84493D1F80485A0EB0800033820F090
:10C0F0007F4090421DD9286860B1D1F80485A8EB33
:10C100000B0020F07F40B0F5000F12D920461CF044
:10C110006AFB164A0AEB08000AF1010ADAE7012372
:10C12000134AA340D2E8EF0F1843C2E8E10F0029F9
:10C13000F8D100250B490C98230101EB0412C850DB
:10C14000C2E902670D9B536020460099FFF740FF4C
:10C15000284603B0BDE8F08F6FF01505F4E700BF87
:10C160000100800098C9002000500140FDFF7F00C1
:10C17000D00E012073B500244FF0FF304FF0FF3197
:10C18000164D174BC5F80845C3E902014FF480333B
:10C1900002264FF40012C5F80433124B0121C5F8F2
:10C1A00004631520C3F880212246FDF711FB1520FA
:10C1B000FDF7DEFA01230C4AAB602B6013600B4BDA
:10C1C0000B4A0093204600230194FFF749FF3046B5
:10C1D000FFF794F8204602B070BD00BF0050014048
:10C1E00098C9002000E100E0D40E012089BF0100C1
:10C1F000FFFF7F002DE9F7432E4BD3F80423900770
:10C200000BD5D3F8042142B10022C3F804212A4AF5
:10C21000D3F80431136801331360264AD2F804338B
:10C22000D90327D5254BD3E8EF1F21F00100C3E840
:10C23000E40F002CF7D1CB0702D4D2F84031CBB1B8
:10C2400000251C4CC4F84051D4F84031FFF7E6FEFD
:10C250004FF02003EFF3118283F31288BFF36F8F47
:10C26000174BD3E90267B042B94106D282F3118875
:10C27000BFF36F8F03B0BDE8F0834FF0FF38D3E911
:10C2800000104FF0FF391D60C3E902894FF480337D
:10C29000C4F84833C4F84051D4F8403182F31188CF
:10C2A000BFF36F8F0029E5D0009032463B46284609
:10C2B0008847DFE700500140D80E0120D00E012052
:10C2C00098C90020431C13B521D0012821DD124A52
:10C2D000124B9042D4BF04461C46FFF79FFE104B02
:10C2E0000E49D3E90023801AB0F5000F28BF0024BF
:10C2F00004448C4228BF0C4600200A49A218019031
:10C30000009143F10003FFF7ABFE02B010BD034CF8
:10C31000E3E70124E1E700BFFEFF7F00FFFF7F00AE
:10C32000A8C9002089BF010008B5FFF777FE024BBE
:10C330001B68C01A08BD00BFA8C900202DE9F04144
:10C3400001273F4E00EB8101814202D10020BDE870
:10C35000F081056805F07F03C5F343247F2B4FEA86
:10C36000154508BF4FF0FF33192D66D8DFE805F0FB
:10C370000D161B1E212D1E656565653151656565B0
:10C38000656565656565545C5F62C2F80C3503F0F0
:10C390001F0507FA05F5B560012502E0C2F814355E
:10C3A0000025AC461CE0C2F80835F0E7C2F81035AD
:10C3B000F6E70025C2F8083503F01F0C07FA0CFC5D
:10C3C000C6F80CC04FF0010C0AE0C2F80C3501258C
:10C3D000F2E7C2F80835002CE2D100250624AC466D
:10C3E00050F804EB24020EF40058B8F1000F1CBF03
:10C3F0004FF0000C0125CEF3C11E44EA8E0403F079
:10C400001F0344EA0C0444EA4504803346F8234001
:10C410009AE7C2F80C35DEE7C2F860350568C5F367
:10C420008035002DD3D0B2E7C2F86435F6E7C2F804
:10C430006835F3E7C2F86C35F0E76FF0850086E702
:10C440000025844070B51A4D1A4C2B7833B9C4E9D5
:10C450000033194828F0BAFB01232B700022012178
:10C460002A20FDF7B5F9154818F020F8144D28607A
:10C470004FF0FF324FF0FF330F4818F00FFB2068EA
:10C4800020B10468043018F0F3FB44B90A4818F0EE
:10C490007FFB0C4C0C4EB44204D3002070BD2046F0
:10C4A0002468EFE7D4E90031286898470834F2E7B8
:10C4B000F8210120F40E0120E00E0120EC5E0400C2
:10C4C000DC0E0120F0BC0400F8BC0400F0B50F4BFA
:10C4D00001461A680E4B0B25002618461F46B84227
:10C4E00001D3013D04D11846013A19605A60F0BDEC
:10C4F00004688C42FBD03CB14468141BA642BCBF0C
:10C50000034626460830EAE70346ECE76C0F0120B5
:10C51000780F01200020054BC3E90000044BD3E84D
:10C52000EF2FC3E8E10F0029F9D17047700F012008
:10C530006C0F01202DE9F04786B005460E4628F025
:10C5400043FA20B96FF06D0006B0BDE8F08728F01F
:10C550005CFD33680446002B0F4604D118F04AFFF7
:10C560006FF00A00F0E7BCBF4FF0FF3333600122E9
:10C57000002101A828F0BCFBE84605954FF02003F8
:10C58000EFF3118A83F31288BFF36F8F18F0CEFF99
:10C59000FFF79CFFDFF818914268D9F800309A4203
:10C5A0006DD10023434D00936B68002B6ED1C5E91C
:10C5B00000888AF31188BFF36F8F33685A1C6AD0E2
:10C5C0004FF4004E40F2E730002123EAE37C4FF4C1
:10C5D0007A720023CCFB0E01FBF7B4FD02460B463A
:10C5E00001A818F065FB4FF02003EFF3118A83F3E5
:10C5F0001288BFF36F8F00222B685BB1434554D183
:10C600000099002A4BD16A6829609A4200D169607A
:10C610000023009318F08AFFFFF758FFD9F8003085
:10C6200043608AF31188BFF36F8F28F0CDF900289B
:10C6300088D035686B1C27D028F0E7FC4FF47A7E51
:10C64000A0FB0E320EFB0121A4FB0E420EFB0722C3
:10C65000DB0BE40B43EA414344EA42441B1B4FEA31
:10C66000D1314FEAE57C61EBD231ED1A6CEB010C74
:10C67000BCF1000FB8BF002535602DB970E74360ED
:10C680008AF31188BFF36F8F00205DE7C3F8008045
:10C69000C5F804808DE74FF0FF321346A0E7116024
:10C6A0006968994208BF6A60B2E71A461B68A4E746
:10C6B0006C0F0120700F012070B40468094B2CB17D
:10C6C0009C4203D303F17005AC4206D3064D2C788F
:10C6D000661C03EB04132E700360006870BC28F026
:10C6E00007BB00BFFC0E0120F921012038B505462B
:10C6F0000A4BD3E8EF1F0131C3E8E21F002AF8D14B
:10C70000074B1C6804B938BD6369AB4200D015B94A
:10C71000201D18F0ADFA2468F4E700BF6C0F01206B
:10C72000700F0120014600220023014828F0CEB9F5
:10C73000C80F01200146014828F0D2B9C80F0120D6
:10C74000014600220023014828F0C0B9DC0F012077
:10C750000146014828F0C4B9DC0F012008B54FF4A8
:10C7600080620649064828F05CF9BDE808404FF4AD
:10C7700002520449044828F054B900BFFA210120AC
:10C78000C80F0120E8840020DC0F012008B588B91B
:10C790000948FBF749FE18B10749084817F00EFD94
:10C7A0000748FBF741FE28B1BDE8084004490348AB
:10C7B00017F004BD08BD00BF3B760400DCB90400DF
:10C7C0005A760400F0B585B06E468168054610398A
:10C7D00021F007041AF016FE32460A4B03F1100C42
:10C7E000374618685968083303C763453E46F7D192
:10C7F0001023214628461AF0D3FD003818BF012027
:10C8000005B0F0BD906E040030B50D46816887B06C
:10C81000102302AA103904461AF0ADFD002802DAEE
:10C82000012007B030BD1022204602A91CF03FF8BD
:10C8300000283AD110221E4902A828F02DFC002819
:10C840000CBF012302232B7020461CF01CF801238F
:10C8500001460DF1070220461AF08DFD0028DFDBAE
:10C860009DF80730204603F00F021B096A702B71F8
:10C8700001220DF107011CF01AF810B96B78042B96
:10C8800003D901236B7000232B71A2682046183A4C
:10C8900022F00702083AA91C1CF01CF80028BFD19E
:10C8A0002046E91C1CF070F8BBE70323CBE700BF70
:10C8B000906E04000E2A13B5044606D90C4B4FF4B3
:10C8C000CE710C4A0C4819F0F9F80E2901D90B4B1E
:10C8D000F5E741EA02118DF807101BF0D4FF0123A0
:10C8E00001460DF1070220461CF010F802B010BD01
:10C8F00080760400FE76040092760400D57604006B
:10C900007FB5032069461CF045F898BB092002A9B1
:10C910001CF040F801282BD103238DF808308DF846
:10C920000B3000249DF800509DF80860184A2946F5
:10C9300010781BF0AEFF18B3314650781BF0A9FFFA
:10C94000F0B19378042B03D09DF80310994217D1CE
:10C95000D378042B03D09DF80B10994210D1137992
:10C96000042B09D15079831E022B03D804B070BD6B
:10C970000028D6D0FF20F9E79DF802109942F1D0A7
:10C980000134032C02F10602D1D10120EEE700BFF1
:10C99000137704007FB50E46092001A9FCF72CFD92
:10C9A000002837D1019802A9FFF72EFF044638B9B5
:10C9B0009DF80850022D1FD0032D07D0012D22D144
:10C9C00001981AF0D7FC204604B070BD0198FFF71B
:10C9D000F9FE04460028F3D101985EB11BF0CDFFAB
:10C9E00004460028ECD1002229460198FFF762FF97
:10C9F0000446E5E70225F6E70198214682681AF029
:10CA0000E4FC0324DCE740F23121034B034A0448F1
:10CA100019F054F80124D6E752740400E7760400B4
:10CA2000927604002DE9F0411F46154B044693F819
:10CA300000800D461646A2B0B8F1000F15D1684629
:10CA40001AF098FD3A4631462846289BA0470446EE
:10CA500068461AF090FDB8F1000F02D0094818F0AE
:10CA600097F8204622B0BDE8F0814FF0FF324FF03A
:10CA7000FF33044818F012F80028E0D01F24F0E734
:10CA800019270120ACC8002030B595B005460C46EA
:10CA90003022002108A828F049FB3F23079307AB69
:10CAA000039334230694CDE9043554B1012305AA38
:10CAB000009200210448019303AA00F007F815B082
:10CAC00030BD2046FBE700BF0001004030B401F557
:10CAD0000045B5F5803F039C0DD243EA0405FF2DC8
:10CAE00009D844EA0324134644EA0142014630BC13
:10CAF0000348FFF797BF6FF0800030BC704700BF5E
:10CB0000217C0100002307B50A4600930146034833
:10CB1000FFF788FF03B05DF804FB00BF197C01003C
:10CB2000002307B501461A4600930348FFF77AFF32
:10CB300003B05DF804FB00BF117C0100014B024A09
:10CB40001A60704770C600200090D00370B50125B0
:10CB50000268B2FA82F3C3F11F03DBB205FA03F4F1
:10CB600022EA0404D0E8EF6F964204D1C0E8EC4F0B
:10CB7000BCF1000FF6D1EBD101480B7070BD00BFC6
:10CB80000000AD0B10B50368CB40DB0710D40123C8
:10CB90008B40026843EA0201D0E8EF4F944204D18F
:10CBA000C0E8EC1FBCF1000FF6D1F2D1014810BD76
:10CBB0000148FCE70000AD0B0400AD0BF7B50446DF
:10CBC00018B101281ED003B0F0BD0222274B074642
:10CBD000C3F80823C3F80401D3F804210122DA6062
:10CBE000012342F21075214E8DF80730B4B1012CAB
:10CBF000E9D187B3D6F80C3403F001033B70D6F8C3
:10CC00000C3413E00022194B0DF10707C3F8080399
:10CC1000C3F80021D3F800215860E1E78FB1D6F8BE
:10CC2000183403F003033B70D6F81834DA03CAD57E
:10CC30009DF807000128C6D11BF034FF013DD5D176
:10CC4000C1E7D6F81834D903BDD501201BF02AFF5F
:10CC5000013DF6D1B7E7D6F80C34DB03B3D501209C
:10CC60001BF020FF013DF6D1ADE700BF00500040B2
:10CC7000044B1A7922B9012218601A7102487047D0
:10CC800002487047F00F01200000AD0B0C00AD0B07
:10CC900008B50520FCF78EFD10B90520FCF768FDEE
:10CCA0000122024BC3F8182508BD00BF0050004008
:10CCB00008B510B101282ED008BD1C4AD2F818348E
:10CCC000D2F81814C9030ED4D2F81434DB0713D5E4
:10CCD000D2F81C3403F00303013B012B09D80223D3
:10CCE000C2F80433E8E703F00303022B05D0012B5D
:10CCF00002D00020FFF762FF01230C4AC2F818356A
:10CD00000023C2F80431D2F804310223C2F80433FC
:10CD100001239360D0E70022044BC3F80021D3F82D
:10CD20000021C3F804031860C6E700BF00500040AC
:10CD300010B5174BD3F8002152B10020C3F8000101
:10CD4000D3F800210122C3F80823124B1B6898472F
:10CD50000F4BD3F804218AB10022C3F80421D3F881
:10CD60000421D3F81824D3F8181402F00302012A7E
:10CD70004FF0020103D1C3F818159A6010BDC3F833
:10CD80000813044B0120BDE810401B68184700BF82
:10CD900000500040F00F012001460148FFF7D6BEC9
:10CDA00074C60020064A00F01F0002EB8002D2F891
:10CDB000003223F4403343EA0143C2F800327047A3
:10CDC00000258440034B083033F81000C0F34010B6
:10CDD000704700BF78C6002070B50D4C00F1080305
:10CDE00034F813300546DA050E4607D5C3F343235E
:10CDF00004EBC302526854F833309847A3682BB150
:10CE000031462846E268BDE87040184770BD00BF53
:10CE100078C6002010B4124A083032F81030D90514
:10CE20001BD5C3F3432123F4F85322F8103000201C
:10CE300002F10E0434F8023F13F4807F03D0C3F3F1
:10CE40004323994209D001302028F3D1002342F82E
:10CE50003130044810BCFFF795BE10BC704700BFCE
:10CE600078C60020CCC6002038B50246FFF7AAFFDE
:10CE70000B4C02F1080560B1002134F815305B0B52
:10CE80009B0003F1804303F54433C3F81015C3F846
:10CE900010151046FFF7BEFF002324F8153038BDEB
:10CEA00078C600202DE9F34104461D4609B34E4FD4
:10CEB00000F1080837F81860B30706D5FFF782FFBE
:10CEC00018B14A4802B0BDE8F081494804F01F0398
:10CED00000EB8300D0F80032097823F00F0326F02E
:10CEE000020643EA810346F00106C0F8003227F843
:10CEF00018609AB13C4E04F1080736F81710137801
:10CF000011F0020F50680CD00028DAD136F8172043
:10CF100022F01C0242EA830326F81730D5BB3548BD
:10CF2000D0E721F02001C904C90C26F81710002809
:10CF3000ECD0032BC5D8526892F800C0624692002C
:10CF400002F1804202F5443223B9C2F81035C2F82A
:10CF50001035DBE7D2F8100541EA4C3120F0030030
:10CF6000C2F81005D2F8100541F0200120F4473036
:10CF700020F44070C2F810052002D2F810E500F449
:10CF8000F85040EA034040EA0E00C2F8100526F8C7
:10CF90001710BBE72046D5E90067FFF73BFF002EDF
:10CFA000BDD0114DD5E90023964201D19F4218D042
:10CFB00011480DF10701FFF7C9FD0E4B984281D1D1
:10CFC0009DF8072005EBC20308345F6035F8143084
:10CFD00045F8326043EA422343F4807325F8143065
:10CFE0009DE70022EEE700BF78C600200400AD0BED
:10CFF000002584400000AD0BCCC60020F8B50446E7
:10D0000079B33A4E00F1080736F81750AB0704D44D
:10D01000FFF7D8FE08B13648F8BD15F01C0F4B7865
:10D0200022D104F01F00DFF8CCC000F1800E5CF8C4
:10D030002EC091F802E05B002CF4E16C097843EA21
:10D040008E032CF0070C43EA0C0343EA0123294921
:10D0500043F00103803045F0030541F8203026F805
:10D06000175022B92448D7E7012BDAD1D3E71F4E56
:10D0700004F1080736F817008307CCD592F800C0F2
:10D080000023614620F02000890001F18041C004A6
:10D0900001F54431C00CC1F8103526F81700C1F86D
:10D0A00010355578002DDDD0D1F81035927823F465
:10D0B000981323F4F853C1F81035D1F810E5230282
:10D0C00003F4F8532D0443EA0E0305F4403512052A
:10D0D0002B4302F4801240EA4C30134340F020000E
:10D0E000C1F8103526F81700BCE700BF78C600204D
:10D0F0000400AD0B002584400000AD0B014BC3E9DB
:10D100000201704778C6002008B50246FFF75AFEB4
:10D1100038B1054B083233F8123004485B0B0B7002
:10D1200008BD0348FCE700BF78C600200000AD0B37
:10D130000400AD0B38B50F4C94F85850BDB94022DF
:10D14000294604F1100027F0F1FF3120FCF710FB15
:10D15000094B0A48C3F87C51D3F87C214FF00042B8
:10D16000C3F80423012384F85830636538BD0448AC
:10D17000FCE700BF78C60020001003400000AD0BA4
:10D180000500AD0B034B93F85800003818BF012081
:10D19000704700BF78C6002001460148FFF7F2BC87
:10D1A000C8C6002001460148FFF7D0BCC8C6002011
:10D1B000024610B5FFF706FE1B4B02F1080433F8D8
:10D1C0001430C8B113F0020416D118485B0B9A0052
:10D1D0008450805802F1804202F54432D2F81005A2
:10D1E00040F00100C2F8100529B1012202FA03F350
:10D1F0000F4AC2F8043310BDC3F38203042B0ED0D0
:10D20000052B0ED00B4B196902F01F03D94001F01A
:10D21000010102311046BDE81040FFF7C3BD0321F4
:10D22000F8E70221F6E700BF78C6002000110340AE
:10D23000001003400025844008B50246FFF7C2FDF8
:10D24000C0B10F4B02F1080133F81130990711D426
:10D2500001225B0B9A400B499B0003F18043C1F80C
:10D26000082303F54433D3F8102522F00302C3F852
:10D27000102508BD0021BDE808401046FFF792BD0B
:10D2800078C600200010034010B50C4B00F10802D6
:10D2900033F812300446DB070DD5FFF7CDFF2046EB
:10D2A000FFF7E2FD0222064B04F01F04803405481C
:10D2B00043F8242010BD0448FCE700BF78C60020D6
:10D2C000002584400000AD0B0400AD0B2DE9F04FAC
:10D2D000002501222C464D4B4D484E4985B01E6815
:10D2E00036B1D0F8046316421EBF1C601E68154399
:10D2F00004338B424FEA4202F1D1454FD7F87C31DB
:10D3000093B1454E0DF10C09336A039333624FF02C
:10D31000010A039870B9C7F87C01D7F87C31336AE9
:10D3200003933362002BF2D10124002D56D105B0B6
:10D33000BDE8F08F90FAA0FBBBFA8BFB374A0BF1EC
:10D3400008034FEADB0C32F813100BF0070419F84E
:10D350000C300AFA04F423EA040309F80C3006EB53
:10D360008B03D3F80042C1F38202C9069046C4F38E
:10D37000014418D5114658460193FFF72DFD019B36
:10D38000E4B2D3F80032C3F301439C4207D1002139
:10D390005846FFF707FD21465846FFF703FD0AFAF6
:10D3A0000BF03062B5E7022C0CD103215846FFF791
:10D3B000F9FC08F00503012BF1D141465846FFF76F
:10D3C0000BFDECE7022158460192FFF7EBFC019AB6
:10D3D000032AF2D0032CE2D18A42EDE795FAA5F3B5
:10D3E000B3FA83F304FA03F29B0003F1804303F5DD
:10D3F0004433D3F81005D3F81015C0F30420C1F35B
:10D40000014125EA0205FFF7E7FC8EE70011034022
:10D4100000100340201103400025844078C60020FE
:10D4200070B5084C0E462379154643B92A20FCF7FF
:10D430009FF90123044823712660A56070BD03484D
:10D44000FCE700BFF80F01200000AD0B0C00AD0B96
:10D45000002330B50D4A50F8234003F5A271013383
:10D46000082B42F82140F6D10023084A00F11C01A4
:10D4700003F5B27451F8045F0133082B42F82450CD
:10D48000F6D1036CC2F8043330BD00BF00A00240E7
:10D4900000234FF0FF31134AC2F81035C2F814359B
:10D4A000C2F81835C2F81C35C2F82035C2F8243548
:10D4B000C2F82835C2F82C35C2F89035C2F8943538
:10D4C000C2F89835C2F89C35C2F8A035C2F8A43528
:10D4D000C2F8A835C2F8AC35C2F80813024A137175
:10D4E000704700BF00A00240F80F01200123024A4C
:10D4F0008340C2F80433704700A002400123024A6F
:10D500008340C2F80833704700A00240F8B50126F6
:10D5100000270B4B0B4DD3F80C4304B9F8BD94FA1C
:10D52000A4F0B0FA80F006FA00F324EA0304064BF4
:10D5300082009F502B68002BEFD0A9689847ECE73A
:10D5400000A00240F80F012000A10240044AD2F8D6
:10D550000834DB07FBD50160BFF35F8F704700BF66
:10D5600000900340C0F30B037BB90222084BC3F8C1
:10D5700084254FF0FF320260D3F80024D207FBD598
:10D5800000220448C3F8842570470348704700BF51
:10D59000009003400000AD0B0A00AD0B012310B555
:10D5A000044CC4F88435FFF7D1FF0023C4F8843558
:10D5B00010BD00BF00900340431C06D00222034B65
:10D5C00000F01F00803043F8202070470025844081
:10D5D000012300F01F00034A834009B9D36070475C
:10D5E00093607047002584402DE9F0470C464E4D6E
:10D5F000017906464F0105EB4111087F002840F0F4
:10D600009080D6F80080EA514B60E07B8A7F60F31F
:10D6100000028A772079D2B260F341028A77E378F8
:10D62000CB77E37BD6F800A0002B38D1217B207884
:10D63000012994BF00210121FFF7CAFF01222378AD
:10D64000DFF8E89003F01F03803349F82320637864
:10D65000FF2B0BD003F01F039A40C9F80C200322C4
:10D66000637803F01F03803349F82320A378FF2B4E
:10D6700006D0A27B03F01F039200803349F82320D9
:10D68000E078FF280BD0217981F00101FFF7A0FF9E
:10D690000322E37803F01F03803349F82320237C1F
:10D6A00093B963782178FF2B18BF1A46A37808BF77
:10D6B0004FF0FF32FF2B08BF4FF0FF33CAF80815B9
:10D6C000CAF80C25CAF81035A368C8F82435637B5E
:10D6D000227B003B18BF0123022A1CD0032A1DD045
:10D6E000012A01D143F00203C8F85435A379C8F8E0
:10D6F000C0350723C8F80035EB5923B1306840F333
:10D700000730FCF735F800233D446B7701230848C8
:10D710002B77BDE8F08743F00403E5E743F0060309
:10D72000E2E70448F5E700BF04100120002584402B
:10D730000000AD0B0500AD0BF8B503791F4D5E0180
:10D7400005EB4317AB590468B3B144F30730FCF75A
:10D750001DF81B4BC4F808337B7F6BB10123642792
:10D760006361D4F8043123B901201BF09BF9013F18
:10D77000F7D10022AB195A770023A919C4F8003554
:10D780008B7FDB0715D4D4F80805FFF715FFD4F815
:10D790001005FFF711FFD4F80C05FFF70DFFCB7F45
:10D7A000FF2B06D00221074A03F01F03803342F803
:10D7B0002310002335442B77F8BD00BF041001204F
:10D7C00052010800002584402DE9F843384F0379C1
:10D7D000154607EB431898F81D2081460C465E015C
:10D7E000002A63D1BA592AB115F0140F04BF0122DF
:10D7F00088F81D2007EB060C0CF10C0C94E80F00C8
:10D800008CE80F00012140461BF059F92168D9F836
:10D81000003021B101F06042B2F1005F06D1A26890
:10D8200052B102F06042B2F1005F05D000233E44E5
:10D8300020487377BDE8F8836268C3F84415C3F8DD
:10D840004825D4E90212C3F83415C3F8382500225C
:10D85000C3F81821D3F8182115F0010218BF0122CE
:10D86000C3F8502515F0020218BF0122C3F8402565
:10D870002A0707D5BA5972B9002140461BF01FF993
:10D880000D48D7E701221A61BA5922B9D3F81821F5
:10D89000002AFBD0F0E715F0040F4FF0400202D051
:10D8A000C3F80823ECE7C3F80423E9E70348C1E71A
:10D8B000041001200A00AD0B0000AD0B0B00AD0BF6
:10D8C00070B50C4BD3F8182192B100250A4C2946AB
:10D8D0002046C3F81851D3F818311BF0F0F8D4E9FA
:10D8E00000316577257204F10800BDE870401847E3
:10D8F00070BD00BF00B00040041001202DE9F04FC2
:10D90000944C97B0099020681EF052FA099B80460B
:10D910001B689D6BEB6A0BB128469847D8F800301E
:10D9200053B901232068C8F810300268D2689169A1
:10D93000CE0710D4002311E0D8F80430002BF0D02B
:10D940002268D8F81030002BEBD01068836A002BC7
:10D95000F7D09847F4E792699407EBD5C8F81430EC
:10D96000D8F814300E93099B1B685A69C2B1D5E9E7
:10D9700000541A7C12F0300F00F0CF81510740F1B3
:10D98000CC810668337C03F00602062A1FD1724B55
:10D9900040F27A3200930320704B71490AF0A0FBE9
:10D9A000D8F8002082B1D8F804306BB10999096821
:10D9B000097CC90701D50E9931B1D8F808108A42FF
:10D9C00018BF1346C8F8083017B0BDE8F08F03F051
:10D9D0003002202A3AD1A28823880132D21AE38861
:10D9E000618801335B1A4FF0FF3112B21BB202FBA8
:10D9F000031153430A4605EB4303A81E8F1A9742AF
:10DA00001BD373886188013B5B1AB4F90620E3805D
:10DA100073882188013B9B1A63803388B4F9042002
:10DA2000013B5B1AA38033882146013B9B1A304699
:10DA30002A4623801BF04FF8B2E733F8027D30F816
:10DA400002CF013AA3F800C00780D7E7DA06A7D5CE
:10DA50001EF0AEF92388B4F9042007930390531CF9
:10DA600007989BB21F1A0893BBB20A93B4F902300D
:10DA70003FB20F936388B4F900100593E3880598CB
:10DA800001331B1A1BB206934FF4A053B3FBF7F3F9
:10DA900006988342A8BF03461093337C03F03003FB
:10DAA000102B26D1738807995A1E521AE280089AC1
:10DAB0009B1A63804FF0000AD34607EBD7735B10C5
:10DAC00015937B1C03EBD3735B10149327EAE77366
:10DAD0005B0012930A9B013B9BB20D93069B53453F
