:020000021000EC
:10800000983B0120999801006F5103006D98010081
:108010006D9801006D9801006D9801006D98010048
:108020000000000000000000000000009195010029
:108030006D98010000000000319501006D9801006D
:108040001596010015960100159601001596010080
:108050001596010015960100159601001596010070
:108060001596010015960100159601001596010060
:108070001596010015960100159601001596010050
:108080001596010015960100159601001596010040
:108090001596010015960100159601001596010030
:1080A0001596010015960100159601001596010020
:1080B0001596010015960100159601001596010010
:1080C0001596010015960100159601001596010000
:1080D00015960100159601001596010015960100F0
:1080E00015960100159601001596010015960100E0
:1080F00015960100159601001596010015960100D0
:1081000015960100159601001596010015960100BF
:1081100015960100159601001596010015960100AF
:10812000159601001596010015960100159601009F
:10813000159601001596010015960100159601008F
:04814000159601008F
:1081440053B94AB9002908BF00281CBF4FF0FF31BA
:108154004FF0FF3000F00CB8ADF1080C6DE904CE1F
:1081640000F008F8DDF804E0DDE9022304B070470C
:10817400704700BF2DE9F04786468C460846089EA6
:10818400154674461946002B40F0C1808542B2FA68
:1081940082F245D94AB1C2F1200300FA02FC9540AB
:1081A40094402EFA03F343EA0C0C4FEA154EA8B29E
:1081B400230CBCFBFEF80EFB18CC08FB00F943EAC9
:1081C4000C43994528D9EB1808F1FF3704D2994597
:1081D40002D9A8F102072B44A3EB0903A4B2B3FB11
:1081E400FEFC0EFB1C330CFB00F044EA0344A042EB
:1081F40014D92C190CF1FF3304D2A04202D9ACF1EA
:1082040002032C44241A43EA07401EB1D44000233D
:1082140034607360BDE8F0874746DDE76346F1E705
:1082240092BB431B01214FEA154EAFB2200CB3FBA6
:10823400FEFC0EFB1C330CFB07F840EA0343984595
:1082440061D9EB180CF1FF3004D2984502D9ACF196
:1082540002002B44A3EB0803A4B2B3FBFEFC0EFB09
:108264001C330CFB07F744EA0344A7424DD92C19ED
:108274000CF1FF3304D2A74202D9ACF102032C441F
:10828400E41B43EA0040C0E7C2F120039540944058
:1082940020FA03F12EFA03F34FEA154E9040AFB2E1
:1082A4000343B1FBFEFC0EFB1C10190C0CFB07F87E
:1082B40041EA0041884522D969180CF1FF3004D203
:1082C400884502D9ACF102002944A1EB08019BB214
:1082D400B1FBFEFC0EFB1C110CFB07F743EA014348
:1082E4009F420ED9EB180CF1FF3104D29F4202D900
:1082F400ACF102012B44DB1B41EA004193E76046E9
:10830400E3E76146F7E76046A4E76346B8E78342DC
:1083140006D916B9002108467CE7C6E900E0F9E76A
:10832400B3FA83F78FB9834201D3724508D8BEEB01
:10833400020460EB030301209C461EB9002169E797
:108344003846FAE7C6E9004CF8E7C7F1200CBB4011
:108354000EFA07F522FA0CF42EFA0CF1BA401C437B
:1083640020FA0CF3B8404FEA144901431FFA84FE83
:10837400B3FBF9F809FB18300B0C08FB0EFA43EABF
:1083840000439A4540D9E31808F1FF3004D29A45D6
:1083940002D9A8F102002344A3EB0A0389B2B3FB78
:1083A400F9F809FB183308FB0EFE41EA03418E4538
:1083B4002CD9611808F1FF3304D28E4502D9A8F1F3
:1083C4000203214443EA0040A1EB0E01A0FB029802
:1083D4004145CE46434602D306D14D4504D2013829
:1083E400B9EB020E68EB0403002EA7D0B5EB0E0226
:1083F40061EB030101FA0CFC22FA07F3F9404CEAA1
:108404000303C6E9003199E74046C5E74346D9E787
:1084140010F8012B11F8013B012A28BF9A42F7D02A
:10842400D01A7047034613F8012B002AFBD1181AFF
:108434000138704713B50446074801A983685B688F
:10844400984738B9012303FA04F0019B184214BF7A
:108454000120002002B010BD8422040070B4034641
:108464000A46012406489C4006698568316821EA69
:10847400040131602C681946234670BC184700BFBC
:108484008422040008B54FF400311920FFF7E6FFF9
:108494004FF400311520FFF7E1FF4FF400311620AF
:1084A400FFF7DCFF4FF400311820FFF7D7FF4FF43C
:1084B40000311720FFF7D2FF004808BD84220400D2
:1084C400F8B50646FFF7AEFF00240546054FAC425B
:1084D40000DBF8BD315DBB6802485B689847013436
:1084E400F5E700BFB42204002DE9F043754891B0CC
:1084F400FFF7E6FFFFF7C6FF4FF4003105460420FF
:10850400FFF7ACFF4FF480310820FFF7A7FF4FF4CB
:1085140080310720FFF7A2FF002204216A481CF0E3
:10852400E8F96A4E304629F062F930B931466848B4
:1085340011B0BDE8F0431CF09BBA1CF0D3F9002243
:10854400114620F04CFD1CF0CDF900224FF0FF3114
:1085540020F05AFD5F4823F004F84FF000015D4815
:1085640022F098FE00215B4822F0BCFE1CF0BAF910
:1085740005F0A6F8A0225021044620F025F8002397
:1085840020461A46092120F04DF800225149204680
:108594001EF06DF81CF0A6F907F06EFD04460121EB
:1085A40021F025F820464C4908F0CEF96FF03B0342
:1085B40000220921204620F035F81CF093F907F039
:1085C4005BFD07460121204621F011F83846434956
:1085D40008F0BAF96FF02C0300220921384620F084
:1085E40021F81CF07FF907F047FD3D49044608F0E7
:1085F400ABF9002309211A46204620F013F80DF0A8
:1086040039F9B36830465B689847364FDFF8D8804D
:1086140000240022214628461CF0A7F900263246F1
:10862400214628461CF0A1F94FF4005000210136E0
:108634001AF0F8FF0A2EF2D101340022214628460E
:108644001CF093F90A2CE4D13846FFF739FF0720D0
:10865400FFF7F0FE06460820FFF7ECFE81461CF00B
:1086640041F907F009FD012E044602D1414608F004
:108674006BF94B46202168461C4A1BF0E9FC20217B
:1086840033461B4A0DEB01001BF0E2FC6946204611
:1086940008F05AF9002305211A4620461FF0C2FFAC
:1086A4001CF020F907F0E8FC044608A908F04CF98E
:1086B4006FF00E030022052120461FF0B3FF0DF0DA
:1086C400D9F8A5E7823B040084220400E4220400D4
:1086D400A53B040058090120BB3B0400C73B040030
:1086E400CE3B0400D23B0400E63B0400F13B040013
:1086F400FC3B0400014B1B68184700BF80C50020E9
:10870400014B1860704700BF80C5002007B50B46B9
:10871400002102460091034800F076F903B05DF8A9
:1087240004FB00BFF98601002DE9F047058B0446E0
:108734002807904611D4022905F0070540F0CD80A2
:1087440020461CF005FC78B10138218B042811D88F
:10875400DFE800F0C3106D85950001290CBF45F0DA
:10876400100545F02005258388F31188BFF36F8F2A
:10877400BDE8F08701F0070AAA4500F0A6800027AB
:10878400B9463E46A368002B00F0BD8041F00801C5
:10879400218388F31188BFF36F8FA168002900F04B
:1087A400BB800D68002900F0B7803346524620464E
:1087B400D1F80480C047002D76D02B6829461D4689
:1087C400F0E701F007035A1F012A1BD8002221F009
:1087D4000701062B276889B2C4E9002209D13B4668
:1087E40003E0628B013262831B68002BF9D141F0F4
:1087F4000201204621831CF0ABFB00287BD041F012
:10880400200177E0042B0AD121F0070189B2204628
:1088140021831CF09DFB10B141F020012183218BA9
:1088240001F0070AAA4550D00027B946AAE72369F0
:1088340021F0070141F00601062DD3F800902183B1
:108844002DD1B9F1000F40D041F00801218388F304
:108854001188BFF36F8F20463949C84729E021F0BA
:108864000701236941F0040189B2042DD3F804906F
:108874002183E6D000274FF0040A3E4682E721F028
:108884000701236941F0050189B2052DD3F8089049
:108894002183D6D000274FF0050A3E4672E7002711
:1088A4004FF0060A3E466DE72B4687E7B9F1000F05
:1088B400D1D14FF02003EFF3118883F31288BFF373
:1088C4006F8F238B23F008032383258BEA062ED591
:1088D40025F01003238305F007056669218B002E1C
:1088E400BFF66FAF00232768C4E9003321F0070106
:1088F40041F001012183218B4FF0000901F0070AA7
:10890400AA457FF43FAF002F9BD041F0080121839B
:1089140088F31188BFF36F8F002FC7D03D683946A5
:108924003346524620461CF03FFB2F46F4E7AB0685
:108934007FF51AAF25F02003238305F00705FFE632
:10894400D94F0300F0B5024601680A270020074EFC
:108954000B461C780131355D6D0701D41360F0BD01
:1089640007FB0043A3F13000F2E700BF7B81040062
:108974002DE9F84F15469A46D378224A6F2B12F800
:1089840003B080460F460BF0030B29D024D8582B94
:108994000CBF10260A26DDF82890324600234046F4
:1089A4003946FFF7CDFB092AD4B21ED83034B0457E
:1089B400E4B277F1000709F8014D01D3D14511D88C
:1089C4002B789B0605D5082E15D1AB7843F0080308
:1089D400AB704846BDE8F88F03F0F703702BD7E778
:1089E4000826D8E780460F46D7E7BBF1010F0CBF36
:1089F40037345734DBE7102EEBD1AB7843F0100358
:108A0400E6E700BF7B8104002DE9F04F824617465C
:108A14001C46002597B00391387808B9284649E3E5
:108A24007B1C2528049306D00399D0470028C0F264
:108A340041830135F0E11822002110A829F014F92E
:108A44007B78252B00F0A380002398469E469C4605
:108A54001846791C0E4611F8012B2B2A00F0C6800B
:108A640000F2BD80202A00F0C480232A00F0C480D4
:108A74002BB19DF8483043F040038DF84830B8F1ED
:108A8400000F05D09DF8483043F020038DF848309E
:108A9400BEF1000F05D09DF8483043F010038DF867
:108AA4004830BCF1000F05D09DF8483043F008036E
:108AB4008DF8483028B19DF8483043F004038DF810
:108AC40048309DF8483003F04401442903D16FF342
:108AD40086138DF848309DF848302A2A43F08003E5
:108AE40009968DF8483040F08C809DF8493043F069
:108AF40001038DF84930731C1A782E2A0CBF01210A
:108B040000219DF8492061F341028DF849200CD1E0
:108B14005A1C09925A782A2A40F083809DF84920E9
:108B2400023342F004028DF849201A786C2A00F0CE
:108B3400A48000F28680682A00F08C806A2A00F003
:108B4400A5804C2A00F0AA801A4612F8013B782B23
:108B540004928DF84B309DF8492000F217816D2B5B
:108B640000F2A980692B00F21181572B00F2BE801C
:108B7400412B03D0453B022B00F2088104229DF8CF
:108B84004A3062F302038DF84A300123CAE0BA1C6A
:108B940004928DF84B309DF84930DA0740F1FD809E
:108BA40054F8049BB9F1000F07DA9DF84820C9F185
:108BB400000942F004028DF848205E0740F1F68077
:108BC40054F804BBBBF1000F80F2F5809DF84930E6
:108BD4006FF341038DF849304FF0FF3BEBE02D2A52
:108BE4000DD0302A7FF444AF012333E74FF0010C5A
:108BF40030E74FF0010E2DE74FF001082AE701207E
:108C040028E709A8FFF79EFE099BB3423FF474AF1F
:108C14009DF848201390C00F60F341028DF848205E
:108C24006AE709A8FFF78EFE9DF848301490C3F355
:108C3400400242EAD07262F341038DF84830099B46
:108C440073E7742A26D07A2A7FF47EAF06219DF832
:108C540049200CE05A78682A9DF8492006D1012160
:108C640061F3C6028DF8492002336DE7022161F3F6
:108C7400C6028DF84920013366E75A786C2A9DF8BC
:108C8400492001D10421EBE70321F0E705219DF8F8
:108C94004920ECE707219DF84920E8E7BDF8482082
:108CA40022F4F04222F0020242F4804242F0020234
:108CB400ADF84820DFE76E3BD9B201238B4040F288
:108CC40082410B4238D113F0240F52D1D8075DD51D
:108CD40003219DF84A3061F302038DF84A3002F013
:108CE4007803A3F140014B424B411BE00120A3F167
:108CF4005801C9B200FA01F111F4624F7FF43EAF9A
:108D040040F6010631421DD111F4043F3ED09DF8D6
:108D14004A3060F3020302F07802402A8DF84A30A8
:108D240034D000239DF84820C2F340010B4363F381
:108D340041028DF848202EE702219DF84A3061F364
:108D44000203E8E702209DF84A1002F0780260F37B
:108D54000201402A8DF84A1002BF9DF8481041F0E4
:108D640001018DF84810632BDBD1131E18BF0123BA
:108D7400D8E703219DF84A3012F0780F61F302031B
:108D84008DF84A3014BF01230023CBE79DF8483007
:108D940043F001038DF84830C3E79DF94820002AC9
:108DA400ACBF4FF0FF39DDF84C9006E798077FF52C
:108DB40013AFDDF850B00023CDE913339DF84A30EA
:108DC4009DF8491003F00703012BC1F3C30133D10C
:108DD400CB1E042B04D8DFE803F0214646212100F2
:108DE400236801294FEAE372CDE910321CD19DF9C1
:108DF4004030DA17CDE9103204349DF8483013F0CE
:108E0400030650D03A465046049B03991CF079F966
:108E14000028C0F24F810544049FFDE554F8043B4B
:108E2400DA17CDE91032E8E70229E5D11AB243F3A3
:108E3400C033CDE91023DFE7022B24D1CB1E042B52
:108E440004D8DFE803F018101018180001294FF0B7
:108E5400000254F8043B14D00229CDE91032CCD1DD
:108E64009BB21093C9E7073424F00704F4E8022303
:108E7400CDE91023C1E754F8043B10930023119368
:108E8400BBE7DBB2CDE7042B08D1073424F0070499
:108E9400D4E900230834CDE91023AEE7032BACD189
:108EA40054F8043BDDE79DF84B007828B4D86228D9
:108EB4001CD825283FF4B8AD5828ADD1DDE9100100
:108EC4000DF13E03009312AA0AABFFF751FDBBF16B
:108ED400000F074680F29780002F9DD00DF13E08C9
:108EE400A8EB0700002E4ED001304CE06338152863
:108EF40092D801A252F820F07B8F0100E18F01008B
:108F04001D8E01001D8E01001D8E01001D8E0100AD
:108F1400E18F01001D8E01001D8E01001D8E0100D8
:108F24001D8E010069900100059001002B90010045
:108F34001D8E01001D8E0100558F01001D8E010044
:108F4400059001001D8E01001D8E01000590010099
:108F5400BBF1000F109F0ADB5946384628F040FF4A
:108F640007EB0008002F3FF457AF00260BE038460C
:108F7400FFF758FAF4E700260120109B0DF12908A9
:108F84008DF828300AAF9DF84A3013F0100205928C
:108F940000F0838002305B06DDF84CB048BF149BC0
:108FA400584448BFC018B9F1000F40F390809DF8B1
:108FB4004820A9EB0009C2F380035007069300F18F
:108FC4008680510679D53EB130460399D0470028B2
:108FD40070DB069B01351E4630226FE019075ABF2D
:108FE400C3F300135E012B26DDE91023002BBFF62B
:108FF40065AF524263EB43032D26CDE910235DE7B1
:1090040000265BE700269DF848200DF13E03DB1B9C
:109014006FF386129B458DF848207FF65DAFABEB6E
:109024000303139358E7109880B30DF13E080AAB7D
:109034000021CDF8008012AAFFF79AFCBDF84A304F
:10904400BBF1000F03F0EF0343F4F04343F01003CC
:109054000746ADF84A30D5DA00283FF4DDAEA8EB78
:10906400000082E7109B07293FF6D6AEDFE801F047
:109074000C04060C08080C0C1D70CDE61D80CBE614
:10908400EA17C3E90052C7E61D60C5E6DFF8BC80F5
:109094000646A8F10507052075E71A0748BF013001
:1090A40079E71046079306920399D047DDE9062332
:1090B400002804DA17B0BDE8F08F20224B46194689
:1090C400002903F1FF33ECDC4D4499466D1A2EB1AF
:1090D40030460399D0470028ECDB01359DF84A302F
:1090E400DA0601D41B0705D530200399D0470028A0
:1090F400E0DB0135059B33B103999DF84B00D04764
:109104000028D7DB0135AB4405E030200399D04774
:109114000028CFDB0135ABEB0503002BF5DC434620
:109124003A46504603991BF0ECFF0028C2DB054485
:10913400A944A9EB0503002B7FF76EAE2020039909
:10914400D0470028B6DB0135F3E700BF1C3C040020
:109154004FF02002EFF3118382F31288BFF36F8F75
:109164000121044AC2F8401583F31188BFF36F8FBD
:10917400002070470090034020B1034B800143F06E
:1091840001031847704700BFF025040002F058B8E7
:109194002DE9F84305464FF02003EFF3118683F3DE
:1091A4001288BFF36F8F4FF00C090D4B0D4F1C68E5
:1091B400DFF834802CB986F31188BFF36F8FBDE8D4
:1091C400F883D4E90123002D18BF13462BB198F876
:1091D400142009FB02F2B85C98472468EAE700BF50
:1091E400780901206C090120901C0120012270B52E
:1091F400164B1C7D04F01F039A40D043144B6109A5
:1092040003EB8103D3E8EF1F01EA0005C3E8E65F3F
:10921400002EF7D10A4213D00E4B0F4D8BB10C2305
:109224006343EA185178E85C1BF08FFF0020FFF7D6
:10923400AFFF0C235C4300232A192B51C2E90133ED
:1092440070BD83F31188BFF36F8FEFE7901C01208B
:10925400800901204F5103006C0901202DE9F041E0
:10926400324B07461D7D4FF02003EFF3118883F343
:109274001288BFF36F8F0C246C432D4B2D4E195D58
:109284001A19002947D007CA06EB040C8CE807001A
:1092940000221A5588F31188BFF36F8F0C236B4398
:1092A400F05CF218A8B37B1C10D04FF400400021EE
:1092B400D2F808C0204C0023ECFB00411F4A204692
:1092C400FEF73EFF0121381A28F047FC1AF0ECF8AB
:1092D4000120FFF75DFF1A4B6A0903EB82030122A9
:1092E40005F01F018A40D3E8EF0F1043C3E8E10FF4
:1092F4000029F8D1134B3BB10C2303FB05F03318C1
:109304005978305C1BF015FFFFF770FF1AF0E0F896
:109314000120BDE8F0810146284600F015F8002838
:10932400B8D007C8344484E80700B3E7901C012090
:10933400600901206C0901203F420F0040420F00E8
:1093440080090120375103002DE9F04F85B00E4606
:1093540003A900F043F84FF4004704464FF0000B14
:109364001B4B039DD3F800A0431E1BB203EB430326
:10937400DFF8608005EB830524B9A146484605B0B3
:10938400BDE8F08FC446594668680023E0FB07C176
:10939400114A6046FEF7D4FEC44659460190A868B7
:1093A4000023E0FB07C10C4A6046FEF7C9FEBAF190
:1093B400FF3FA94601D0824505D9731CDED0019B2D
:1093C4001844B042DAD9013CA4B20C3DD4E700BF42
:1093D40084C500203F420F0040420F0008B9024BF1
:1093E4000B600020704700BFF825040001491022DB
:1093F4000A60704710ED00E072B6404080F31188B7
:10940400BFF36F8FBFF34F8F30BF62B6BFF36F8F61
:10941400704700BF72B6494081F31188BFF34F8F84
:1094240020BF80F3118862B6704700BF40B20028A5
:1094340007DB01234109034A00F01F00834042F87F
:109444002130704700E100E040B200280CDB01222B
:109454000649430900F01F008240203341F82320CD
:10946400BFF34F8FBFF36F8F704700BF00E100E081
:10947400054B420953F82220012300F01F0003FA90
:1094840000F01040704700BF00E100E040B2002847
:1094940001F10101ACBF00F16040064B4FEA4111FC
:1094A400C9B2ABBF00F5614000F00F0080F80013B3
:1094B4001954704714ED00E030BFFFF7FDBF00BF43
:1094C4000B4A08B50B4B22F07F029A60BFF34F8F13
:1094D400BFF36F8FD3F8882022F47002C3F888207A
:1094E40019F070FB1AF01EF900F0C8F919F0AAFB84
:1094F4000080010000ED00E0094A0A499368096808
:109504005867996708494B6843F080534B600023C0
:1095140083F31188BFF36F8F9368986F704700BF10
:10952400901C01202C37040000ED00E015498A68E6
:1095340082F87DE04FF030001044EFF3098C80E8AE
:10954400F01F202080F31288BFF36F8F0E4F4FF06F
:109554000066CA698A603E6092F97DE0506F00231C
:10956400536780F3118802F1300090E8F01F8CF308
:10957400098802F1000004B51BF0FEFDBDE80440BB
:1095840070470000901C012004ED00E01EF0040F61
:109594000CBFEFF30880EFF30980816911F8021C16
:1095A4000229FFD001B51BF0D8FD01BD42F8203CD3
:1095B400009B0C4942F81C3C019B21F0010142F83C
:1095C400183C029B42F8081C42F8143C4FF080738C
:1095D40042F8043C002343674FF43C43203A0265BD
:1095E400C36770478F4A0300084B9860436E83F348
:1095F4000B88104681F30988002163B681F3118832
:10960400BFF36F8F002200231BF03FFA901C012050
:1096140001B572B60B4A906900281EBF0021916102
:1096240028F091F962B6EFF30580A0F110004FEA3B
:10963400C0000549014409C99847BDE801400349F0
:1096440008470000901C0120FC22040055960100EC
:10965400044B9968D869884203D003494FF080527B
:109664000A607047901C012004ED00E0084B9A6AE0
:109674009A6A986A9A6A9A6A9A6A9A6A9A6AC0F319
:1096840000506FEA02426FEA124240009A62704749
:1096940000ED00E00D4B9A6A9A6A9A6A920508D521
:1096A4009A6B9A6A120404D518B19A6A22F4004299
:1096B4009A6200209A6A9A6AD205044A58BF9B6A41
:1096C400936A43F47F4393620870704700ED00E0AF
:1096D400124B9A6A9A6A9A6A920708D55A6B9A6ADE
:1096E400120604D518B19A6A22F080029A629A6A24
:1096F4009A6A9A6AD0064FF0000058BF9B6A074BDB
:109704009A6A920642BF5A6A22F400525A629A6ACC
:1097140042F0FF029A620870704700BF00ED00E05B
:10972400F0B54A4B04465B6800258BB0C3F30803CD
:1097340085F31188BFF36F8F02F07F40B0F17F4F44
:1097440016D1D60714D4550603D4100704D4012522
:1097540004E012F0040200D00C4600250022033B72
:109764008DF80720032B05D8DFE803F02462665F39
:109774002C46F3E700239DF80720CAB902AE04F192
:109784002007324620686168083403C2BC4216468A
:10979400F7D1099A002D53D0C2F3080121B96FEA19
:1097A40052226FEA42220992184602A91BF0D3FC06
:1097B4000BB0F0BD254BDA6A9107DBD4DA6A002AD4
:1097C400D8DBDA6A5200D5D55A69A16942F48072AD
:1097D4005A61BFF34F8FBFF36F8F5A6931F8021C80
:1097E40022F480725A61BFF34F8FBFF36F8F4DF62F
:1097F4000272914201D12368BDE79A6AD2B232B1B2
:1098040001200DF10701FFF763FF0346B3E79A6AEE
:1098140012F47F4F05D001200DF10701FFF73AFF45
:10982400F3E79B6AB3F5803FA4D3FFF71FFFECE790
:1098340000200DF10701E6E700200DF10701EDE737
:1098440022F4FF7222F00102ADE700BF00ED00E058
:10985400044B5A6942F010025A615A6942F4806218
:109864005A61704700ED00E0EFF30880EFF30981DF
:1098740001B57246FFF754FF01BD00BF002320214C
:109884000348C2180133412B82F80013F9D1704701
:1098940000E100E0002080F31488BFF36F8F002004
:1098A40080F30A8880F30B88FFF770FC00200E49D0
:1098B4000860BFF34F8F0D4880F3088800F03EF82E
:1098C400202080F311880A484FF40061401880F387
:1098D4000988EFF314800221084380F31488BFF34E
:1098E4006F8FFFF7EDFD000094ED00E0983B012041
:1098F40058220120BFF34F8F0549064BCA6802F472
:10990400E0621343CB60BFF34F8F00BFFDE700BF9E
:1099140000ED00E00400FA05002318460649D1F8DA
:109924009020C2F30722934200DB7047C1F89830BD
:10993400C1F8A0000133F6E700ED00E010B572B6FF
:10994400002484F31388FFF7E7FF23464FF0FF302A
:109954000C4A03F120010133102B42F82100F8D105
:1099640000234FF0FF30074A03F160010133102B4D
:1099740042F82100F8D162B6BFF34F8FBFF36F8F67
:1099840010BD00BF00E100E0084B9B6883420BD18F
:10999400EFF3058343B1064B5A6842F080525A6094
:1099A4005A6A22F400425A6219F05CBE901C0120EB
:1099B40000ED00E01FB5094C094A2346012109487E
:1099C40000F0EAF800230393074B0121E41A01A8ED
:1099D4000193029400F0EAF804B010BD00000420E2
:1099E40080C50020F825040030C8002010B50C7A8A
:1099F4000B6804F01F0223F01F031A43CB686409A9
:109A040023F01F03054943EA440343F00103C1F86B
:109A14009800C1F89C20C1F8A03010BD00ED00E012
:109A24002DE9F04F0F46144606464FF000084E4D00
:109A340085B0B84580F29480D6F80490B9F1000F4F
:109A440036D0B9F11F0F40F2898019F01F0F40F092
:109A54008580D6F800A01AF01F0F7FD150461BF066
:109A640091FB834609EB0A0001381BF08BFB83450D
:109A740074D11BF1160F71D05C456FDDC5F898B039
:109A8400D5F89C10C5F898B0D5F8A03021F01F0186
:109A940043F01F0AD6E900321A44994202F1FF3911
:109AA4001ED1CA4508D131465FFA8BF01BF073FB17
:109AB40008F101080C36BCE73146C5F898B0D5F872
:109AC4009C3022F01F0203F01F031343C5F89C309F
:109AD400E0B21BF060FB10F1160F3FD0441CE7E727
:109AE400C5F898B0D5F8A020013B23F01F0302F07D
:109AF4001F021343CA453146E0B2C5F8A030E8D08E
:109B04001BF049FB10F1160F28D0C5F898B0D5F812
:109B14009C209DF808300AF1FF3A62F304038DF8A3
:109B24000830D5F8A0309DF808205B0863F347128D
:109B34008DF80820D6E900321344009323F01F0364
:109B4400411C5344A3EB0903C8B223F01F030F289D
:109B5400039303D86946FFF749FFBFE76FF0150485
:109B6400204605B0BDE8F08F00ED00E00522044B6F
:109B7400C3F89420BFF34F8FBFF36F8F704700BFBC
:109B840000ED00E0BFF35F8F0022024BC3F8942086
:109B9400704700BF00ED00E010B5034C2278FFF7DA
:109BA4003FFF207010BD00BF041D01202DE9F74FB9
:109BB400294D8A4606464FF00008AB46274FD0454C
:109BC4001BDAD6F80490B9F1000F3FD0316808468B
:109BD40001911BF0D7FA0199044609EB0100013801
:109BE4001BF0D0FA84424FF014021D4B08D002FB44
:109BF40008F36FF015024BF8032003B0BDE8F08FB3
:109C040014F1160F2C60F8D01978A142F5DD02FB8F
:109C140008B0C7F89840C7F89840D7F89C4000F1BE
:109C24000801007B64F304000871D7F8A0000C79E4
:109C3400400860F347140C71D7F89C1021F01F0101
:109C44006960D7F8A01021F01F01296108F101080B
:109C540014350C36B3E700BF8409012000ED00E0A1
:109C6400041D012038B50E4D2C68102C15D8002089
:109C7400FFF788FF0B4B0C4AC3F8C020844205D180
:109C84000A4B00201C70FFF771FF38BD696801EBB7
:109C94000011FFF7ABFE0130F0E74FF0FF30F4E7BF
:109CA4000426040000ED00E0AAFF4400041D012086
:109CB400014B1860704700BF8CC50020F8B50646FC
:109CC4000D460024064FAC4208DA3B6898470A2840
:109CD400305504F1010401D00D28F4D12046F8BD1B
:109CE40088C50020F8B50D46094F461EC0F1010491
:109CF400A3199D4201DC2846F8BD73780A2B02D1D2
:109D04000D203B6898473B6816F8010F9847EFE72A
:109D14008CC5002010B5074C2368C2180648C0F152
:109D2400005101F580218A4236BF22604FF0FF3096
:109D3400C01810BD98090120983D012008B51D21C7
:109D44000448FFF7CFFF404080F311884FF0030031
:109D540002DF00BF283C0400084B70B5C31A0D464F
:109D640007499B1004465943402206481BF07EFADB
:109D74002B4601462046BDE870401847B009012033
:109D8400B76DDBB66C220400402373B50B4C009313
:109D9400041B0B460D460A49A41061430646094AB2
:109DA40009481BF090FA011E05DA30462B4602B032
:109DB400BDE87040184702B070BD00BFB009012073
:109DC400B76DDBB6375303006C22040070B5002274
:109DD400012104460520FFF759FB0F4801F0CAFA98
:109DE4000E4B984215D101F0D5FA26690C4930463C
:109DF4001BF0FEF800280BDB0125356424690849B3
:109E040004F11C001BF0F4F8002801DB0020E564D9
:109E140070BD6FF00400FBE75D9E01000000AD0B18
:109E24002C26040001460C23002270B54B4308483D
:109E3400C4184033D4E90E561844A2631BF003FA45
:109E44002DB132462B46BDE870400248184770BD1C
:109E5400B00901206C22040010B1012804D070471D
:109E6400034B1B6C5B0701D1FFF7DCBF704700BFDE
:109E7400B009012008B54FF02003EFF3118183F3FB
:109E84001288BFF36F8F114A136843F00200106009
:109E9400DA0708D481F31188BFF36F8FBDE8084057
:109EA400012001F087BA0A4BD3F80C24D3F80C3400
:109EB400D307EFD507481BF0C6F981F31188BFF328
:109EC4006F8FBDE808400020FFF7ACBF000A0120F7
:109ED40000500040F00901201FB500220123CDE904
:109EE40002236B46084ACDF800D0CDF804D01BF00D
:109EF40019FA002805DB4FF480420023684619F064
:109F0400A1F805B05DF804FB5553030010B54FF0FC
:109F14002003EFF3118483F31288BFF36F8F074A92
:109F2400136823F00201DB07116002D401201BF047
:109F340092FF84F31188BFF36F8F10BD000A0120D4
:109F44002DE9F041012207463549D1E8EF3FC1E848
:109F5400E02F0028F9D133B9324933484B60CB6044
:109F64008A601BF058F87B1E012B28D8012F06D1DC
:109F74002E4BD3F81C3403F00303022B1FD027F01D
:109F8400DCFC0546E8B92A4B1B78D3B1022206460D
:109F9400264BC3F80823254CDFF89880D4F81834EE
:109FA400D4F81824D20316D503F00303022B01D0EE
:109FB400012F10D175B386F31188BFF36F8FBDE8FD
:109FC400F0814FF02003EFF3118683F31288BFF37F
:109FD4006F8F0125DFE7C5B13046FFF71BFAD4F8D0
:109FE4001835DBB2012BD9D1D4F80421002AD5D0FD
:109FF4000022C4F80421D4F804210222C4F818254C
:10A004002022C8F88021A360C8E70021212019F08C
:10A0140009FBE4E70222054BC3F80423CFE700BFA2
:10A02400AC0901209C090120CC090120005000400A
:10A034005022012000E100E008B5074827F0D7FBD3
:10A0440038B10648FFF734FE0448FEF759FB0020F8
:10A0540008BD6FF01200FBE7B422040065A0010004
:10A064000A2838B50446074D04D1AB680D212846AB
:10A074005B689847AB6803485B68E1B29847204641
:10A0840038BD00BFB422040030B5406801F01F049D
:10A09400057BB2F5001F85B044EA451405D120467E
:10A0A40001F04CFC002005B030BD0025B2F5800F56
:10A0B400CDE9025514D1B3F1007F0CBF042305236D
:10A0C4008DF8083000232046194602AA01F06CFAE4
:10A0D4001C4B984233D10121204601F0EBFBE1E710
:10A0E400B3F1C06F20D0B3F1007F14BF012302236A
:10A0F4008DF808308368CB40D907E3D4B2F1A07F50
:10A10400E0D1114A04F01F03803352F82330DB07F7
:10A11400D8D40DF107052946204601F077FB0B4BF7
:10A12400984203D00395CDE70323E1E7284601F0E5
:10A13400BBFB044B9842F5D06FF00B00B3E76FF014
:10A144001500B0E70000AD0B002584400400AD0B02
:10A1540010B501F099FB044668B901F06DFB084B9A
:10A1640098420AD12146074801F04AFB22460521BC
:10A174003120FFF78BF9002010BD6FF00400FBE7DE
:10A184000000AD0B8DA10100430970B507D10B4B45
:10A19400596821B101250C68094E854001B970BD8B
:10A1A4008A682A4002D030464B6898471CB123681D
:10A1B40021461C46F2E72346FAE700BF040A0120C1
:10A1C400842204002DE9FF41476801F01F053B7B11
:10A1D400144645EA43150E4628460DF1030101F0E5
:10A1E40015FB14F4403F80460BD1284601F0CEFB0A
:10A1F4003C4B984503D19DF8030001F04FFB002030
:10A204000CE000232846194602AACDE9023301F0E6
:10A21400CBF9344B984204D06FF0150004B0BDE87C
:10A22400F081804503D19DF8030001F037FBA303BF
:10A2340049D540F206332340B3F5837F19D00CD8B7
:10A24400062B17D004D8ABB1022BE5D1042311E0BF
:10A25400B3F5807FE0D101230CE040F20222934267
:10A2640026D0B3F5407F25D0B3F5007FD4D10223A7
:10A2740000E007238DF8043084F48033C3F30043F3
:10A28400E0068DF805304CBF0323C4F340132103CB
:10A294008DF8063010D501237A68B340936000220C
:10A2A400284601A901F02CFA0E4B9842A7D0B3E737
:10A2B4000523DFE70323DDE7620341BF01237A6857
:10A2C400B340D360EBE7E3064FF000034CBF032435
:10A2D400C4F340141A46284601A98DF8044001F03D
:10A2E40063F9E1E70000AD0B7FB504694668A56C2E
:10A2F400236D8DB9002B37D11D460022204611460F
:10A304001BF0EBFA256304F1200018F07BFE002318
:10A3140084F85C3004B070BD616C0BBB39BB41F692
:10A32400FF72AA4228BF2A46636CA26500911BB142
:10A33400A36C002B18BF13460193E36C02931BB16B
:10A34400236D002B18BF1346002269463046039341
:10A3540001F086FD0D4B9842DCD06FF00405CCE78C
:10A364009D4228BF1D46D9E71D46616CD7E701F021
:10A374006043B3F1005FD2D0082D28BF0825206EBA
:10A384002A4627F037FC216EC9E700BF0000AD0B59
:10A394002DE9F04F98468B880746046998040D46CA
:10A3A40091468BB000F1CF804FF0FF324FF0FF3376
:10A3B40004F1100018F046FE6560D7F804B0D7F831
:10A3C40010A0DBF8083003939AF85D3001931BB1B9
:10A3D400DAF800309D4265D0AE88310500F1E280A4
:10A3E40016F0090F40F0DB80C6F34513082B40F04C
:10A3F400D6802B680293029A764B9A4240F2CF8021
:10A404000DF1140C0BF10C0EBEE80F00ACE80F00BC
:10A41400DEF80030CCF80030DDE90223934228BF97
:10A4240013466D4A934240F297806C4A934240F23D
:10A4340096806B4A934240F295806A4A934240F276
:10A444009480694A934240F29380684A93422CBFB5
:10A454004FF000434FF08043B207079306F0040324
:10A4640040F18980002B14BF032302238DF8203090
:10A47400019BC6F300168DF821602BB1584601F0FC
:10A48400A7FC00238AF85D3053465846584A05A96C
:10A4940001F0F6FB574B984271D10123CAF80050E2
:10A4A4008AF85D30012384F85C30B9F1000F7CD167
:10A4B400C4F834900023A36304F1480204F1380182
:10A4C40004F134001BF0E2F96064B8F1000F75D1B7
:10A4D400C4F83C800023236404F1500204F14001D9
:10A4E40004F13C001BF0D2F9002601213246E0645D
:10A4F400266320461BF0F1F93846FFF7F5FE256D7B
:10A50400A36C27469D4238BF1D464FF4FA535D4362
:10A5140057F8203B4FF4004C1B683146B5FBF3F56C
:10A5240040F2E730C8354FF47A720023E5FB0C01A2
:10A53400FDF706FE02460B46384618F083FD002858
:10A5440044D1256B1DE0A369002B7FF42DAF636814
:10A5540099427FF429AF30E74FF000737CE74FF066
:10A56400806379E74FF0006376E74FF0805373E739
:10A574004FF0005370E7003B18BF012376E76FF0FC
:10A58400040523689B8813F4005304D1636004F129
:10A59400100018F037FD28460BB0BDE8F08F6FF0BF
:10A5A4001505EEE76FF08505EBE7D9F80030636336
:10A5B400002B3FF47FAFD9F804307CE7D8F80030A3
:10A5C400E363002B86D0D8F8043084E76FF073057A
:10A5D400D7E700BF47E801008FD003001FA10700A1
:10A5E4003F420F007F841E00FF083D0000127A00E6
:10A5F400135A03000000AD0BF0B54B79012B26D0A4
:10A60400032B21D110258B79032B1DD1CE790EB1CB
:10A61400012E19D10A7912B1022A15D10E220B6822
:10A624004468B3F5164F276867D02DD8B3F5165F85
:10A6340066D016D8B3F5966F64D00AD8B3F5967F72
:10A6440063D0B3F5167F63D06FF0850054E0002526
:10A65400D9E7B3F5166F5ED0B3F5965FF4D1384BF6
:10A664003CE0B3F5E14F59D007D8B3F5615F57D05B
:10A67400B3F5964FE8D1334B30E047F61224A342AA
:10A68400E2D14FF4000329E0B3F5613F4AD013D877
:10A69400B3F5963F49D009D84DF6C024A34246D01D
:10A6A400B3F5614FD0D14FF46B0317E0B3F5E13F3D
:10A6B400CAD14FF0EB7311E0B3F5612F3AD008D84B
:10A6C400214CA34239D0B3F5E12FBDD14FF0E8635B
:10A6D40004E01E4CA342B7D14FF080530469C7F87D
:10A6E4002435436835431B682A43C3F86C25231D6E
:10A6F40003C983E803000020F0BD4FF41D03EDE718
:10A70400134BEBE74FF49E23E8E74FF4A033E5E760
:10A714004FF41C33E2E74FF41D23DFE70D4BDDE775
:10A724000D4BDBE74FF06C73D8E70C4BD6E74FF4D7
:10A734006503D3E74FF07063D0E74FF08063CDE754
:10A7440000B0130000A04E0090D0030040420F0060
:10A754000050270000C0750000F03A0000903A0154
:10A764002DE9F7438046002201210820FEF78EFEE2
:10A774000820FEF75BFE0021D8F80470D8F81060BA
:10A784003C6801AAC4F80015C6F80080D7F80C90FC
:10A7940048461BF015FB051E4DDB019BD9F8002034
:10A7A4001979186800F098FA051E44DB4046311DFB
:10A7B400FFF722FF054600283DD17B68990713D592
:10A7C40006F11C0000F06AFE1E4B984237D1337F1D
:10A7D40043F00043C4F8A031C4F88C300123327F25
:10A7E4009340194AC2F804350823C4F800353B7A6B
:10A7F40053B9C4F81031D4F81031B369C4F83435FE
:10A804000123C4F8383523607B689A075CBF4FF492
:10A814008073C4F804337B68DB0644BF4FF48003C1
:10A82400C4F804337369C4F844350023C4F84835C4
:10A834000123A360E360284603B0BDE8F0836FF012
:10A844000405F8E70000AD0B00700140F8B50446BC
:10A854000D46076927F071F8B0B9214B1B789BB1FD
:10A86400642660681BF0E5F900BB01201BF0F1FAD7
:10A87400013EF6D10021212018F0D4FEF0E781F347
:10A884001188BFF36F8FF5E74FF02003EFF31181C9
:10A8940083F31288BFF36F8F60680E461BF0C9F90B
:10A8A40090B981F31188BFF36F8FEDE74FF0200368
:10A8B400EFF3118183F31288BFF36F8F60680E4644
:10A8C4001BF0B7F90028DAD07B6901221D702046FD
:10A8D40079691BF0EEF886F31188BFF36F8FF8BD2A
:10A8E400502201200123834070B5DC430B4AD2E897
:10A8F400EF1F01EA0405C2E8E65F002EF7D14FF42A
:10A90400803282400648C0F80823BFF35F8FBFF34C
:10A914006F8F0B4214BF0120002070BD140A012068
:10A924000050014070B40E4922F07F46D1E9003452
:10A93400D01AC31844F10004C1E90034A6F5001389
:10A94400B3F5400F09D2074B1B681A0A1B069C1962
:10A95400054B42F10005C3E9004570BC18F0C8BFBF
:10A9640040C80020180A012048C80020D9B101239A
:10A974000D4A8340D2E8EFCF4CEA030CC2E8E1CFA2
:10A984000029F7D14FF48033084A8340C2F80433D6
:10A99400074BD3E8AF3FC340DB0742BF4FF400127D
:10A9A400044BC3F800217047140A012000500140F1
:10A9B400100A012000E100E00D4B1868010A0006AE
:10A9C400BFF35F8F0B4BD3F80435181841F1000126
:10A9D400B3F5801F0AD2084BD3E90023904271EBF0
:10A9E400030303D210F1807041F10001704700BFEE
:10A9F400180A01200050014048C800202DE9F74FF3
:10AA040016461F460446FFF76DFF0090FFF7D4FF7C
:10AA1400B04271EB070350D2384B301A67EB010197
:10AA2400984271F1000165D2354B03EB0413D3E96D
:10AA340002239F4208BF964249D04FF480393149DE
:10AA440009FA04F9204626F07F4BC1F848931BF01D
:10AA5400ABF94FF0030A584604F15005AD00ADB20E
:10AA640005F1804504F5A873274A05F5A835019337
:10AA7400DDF804C020F07F4341F82C30C1F8449342
:10AA8400D1F80485A0EB0800033820F07F40904201
:10AA94001DD9286860B1D1F80485A8EB0B0020F01B
:10AAA4007F40B0F5000F12D920461BF07DF9164AFD
:10AAB4000AEB08000AF1010ADAE70123134AA3406A
:10AAC400D2E8EF0F1843C2E8E10F0029F8D10025BE
:10AAD4000B490C98230101EB0412C850C2E9026728
:10AAE4000D9B536020460099FFF740FF284603B0B2
:10AAF400BDE8F08F6FF01505F4E700BF010080009A
:10AB040030C8002000500140FDFF7F00100A0120E2
:10AB140073B500244FF0FF304FF0FF31164D174B43
:10AB2400C5F80845C3E902014FF4803302264FF407
:10AB34000012C5F80433124B0121C5F80463152033
:10AB4400C3F880212246FEF7A1FC1520FEF76EFC17
:10AB540001230C4AAB602B6013600B4B0B4A009330
:10AB6400204600230194FFF749FF3046FFF7E8F938
:10AB7400204602B070BD00BF0050014030C8002024
:10AB840000E100E0140A012029A90100FFFF7F0071
:10AB94002DE9F7432E4BD3F8042390070BD5D3F8B4
:10ABA400042142B10022C3F804212A4AD3F8043113
:10ABB400136801331360264AD2F80433D90327D526
:10ABC400254BD3E8EF1F21F00100C3E8E40F002C6C
:10ABD400F7D1CB0702D4D2F84031CBB100251C4CBD
:10ABE400C4F84051D4F84031FFF7E6FE4FF020039B
:10ABF400EFF3118283F31288BFF36F8F174BD3E9FE
:10AC04000267B042B94106D282F31188BFF36F8F55
:10AC140003B0BDE8F0834FF0FF38D3E900104FF0E4
:10AC2400FF391D60C3E902894FF48033C4F8483307
:10AC3400C4F84051D4F8403182F31188BFF36F8FC8
:10AC44000029E5D0009032463B4628468847DFE796
:10AC540000500140180A0120100A012030C80020C9
:10AC6400431C13B521D0012821DD124A124B904216
:10AC7400D4BF04461C46FFF79FFE104B0E49D3E990
:10AC84000023801AB0F5000F28BF002404448C422E
:10AC940028BF0C4600200A49A2180190009143F1F4
:10ACA4000003FFF7ABFE02B010BD034CE3E7012441
:10ACB400E1E700BFFEFF7F00FFFF7F0040C80020E8
:10ACC40029A9010008B5FFF777FE024B1B68C01ADB
:10ACD40008BD00BF40C800202DE9F04101273F4EC8
:10ACE40000EB8101814202D10020BDE8F0810568BA
:10ACF40005F07F03C5F343247F2B4FEA154508BFB6
:10AD04004FF0FF33192D66D8DFE805F00D161B1E32
:10AD1400212D1E65656565315165656565656565EA
:10AD24006565545C5F62C2F80C3503F01F0507FAD1
:10AD340005F5B560012502E0C2F814350025AC46DE
:10AD44001CE0C2F80835F0E7C2F81035F6E7002534
:10AD5400C2F8083503F01F0C07FA0CFCC6F80CC047
:10AD64004FF0010C0AE0C2F80C350125F2E7C2F8F5
:10AD74000835002CE2D100250624AC4650F804EB3B
:10AD840024020EF40058B8F1000F1CBF4FF0000C61
:10AD94000125CEF3C11E44EA8E0403F01F0344EAE6
:10ADA4000C0444EA4504803346F823409AE7C2F889
:10ADB4000C35DEE7C2F860350568C5F38035002D33
:10ADC400D3D0B2E7C2F86435F6E7C2F86835F3E7E2
:10ADD400C2F86C35F0E76FF0850086E70025844003
:10ADE40070B51A4D1A4C2B7833B9C4E9003319489D
:10ADF40026F0B8FD01232B70002201212A20FEF742
:10AE040045FB154817F0BCFD144D28604FF0FF3288
:10AE14004FF0FF330F4818F03FF8206820B1046862
:10AE2400043018F0EFF844B90A4818F0AFF80C4CA5
:10AE34000C4EB44204D3002070BD20462468EFE7D2
:10AE4400D4E90031286898470834F2E72F1D01201F
:10AE5400340A0120200A0120082804001C0A0120C9
:10AE6400B0820400B8820400F0B50F4B01461A68A2
:10AE74000E4B0B25002618461F46B84201D3013D50
:10AE840004D11846013A19605A60F0BD04688C4236
:10AE9400FBD03CB14468141BA642BCBF0346264603
:10AEA4000830EAE70346ECE7AC0A0120B80A0120BF
:10AEB4000020054BC3E90000044BD3E8EF2FC3E89F
:10AEC400E10F0029F9D17047B00A0120AC0A012032
:10AED4002DE9F04786B005460E4626F085FC20B9DC
:10AEE4006FF06D0006B0BDE8F08726F056FE3368BB
:10AEF4000446002B0F4604D118F012FB6FF00A0031
:10AF0400F0E7BCBF4FF0FF3333600122002101A8FA
:10AF140026F02FFDE84605954FF02003EFF3118A44
:10AF240083F31288BFF36F8F18F096FBFFF79CFF33
:10AF3400DFF818914268D9F800309A426DD10023A5
:10AF4400434D00936B68002B6ED1C5E900888AF3EA
:10AF54001188BFF36F8F33685A1C6AD04FF4004EC8
:10AF640040F2E730002123EAE37C4FF47A720023B5
:10AF7400CCFB0E01FDF7E4F802460B4601A818F0DD
:10AF840061F84FF02003EFF3118A83F31288BFF3C3
:10AF94006F8F00222B685BB1434554D10099002A7E
:10AFA4004BD16A6829609A4200D1696000230093FA
:10AFB40018F052FBFFF758FFD9F8003043608AF3CA
:10AFC4001188BFF36F8F26F00FFC002888D03568F6
:10AFD4006B1C27D026F0E1FD4FF47A7EA0FB0E32E5
:10AFE4000EFB0121A4FB0E420EFB0722DB0BE40B3C
:10AFF40043EA414344EA42441B1B4FEAD1314FEA3E
:10B00400E57C61EBD231ED1A6CEB010CBCF1000F65
:10B01400B8BF002535602DB970E743608AF3118805
:10B02400BFF36F8F00205DE7C3F80080C5F804808C
:10B034008DE74FF0FF321346A0E71160696899422B
:10B0440008BF6A60B2E71A461B68A4E7AC0A01208D
:10B05400B00A012070B40468094B2CB19C4203D39C
:10B0640003F17005AC4206D3064D2C78661C03EB45
:10B0740004132E700360006870BC26F07ABC00BF15
:10B084003C0A0120301D012038B505460A4BD3E89F
:10B09400EF1F0131C3E8E21F002AF8D1074B1C68F7
:10B0A40004B938BD6369AB4200D015B9201D17F04F
:10B0B400A9FF2468F4E700BFAC0A0120B00A01200C
:10B0C400014600220023014826F010BC080B012091
:10B0D4000146014826F014BC080B01200146002259
:10B0E4000023014826F002BC1C0B01200146014844
:10B0F40026F006BC1C0B012008B54FF480620649FB
:10B10400064826F09EFBBDE808404FF4025204496D
:10B11400044826F096BB00BF311D0120080B012016
:10B12400E88400201C0B012008B588B90948FDF704
:10B1340079F918B10749084817F0AAFA0748FDF742
:10B1440071F928B1BDE808400449034817F0A0BAD2
:10B1540008BD00BFE33C0400DF7F0400023D04009F
:10B164002DE9F0411F46154B044693F800800D4627
:10B174001646A2B0B8F1000F15D168461AF000F8CF
:10B184003A4631462846289BA0470446684619F0AB
:10B19400F8FFB8F1000F02D0094817F0F7FE204677
:10B1A40022B0BDE8F0814FF0FF324FF0FF33044886
:10B1B40017F072FE0028E0D01F24F0E7502201208F
:10B1C40018C8002030B595B005460C463022002141
:10B1D40008A826F049FD3F23079307AB03933423C4
:10B1E4000694CDE9043554B1012305AA0092002147
:10B1F4000448019303AA00F007F815B030BD2046B7
:10B20400FBE700BF0001004030B401F50045B5F58F
:10B21400803F039C0DD243EA0405FF2D09D844EA7C
:10B224000324134644EA0142014630BC0348FFF7B5
:10B2340097BF6FF0800030BC704700BF217C0100D5
:10B24400014B024A1A60704734C600200090D003B4
:10B2540070B501250268B2FA82F3C3F11F03DBB2B1
:10B2640005FA03F422EA0404D0E8EF6F964204D10D
:10B27400C0E8EC4FBCF1000FF6D1EBD101480B70E4
:10B2840070BD00BF0000AD0B10B50368CB40DB07F9
:10B2940010D401238B40026843EA0201D0E8EF4F47
:10B2A400944204D1C0E8EC1FBCF1000FF6D1F2D1F6
:10B2B400014810BD0148FCE70000AD0B0400AD0BD4
:10B2C400F7B5044618B101281ED003B0F0BD022220
:10B2D400274B0746C3F80823C3F80401D3F8042115
:10B2E4000122DA60012342F21075214E8DF80730F5
:10B2F400B4B1012CE9D187B3D6F80C3403F00103BF
:10B304003B70D6F80C3413E00022194B0DF10707FB
:10B31400C3F80803C3F80021D3F800215860E1E71B
:10B324008FB1D6F8183403F003033B70D6F8183401
:10B33400DA03CAD59DF807000128C6D11AF089FDA1
:10B34400013DD5D1C1E7D6F81834D903BDD50120C4
:10B354001AF07FFD013DF6D1B7E7D6F80C34DB03D4
:10B36400B3D501201AF075FD013DF6D1ADE700BF5C
:10B3740000500040044B1A7922B9012218601A7156
:10B384000248704702487047300B01200000AD0BA3
:10B394000C00AD0B08B50520FEF76AF810B90520BE
:10B3A400FEF744F80122024BC3F8182508BD00BF7C
:10B3B4000050004008B510B101282ED008BD1C4A29
:10B3C400D2F81834D2F81814C9030ED4D2F81434AD
:10B3D400DB0713D5D2F81C3403F00303013B012B24
:10B3E40009D80223C2F80433E8E703F00303022B6D
:10B3F40005D0012B02D00020FFF762FF01230C4A85
:10B40400C2F818350023C2F80431D2F804310223FB
:10B41400C2F8043301239360D0E70022044BC3F83D
:10B424000021D3F80021C3F804031860C6E700BF65
:10B434000050004010B5174BD3F8002152B1002042
:10B44400C3F80001D3F800210122C3F80823124BEA
:10B454001B6898470F4BD3F804218AB10022C3F824
:10B464000421D3F80421D3F81824D3F8181402F0D3
:10B474000302012A4FF0020103D1C3F818159A60A0
:10B4840010BDC3F80813044B0120BDE810401B682D
:10B49400184700BF00500040300B0120014601480E
:10B4A400FFF7D6BE38C60020064A00F01F0002EBA4
:10B4B4008002D2F8003223F4403343EA0143C2F855
:10B4C4000032704700258440034B083033F81000E5
:10B4D400C0F34010704700BF3CC6002070B50D4C4F
:10B4E40000F1080334F813300546DA050E4607D593
:10B4F400C3F3432304EBC302526854F83330984730
:10B50400A3682BB131462846E268BDE8704018476D
:10B5140070BD00BF3CC6002010B4124A083032F897
:10B524001030D9051BD5C3F3432123F4F85322F873
:10B534001030002002F10E0434F8023F13F4807F2F
:10B5440003D0C3F34323994209D001302028F3D117
:10B55400002342F83130044810BCFFF795BE10BCFC
:10B56400704700BF3CC6002090C6002038B5024694
:10B57400FFF7AAFF0B4C02F1080560B1002134F873
:10B5840015305B0B9B0003F1804303F54433C3F890
:10B594001015C3F810151046FFF7BEFF002324F85A
:10B5A400153038BD3CC600202DE9F34104461D4644
:10B5B40009B34E4F00F1080837F81860B30706D5F1
:10B5C400FFF782FF18B14A4802B0BDE8F08149484C
:10B5D40004F01F0300EB8300D0F80032097823F055
:10B5E4000F0326F0020643EA810346F00106C0F881
:10B5F400003227F818609AB13C4E04F1080736F877
:10B604001710137811F0020F50680CD00028DAD10B
:10B6140036F8172022F01C0242EA830326F817307A
:10B62400D5BB3548D0E721F02001C904C90C26F860
:10B6340017100028ECD0032BC5D8526892F800C02C
:10B644006246920002F1804202F5443223B9C2F804
:10B654001035C2F81035DBE7D2F8100541EA4C3159
:10B6640020F00300C2F81005D2F8100541F02001C3
:10B6740020F4473020F44070C2F810052002D2F8BC
:10B6840010E500F4F85040EA034040EA0E00C2F826
:10B69400100526F81710BBE72046D5E90067FFF729
:10B6A4003BFF002EBDD0114DD5E90023964201D1B8
:10B6B4009F4218D011480DF10701FFF7C9FD0E4B49
:10B6C400984281D19DF8072005EBC20308345F60DE
:10B6D40035F8143045F8326043EA422343F480736A
:10B6E40025F814309DE70022EEE700BF3CC6002099
:10B6F4000400AD0B002584400000AD0B90C6002073
:10B70400F8B5044679B33A4E00F1080736F81750F5
:10B71400AB0704D4FFF7D8FE08B13648F8BD15F0DE
:10B724001C0F4B7822D104F01F00DFF8CCC000F1CD
:10B73400800E5CF82EC091F802E05B002CF4E16C02
:10B74400097843EA8E032CF0070C43EA0C0343EA1E
:10B754000123294943F00103803045F0030541F8F2
:10B76400203026F8175022B92448D7E7012BDAD124
:10B77400D3E71F4E04F1080736F817008307CCD52A
:10B7840092F800C00023614620F02000890001F1F6
:10B794008041C00401F54431C00CC1F8103526F8CD
:10B7A4001700C1F810355578002DDDD0D1F81035CB
:10B7B400927823F4981323F4F853C1F81035D1F890
:10B7C40010E5230203F4F8532D0443EA0E0305F4B1
:10B7D400403512052B4302F4801240EA4C301343E7
:10B7E40040F02000C1F8103526F81700BCE700BF70
:10B7F4003CC600200400AD0B002584400000AD0BC6
:10B80400014BC3E9020170473CC6002008B502465B
:10B81400FFF75AFE38B1054B083233F812300448AA
:10B824005B0B0B7008BD0348FCE700BF3CC600205F
:10B834000000AD0B0400AD0B38B50F4C94F8585014
:10B84400BDB94022294604F1100026F00DFA31203A
:10B85400FDF7ECFD094B0A48C3F87C51D3F87C2171
:10B864004FF00042C3F80423012384F85830636581
:10B8740038BD0448FCE700BF3CC60020001003406C
:10B884000000AD0B0500AD0B034B93F858000038D6
:10B8940018BF0120704700BF3CC600200146014884
:10B8A400FFF7F2BC8CC6002001460148FFF7D0BC6C
:10B8B4008CC60020024610B5FFF706FE1B4B02F1B2
:10B8C400080433F81430C8B113F0020416D1184830
:10B8D4005B0B9A008450805802F1804202F5443296
:10B8E400D2F8100540F00100C2F8100529B1012278
:10B8F40002FA03F30F4AC2F8043310BDC3F3820300
:10B90400042B0ED0052B0ED00B4B196902F01F032C
:10B91400D94001F0010102311046BDE81040FFF7A3
:10B92400C3BD0321F8E70221F6E700BF3CC60020AF
:10B9340000110340001003400025844008B502466E
:10B94400FFF7C2FDC0B10F4B02F1080133F811300B
:10B95400990711D401225B0B9A400B499B0003F118
:10B964008043C1F8082303F54433D3F8102522F0AB
:10B974000302C3F8102508BD0021BDE808401046A5
:10B98400FFF792BD3CC600200010034010B50C4BDD
:10B9940000F1080233F812300446DB070DD5FFF737
:10B9A400CDFF2046FFF7E2FD0222064B04F01F0400
:10B9B4008034054843F8242010BD0448FCE700BF48
:10B9C4003CC60020002584400000AD0B0400AD0BF4
:10B9D4002DE9F04F002501222C464D4B4D484E4990
:10B9E40085B01E6836B1D0F8046316421EBF1C60D1
:10B9F4001E68154304338B424FEA4202F1D1454F8E
:10BA0400D7F87C3193B1454E0DF10C09336A039399
:10BA140033624FF0010A039870B9C7F87C01D7F874
:10BA24007C31336A03933362002BF2D10124002D5D
:10BA340056D105B0BDE8F08F90FAA0FBBBFA8BFBA2
:10BA4400374A0BF108034FEADB0C32F813100BF002
:10BA5400070419F80C300AFA04F423EA040309F879
:10BA64000C3006EB8B03D3F80042C1F38202C90603
:10BA74009046C4F3014418D5114658460193FFF784
:10BA84002DFD019BE4B2D3F80032C3F301439C4281
:10BA940007D100215846FFF707FD21465846FFF716
:10BAA40003FD0AFA0BF03062B5E7022C0CD1032136
:10BAB4005846FFF7F9FC08F00503012BF1D1414684
:10BAC4005846FFF70BFDECE7022158460192FFF7B9
:10BAD400EBFC019A032AF2D0032CE2D18A42EDE76F
:10BAE40095FAA5F3B3FA83F304FA03F29B0003F186
:10BAF400804303F54433D3F81005D3F81015C0F38D
:10BB04000420C1F3014125EA0205FFF7E7FC8EE7B3
:10BB1400001103400010034020110340002584401D
:10BB24003CC6002070B5084C0E462379154643B92F
:10BB34002A20FDF77BFC0123044823712660A560BD
:10BB440070BD0348FCE700BF380B01200000AD0BBB
:10BB54000C00AD0B002330B50D4A50F8234003F51B
:10BB6400A2710133082B42F82140F6D10023084A80
:10BB740000F11C0103F5B27451F8045F0133082B82
:10BB840042F82450F6D1036CC2F8043330BD00BF30
:10BB940000A0024000234FF0FF31134AC2F81035D1
:10BBA400C2F81435C2F81835C2F81C35C2F820356D
:10BBB400C2F82435C2F82835C2F82C35C2F89035BD
:10BBC400C2F89435C2F89835C2F89C35C2F8A0354D
:10BBD400C2F8A435C2F8A835C2F8AC35C2F80813C7
:10BBE400024A1371704700BF00A00240380B0120C5
:10BBF4000123024A8340C2F80433704700A0024084
:10BC04000123024A8340C2F80833704700A002406F
:10BC1400F8B5012600270B4B0B4DD3F80C4304B9A0
:10BC2400F8BD94FAA4F0B0FA80F006FA00F324EA1E
:10BC34000304064B82009F502B68002BEFD0A968A9
:10BC44009847ECE700A00240380B012000A1024015
:10BC5400431C06D00222034B00F01F00803043F83F
:10BC64002020704700258440012300F01F00034A70
:10BC7400834009B9D36070479360704700258440BE
:10BC84002DE9F0470C464E4D017906464F0105EB70
:10BC94004111087F002840F09080D6F80080EA51D6
:10BCA4004B60E07B8A7F60F300028A772079D2B20E
:10BCB40060F341028A77E378CB77E37BD6F800A080
:10BCC400002B38D1217B2078012994BF0021012148
:10BCD400FFF7CAFF01222378DFF8E89003F01F037F
:10BCE400803349F823206378FF2B0BD003F01F0324
:10BCF4009A40C9F80C200322637803F01F038033B1
:10BD040049F82320A378FF2B06D0A27B03F01F035E
:10BD14009200803349F82320E078FF280BD0217962
:10BD240081F00101FFF7A0FF0322E37803F01F0372
:10BD3400803349F82320237C93B963782178FF2B3F
:10BD440018BF1A46A37808BF4FF0FF32FF2B08BF75
:10BD54004FF0FF33CAF80815CAF80C25CAF8103595
:10BD6400A368C8F82435637B227B003B18BF0123FA
:10BD7400022A1CD0032A1DD0012A01D143F0020358
:10BD8400C8F85435A379C8F8C0350723C8F8003576
:10BD9400EB5923B1306840F30730FDF747FB00232C
:10BDA4003D446B77012308482B77BDE8F08743F0C7
:10BDB4000403E5E743F00603E2E70448F5E700BFC0
:10BDC400440B0120002584400000AD0B0500AD0BA1
:10BDD400F8B503791F4D5E0105EB4317AB590468B1
:10BDE400B3B144F30730FDF72FFB1B4BC4F8083302
:10BDF4007B7F6BB1012364276361D4F8043123B9D9
:10BE040001201AF026F8013FF7D10022AB195A7726
:10BE14000023A919C4F800358B7FDB0715D4D4F8A7
:10BE24000805FFF715FFD4F81005FFF711FFD4F844
:10BE34000C05FFF70DFFCB7FFF2B06D00221074A2D
:10BE440003F01F03803342F82310002335442B777B
:10BE5400F8BD00BF440B01205201080000258440B6
:10BE64002DE9F843384F0379154607EB431898F842
:10BE74001D2081460C465E01002A63D1BA592AB1BD
:10BE840015F0140F04BF012288F81D2007EB060CDF
:10BE94000CF10C0C94E80F008CE80F0001214046D3
:10BEA40019F0DBFF2168D9F8003021B101F06042BC
:10BEB400B2F1005F06D1A26852B102F06042B2F161
:10BEC400005F05D000233E4420487377BDE8F88323
:10BED4006268C3F84415C3F84825D4E90212C3F8CC
:10BEE4003415C3F838250022C3F81821D3F81821D3
:10BEF40015F0010218BF0122C3F8502515F0020203
:10BF040018BF0122C3F840252A0707D5BA5972B9C8
:10BF14000021404619F0A1FF0D48D7E701221A611C
:10BF2400BA5922B9D3F81821002AFBD0F0E715F04A
:10BF3400040F4FF0400202D0C3F80823ECE7C3F823
:10BF44000423E9E70348C1E7440B01200A00AD0BD1
:10BF54000000AD0B0B00AD0B70B50C4BD3F81821E2
:10BF640092B100250A4C29462046C3F81851D3F84B
:10BF7400183119F072FFD4E900316577257204F1A4
:10BF84000800BDE87040184770BD00BF00B0004015
:10BF9400440B01202DE9F04F944C97B00990206890
:10BFA4001DF0D4F8099B80461B689D6BEB6A0BB1AE
:10BFB40028469847D8F8003053B901232068C8F8B8
:10BFC40010300268D2689169CE0710D4002311E0C2
:10BFD400D8F80430002BF0D02268D8F81030002BA9
:10BFE400EBD01068836A002BF7D09847F4E7926986
:10BFF4009407EBD5C8F81430D8F814300E93099B85
:10C004001B685A69C2B1D5E900541A7C12F0300F8A
:10C0140000F0CF81510740F1CC810668337C03F0F6
:10C024000602062A1FD1724B40F27A320093032093
:10C03400704B71490AF0A0FBD8F8002082B1D8F8FF
:10C0440004306BB109990968097CC90701D50E99B7
:10C0540031B1D8F808108A4218BF1346C8F808301E
:10C0640017B0BDE8F08F03F03002202A3AD1A2883D
:10C0740023880132D21AE388618801335B1A4FF0B6
:10C08400FF3112B21BB202FB031153430A4605EB04
:10C094004303A81E8F1A97421BD373886188013B00
:10C0A4005B1AB4F90620E38073882188013B9B1A4C
:10C0B40063803388B4F90420013B5B1AA38033887E
:10C0C4002146013B9B1A30462A46238019F0D1FEB3
:10C0D400B2E733F8027D30F802CF013AA3F800C08A
:10C0E4000780D7E7DA06A7D51DF030F82388B4F91E
:10C0F400042007930390531C07989BB21F1A0893BC
:10C10400BBB20A93B4F902303FB20F936388B4F917
:10C1140000100593E388059801331B1A1BB206939C
:10C124004FF4A053B3FBF7F306988342A8BF03462A
:10C134001093337C03F03003102B26D173880799B6
:10C144005A1E521AE280089A9B1A63804FF0000A22
:10C15400D34607EBD7735B1015937B1C03EBD373A8
:10C164005B10149327EAE7735B0012930A9B013B6D
:10C174009BB20D93069B53450ADCBBF1000F3FF4C1
:10C184005BAF58460AF00EF956E76180E280DDE7BE
:10C19400069B109AA3EB0A039342A8BF1346049389
:10C1A4000123039ABDF910901361BAF1000F40F016
:10C1B400A880069B9F4200F3A480D146337CCDF82F
:10C1C40010A003F030031193BDF91030159A934277
:10C1D40058DA0D9B049A4FF0000CA3EB020E0FFAF1
:10C1E4008EF30B937B4313932FE000BF640B01206A
:10C1F400873D0400AF3D0400533D04000B980D99A6
:10C2040002EB090E07FB02021398CB1A19B200FACB
:10C2140083F3049807FB01011198302835F81E00B8
:10C22400ADF830001DD135F8110025F81E0035F8A1
:10C2340013E025F811E035F8121025F81310BDF8B5
:10C24400303025F812300CF1010C14990FFA8CF2ED
:10C254008A421FFA8CF3D1DB049BB9440133049363
:10C26400B2E735F8120025F81E0035F813E025F87A
:10C2740012E035F8112025F81320BDF8303025F8E8
:10C284001130E0E7337C03F03003102B2CD10F9BEB
:10C294000A9A2380059B013B1344A380B946069A5E
:10C2A40009EB0A039A427CDC039B9B69DB0778D584
:10C2B400039B9B69980774D50123039A2146536114
:10C2C4003046BBF1000F14BF5A462A4619F0D1FD7F
:10C2D400039B1B69002B66D109FB07F3D14405EBD3
:10C2E40043050FFA89FA45E73388059A013B9B1AFF
:10C2F400079A9BB20132A3801344089A9B1A2380A5
:10C30400CCE7BBF1000F04D14FF4205009F0CAFF71
:10C314008346AE46002107FB09F3307CA3EB0902F8
:10C32400013B9B1A00F030000B920C930AB291452A
:10C3340010DC337CBDF8102003F03003102B1FFAFF
:10C344008AF123D1059B194489B221800139114412
:10C35400A180A4E74FF0000C302815BF0B9A0C9B6A
:10C364008A185A1A0FFA8CF39F4203DC129B01318C
:10C374009E44DBE73EF81C3030282BF812300CF1D9
:10C38400010C0CBF4A44A2EB0902EBE73388059881
:10C39400013B1B1A5B1A9BB2A38001339B1A2380B7
:10C3A4007DE7002389E7B36A002B91D03046984794
:10C3B4008EE72A462146184688E600BF2DE9F84351
:10C3C40006460D4629B91F4B18681CF025FC054686
:10C3D40040B13046294619F09FFD28461CF046FC22
:10C3E400044608B9BDE8F88320461CF051FC002738
:10C3F4008046B946474513D132461721204602F0FC
:10C4040003FD32461821204602F0FEFC3246192173
:10C41400204602F0F9FC20461CF028FC2546DFE704
:10C42400A3681B6853F82710B9F1000F06D16B1AE3
:10C43400D3F1000949EB03090137DBE7304619F072
:10C444006BFDF9E7640B012070B55A4D044694B0B6
:10C4540028681CF07BFE03680646002B3AD1286846
:10C4640066681CF0D9FB0146304619F01AFD2B68AA
:10C474000646596900293AD1002861D1A66A002EDE
:10C4840044D12B68D86A002876D003A90BF0E8F8C9
:10C4940001284FD1BDF80E10039BC1F34A11C3F319
:10C4A4008A23013909B2013B324600911BB231465D
:10C4B40004A81EF014FC06A81FF016FC2B682046E6
:10C4C40093F8292006A98DF82320DB6A04AA0BF02F
:10C4D400D1F92FE04368002BC1D12A683369002BBE
:10C4E400BDD01068836A002BF8D09847F5E76068E0
:10C4F40019F0D7FC0146002E4FD10028BED02B687E
:10C504005B69DBB12046FFF759FF17E006A80CF082
:10C514003DF92B682046DA6A06A90A9293F8292085
:10C524008DF832205B8D8DF81B20ADF81C306268CD
:10C53400A36A98472B6859690029E3D12B681E69BF
:10C5440031462046FFF73AFF28681CF073FB01468A
:10C554002046FFF733FF28681CF073FB0146204692
:10C56400FFF72CFF286803681B7C9B071FD414B0BB
:10C57400BDE87040FFF70EBD06A80CF007F92B6864
:10C5840020465A8D06A9ADF81C2093F8293062681C
:10C594008DF81B3020F03FFDCCE72B685B69002B46
:10C5A400CED000B919462046FFF708FFC8E714B0FB
:10C5B40070BD00BF640B0120014B1868704700BFB9
:10C5C400640B01202DE9F04F8DB005461CF085FD6C
:10C5D4000023824C04900993F5B1EB68284623604C
:10C5E4001EF013FF2368186902F060F92368586984
:10C5F40008B102F05BF92368D86902F057F923689F
:10C60400186A02F053F923681A69002A63D1A3F85F
:10C6140050210DB0BDE8F08F02F05EFD2060E1E72F
:10C62400334493F83051CDB101362368B3F8502127
:10C634009642F5D300206A490860002A4FD1206849
:10C64400B0F85031002B40F07A8109F0CFFE23F08E
:10C6540071FD0DB0BDE8F04F0BF018BB4FEAC60AF0
:10C664000AF130082068B0F850319D42DCD24319F9
:10C6740093F830316BBBAE422BD04FEAC50B0BF1B4
:10C68400300B00EB0B0140441EF04AFC08B3216858
:10C694000AA801EB0B0241441EF08BFB0AA81EF012
:10C6A4002FFB0290206840441EF02AFB07462068B6
:10C6B40058441EF025FB029B0744BB4209D2236861
:10C6C4000A9903EB0A0211630B992B44516383F813
:10C6D40030910135C6E700264FF00109A5E702F1C4
:10C6E400FF3803F5987212F8081021B1B8F1010867
:10C6F400F9D24FF000081A680DF12809D1680A7EB2
:10C704006FF300020A761B68DA68137E6FF3410345
:10C714001376002302932768029AB7F850319A429D
:10C724008DDA029BFB1893F83031002B48D1029B21
:10C73400434505D13B68DA68137E43F00103137661
:10C744003B68DA68137E6FF341031376029BDE00C5
:10C7540006F1300303933B689D6BDB689B682B6099
:10C764003B681B7C9A073DD0384602F0BBFC06466A
:10C77400206802F0C7FC0022013800B2731E114683
:10C7840000901BB248461EF0AAFA2368C5F804902C
:10C794001B681A7CDB6812F0020F15D01A7E42F077
:10C7A40002021A76C5F808902846FFF74DFE039B4F
:10C7B400206818441EF0A4FA094A1368034413605D
:10C7C400029B01330293A6E799691A7E61F3410241
:10C7D4001A76039B1F44AF60E6E700BF640B012099
:10C7E400680B01203E44B6F834A0338E0AF1010AE6
:10C7F400AAEB030AB6F93630728E03F1010B384600
:10C804000593ABEB020B02F07DFC059B0FFA8AFA51
:10C8140083420FFA8BFB57DB206802F073FC431E44
:10C824001BB222681268D1689269CF68B7FBFAF725
:10C834005F45A8BF5F4602B300220FFA87FA0A9247
:10C84400ADF82C20D3460AF1FF3A22680FFA8AFA8F
:10C85400ADF82EA010684946826905939047BDF94A
:10C864002E10BDF82A2001318A1A12B29742059B74
:10C874002DDABAF1000FE5DC00274FF0000ABAB256
:10C88400511EB6F93200059100EB070E0EF1FF3E82
:10C894009E45216820DD534589D0328EADF828208D
:10C8A400B28EADF82A00ADF82C20ADF82E30C5E9D3
:10C8B40001990B68DB689B682B600B68DA68137E50
:10C8C40043F0020313766FE7B6F93630A9E7BBF1FC
:10C8D400000FD1DD0F46D0E7B6F830E0DDF814C024
:10C8E400ADF828E0B6F834E01FFA80FBADF82A0072
:10C8F4001CFA80F0ADF82E00ADF82CE0C5E90199E2
:10C904000868C06880682860BDF92E009842824695
:10C91400A8BF9A469842ADF82EA005DB0868C16806
:10C92400087E40F0020008762846CDE90632FFF77B
:10C934008BFD079A069B93440FFA8BF0A4E70368D8
:10C944001B7C9B0716D502F0CDFB0546206802F040
:10C95400D9FB421E12B2009200226B1E0AAD284679
:10C964001BB211461EF0BBF9206803689B6B5D6027
:10C97400FFF710FB25684FF4807105F1300019F0C2
:10C98400C6FA202105F5987019F0C1FA002304981D
:10C99400A5F850311CF0AEFB236809901868436A6F
:10C9A400002B3FF452AE024A0999126898474CE6AC
:10C9B400680B0120014B1868704700BF700B012001
:10C9C40038B50D46044600283ED0437943F00203AF
:10C9D4004371214B1B68834202BF00221F4B1A6024
:10C9E40003681B78013B012B12D821B90163416212
:10C9F4000023A3620CE0036B8B4204BF0023036398
:10CA0400436A8B4204BF00234362836A8B42EFD0A4
:10CA140038BD437943F00203437103681B78013B3B
:10CA2400012B11D81DB90563456284620CE0036BC8
:10CA3400AB4204BF00230363436AAB4204BF002339
:10CA44004362836AAB42F0D002F084FB0028E0D159
:10CA5400024B1860DCE700BF700B01206C0B012057
:10CA6400014B1868704700BF6C0B01201C21014862
:10CA74001FF029B85C0D0120014B1868704700BFF6
:10CA8400740B0120014A024919F094BBCBBB03008B
:10CA9400BFBB0300014A024919F08CBBD3BB03009E
:10CAA400C5BB03007FB50C46054600283CD01FF0EB
:10CAB40084F8014628BB20461AF016FA40B1A36850
:10CAC4009B6853B1DB681B68A34206D119F0EAFBEB
:10CAD400A36813B9204600F033FEA36828469D607E
:10CAE4001FF014F8064698B9104B8A220293104B93
:10CAF400032001930F4B10490093104B09F03CFEA7
:10CB0400FEE70B68A3420FD028461FF05CF8D0E77D
:10CB1400046028461FF051F8864205D1284604B027
:10CB2400BDE8704019F0BEBB04B070BDF43D040014
:10CB3400303E0400103E0400BF3D04003D3E0400AE
:10CB44002DE9F84F064628480D46174698461FF02B
:10CB540037F84FF6FF7A04460CB9BDE8F88F444520
:10CB6400FBD0214620481FF032F823688146B342A7
:10CB740001D04C46F0E7A368AB4202D0B5F5702F64
:10CB8400F7D1A388BB422BD14FF0000B718CC1F3BA
:10CB9400C5018B45EDD2F0684FEACB0C00EBCB011D
:10CBA40091F807E01EF0020F17D0B5F5702F04D0EE
:10CBB4004968C1F317018D420FD150F80C00A188C8
:10CBC40008F080FF0021204609F02CFD064821468C
:10CBD4001EF0B8FF204609F0FDFA0BF1010BD5E772
:10CBE4005745C6D1D0E700BF440D012014210148A8
:10CBF4001EF069BF440D0120014B1870704700BF3F
:10CC0400BAC70020F8B53F4B04461B780E461546BC
:10CC1400B3B11BF0A5FEE90406F47F0619D4B6F5FA
:10CC2400702F0ED115F4005F05F4006757D167B972
:10CC340020461BF095FE6B0502D515F4C05F32D17A
:10CC4400F8BD002EEED02A05F2D520461BF0F4FBE9
:10CC5400EEE7B6F5702F2ED06EB341F20402002138
:10CC6400204619F010FC42F2D17700B2B84208D045
:10CC740041F201020021204619F005FC00B2B8423D
:10CC840007D100222A21204602F0BEF820461BF0DC
:10CC9400A6FC4FF6FF739D42D5D120461BF0CCFB7A
:10CCA40020461BF05DFEB6F5803FC9D02046BDE8A6
:10CCB400F84019F07EBB00222A21204602F0A4F895
:10CCC40020461BF08CFC4FF6FF739D42AAD12046F0
:10CCD4001BF0CCFF0028E0D01BF081FCDDE72046F0
:10CCE4001BF0C4FF08B11BF07AFC002FA0D0204633
:10CCF4001BF0A2FB20461BF033FE4FF6FF739D4250
:10CD0400D1D098E7BAC7002070B50C4B06461B7803
:10CD140023B1002002F014FA044660B970BDE36840
:10CD2400304653F8251019F0EAFC0135636AAB422A
:10CD3400F5D82046EEE70025F8E700BFBAC7002083
:10CD44002DE9F74F0446002206680B46718CC1F3A7
:10CD5400C501914241D9D6F80CC0D7000CEBC200F2
:10CD6400C579AD0705D54568A068C5F317058542A3
:10CD740001D00132EDE7A18863294BD030D82029B6
:10CD840053D0A1F1300080B217282ED8012282405E
:10CD94004F48024249D112F0180F26D0FE2B37DC3F
:10CDA400E5685CF8070001AA1EF0DEFB002800F02D
:10CDB4008B80019BB3EB050818BF4FF00108F368A3
:10CDC4002A46A188D85908F06BFFB8F1000F04D0A7
:10CDD400A288A1682068FFF715FF03B0BDE8F08FB3
:10CDE4006829DBD00CD86729D8D0002BD8D0FF2BEA
:10CDF4000ED0D4E90352521B5A4305EB2225D0E747
:10CE040040F25742914210D041F259429142EBE72D
:10CE14002569C6E7D4E903520DB91546C1E7002ACE
:10CE2400BFD07F2BC8BF1546BBE7002B04DCA3890A
:10CE3400002563F30F05B4E7FE2B01DD238AF7E732
:10CE440094F810B094F811A0257B607B0BF00702D6
:10CE54004FEA5A1E0EEBC20E05F007084209C3F151
:10CE6400FF0902EBC80209FB02F203FB0E2248F29F
:10CE7400810E4FEAD50809FB08F800F01F0009FBF2
:10CE840000F04FEADB0B03FB0B880AF01F0A03FBDD
:10CE94000A03803208F180080EFB02F20EFB08F848
:10CEA40080330EFB03F3C2F38265C8F3C45845EA2A
:10CEB400C805C3F3C45345EA0325D20D45EA4232FB
:10CEC400002562F30F056CE74FF0010877E700BF18
:10CED400010890002DE9F041046827482568A788D7
:10CEE4001EF06BFE0146244E19B96A8CC2F3C502CA
:10CEF4003DE0A1420BD00A6823689A4207D18A68B0
:10CF0400A3689A4203D18A88A3889A4231D03046D2
:10CF14001EF059FE0146E7E7EB68CE0003EBC103C0
:10CF2400D879800722D55B68A068C3F317038342CE
:10CF34001CD1214610481EF005FE204609F04AF98E
:10CF4400EC683946A05908F0BDFDEB6804EB06080F
:10CF540098591EF037FB60B1D8F804202846A1592F
:10CF640022F07F42BDE8F04119F0F5BB01318A425D
:10CF7400D2D8BDE8F08100BF440D01202DE9FF4760
:10CF84001E460F4690460023458C0446C068C5F3F0
:10CF9400C505AB4219D3638C013505F03F0565F334
:10CFA400C8036384E90009F057F9E06048BB2F4BDC
:10CFB40040F2E71202932E4B032001932D4B2E498E
:10CFC40000932E4B09F0D8FBFEE700EBC30292F866
:10CFD40007C0D9001CF0010F11D05268C2F3170228
:10CFE40096420CD140584246394608F059FE3A461A
:10CFF4003146204604B0BDE8F047FFF703BE0133D5
:10D00400C7E7658CC5F3C505013DE0684FEAC5096E
:10D01400F5B9484419F0EAF90820D4F80CA009F04D
:10D02400E3F84AF83500E36853F835001EF099FA3E
:10D03400E3684B44DA7942F00102DA71E3684B4465
:10D044005A6866F317025A60E36853F83500CAE772
:10D05400A9F108030344D97900EB09028907D8D15F
:10D0640093E8030082E80300CEE700BFF43D040028
:10D07400873E0400103E04004E3E0400BB3E040004
:10D084002DE9F047984690F8223094B043F0040319
:10D094001C9E80F8223002840446154632890F46CD
:10D0A40019F0F1F9A4F820808246394620463289E5
:10D0B40019F0E9F994F8223082456FF3820381462E
:10D0C40084F822307FD0258432893946204619F0ED
:10D0D400DAF939460546A4F82080204619F08AF981
:10D0E4002A463189006808F0DBFD3389602B22D1A0
:10D0F40047F6FF739D4201D099451CD120461BF091
:10D10400EFFA00EBD07040F34F0820461BF0E8FA2A
:10D1140047F6FF7200EBD073954243F34F0325D1DA
:10D1240098451BDA08F1010591452DB203D108F1A8
:10D1340001080FFA88F925481EF0CDFC8046D0B9C5
:10D14400234B4FF4A5720293224B03200193224BED
:10D1540022490093224B09F00FFBFEE75D1C914529
:10D164002DB2E8D101330FFA83F9E4E79145E2D116
:10D174009845F7DADBE7C0E903590460338987602F
:10D18400838004A809F038FAFF22164B0D92059308
:10D19400154B32880693154B0E9207930023728821
:10D1A400CDE90B3352420F92F26804A80A929DF81B
:10D1B4004E20CDF8108063F3000233698DF84E20C1
:10D1C400099309F05BFA14B0BDE8F087440D01201F
:10D1D400F43D040029430400103E04004E3E0400C4
:10D1E4009B3E040045CD010033660300D9CE010007
:10D1F4002DE9F047A4B005461BF04DFF064628462E
:10D204001BF045FF122E04465ED128461BF047FF53
:10D2140003780546022B08D061220021204619F02C
:10D2240032F9064620B102232B7024B0BDE8F08702
:10D2340001466022204619F026F940F60A023146DA
:10D244000FFA80F8204619F01EF940F60B02074643
:10D254003146204619F017F9B4F91620B4F918E04C
:10D26400B4F91AC0A18ABBB280B2C91A121A7344A3
:10D274006044ADF84810ADF84A20ADF84C30ADF834
:10D284004E004246686812A91DF067FE08B90123E2
:10D29400CAE721223146204619F0F5F8C0B2FC282D
:10D2A400F5D931466822204619F0EDF810F0FF0652
:10D2B400EDD140F262423146204619F0E4F8C0B2A2
:10D2C400FC28E4D92E70B0E7152E40F0888028465B
:10D2D4001BF0F0FE04AF064638460BF057FA342232
:10D2E4000021204619F0CFF828B19DF8333043F0DF
:10D2F40001038DF833303A46002120461AF077FDB9
:10D3040040F60A020021204619F0BDF8054640F611
:10D314000B020021204619F0B6F8ABB20025B4F98F
:10D324001AC0B4F91620A18AB4F918E080B2121A0E
:10D33400C91A60447344ADF80810ADF80E003146C4
:10D3440012A8ADF80C30ADF80A201BF066F8C64BF5
:10D354001A2112AA20460DF1080813931495169762
:10D36400CDF854801F9501F04FFD612229462046D7
:10D3740019F089F868B3BDF9103053B34246394601
:10D384003046DDF820A008951FF045FE182008F06F
:10D3940089FF814604F114012B46BDF910200AF0DF
:10D3A40095FD484604F590710AF012FCBAF1000F9D
:10D3B40005D11B21204612AA01F026FD35E78DF880
:10D3C40013508DF832508DF83A508DF84650CDF800
:10D3D40020A04246394630461FF01DFEE9E7182ECC
:10D3E4007FF423AF28461BF065FE6946064602AA71
:10D3F40020461AF085F868461DF082FC002800F0EB
:10D40400C18004AD28460BF0C1F921224FF48031CC
:10D41400204619F038F8C0B202288DF8130007D955
:10D4240020224FF48031204619F02DF8ADF8140075
:10D4340031224FF48031204619F025F8C0B2022879
:10D444008DF8320014D941F232024FF48031204673
:10D4540019F019F800B20028ADF8300040F3FB8051
:10D4640030224FF48031204619F00DF8ADF82E002B
:10D4740040F645024FF48031204619F004F8C0B25A
:10D4840002288DF846001DD94FF404624FF4803110
:10D49400204618F0F8FF00B20028ADF83E0040F333
:10D4A400DE8040F643024FF48031204618F0EBFF53
:10D4B4004422ADF844004FF48031204618F0E3FFD5
:10D4C400ADF83C0040F262424FF48031204618F03F
:10D4D400DAFFC0B2FC280BD89DF8133043431B126B
:10D4E4008DF8133043431B0A8DF832308DF84630E3
:10D4F4009DF832209DF8133013439DF846201343C2
:10D5040046D060224FF48031204618F0BCFF3146EB
:10D51400ADF8100012A81AF080FF534B684613931D
:10D52400022314934FF4803316951F931DF0E8FBE8
:10D5340080B11A2112AA2046CDF854D001F064FC1F
:10D544006A46294630461FF066FD1B21204612AA72
:10D5540001F05AFC02A81DF0D3FBC8B102AB12AA19
:10D564001A212046159301F04FFC02AB1A462946B6
:10D57400304615931FF04FFD1B21204612AA01F0DF
:10D5840043FC05E002A81DF0BBFB00287FF439AF83
:10D5940061220021204618F076FF50B104F5907006
:10D5A4000AF05EFB054620B11FF0D4FC284608F0C3
:10D5B400F9FE34220021204618F065FF00283FF4CC
:10D5C40034AE00250DF1100840460BF0DFF842465A
:10D5D400294620468DF813508DF82A508DF83A507C
:10D5E4008DF846501AF003FC40F60A0229462046FC
:10D5F40018F049FF40F60B0207462946204618F06A
:10D6040042FFB4F91AC0B4F91620A18AB4F918E09B
:10D61400BBB280B2121AC91A60447344ADF8081040
:10D62400ADF80E00314612A8ADF80C30ADF80A2062
:10D634001AF0F3FE0C4B1A211393012312AA14932C
:10D64400204602ABCDF8588015931F9501F0DCFB02
:10D65400414602AABFE600238DF8323008E70023D2
:10D664008DF846302EE700BF3028040010B5114C69
:10D674002378F3B91EF035F908F0A4F809F0C4F8DA
:10D6840008F0A0FFFFF7F2F91EF07CFBFFF7AEFAFB
:10D694004FF4AC7108481EF016FA582107481EF0E2
:10D6A40012FA18F038FC0AF0A7F822F044FD01231E
:10D6B400237010BD312101208C0D0120800D01202B
:10D6C400014610B5034800F0FDFB04461AF048FB80
:10D6D400204610BD3028040010B50C46084601F061
:10D6E400B3FB0020FFF788FA0021144A204619F002
:10D6F40032F80120FFF780FA0021204608F092FF5B
:10D70400204619F0F1FB10B1204618F0DFFDA368A4
:10D714009BB1186820B108F05DFD0022A3681A606F
:10D72400A368D86820B108F055FD0022A368DA6028
:10D73400A06808F04FFD0023A36010BDFFFF0F0099
:10D744001FB5836804461BBB124A1C2013680133AF
:10D75400136008F049FDA06068B90F4B4FF4AB7239
:10D7640002930E4B032001930D4B0E4900930E4B75
:10D7740009F002F8FEE71C2119F0E8F9A268537ECB
:10D7840043F00F035376A268137E43F0030313762A
:10D7940004B010BD780B0120F43D0400FE3E0400EB
:10D7A400103E0400CB3E0400153F040038B5054686
:10D7B40019F058FD044650B128460021044A18F0D7
:10D7C400CAFF29462046BDE8384019F03CBD38BDA3
:10D7D400FFFF0F002DE9F84306461BF059FA002419
:10D7E4000746244DDFF89090BC4233D141F6100235
:10D7F4000021304618F047FE41F61102002104468C
:10D80400304618F040FE41F232020746002130460D
:10D8140018F039FE174B80469D4204D0728B3B189A
:10D824009B1A2B441DB230461AF0C2FF8146304683
:10D834001AF05CFFE31903EB48034B441B1A304610
:10D8440019F0BDFD9BB2181A00B2A842B8BF284611
:10D85400BDE8F883B36849461B6853F82480404602
:10D8640019F03AFB20B9B8F91A309D42B8BF1D46E9
:10D874000134B9E701E0FFFF010004002DE9F84F8E
:10D884000021054619F004FD012806D0A86810B14E
:10D89400008A404200B2BDE8F88F41F6130200212D
:10D8A400284618F0F0FD41F61202002107462846EA
:10D8B40018F0E9FD002141F232020446284618F02E
:10D8C400E2FD804628461BF0E3F941F6FF798246E3
:10D8D40000261D49B24527D141F6FF73994518BF6B
:10D8E400AB8AA4B21FFA88F81EBF04EB0806F61828
:10D8F400A6EB090628460CBF144E36B200F0A4FB72
:10D90400814628461AF0ECFE0346284619F045FDE8
:10D914003C4404EB48044C44A4B20444E01A00B26E
:10D92400B042B8BF3046B6E7AB681B6853F826B0C0
:10D93400584619F0D1FA044920B9BBF91430994575
:10D94400A8BF99460136C5E70100040001E0FFFFC6
:10D954002DE9F8430021064619F09AFC012805D167
:10D96400B06808B1B0F91000BDE8F88330461BF088
:10D974008FF900240746244DDFF89090A74232D156
:10D9840041F613020021304618F07DFD41F61202E3
:10D9940000210446304618F076FD41F23202074673
:10D9A4000021304618F06FFD174B80469D4204D08D
:10D9B400328B23189B1A2B441DB2304600F044FBD3
:10D9C400814630461AF08CFEE31903EB48034B44BE
:10D9D4001B1A304619F0E1FC9BB2181A00B2A84297
:10D9E400B8BF2846C0E7B36849461B6853F824808B
:10D9F400404619F071FA20B9B8F918309D42B8BF01
:10DA04001D460134BAE700BF01E0FFFF0100040036
:10DA140038B50C460D49054608F090FE68B1436AD6
:10DA24005B4218B220800A49284608F087FE40B1BC
:10DA3400406A404200B2608038BD284619F0ADFC0F
:10DA4400F0E7284619F0BBFCF5E700BFAB73030011
:10DA5400CF7303002DE9F041164651EA060204464D
:10DA64000D4690B05DD0012B5ED101F01BF9074645
:10DA7400684608F0C1FD3A4B0094039345B3384619
:10DA840001F030FB2A46002140F35D001DF061FFE8
:10DA9400B0F5C87F034628BF4FF4C873C82B38BFFE
:10DAA400C82320460A9319F078FC4342CDE9073392
:10DAB4002C4B281A01932C4B09906A4609212046C5
:10DAC400069301F0A1F901282BD1684608F0D6FD90
