:10800000C8E200202D960000F1ED0000019600006E
:108010000196000001960000019600000196000004
:108020000000000000000000000000003993000084
:108030000196000000000000D992000001960000A7
:10804000C1930000C1930000C1930000C1930000E0
:10805000C1930000C1930000C1930000C1930000D0
:10806000C1930000C1930000C1930000C1930000C0
:10807000C1930000C1930000C1930000C1930000B0
:10808000C1930000C1930000C1930000C1930000A0
:10809000C1930000C1930000C1930000C193000090
:1080A000C1930000C1930000C1930000C193000080
:1080B000FBF30000C1930000C1930000C1930000D6
:1080C000C1930000C1930000C1930000C193000060
:1080D000C1930000C1930000C1930000C193000050
:1080E000C1930000C1930000C1930000C193000040
:1080F000C1930000C1930000C1930000C193000030
:10810000C1930000C1930000C1930000C19300001F
:10811000C1930000C1930000C1930000C19300000F
:10812000C1930000C1930000C1930000C1930000FF
:10813000C1930000C1930000C1930000C1930000EF
:04814000C1930000E7
:1081440053B94AB9002908BF00281CBF4FF0FF31BA
:108154004FF0FF3000F00CB8ADF1080C6DE904CE1F
:1081640000F008F8DDF804E0DDE9022304B070470C
:10817400704700BF2DE9F04F07468C460846099E1C
:1081840015463C461946002B40F0C5808242B2FA9F
:1081940082F746D94FB1C7F1200E00FA07F3BD406C
:1081A40024FA0EFEBC404EEA030C4FEA15481FFAAF
:1081B40085FE220CBCFBF8F908FB19C309FB0EFA77
:1081C40042EA03439A4528D9EB1809F1FF3004D257
:1081D4009A4502D9A9F102002B44A3EB0A03A4B2E5
:1081E400B3FBF8F208FB123302FB0EFE44EA03442D
:1081F400A64514D92C1902F1FF3303D2A64501D99F
:10820400931E2C44A4EB0E0443EA00401EB1FC4030
:10821400002334607360BDE8F08F4846DDE7134601
:10822400F0E702B9FFDE87BB831A01214FEA154E3E
:10823400AAB2200CB3FBFEFC0EFB1C330CFB02F8B1
:1082440040EA0343984562D9EB180CF1FF3004D29D
:10825400984502D9ACF102002B44A3EB0803A4B265
:10826400B3FBFEFC0EFB1C330CFB02F244EA03449A
:10827400A2424ED92C190CF1FF3304D2A24202D9E6
:10828400ACF102032C44A41ABEE7C7F1200CBD4094
:1082940000FA07F320FA0CF84FEA154E24FA0CFC06
:1082A400BC404CEA0302ABB2B8FBFEFC110C0EFB63
:1082B4001C800CFB03F941EA0040814523D92818AE
:1082C4000CF1FF3104D2814502D9ACF102012844FA
:1082D400A0EB090092B2B0FBFEFC0EFB1C000CFBF1
:1082E40003F842EA004398450FD9EB180CF1FF322A
:1082F40004D2984502D9ACF102022B44A3EB080343
:1083040042EA014192E76146E2E76246F6E76046E7
:10831400A3E76346B7E7834205D90EB1C6E9007007
:108324000021084677E7B3FA83F181B9834201D388
:10833400BA420AD8BC1A60EB030301209C46002E03
:1083440067D0C6E9004C002165E70846F7E7C1F1AC
:10835400200C8B4002FA01F522FA0CF420FA0CFBF3
:1083640027FA0CF28F401C4300FA01F34FEA144938
:1083740013431FFA84FE1A0CBBFBF9F809FB18BB64
:1083840008FB0EFA42EA0B4292453ED9A21808F1C4
:10839400FF3004D2924502D9A8F102002244A2EB94
:1083A4000A029BB2B2FBF9F809FB182208FB0EFE85
:1083B40043EA024296452AD9A21808F1FF3304D2AF
:1083C400964502D9A8F10203224443EA0040A2EBF5
:1083D4000E02A0FB05939A42CE46984602D306D1DC
:1083E4004F4504D20138B9EB050E63EB040886B19E
:1083F400B7EB0E0362EB080707FA0CFCCB40CF4047
:108404004CEA0303C6E900379DE74046C7E7434605
:10841400DBE73146FFE6034613F8012B002AFBD1C4
:10842400181A01387047000030B589B06D46174CF2
:1084340094E8030085E803000121154806F01BFABF
:10844400D4E90201012204AB83E80300CDE906323A
:10845400104B02951868039283680F491C6802AA9E
:1084640006ABA047014620B10C4806F004FA09B057
:1084740030BD0B4C0B48217806F0FDF90A4B0B4834
:10848400197806F0F8F9F2232370F0E720010100CF
:1084940034050100C0C80020480101004B0501005B
:1084A400A7CE00205A050100A6CE002067050100D2
:1084B40010B50A4806F0DFF9094B0A4A0A481A605F
:1084C40006F0D9F9094CFFF7AFFF00214FF4004043
:1084D40005F0D0FA204606F0CEF9F4E77405010061
:1084E400C0C80020D4FE0000820501008E050100F2
:1084F400014B1B68184700BF00C50020014B1860E2
:10850400704700BF00C5002007B50B460021024696
:108514000091034800F046F903B05DF804FB00BF86
:10852400F58400002DE9F84FB0F81890044619F0CE
:10853400080893460DD001290CBF49F0100949F0F1
:108544002009A0F818908BF31188BFF36F8FBDE852
:10855400F88F09F00709022907D1204606F098F997
:108564000028F0D00128238B4ED16769218B002F7E
:1085740015DA256821F00701C4E9008841F00101FA
:1085840021830026218B01F0070ACA4502D0A36883
:10859400002B5AD10DB9002E71D0002356E001F002
:1085A40007035A1F012A1ED821F00701062B25684C
:1085B40089B2C4E900880AD13DB12A46638B1268A6
:1085C40001339BB2002AFAD1638341F002012046B1
:1085D400218306F05DF906460028D3D0238B43F0AF
:1085E40020032383CDE7042B0CD121F0070189B2AA
:1085F4002046218306F04CF905460028C1D041F0FD
:10860400200121830025BCE7032809D1226923F036
:108614000703166843F00603002523832F46B1E7BA
:10862400042806D1226923F00703566843F00403A3
:10863400F2E7052806D1226923F00703966843F080
:108644000503E9E700252E46E8E7012341F0080188
:1086540021838BF31188BFF36F8FFBB985BB16B1F0
:1086640020461F49B0474FF02003EFF3118B83F3EB
:108674001288BFF36F8F238B23F008032383238B8C
:10868400DA0625D5012123F010032383B4F81890CA
:1086940009F0070900297FF45EAF54E7A1680029B7
:1086A400DCD0D1F800903B4652462046D1F804B0C5
:1086B400D847B9F1000FD1D04946D9F80090F2E774
:1086C40029463B46524620462D6806F0FDF8C5E78C
:1086D40013F020011EBF23F0200302212383D5E7DA
:1086E400F9E80000F0B5034602680A270020064EA8
:1086F40011460C780132A55D6D0701D41960F0BDF7
:1087040007FB00403038F3E77F0601002DE9F84FFE
:1087140015469A46D378224A6F2B13F802B0804646
:108724000F460BF0030B29D024D8582B14BF0A266C
:108734001026DDF828903246002340463946FFF7DC
:10874400FFFC092AD4B21ED83034B045E4B277F124
:10875400000309F8014D01D3D14511D82B789B06AC
:1087640005D5082E15D1AB7843F00803AB70484605
:10877400BDE8F88F03F0F703702BD7E70826D8E796
:1087840080460F46D7E7BBF1010F0CBF373457348F
:10879400DBE7102EEBD1AB7843F01003E6E700BF24
:1087A4007F0601002DE9F04F82468B4691461C4618
:1087B400002593B099F8000008B9284641E309F16F
:1087C40001032528029306D05946D0470028C0F259
:1087D40038830135F5E1182200210CA807F08DF942
:1087E40099F80130252B5AD009F10102164612F8E6
:1087F400013B2B2B00F08B8079D8202B00F08C8050
:10880400232B00F08E809DF8383003F04402442A74
:1088140003D16FF386138DF838309DF83830059600
:1088240043F080038DF8383033782A2B7ED19DF8BD
:10883400393043F001038DF83930731C05931A78ED
:108844002E2A0CBF012100219DF8392061F3410239
:108854008DF839200BD15A1C05925A782A2A7BD1DB
:108864009DF83920023342F004028DF8392019466C
:1088740011F8010B6C2800F0B6807DD8682800F050
:1088840084806A2800F0B9804C2800F0BD809DF8EF
:10889400392019466FF3C6028DF8392080E009F1BA
:1088A400020202928DF83B309DF83930D90740F12D
:1088B4004A8154F8048BB8F1000F07DA9DF8382088
:1088C400C8F1000842F004028DF838205A0740F13C
:1088D400438154F8047B002F80F242819DF83930A3
:1088E4006FF341038DF839304FF0FF3738E12D2B0A
:1088F40006D0302B87D19DF8383043F0400303E095
:108904009DF8383043F004038DF838306EE79DF855
:10891400383043F00803F7E79DF8383043F010038C
:10892400F2E79DF8383043F02003EDE705A8FFF7A0
:10893400D9FE059BB34281D09DF838100F90C1F346
:10894400400242EAD072520062F07F0201F07D01DF
:108954000A438DF8382071E705A8FFF7C3FE9DF898
:1089640038301090C3F3400242EAD07060F3410300
:108974008DF83830059B7AE774289DF8392040D06B
:108984007A2884D11346062228E05A78682A9DF86A
:10899400392021D1012161F3C6028DF83920991CB7
:1089A4000B4613F8012B782A02938DF83B209DF88F
:1089B400393000F2C080572A33D8412A03D0453ACF
:1089C400022A00F2B88004229DF83A3062F30203CE
:1089D4008DF83A30012385E01346022262F3C60380
:1089E4008DF83930DCE75A786C2A9DF8392001D1AA
:1089F4000421D0E713460322F0E705229DF839301D
:108A0400ECE713460722E9E7BDF8383023F4F043D6
:108A140023F0020343F4804343F00203ADF83830FB
:108A2400BEE7A2F15801202900F2858001A050F888
:108A340021F000BFFD8A00003B8B00003B8B00004F
:108A44003B8B00003B8B00003B8B00003B8B00000A
:108A54003B8B00003B8B0000CB8900003B8B00006C
:108A6400FD8A0000BD8A0000CB890000CB8900008C
:108A7400CB8900003B8B0000BD8A00003B8B0000CB
:108A84003B8B00003B8B00003B8B0000058B000000
:108A9400FD8A0000218B00003B8B00003B8B000013
:108AA400218B00003B8B0000FD8A00003B8B000003
:108AB4003B8B0000FD8A000001209DF83A1003F072
:108AC400780360F30201402B8DF83A1002BF9DF841
:108AD400381041F001018DF83810632A31D1003B80
:108AE40018BF01239DF83820C2F340010B4363F300
:108AF40041028DF83820D7E602209DF83A10DEE7CF
:108B040003219DF83A2003F07803A3F1400061F3B8
:108B1400020243428DF83A204341E3E703219DF8E2
:108B24003A2013F0780F61F3020214BF01230023EB
:108B34008DF83A20D6E79DF8383043F001038DF8DC
:108B440038300023CEE79DF93820002AACBF4FF01F
:108B5400FF38DDF83C80B9E69F077FF5C5AE109F6E
:108B64000023CDE90F339DF83A309DF8391003F016
:108B74000703012BC1F3C30136D1CB1E042B23D829
:108B8400DFE803F003090922220054F8043BDA1752
:108B9400CDE90C3206E0073424F00704F4E802239C
:108BA400CDE90C239DF8383013F003065AD04A4619
:108BB40059465046029B06F0E6F80028C0F241816F
:108BC4000544DDF80890F5E554F8043B01294FEA23
:108BD400E372CDE90C3202D19DF93030D7E7022996
:108BE400E0D1BDF93030D2E7022B29D1CB1E042BC2
:108BF40013D8DFE803F0030A0A12120000232268E4
:108C0400201D0C920D930446CCE7E01D20F00700D4
:108C1400F0E80223CDE90C23F5E754F8043B0129DD
:108C24000C934FF000030D9305D19DF830300C9355
:108C340000230D93B6E70229B4D1BDF83030F6E72E
:108C4400042B09D1E31D23F0070303F10804D3E93E
:108C54000023CDE90C23A5E7032B04BF54F8043B00
:108C64000C939FE79DF83B007828AAD8622820D867
:108C740025283FF4A9AD5828A3D1DDE90C010DF155
:108C84002E0300930EAA06ABFFF740FD8146002F8A
:108C94000DF12E000BDB9DF83820A0EB09036FF3D8
:108CA40086129F428DF8382001D9FB1A0F9307468C
:108CB4003DE06338152884D801A252F820F000BFA3
:108CC400438D0000A58D0000C78B0000C78B0000FA
:108CD400C78B0000C78B0000A58D0000C78B000068
:108CE400C78B0000C78B0000C78B0000FF8D0000FE
:108CF400CD8D0000D18D0000C78B0000C78B000014
:108D04001D8D0000C78B0000CD8D0000C78B0000B7
:108D1400C78B0000CD8D0000002FDDF830900ADBFA
:108D24003946484606F069FF002609EB0007B9F109
:108D3400000F0CD145E74846FFF76DFBF4E700262A
:108D44000C9B0DF119078DF818300DF11809A7EBDC
:108D5400090306B101339DF83A20D00666D50233E3
:108D640052060F9948BF109A0B4448BF9B18B8F19C
:108D7400000F73DD9DF83820A8EB0308C2F38003CD
:108D8400039353076AD450065ED53EB15946304624
:108D9400D047002855DB039B01351E46302354E0A1
:108DA4001E070FD413F0100618BF2026DDE90C238C
:108DB400002BBFF662AF524263EB43032D26CDE98D
:108DC4000C235AE72B26F1E7002656E70C9840B30C
:108DD4000DF12E030093002106AB0EAAFFF796FCBB
:108DE400BDF83A30814603F0EF0343F4F04343F017
:108DF40010030026ADF83A3049E70C9B07293FF6EB
:108E0400E0AEDFE801F00C04060C08080C0C1D7041
:108E1400D7E61D80D5E6EA17C3E90052D1E61D6006
:108E2400CFE62E4F0646A7F1050990E7110748BF84
:108E3400013395E7184659460393D0470028039B0E
:108E440004DA13B0BDE8F08F202345444246002ADB
:108E5400A5EB080108F1FF38ECDC0D462EB15946AC
:108E64003046D0470028ECDB01359DF83A30D9066E
:108E740001D41A0705D559463020D0470028E0DB35
:108E840001359DF83A30DB0606D559469DF83B007E
:108E9400D0470028D5DB01350F9E2E44731B002BD1
:108EA40015DC3B464A465946504605F06CFF0028FF
:108EB400C7DB0544A844A8EB0503002B7FF781AE6C
:108EC40059462020D0470028BBDB0135F3E759463B
:108ED4003020D0470028B4DB0135DFE795050100D9
:108EE4004FF02002EFF3118382F31288BFF36F8FE8
:108EF4000121044AC2F8401583F31188BFF36F8F30
:108F0400002070470090034020B1034B800143F0E0
:108F140001031847704700BF4001010002F0F4B894
:108F24002DE9F84305464FF02003EFF3118683F350
:108F34001288BFF36F8F0E4B1C689CB14FF00C0965
:108F44000C4FDFF83480D4E90132002D08BF1346FA
:108F54002BB198F8142009FB02F2B85C98472468F6
:108F6400002CF0D186F31188BFF36F8FBDE8F8832E
:108F7400C4C80020D8C8002054CE0020012238B52F
:108F8400174B1C7D04F01F039A40D043154B610915
:108F940003EB8103D3E8EF1F01EA0005C3E8EC5FAC
:108FA400BCF1000FF6D1114213D00F4B0F4D8BB112
:108FB4000C236343EA185178E85C05F007FF0020AE
:108FC400FFF7AEFF0C235C4300232A192B51C2E99F
:108FD400013338BD83F31188BFF36F8FEFE700BF10
:108FE40054CE0020E4C80020D1ED0000D8C80020F1
:108FF4002DE9F041314B07461D7D4FF02003EFF37F
:10900400118883F31288BFF36F8F0C246C432C4BAD
:109014002C4E195D1A19002945D007CA06EB040C19
:109024008CE8070000221A5588F31188BFF36F8F6C
:109034000C236B43F05CF21898B37B1C0FD04FF4F5
:1090440000440021D2F808C01F480023ECFB0401AF
:109054001E4AFFF775F80121381A06F05FFC04F088
:1090640089FA0120FFF75CFF012105F01F029140FE
:10907400174A6B0902EB8303D3E8EF2F0A43C3E8D3
:10908400E02F0028F8D1134B33B10C206843331878
:109094005978305C05F08EFEFFF770FF04F03AFC5F
:1090A4000120BDE8F0810146284600F015F80028AB
:1090B400BAD007C8344484E80700B5E754CE00208A
:1090C400CCC80020D8C800203F420F0040420F0007
:1090D400E4C80020B9ED00002DE9F04F85B00E463C
:1090E40003A900F041F84FF400474FF0000B039B35
:1090F400441E0193194BDFF86880D3F800A024B212
:10910400631C04D10025284605B0BDE8F08FC44691
:109114005946019B04EB440503EB8505686800236D
:10912400E0FB07C10F4A6046FFF70AF8C4465946F8
:109134008146A8680023E0FB07C10A4A6046FEF79F
:10914400FFFFBAF1FF3F01D0824504D9721CDAD087
:109154004844B042D7D9013C24B2D1E704C5002029
:109164003F420F0040420F0008B9024B0B60002041
:10917400704700BF54010100014910220A60704782
:1091840010ED00E072B6404080F31188BFF36F8F9A
:10919400BFF34F8F30BF62B6BFF36F8F704700BF0E
:1091A40072B6494081F3118820BF80F3118862B6FA
:1091B400704700BF43B2002B08DB012200F01F0000
:1091C40002FA00F0024A5B0942F82300704700BF2C
:1091D40000E100E043B2002B0DDB012200F01F0090
:1091E40002FA00F05B09044A203342F82300BFF37B
:1091F4004F8FBFF36F8F704700E100E0054B4209CA
:1092040053F82220012300F01F0003FA00F010405D
:10921400704700BF00E100E043B2002B01F10101FF
:10922400ACBF03F16043064B4FEA4111C9B2ABBF77
:1092340003F5614300F00F0083F8001319547047DD
:1092440014ED00E008B572B6044B9A691AB1002215
:109254009A6106F034FA62B608BD00BF54CE00200D
:1092640030BFFFF7FDBF00BF0B4A08B50B4B22F020
:109274007F029A60BFF34F8FBFF36F8FD3F88820BC
:1092840022F47002C3F8882003F088FE04F084FC02
:1092940000F0BEF903F0C2FE0080000000ED00E023
:1092A400094A0A49936809689867D96708494B6865
:1092B40043F080534B60002383F31188BFF36F8F17
:1092C4009368D86F704700BF54CE0020D0040100CB
:1092D40000ED00E015498A6882F881E04FF0300023
:1092E4001044EFF3098C80E8F01F202080F31288EB
:1092F400BFF36F8F0E4F4FF00066CA698A603E60FD
:1093040092F981E0906F0023936780F3118802F152
:10931400300090E8F01F8CF3098802F1000004B5D6
:1093240005F06BFDBDE804407047000054CE0020FA
:1093340004ED00E01EF0040F0CBFEFF30880EFF320
:109344000980816911F8021C0229FFD001B505F0DA
:1093540045FD01BD42F8203C009B0D4942F81C3CF0
:10936400019B21F0010142F8183C029B42F8081CC1
:1093740042F8143C4FF0807342F8043C00238367A6
:109384004FF43C43203A0265C0F88030704700BF78
:10939400EBE90000084B9860836E83F30B8810465A
:1093A40081F30988002163B681F31188BFF36F8FBD
:1093B4000022002305F017FB54CE002001B572B63D
:1093C4000B4A906900281EBF0021916106F077F9CD
:1093D40062B6EFF30580A0F110004FEAC000054922
:1093E400014409C99847BDE8014003490847000002
:1093F40054CE0020ECFE000001940000044B996858
:10940400D869884203D003494FF080520A607047FC
:1094140054CE002004ED00E0094B9A6A9A6A986AD7
:109424009A6A9A6A9A6A9A6A9A6A10F480106FEA37
:1094340002426FEA124218BF02209A62704700BFCC
:1094440000ED00E00D4B9A6A9A6A9A6A920508D573
:109454009A6B9A6A120404D518B19A6A22F40042EB
:109464009A620020054B9A6A9A6AD20558BF9A6A92
:109474009A6A42F47F429A620870704700ED00E0F5
:10948400124B9A6A9A6A9A6A920708D55A6B9A6A30
:10949400120604D518B19A6A22F080029A620B4B24
:1094A4009A6A9A6A9A6AD0064FF0000058BF9A6A7C
:1094B4009A6A920642BF5A6A22F400525A62034AD6
:1094C400936A43F0FF0393620870704700ED00E075
:1094D400F0B5434B04465B6800258BB0C3F3080327
:1094E40085F31188BFF36F8F02F07F40B0F17F4F97
:1094F40016D1D60714D4500603D4120704D4012578
:1095040004E012F0040501D00C4600250022033BC0
:109514008DF80720032B5BD8DFE803F00452564F85
:109524002C46F3E72E4AD36A13F0020350D1D16AD2
:1095340000290BDBD36A13F0804307D0A36933F807
:10954400021C4DF6027399421ED123689DF8072030
:10955400C2B902AE04F120073246206861680834BB
:1095640003C2BC421646F7D1099A9DB3C2F308015F
:1095740021B96FEA52226FEA42220992184602A9DF
:1095840005F02AFC0BB0F0BD936ADBB233B10120C5
:109594000DF10701FFF774FF0346D7E7936A13F44D
:1095A4007F4F05D001200DF10701FFF74BFFF3E7D3
:1095B400936A1B0C1B04002BC8D0FFF72DFFEBE7AD
:1095C40000200DF10701E5E700200DF10701ECE7AC
:1095D4000023BBE722F4FF7222F00102CDE700BFB3
:1095E40000ED00E0044B5A6942F010025A615A69D6
:1095F40042F480625A61704700ED00E0EFF30880A6
:10960400EFF3098101B57246FFF762FF01BD00BFA8
:10961400002320210348C2180133412B82F8001390
:10962400F9D1704700E100E0002080F31488BFF313
:109634006F8F002080F30A8880F30B88FFF76EFC9D
:1096440000200E490860BFF34F8F0D4880F308884F
:1096540000F03EF8202080F311880A484FF400619E
:10966400401880F30988EFF314800221084380F343
:109674001488BFF36F8FFFF7F7FD000094ED00E04F
:10968400C8E2002008E40020BFF34F8F0549064BD1
:10969400CA6802F4E0621343CB60BFF34F8F00BF8C
:1096A400FDE700BF00ED00E00400FA0500231846C2
:1096B4000649D1F89020C2F30722934200D17047A3
:1096C400C1F89830C1F8A0000133F6E700ED00E0DE
:1096D40010B572B6002484F31388FFF7E7FF23461E
:1096E4004FF0FF300B4A03F120010133102B42F8F5
:1096F4002100F8D100234FF0FF3003F16001013362
:10970400102B42F82100F8D162B6BFF34F8FBFF39C
:109714006F8F10BD00E100E0084B9B6883420BD1C2
:10972400EFF3058343B1064B5A6842F080525A6006
:109734005A6A22F400425A6204F0BCB954CE0020A2
:1097440000ED00E01FB5094C094A234601210948F0
:1097540000F0F2F800230393074B0121E41A01A857
:109764000193029400F0F2F804B010BD000004204C
:1097740000C5002054010100C8C6002010B50B68C4
:109784000C7A23F01F0204F01F031A43CB68640908
:1097940023F01F03054943EA440343F00103C1F8DE
:1097A4009800C1F89C20C1F8A03010BD00ED00E085
:1097B4002DE9F04F0F46144606464FF00008524D6F
:1097C40085B0B84509DAD6F80490B9F1000F3AD05B
:1097D400B9F11F0F05D86FF01504204605B0BDE898
:1097E400F08F19F01F0FF6D1D6F800A01AF01F0F52
:1097F400F1D1504605F007FB834609EB0A00013816
:1098040005F001FB8345E6D11BF1160FE3D05C455F
:10981400E1DDC5F898B0D5F89C10C5F898B0D5F836
:10982400A03021F01F0143F01F0AD6E900321A4488
:10983400994202F1FF391ED1CA4508D131465FFA77
:109844008BF005F0E9FA08F101080C36B9E7314666
:10985400C5F898B0D5F89C3022F01F0203F01F031E
:109864001A43C5F89C20E0B205F0D6FA10F1160FA1
:10987400B1D0441CE7E7013BCA45E0B223F01F0323
:10988400C5F898B008D1D5F8A020314602F01F02DF
:109894001343C5F8A030E7E7D5F8A01001F01F0185
:1098A4000B43C5F8A030314605F0B6FA10F1160F97
:1098B40091D0C5F898B0D5F89C209DF808300AF1ED
:1098C400FF3A62F304038DF80830D5F8A0309DF810
:1098D40008205B0863F347128DF80820D6E90032AC
:1098E4001344009323F01F03411C5344A3EB0903C7
:1098F400C8B223F01F030F2803933FF66CAF6946E9
:10990400FFF73CFFB5E700BF00ED00E00522044B84
:10991400C3F89420BFF34F8FBFF36F8F704700BF1E
:1099240000ED00E0BFF35F8F0022024BC3F89420E8
:10993400704700BF00ED00E010B5034C2278FFF73C
:1099440037FF207010BD00BFA8CE00202DE9F74FCF
:10995400294D8A4606464FF00008AB46274FD045AE
:109964001BDAD6F80490B9F1000F3FD031680846ED
:10997400019105F048FA0199044609EB0100013808
:1099840005F041FA84424FF014021D4B08D06FF0E9
:10999400150302FB08F84BF8083003B0BDE8F08F5C
:1099A40014F1160F2C60F8D01978A142F5DD02FBF2
:1099B40008B0C7F89840C7F89840D7F89C4000F121
:1099C4000801007B64F304000871D7F8A0000C7947
:1099D400400860F347140C71D7F89C1021F01F0164
:1099E4006960D7F8A01021F01F01296108F101086E
:1099F40014350C36B3E700BFE8C8002000ED00E0E2
:109A0400A8CE002038B50E4D2C68102C15D8002097
:109A1400FFF788FF0B4B0C4AC3F8C020844205D1E2
:109A24000A4B00201C70FFF771FF38BD696801EB19
:109A34000011FFF7A3FE0130F0E74FF0FF30F4E729
:109A44006001010000ED00E0AAFF4400A8CE002060
:109A5400014B1860704700BF08C5002010B5074CC3
:109A64002368C2180648C0F1005101F580218A42DA
:109A74002EBF4FF0FF30C018226010BDFCC800207C
:109A840008F20020084B70B5C31A0D4607499B1015
:109A9400044659434022064805F006FA2B4601467F
:109AA4002046BDE87040184710C90020B76DDBB6EA
:109AB40074FE0000402373B50B4C0093041B0B464B
:109AC4000D460A49A41061430646094A094805F0AF
:109AD40017FA011E05DA30462B4602B0BDE8704085
:109AE400184702B070BD00BF10C90020B76DDBB6C7
:109AF40075EF000074FE000070B5002201210446D9
:109B04000520FFF789FB0F4801F092FB0E4B9842AA
:109B140015D101F09DFB26690C49304604F007FF7E
:109B240000280BDB012524690849356404F11C0075
:109B340004F0FDFE002801DB0020E56470BD6FF039
:109B44000400FBE7899B00000000AD0BB401010099
:109B540001460C2300224B43084870B5C418403317
:109B6400D4E90E561844A26305F08BF92DB13246A0
:109B74002B46BDE870400248184770BD10C900204C
:109B840074FE000010B1012804D07047034B1B6C15
:109B94005B0701D1FFF7DCBF704700BF10C900208D
:109BA40008B54FF02003EFF3118183F31288BFF35C
:109BB4006F8F114A136843F0020013F00103106021
:109BC4000BD00E4AD2F80C34D2F80C2413F0010353
:109BD40003D00B4805F055F9012381F31188BFF335
:109BE4006F8F23B1BDE808400020FFF7B1BF01200B
:109BF400BDE8084001F03CBB60C9002000500040B3
:109C040050C900207FB500220123CDE9022304AB13
:109C1400CDE90433094A6B46CDF800D0CDF804D021
:109C240005F09FF9002805DB4FF4804200236846C5
:109C340003F020FC07B05DF804FB00BF93EF0000C5
:109C4400074BD3E8EF2F22F00201C3E8E01F0028FE
:109C5400F7D1D30702D4012005F0F5BB704700BF4C
:109C640060C900202DE9F041012207463549D1E8B9
:109C7400EF3FC1E8E02F0028F9D133B93249334826
:109C84004B60CB608A6004F065FE7B1E012B2DD8EF
:109C9400012F06D12E4BD3F81C3403F00303022BFF
:109CA40024D005F001FD044618B92A4B1B78002B7B
:109CB40041D14FF02003EFF3118683F31288BFF3F1
:109CC4006F8F0124224DDFF89080D5F81834D5F831
:109CD4001824D2030CD503F00303022B01D0012F67
:109CE40006D124B386F31188BFF36F8FBDE8F081EA
:109CF400C4B13046FFF754FAD5F81835DBB2012B5E
:109D0400E3D1D5F80421002ADFD00022C5F80421CC
:109D1400D5F804210222C5F818252022C8F880218C
:109D2400AB60D2E70021212003F0A4FEE4E7022384
:109D3400C5F80433DAE70222054B0646C3F80823C4
:109D4400C0E700BF64C9002000C900202CC900205E
:109D540000500040C4D2002000E100E008B50848EB
:109D6400084B186005F007FC38B10748FFF770FE90
:109D74000548FEF7C3FB002008BD6FF01200FBE7A7
:109D8400BCFE000068C90020919D00000A2838B577
:109D94000446074D04D1286883680D215B68984701
:109DA40028688368E1B25B689847204638BD00BFE5
:109DB40068C9002030B5406801F01F05047BB2F586
:109DC400001F45EA441585B04FF0000405D128462C
:109DD40001F00AFD002005B030BDB2F5800FCDE9D9
:109DE40002442ED1B3F1007F0CBF042305238DF868
:109DF4000830836823FA01F1C90714D4B2F1A07FB3
:109E040011D11B4A05F01F03803352F82330DB07BE
:109E140009D40DF107042146284601F04DFC154BE9
:109E2400984219D0039400232846194602AA01F047
:109E340019FB114B984218D10121284601F090FCDE
:109E4400C8E7B3F1C06F05D0B3F1007F0CBF0223A4
:109E54000123CCE70323CAE7204601F07BFC064B31
:109E64009842DFD06FF00B00B5E76FF01500B2E752
:109E7400002584400400AD0B0000AD0B10B501F0CB
:109E840059FC044668B901F02DFC084B98420AD1EC
:109E94002146074801F00AFC224605213120FFF73C
:109EA400BBF9002010BD6FF00400FBE70000AD0B10
:109EB400B99E0000430970B510D1094B596869B1C6
:109EC40001250C68074E85408A682A4002D0304636
:109ED4004B68984714B121462468F5E770BD00BF6C
:109EE4006CC900208CFE00002DE9F043D0F80480FA
:109EF40001F01F0698F80C3085B046EA4316144664
:109F04000F4630460DF1030101F0D6FB14F4403541
:109F140081460BD1304601F08FFC424B994503D169
:109F24009DF8030001F010FC002056E000233046A9
:109F3400194602AACDE9023301F094FA394B98424A
:109F440002D06FF0150048E0814503D19DF803006D
:109F540001F0FAFBA50352D540F206332340B3F5D2
:109F6400837F3DD00CD8062B15D004D89BB1022B8F
:109F7400E7D104230FE0B3F5807FE2D101230AE0A7
:109F840040F2022293422DD0B3F5407F2CD0B3F59A
:109F9400007FD6D102238DF8043084F48033C3F3D8
:109FA4000043E0068DF805304CBF0323C4F340138F
:109FB40021038DF8063019D50121D8F8043001FAAF
:109FC40007F79F600022304601A901F0F5FA154B0E
:109FD400984214BF6FF01500002005B0BDE8F0836F
:109FE4000723D8E70523D6E70323D4E7620341BF59
:109FF4000121D8F8043001FA07F7DF60E2E7E3064D
:10A004004FF000034CBF0324C4F340141A463046F7
:10A0140001A98DF8044001F025FA024B984283D03F
:10A024008FE700BF0000AD0B7FB50469236EA56EFA
:10A034009BB9BDB900222046114605F023F894F8D7
:10A044004830002B42D1256404F1280003F0ECF9D8
:10A05400002384F8783004B070BD002D34D09D42C4
:10A0640028BF1D46E16D466869B163B101F06043E4
:10A07400B3F1005F07D0082D28BF0825E06F2A46FA
:10A0840005F02EFDE16F41F6FF72954228BF15469B
:10A09400E36D656700911BB1236E002B18BF2B463F
:10A0A4000193636E02931BB1A36E002B18BF2B4662
:10A0B400002269463046039301F012FE0D4B98428C
:10A0C400C9D06FF00405B5E71D46CBE7606C40B11D
:10A0D40023689B88DB0701D505B9E56E294603F0A3
:10A0E400AFFE23689B8813F40053B1D1636004F17D
:10A0F4001000ABE70000AD0B2DE9F04F1F468B8835
:10A1040081469E040D46904604698BB000F1E880B8
:10A114004FF0FF334FF0FF3204F1100003F0AAF9BF
:10A124009DF85030656084F84830159B6364D9F815
:10A1340004B0D9F810A0DBF8083003939AF879300A
:10A1440001931BB1DAF800309D4266D0AE88300529
:10A1540000F1F38016F0090F40F0EC80C6F34513CC
:10A16400082B40F0E7802B680293029A814B9A42B5
:10A1740040F2E0800DF1140C0BF10C0EBEE80F0060
:10A18400ACE80F00DEF80030CCF80030DDE9022343
:10A19400934228BF1346784A934240F2AA80774AF2
:10A1A400934240F2A980764A934240F2A880754ACD
:10A1B400934240F2A780744A934240F2A680734AC5
:10A1C400934234BF4FF080434FF00043B1070793ED
:10A1D40006F0040340F19C80002B14BF03230223E8
:10A1E4008DF82030019BC6F300168DF821602BB149
:10A1F400584601F02DFD00238AF87930534658461D
:10A20400634A05A901F082FC624B984240F08480C5
:10A214000123CAF800508AF87930012384F8783091
:10A22400B8F1000F40F08C804246C4F84C8022659F
:10A2340004F1500104F1600204F14C0004F0FDFE4D
:10A24400E065002F40F08580676504F1680204F141
:10A254005801A76504F1540004F0EFFE0022012127
:10A26400606622642046E26604F00CFF4846FFF76D
:10A27400DBFE2368998811F0010171D1A56E226E6D
:10A284001B68954238BF15464FF4FA525543B5FB47
:10A29400F3F54FF4004640F2E730C8354FF47A72D4
:10A2A4000023E5FB0601FDF74BFF02460B4694F83D
:10A2B4004810002958D104F1280003F0DBF80028E5
:10A2C40054D1256C23689B88DA0701D505B9E56E5E
:10A2D400002D23DB9B0421D528460BB0BDE8F08F6D
:10A2E400A369002B7FF414AF636899427FF410AF25
:10A2F4001DE74FF0007369E74FF0806366E74FF0A6
:10A30400006363E74FF0805360E74FF000535DE76D
:10A31400003B18BF012363E76FF0040594F848304D
:10A324000BB1002DD8DA0023636004F1100003F0B0
:10A334007BF8D1E76FF01505F0E76FF08505EDE7E1
:10A34400D8F80020E264002A3FF471AFD8F8042062
:10A354006DE73B6863650BB17F6876E71F4674E77A
:10A364004FF0FF321346A2E70025ABE76FF0730509
:10A37400D4E700BF47E801008FD003001FA1070006
:10A384003F420F007F841E00FF083D0000127A0048
:10A39400BDF100000000AD0BF0B54B79012B26D0C8
:10A3A400032B21D110268B79032B1DD1CC790CB131
:10A3B400012C19D10A7912B1022A15D10E220B6887
:10A3C4004568B3F5164F2D6865D02DD8B3F5165FE3
:10A3D40064D016D8B3F5966F62D00AD8B3F5967FD9
:10A3E40061D0B3F5167F61D06FF0850052E000268E
:10A3F400D9E7B3F5166F5CD0B3F5965FF4D1374B5C
:10A404003CE0B3F5E14F57D007D8B3F5615F55D0C1
:10A41400B3F5964FE8D1324B30E047F61227BB42F2
:10A42400E2D14FF4000329E0B3F5613F48D013D8DB
:10A43400B3F5963F47D009D84DF6C027BB4244D068
:10A44400B3F5614FD0D14FF46B0317E0B3F5E13F9F
:10A45400CAD14FF0EB7311E0B3F5612F38D008D8AF
:10A46400204FBB4237D0B3F5E12FBDD14FF0E863A5
:10A4740004E01D4FBB42B7D14FF080530069344311
:10A48400C5F824352243031DC5F86C2503C983E8A8
:10A4940003000020F0BD4FF41D03EFE7134BEDE77D
:10A4A4004FF49E23EAE74FF4A033E7E74FF41C335D
:10A4B400E4E74FF41D23E1E70D4BDFE70D4BDDE748
:10A4C4004FF06C73DAE70C4BD8E74FF46503D5E72C
:10A4D4004FF07063D2E74FF08063CFE700B0130012
:10A4E40000A04E0090D0030040420F00005027000F
:10A4F40000C0750000F03A0000903A012DE9F743DE
:10A504000746002201210820FEF786FE0820FEF7F8
:10A5140051FE0021D7F804803E69D8F80040D8F8ED
:10A524000C90C4F800154846376001AA04F01FFFD8
:10A53400051E4EDB019BD9F800201979186800F03C
:10A5440011FB051E45DB3846311DFFF725FF054687
:10A5540000283ED1D8F80430990712D506F1180026
:10A5640000F0FAFE1E4B984237D1327E42F000438F
:10A57400C4F8A031C4F88C3001239340194AC2F8BE
:10A5840004350823C4F8003598F8083053B9C4F8E2
:10A594001031D4F810317369C4F834350123C4F888
:10A5A40038352360D8F804309A075CBF4FF48072C2
:10A5B400C4F80423DB0644BF4FF48003C4F8043317
:10A5C4003369C4F844350023C4F848350123A36033
:10A5D400E360284603B0BDE8F0836FF00405F8E7B4
:10A5E4000000AD0B00700140F8B504460D46076944
:10A5F40005F05AF810B92D4B1B788BB94FF0200396
:10A60400EFF3118683F31288BFF36F8F60683146CE
:10A6140004F052FE30BB86F31188BFF36F8FEDE771
:10A624006426606804F048FE70B9012004F009FF54
:10A63400013EF6D10021212003F01CFAF0E786F355
:10A644001188BFF36F8FF5E74FF02003EFF3118606
:10A6540083F31288BFF36F8F6068314604F02CFED9
:10A664000028ECD03B691D70626838691368C3F830
:10A6740044050120C3F848050020C3F82001D3F89D
:10A684002041C3F858015268D3F85801D20641BF9B
:10A694000822C3F800254FF48002C3F804230122E2
:10A6A4009A6081F31188BFF36F8FF8BDC4D2002084
:10A6B4000123834010B5DC430C4AD2E8EF1F01EAC2
:10A6C400040CC2E8EECFBEF1000FF6D14FF4803295
:10A6D40002FA00F0064AC2F80803BFF35F8FBFF323
:10A6E4006F8F0B4214BF0120002010BD7CC90020D5
:10A6F400005001401949F8B5044622F07F45086826
:10A70400C1E90023A5F50013101AB3F5400F22D2B6
:10A71400134B1B681A0A1B065E19124B42F1000701
:10A72400C3E90067012603F015FBA30003F180438E
:10A7340003F5A833D3F84025AA420BD11EB94FF430
:10A744000002C3F840254FF48030074B00FA04F4AC
:10A75400C3F84443F8BD0026E5E700BFE0C6002087
:10A7640080C90020C8C6002000500140E1B1012387
:10A774000E4A8340D2E8EF1F1943C2E8EC1FBCF134
:10A78400000FF7D14FF48033094A8340C2F80433F1
:10A79400084BD3E8AF3F23FA00F0C30742BF4FF49E
:10A7A4000012054BC3F80021704700BF7CC900208C
:10A7B4000050014078C9002000E100E00D4B18680A
:10A7C400010A0006BFF35F8F0B4BD3F8043518184A
:10A7D40041F10001B3F5801F0AD2084BD3E90023ED
:10A7E400904271EB030303D210F1807041F1000138
:10A7F400704700BF80C9002000500140C8C6002037
:10A804002DE9F04F85B0164698460546FFF750FFF0
:10A814000090FFF7D3FFB04271EB080376D2434BAD
:10A82400301A68EB0101984271F100037BD2404B6E
:10A8340003EB0513D3E902ABD84508BF564550D006
:10A844004FF4803326F07F4214464FEA850905F120
:10A85400500709F18049BF00AB4009F5A839BFB2E0
:10A8640007F180470193D9F84005324B07F5A83723
:10A87400D3F80415401A20F07F4021F07F4C0128C2
:10A88400C9F840C507D1CDE90221132005F066F8C7
:10A89400DDE90221274B01F1020CA4EB0C0020F0AE
:10A8A4007F40B0F5000F88BF6446002038603868E8
:10A8B4000198C3F8440324F07F40C9F84005D3F855
:10A8C4000405814206D0201A023820F07F40B0F5FA
:10A8D400000F19D8A41A24F07F4414EB060A48F197
:10A8E400000B002412490E982B0101EB0512C850ED
:10A8F400C2E902AB0F9B536028460099FFF736FF6D
:10A90400204605B0BDE8F08F2046B1E701230A4A8E
:10A91400AB40D2E8EF1F1943C2E8E01F0028F8D18A
:10A92400B246C346DDE76FF01504E5E70100000118
:10A93400D0C600200050014078C9002073B500241F
:10A944004FF0FF304FF0FF31164D174BC5F8084557
:10A95400C3E902014FF4803302264FF40012C5F814
:10A964000433124B0121C5F804631520C3F8802178
:10A974002246FEF751FC1520FEF71CFC01230C4A6D
:10A98400AB602B6013600B4B0B4A009320460023F3
:10A994000194FFF735FF3046FFF764F9204602B013
:10A9A40070BD00BF00500140D0C6002000E100E0AF
:10A9B4007CC90020F9A60000FFFF7F00354B2DE97C
:10A9C400F743D3F8042391070BD5D3F8042142B1FC
:10A9D4000022C3F80421304AD3F804311368013348
:10A9E40013604FF02003EFF3118183F31288BFF358
:10A9F4006F8F284BD3F80423D2030ED5274AD2E80D
:10AA0400EF0F20F00104C2E8E54F002DF7D1002834
:10AA140037D1D3F84021002A33D1002381F31188A0
:10AA2400BFF36F8F53B3FFF7C9FE4FF02003EFF36B
:10AA3400118783F31288BFF36F8F194BD3E9024553
:10AA4400A04271EB05024FF0000221D3D3E90016B6
:10AA54004FF0FF384FF0FF391A604FF48032C3E9EA
:10AA640002890C4BC3F8482387F31188BFF36F8F17
:10AA740021B122462B4600200096884703B0BDE84A
:10AA8400F0830022C3F84021D3F840310123C5E705
:10AA94001146E9E70050014080C9002078C9002030
:10AAA400D0C60020431C13B520D0012820DDB0F50A
:10AAB400000F1FDA441EFFF781FE0F4BD3E900138A
:10AAC400401AB0F5000F28BF0024013002190B48CA
:10AAD400824228BF02460020521809490190009181
:10AAE40043F10003FFF78CFE02B010BD0348E1E719
:10AAF4000024E0E7014CDEE7E0C60020FFFF7F0012
:10AB0400F9A6000008B5FFF759FE024B1B68C01AEE
:10AB140008BD00BFE0C6002000F01F0301209840DC
:10AB2400024B09B9D860704798607047002584408B
:10AB340030B500F48054002C16BF002115460125C1
:10AB44001B02C0F3811243EA820200F01F04044B8B
:10AB54000A4342EA4502803443F8242030BD00BF52
:10AB6400002584402DE9F843164605460127DFF801
:10AB7400108100EB81094D4502D10020BDE8F88326
:10AB84002C68230CC4F30322192B76D8DFE803F0D6
:10AB94000D1B23282D4028757575754C55757575D5
:10ABA4007575757575755A666B7004F03F04C6F853
:10ABB4000C452B6803F01F0307FA03F3C8F80830A9
:10ABC4001346012205E004F03F04C6F81445134679
:10ABD4000022114617E004F03F04C6F80845E8E7F0
:10ABE40004F03F04C6F81045F1E704F03F04C6F84A
:10ABF40008452B68012103F01F0307FA03F3C8F883
:10AC04000C30134600222868FFF792FF0435B2E7A0
:10AC140004F03F04C6F80C452B6803F01F0307FA41
:10AC240003F3C8F80C30CBE704F03F04C6F808453A
:10AC3400002A14BF13460623CAE704F03F04C6F8EB
:10AC44000C45F5E704F03F04C6F860452868C0F3F6
:10AC5400403100F03F00FFF75FFFB1E704F03F042D
:10AC6400C6F86445F2E704F03F04C6F86845EDE72A
:10AC740004F03F04C6F86C45E8E76FF085007DE713
:10AC84000025844070B51B4D1B4C2B7833B9C4E9A7
:10AC940000331A4804F022FD01232B7000222A20DD
:10ACA4001146FEF7B9FA0021154802F0BDF8154D1A
:10ACB40028604FF0FF324FF0FF33104802F000FBE2
:10ACC400206880B10468043002F0AEFB5CB1204619
:10ACD4002468F8E7D4E90031286898470834B44276
:10ACE400F8D3002070BD054802F062FB064C074E05
:10ACF400F5E700BFB3CE002088C9002090C900202A
:10AD0400A002010084C90020B4070100BC070100AF
:10AD1400104BF0B51A68104B01460A250026184658
:10AD24001F4604688C4211D08CB14468141BB44291
:10AD3400C8BF034600F10800C8BF2646B84201D385
:10AD4400013DEED11846013A19605A60F0BD034640
:10AD5400F8E700BF44CA002050CA00200020054B79
:10AD6400C3E90000044BD3E8EF2FC3E8E10F002947
:10AD7400F9D1704748CA002044CA00202DE9F047A1
:10AD840088B00C4604F0F4FB814620B96FF06D00E6
:10AD940008B0BDE8F08704F0DFFD23680546002B0A
:10ADA4000F4604D102F0DEFD6FF00A00F0E7BCBFED
:10ADB4004FF0FF3323600122002102A804F095FC28
:10ADC40001AE4FF02003EFF3118A83F31288BFF32F
:10ADD4006F8F02F069FEFFF79BFFDFF81C81436869
:10ADE400D8F8002093424FF0000307D10193434B5E
:10ADF4005A68002A70D1C3E9006601E099464260AE
:10AE04008AF31188BFF36F8FB9F1000F62D0236802
:10AE14005A1C64D04FF4004E40F2E730002123EA7C
:10AE2400E37C4FF47A720023CCFB0E01FDF788F922
:10AE340002460B4602A802F01DFB4FF02003EFF37D
:10AE4400118983F31288BFF36F8F00212B4A136893
:10AE54005BB1B3424CD101985668002943D19E425C
:10AE6400106000D150600023019302F01DFEFFF733
:10AE74004FFFD8F80030436089F31188BFF36F8F18
:10AE840004F076FB002881D02668731C22D004F0DD
:10AE940063FD4FF47A7EA0FB0E30A5FB0E250EFB5E
:10AEA40001010EFB0757DB0BD20B43EA414342EA95
:10AEB40047429B1A4FEAD13161EBD7314FEAE67C26
:10AEC400F31A6CEB01010029B8BF00232360002BA7
:10AED4003FF46AAF00205BE716605E6090E74FF0D6
:10AEE400FF321346A6E79E42086008BF5160BAE7E6
:10AEF40019461B68ACE700BF44CA002048CA0020BA
:10AF040070B404680A4B2CB19C4203D303F1780556
:10AF1400AC4208D3074D2C78661C04EB440403EBC5
:10AF2400C4032E700360006870BC04F0DEBB00BF75
:10AF3400CCC90020B4D200204FF08052014BC3F89A
:10AF44000021704700E100E04FF08052014BC3F84C
:10AF54008021704700E100E010B5084BD3E8EF2FE3
:10AF64000132C3E8E12F0029F8D1054B1C6824B154
:10AF7400201D02F059FA2468F9E710BD44CA0020E4
:10AF840048CA0020014600220023014804F065BBA2
:10AF9400A4C900200146014804F069BBA4C90020EB
:10AFA400014600220023014804F057BBB8C9002021
:10AFB4000146014804F05BBBB8C9002008B504F0A1
:10AFC4002BFA4FF480620649064804F0FDFABDE806
:10AFD40008404FF400520449044804F0F5BA00BF95
:10AFE400B4CE0020A4C90020E8840020B8C9002001
:10AFF40008B588B90948FDF70EFA18B10749084899
:10B0040001F0F4FC0748FDF706FA28B1BDE8084052
:10B014000449034801F0EABC08BD00BFDD05010096
:10B02400FC050100FF0501002DE9F0411F46154B09
:10B03400044693F800800D461646A2B0B8F1000FFE
:10B0440015D1684603F0DDFE3A4631462846289B72
:10B05400A0470446684603F0D5FEB8F1000F02D0BD
:10B06400094802F0A5F9204622B0BDE8F0814FF06E
:10B07400FF324FF0FF33044802F022F90028E0D0F9
:10B084001F24F0E7C4D20020B4C6002030B595B028
:10B0940005460C463022002108A804F02EFD3F236B
:10B0A400079307AB039334230694CDE9043554B1D5
:10B0B400012305AA009200210448019303AA00F089
:10B0C40007F815B030BD2046FBE700BF0001004083
:10B0D40070B4DDE9035401F50046B6F5803F0DD2A6
:10B0E400FF2B0BD8FF2C09D844EA0324134644EA67
:10B0F4000142014670BC0348FFF796BF6FF0800021
:10B1040070BC7047217C0000014B024A1A607047F2
:10B11400A8C500200090D00370B501250268B2FADA
:10B1240082F3C3F11F035E1CDCB210D005FA03F3F3
:10B1340022EA0303D0E8EF6F964204D1C0E8EC3F63
:10B14400BCF1000FF6D1E9D102480C7070BD024881
:10B15400FCE700BF0000AD0B0200AD0B036810B5A7
:10B16400CB40DB0711D4012303FA01F1036841EA60
:10B174000302D0E8EF4F9C4204D1C0E8EC2FBCF1AD
:10B18400000FF6D1F2D1024810BD0248FCE700BF1F
:10B194000000AD0B0400AD0BF7B5044618B101284F
:10B1A40023D003B0F0BD0222204BC3F80823C3F818
:10B1B4000401D3F804210122DA6001239C4218BF60
:10B1C400002542F21077194E8DF8073008BF0DF1B3
:10B1D4000705A4B1012CE4D125B1D6F80C3403F051
:10B1E40001032B70D6F80C3411E000220F4BC3F886
:10B1F4000803C3F80021D3F800215860DDE725B126
:10B20400D6F8183403F003032B70D6F81834DB0394
:10B21400C7D52DB9012004F014F9013FD9D1C0E7F5
:10B224009DF80730012BF5D0BBE700BF005000406C
:10B23400044B1A7922B9012218601A710248704726
:10B2440002487047A0CA00200000AD0B0C00AD0BF3
:10B2540008B50520FDF7D2FF10B90520FDF7AAFFB8
:10B264000122024BC3F8182508BD00BF005000405E
:10B2740008B510B101282FD008BD1C4AD2F81834E3
:10B28400D2F81814C90312D4D2F81434DB0718D432
:10B294000123164AC2F818350023C2F80431D2F843
:10B2A40004310223C2F8043301239360E4E703F07A
:10B2B4000303022BEDD0012BEBD00020FFF76CFF32
:10B2C400E6E7D2F81C3403F00303013B012BF4D866
:10B2D4000223C2F80433CFE70022044BC3F8002151
:10B2E400D3F80021C3F804031860C5E700500040F8
:10B2F400174B10B5D3F8002152B10020C3F8000158
:10B30400D3F800210122C3F80823124B1B68984785
:10B314000F4BD3F804218AB10022C3F80421D3F8D7
:10B324000421D3F81824D3F8181402F00302012AD4
:10B334004FF0020103D1C3F818159A6010BDC3F889
:10B344000813044B0120BDE810401B68184700BFD8
:10B3540000500040A0CA002001460148FFF7DCBEAF
:10B36400ACC5002000F01F02054800EB8200D0F8B5
:10B37400003223F4403343EA0143C0F800327047FB
:10B3840000258440034B083033F81000C0F340100C
:10B39400704700BFB0C5002070B50D4C00F1080324
:10B3A40034F813300546DA050E4607D5C3F34323B4
:10B3B40004EBC302526854F833309847A3682BB1A6
:10B3C40031462846E268BDE87040184770BD00BFAA
:10B3D400B0C50020124A083032F8103010B4D90534
:10B3E4001BD5C3F3432123F4F85322F81030002073
:10B3F40002F1100434F8023B13F4807F03D0C3F34A
:10B404004323994209D001302028F3D10023054871
:10B4140010BC42F83130FFF7A1BE10BC704700BF2A
:10B42400B0C5002004C6002038B50246FFF7AAFFC5
:10B434000B4C02F1080560B1002134F815305B0BA8
:10B444009B0003F1804303F54433C3F81015C3F89C
:10B4540010151046FFF7BEFF002324F8153038BD41
:10B46400B0C500202DE9F34104461D4609B34D4FF4
:10B4740000F1080837F81860B30706D5FFF782FF14
:10B4840018B1494802B0BDE8F081484B04F01F00F0
:10B4940003EB8000D0F80032097823F00F0326F084
:10B4A400020643EA810346F00106C0F8003227F899
:10B4B400186092B13B4B04F1080633F8161010786B
:10B4C4008F0752680CD5002ADBD133F8162022F0FE
:10B4D4001C0242EA800023F81600CDBB3448D1E7B1
:10B4E40021F02001C904C90C23F81610002AECD05D
:10B4F4000328C6D892F800C06246920002F1804246
:10B5040002F5443220B9C2F81005C2F81005DCE790
:10B51400D2F8107541EA4C3127F00307C2F81075D0
:10B52400D2F8107541F0200127F4473727F440770B
:10B53400C2F81075D2F810E5270207F4F8574EEA5E
:10B54400004E47EA0E07C2F8107523F81610BCE740
:10B554002046D5E90067FFF73DFF002EBED0114D10
:10B564002B689E4204D16B689F4201D1002209E0FE
:10B5740010480DF10701FFF7CFFD0D4B984281D123
:10B584009DF8072005EBC20308345F6035F81430DA
:10B5940045F8326043EA422343F4807325F81430BB
:10B5A4009CE700BFB0C500200400AD0B002584401B
:10B5B4000000AD0B04C60020F8B5044669B3374E4D
:10B5C40000F1080736F81750AB0704D4FFF7DAFE8A
:10B5D40008B13348F8BD15F01C0F4B7801D0012B8E
:10B5E400F7D0304804F01F0C00EB8C0CDCF80002A0
:10B5F40091F800E05B0020F4E160897843EA0E23CF
:10B6040020F00700034343EA810343F0010345F0BC
:10B614000305CCF8003226F817500AB92248D9E7B6
:10B624001E4E04F1080736F817008307D1D592F8A7
:10B6340000C00023614620F02000890001F1804110
:10B64400C00401F54431C00CC1F8103526F81700C8
:10B65400C1F810355578002DE0D0D1F81035927826
:10B6640023F4981323F4F853C1F81035D1F810E5F6
:10B67400230203F4F8532D0443EA0E0305F4403582
:10B6840012052B4302F4801240EA4C30134340F07D
:10B694002000C1F8103526F81700BFE7B0C5002018
:10B6A4000400AD0B002584400000AD0B014BC3E941
:10B6B40002017047B0C5002008B50246FFF762FEDC
:10B6C40038B1054B083233F8123004485B0B0B7069
:10B6D40008BD0348FCE700BFB0C500200000AD0B67
:10B6E4000400AD0B38B50F4C94F85850BDB9402246
:10B6F400294604F1100004F000FA3120FDF75AFD48
:10B70400094B0A48C3F87C51D3F87C214FF000421E
:10B71400C3F80423012384F85830636538BD044812
:10B72400FCE700BFB0C50020001003400000AD0BD3
:10B734000500AD0B034B93F85800003818BF0120E7
:10B74400704700BFB0C5002001460148FFF706BDA1
:10B7540000C6002001460148FFF7DEBC00C60020F9
:10B76400024610B5FFF70EFE1B4B02F1080433F836
:10B774001430C8B113F0020416D118485B0B9A00B8
:10B784008450805802F1804202F54432D2F8100508
:10B7940040F00100C2F8100529B1012202FA03F3B6
:10B7A4000F4AC2F8043310BDC3F38203042B0ED036
:10B7B400052B0ED00B4B196902F01F03D94001F081
:10B7C400010102311046BDE81040FFF7CBBD032153
:10B7D400F8E70221F6E700BFB0C5002000110340DE
:10B7E400001003400025844008B50246FFF7CAFD57
:10B7F400C0B10F4B02F1080133F81130990711D48D
:10B8040001225B0B9A400B499B0003F18043C1F872
:10B81400082303F54433D3F8102522F00302C3F8B8
:10B82400102508BD0021BDE808401046FFF79ABD69
:10B83400B0C50020001003400C4B00F1080233F89F
:10B84400123010B5DB0704460DD5FFF7CDFF2046B7
:10B85400FFF7EAFD0222064B04F01F04803405487A
:10B8640043F8242010BD0448FCE700BFB0C5002005
:10B87400002584400000AD0B0400AD0B2DE9F04F12
:10B88400002501222C464D4B4D484E4985B01E687B
:10B8940036B1D0F8046316421EBF1C601E681543FF
:10B8A40004338B424FEA4202F1D1454FD7F87C3141
:10B8B40093B1454E0DF10C08336A039333624FF094
:10B8C4000109039850B9C7F87C01D7F87C31336A71
:10B8D40003933362002BF2D1012469E090FAA0FAB9
:10B8E400BAFA8AFA394A0AF1080332F813104FEA0D
:10B8F400DA0C0AF0070309FA03F418F80C30C1F360
:10B90400820223EA040308F80C3006EB8A03D3F816
:10B914000042C8069346C4F3014418D51146504664
:10B924000193FFF739FD019BE4B2D3F80032C3F36E
:10B9340001439C4207D100215046FFF713FD2146E5
:10B944005046FFF70FFD09FA0AF03062B9E7022CFE
:10B954000CBF0321022150460192FFF703FD019A17
:10B96400032A04D0022C07D1BBF1010FEBD15946B5
:10B974005046FFF711FDE6E7032CE4D1BBF1020FBB
:10B98400F4E795FAA5F3B3FA83F304FA03F29B0000
:10B9940003F1804303F54433D3F81005D3F81015AD
:10B9A400C0F30420C1F3014125EA0205FFF7F4FCCA
:10B9B400002DE6D105B0BDE8F08F00BF00110340B3
:10B9C400001003402011034000258440B0C500202E
:10B9D40070B5084C0E462379154643B92A20FDF765
:10B9E400E9FB0123044823712660A56070BD034868
:10B9F400FCE700BFA8CA00200000AD0B0C00AD0B93
:10BA0400002330B50D4A50F8234003F5A2710133E9
:10BA1400082B42F82140F6D10023084A00F1200106
:10BA240003F5B27451F8045B0133082B42F8245037
:10BA3400F6D1036CC2F8043330BD00BF00A002404D
:10BA440000234FF0FF31134AC2F81035C2F8143501
:10BA5400C2F81835C2F81C35C2F82035C2F82435AE
:10BA6400C2F82835C2F82C35C2F89035C2F894359E
:10BA7400C2F89835C2F89C35C2F8A035C2F8A4358E
:10BA8400C2F8A835C2F8AC35C2F80813024A1371DB
:10BA9400704700BF00A00240A8CA00200C4B30B47D
:10BAA400D3F80C0301240346002523B930BC094B09
:10BAB4001A689968104793FAA3F2B2FA82F204FA68
:10BAC40002F123EA0103044992008D50EDE700BF1F
:10BAD40000A00240A8CA002000A10240431C06D0D6
:10BAE4000222034B00F01F00803043F820207047EF
:10BAF4000025844000F01F0301209840024B09B93F
:10BB0400D860704798607047002584402DE9F84359
:10BB140006460C464A4D317910464F0105EB41115A
:10BB24000A7F002A40F08A803268E8514B60E07B4B
:10BB34008B7F94F804C060F300036CF341038B77AC
:10BB4400E378CB77D6F80090002835D1217B207894
:10BB5400012994BF00210121FFF7CCFF01212378A3
:10BB6400DFF8E08003F01F03803348F82310637884
:10BB7400FF2B08D003F01F039940C8F80C100321D1
:10BB8400803348F82310A378FF2B06D0A17B03F061
:10BB94001F038900803348F82310E078FF280BD076
:10BBA400217981F00101FFF7A5FF0321E37803F078
:10BBB4001F03803348F82310237C93B963782078DB
:10BBC400FF2B18BF1946A37808BF4FF0FF31FF2B96
:10BBD40008BF4FF0FF33C9F80805C9F80C15C9F8B8
:10BBE4001035A368C2F82435637B217B003B18BF62
:10BBF400012302291CD003291DD0012901D143F0BE
:10BC04000203C2F85435A379C2F8C0350723C2F839
:10BC14000035EB5923B1306840F30730FDF7CAFA19
:10BC240000233D446B77012307482B77BDE8F88355
:10BC340043F00403E5E743F00603E2E70348F5E7CE
:10BC4400B4CA0020002584400000AD0B0500AD0BF4
:10BC5400F8B503791F4D5E0105EB4317AB59046832
:10BC6400B3B144F30730FDF7B5FA1B4BC4F80833FE
:10BC74007B7F6BB1012364276361D4F8043123B95A
:10BC8400012003F0DEFB013FF7D10022AB195A7704
:10BC94000023A919C4F800358B7FDB0715D4D4F829
:10BCA4000805FFF71BFFD4F81005FFF717FFD4F8BA
:10BCB4000C05FFF713FFCB7FFF2B06D00221074AA9
:10BCC40003F01F03803342F82310002335442B77FD
:10BCD400F8BD00BFB4CA002052010800002584400A
:10BCE4002DE9F843364F0379144607EB431898F8C7
:10BCF4001D2081460D465E01002A5ED1BA592AB143
:10BD040014F0140F04BF012288F81D2007EB060C61
:10BD14000CF10C0C95E80F008CE80F000121404653
:10BD240003F093FB296821B101F06043B3F1005F94
:10BD340006D1AA6852B102F06043B3F1005F05D0A6
:10BD440000233E441F487377BDE8F883D9F80030D8
:10BD54006868C3F84415E968C3F84805C3F834258E
:10BD64000022C3F83815C3F81821D3F8182114F0A9
:10BD7400010218BF0122C3F8502514F0020218BFB3
:10BD84000122C3F8402514F0080204BF01211961FF
:10BD9400B95949B912B9D3F81821FBE70021404633
:10BDA40003F053FB0848CFE7402214F0040F14BFFC
:10BDB400C3F80823C3F80423F4E70448C4E700BF26
:10BDC400B4CA00200A00AD0B0000AD0B0B00AD0B94
:10BDD4000C4B10B5D3F8182192B100240A4A21461D
:10BDE400C3F818411046D3F8183103F02EFBD2E9FA
:10BDF40000311472547702F10800BDE8104018476E
:10BE040010BD00BF00B00040B4CA00202DE9F041CD
:10BE140080460546042458F8087B0C4EFFB233785C
:10BE2400BB4209D0013C06F10C06F8D1A86808B160
:10BE340003F05BFB204606E0296840467368090C62
:10BE440098470228EED0BDE8F08100BFC802010087
:10BE54000021074B01221970064B1970064B19601B
:10BE6400064B1960064B18600648FFF749B800BF37
:10BE7400B6D20020B5D20020D4CA0020E4CA0020E3
:10BE8400E8CA0020ECCA002070B42D4B1B68196965
:10BE940058691A7C00221A745C7C5A749C7C9A74CB
:10BEA400DC7CDA741C7D1A755C7D5A759C7D0329D3
:10BEB4009A75DC7DDA7529D0042933D001292FD174
:10BEC4008568204E954210D170BC01211A7A002257
:10BED4001972597A5A72997A9A72DA7A6FF05F0201
:10BEE400DA72194B186803F064BA911C00EB8101F3
:10BEF4004C682178622907D0632914BF02210021EC
:10BF040046F821400132DDE70121F9E7187A197278
:10BF1400597A5A72997A9A72DA7A6FF05F02DA72FF
:10BF240070BC7047187A1972597A5A72997A9A724F
:10BF3400DA7A6FF05F02DA720122044B1A70EFE7CB
:10BF4400E8CA0020D8CA0020ECCA0020B5D20020DC
:10BF540070B5164600240368A34201D100231CE0F7
:10BF640000EBC4025568EDB2032D18D101EB841324
:10BF74009360516821F0FF0151600C490888441C0A
:10BF84000C80516889B241EA004151601846402250
:10BF9400002103F0B2FD03464660184670BD15B992
:10BFA4009568002DE2D00134D6E700BFA2CE002070
:10BFB4002DE9F04106460F460025DFF8748033680A
:10BFC4009D4201D3BDE8F08106EBC504A368FBB133
:10BFD4006368DBB2012B1BD16268B8F80030B3EBA5
:10BFE400124F15D1022FA06814D1FFF70FFF0228BA
:10BFF4000ED0012813D1636823F0FF0343F002033A
:10C004006360B8F800300133A8F80030FEF794FFFD
:10C014000135D4E70168090C03F023FAE7E70028A7
:10C02400EFD1636823F0FF0343F00303E8E700BFA5
:10C03400A0CE0020010670B5044603D5FFF724FF07
:10C04400FEF78AFF14F0010039D00322354B1A7031
:10C05400354B364AD3F8140690422CD00CD8023A09
:10C06400904220D00132904221D0D3F81816C0F368
:10C074000B0000F02DFF12E02D4A90420AD8B0F1D7
:10C08400886F0AD82B4A9042EFD16FF004022A4BF2
:10C094001A6004E0294A9042E7D1274B1860BDE8B2
:10C0A4007040FEF759BF6FF01502234BF0E76FF0B5
:10C0B4005E02214BECE76FF00B021F4BE8E714F034
:10C0C400400605D00222174B1A7000F011FFE6E774
:10C0D400620704D5134B1A783AB9FEF72DFFE3062D
:10C0E4001FD5BDE87040FEF727BF1A78012AD0B2E9
:10C0F400F5D1134A134D12689168696052682A6039
:10C1040021B11AB1096809B1126832B96FF004019A
:10C11400094A116003221A70E1E71E7000F0E8FE7C
:10C12400DDE770BDB7D2002000A00240220001006C
:10C134000400400432300100F0CA00200100500520
:10C14400F4CA0020F8CA002008B50B4B1B68C01ABB
:10C154000A4BC0F389101B6803EBC000436823F04B
:10C16400FF0343F001034360032003F018F90122A5
:10C17400034BDA6008BD00BF08CB00200CCB0020C5
:10C1840000A0024008B50B4B1B68C01A0A4BC0F351
:10C1940089101B6803EBC000436823F0FF0343F0DE
:10C1A40001034360032003F0FAF80122034B5A60B1
:10C1B40008BD00BF00CB002004CB002000A002403B
:10C1C400054B1B7833B9054B02221968044B1868D8
:10C1D400FFF7BEBE00207047B8D2002008CB002075
:10C1E4000CCB00200A2373B50D4D0E4E0193012292
:10C1F40029683068FFF7ACFE044638B903F0D7F875
:10C2040038B901A9FEF7BAFD6E30F0D1204602B06C
:10C2140070BD4FF47A70019B584303F0C0F8E6E711
:10C2240000CB002004CB0020034B1B780BB9FEF796
:10C23400B7BE0020704700BFB8D2002010B5084C2C
:10C24400FEF782FE206810B10121FFF7B1FE60689D
:10C2540020B1BDE810400221FFF7AABE10BD00BF07
:10C26400F8CA00200023114930B50A681468A342B3
:10C274000BD100234A6811688B4215D002EBC3042A
:10C28400A468A04208D00133F6E702EBC305AD6809
:10C29400A84201D00133EAE702EBC3035A6822F053
:10C2A400FF0242F003025A6030BD00BFF8CA00200A
:10C2B40010B50B4B04461B78032B10D0FFF792FFED
:10C2C40068B10121002201700221846042708170F2
:10C2D400C270FFF757FFBDE81040FEF72DBE10BD3A
:10C2E400B7D200202DE9F04F002295B005465749FA
:10C2F4000079FFF76DFB3822002103A803F0FDFB52
:10C3040002230493082306932023089301230B9309
:10C3140004230D9310234FF0400C0F938023CDE999
:10C3240011C3D52303A81393FFF76AFB2868426857
:10C33400B2F59D6F40F085804169C3680B44C169C3
:10C3440003F59D630B44B3F5003F7AD800210068E0
:10C3540003F0D3FB2A681468D36904F1600604F17E
:10C36400A40704F1E80A04F53A7B04F12009002B40
:10C374005CD004F140083649C1F800903BB19269A1
:10C384004046C8F80420C8F80030FFF761FD28686B
:10C39400002302690121626042692370A2602D4A70
:10C3A400E66017602C4A276116600822637084F8DF
:10C3B400A420A170E370C4F81490C4F818807B70B2
:10C3C400BB70FB700A2784F86020244A7370C2F89B
:10C3D40000B0234AB370C2F800A0224AF370224D81
:10C3E400C2F81046C2F81436204C214A21702B6042
:10C3F4000293136113691F4E0293029B2378012B4E
:10C4040000D1AEB92378012B01BF6FF073032B6009
:10C41400032323702C68B4B9174B1C70174B1C8072
:10C42400174B1C80204615B0BDE8F08F9846A2E754
:10C43400002001A90197FEF7A1FC019B0A3B1E44C1
:10C44400DCE76FF01504FFF7FBFAEBE739C00000F7
:10C45400F4CA00200CCB002004CB002008CB002021
:10C4640000CB002000A00240F0CA0020B7D2002078
:10C4740000560040F0490200B8D20020A2CE0020AD
:10C48400A0CE00204FF44072002108B5084803F004
:10C4940034FB00210822074B07481970044B013A6A
:10C4A400C3E90001996003F16003F8D108BD00BF3E
:10C4B40010CB0020B9D200201EF1AD1B30B50022F4
:10C4C4006024064B04FB02F1CD58854201D1581873
:10C4D40030BD0132082AF5D10020F9E710CB002045
:10C4E400021E18BF01220A4B70B51A706025002283
:10C4F4000849094E05FB02F35C580132B4421FBFE0
:10C504005B181C7F60F3C7141C77082AF2D170BD36
:10C51400B9D2002010CB00201EF1AD1B0123034A29
:10C524001370034A10601846704700BFBAD2002047
:10C5340014CE0020012202481146FEF7E1BC00BFE0
:10C5440010CE0020F8B548F20F03994205460E4676
:10C554000BD049F2040399420AD048F20D039942E0
:10C5640017D1FFF7DBFFC0B2F8BD02F0F9FFFAE71D
:10C574000369032B06D8DFE803F0020A0207002050
:10C58400FFF7AEFF0020EFE70122714B1A70012084
:10C59400F6E7B1F5104F8CBFC0682869FFF78EFF2E
:10C5A400044628B928680028ECD002F0B9FFE9E76E
:10C5B40048F20C039E4223D8B6F5004FF2D9A6F5F3
:10C5C4000046013E0B2EEDD801A353F826F000BF20
:10C5D4007BC6000097C600007BC600007BC6000037
:10C5E4007BC600007BC600007BC600007BC6000043
:10C5F4006FC60000A9C50000A9C50000D9C6000087
:10C6040049F202039E4269D022D848F281039E4235
:10C6140000F0998049F201039E42C3D11020FEF735
:10C62400B1FC0646002866D0102700213A4603F0E4
:10C6340064FA2B6873606B6833816B8A042B52D065
:10C64400BB4265D02046314602F06CFF00208AE7E9
:10C6540049F203039E4212D049F282039E42A1D1C1
:10C664000146284600F09EF87DE7037F23F003038C
:10C6740043F003032377284602F074FF73E7037F34
:10C6840043F0020303772869692809D16823A36169
:10C6940078E7037FEE686FF382030377686918B164
:10C6A40000F00AF9A0616DE7204602F045FF18B9D1
:10C6B400237F43F008032377204602F03DFF002840
:10C6C4003FF460AF002E3FF45DAF0021204600F040
:10C6D40083F857E7037F6FF38613CBE7037F43F0B9
:10C6E400400303774EE73846FEF74CFCF06020B970
:10C6F4003046FEF74FFC022035E7012307706A7CC1
:10C7040043602B7C43EA022303816B69C36099E78E
:10C714002420FEF737FCF0600028E9D024230370BE
:10C7240002236A7C43602B7C43EA0223038105F1E4
:10C73400140200F11003243552F8041BAA4243F8F2
:10C74400041BF9D17EE70146284600F017F80AE7F2
:10C75400BBD2002008B5FFF795FEFFF7EBFE0022E1
:10C76400044B05481A700122BDE808401146FEF743
:10C77400C7BB00BFBBD2002018CE002010B5406953
:10C784000C4650B10B7F6FF304130B7700F094F851
:10C79400034BA061186802F00CFE002010BD00BF1E
:10C7A40018CE002010B50B7F0C466FF304130B77E3
:10C7B400006958B9DBB223F0280343F028030B7750
:10C7C400044B186802F0F5FD002010BD00F074F869
:10C7D400A061F5E718CE00202DE9F341DFF8D480FD
:10C7E4000546D8F80000019102F0E5FD074620B1A6
:10C7F4001023AB614FF0FF3741E0A86BA8B1FBF702
:10C804000AFE461C304602F07BFE044678B92846F0
:10C8140002F0A2FE08B16923AB61D8F8000002F06F
:10C82400C8FD692002F0BDFDE4E73E46EAE72B6857
:10C8340005F13C01036195F83F2014300132920068
:10C8440040F80C2C03F04CF9EEB1A96B206803F00E
:10C85400CCF966602B7F042043F01003224647F294
:10C8640081012B7702F052FE284602F075FE30B9A2
:10C87400284602F06DFE78B9A8690028D2D138465E
:10C8840002B0BDE8F08126706670A670E67026716D
:10C894006671A671E671DDE7002001A9FEF76EFA64
:10C8A40010F10B0F04D00028E2D003F015F9B9E71A
:10C8B4007420B7E718CE00206C289ABF024B53F8B7
:10C8C40020000248704700BFF8020100ADBAADBABB
:10C8D4002DE9F34105460020174688461E4602F01E
:10C8E4000FFE024630B915B1284602F0FCFD6FF088
:10C8F4000B0022E06FF05803002403730423056047
:10C904000F4D037244738473C47344728472C4728B
:10C91400C0F80480394603202C7002F0F7FD4FF074
:10C92400FF3301932B78B34201D1002005E00020AE
:10C9340001A9FEF723FA0028F4D002B0BDE8F08183
:10C94400BCD20020F8B5054600240F4F57F8046BFD
:10C954002846314603F05DF928B90134042CF5D199
:10C964004FF480300DE06CB1A31E012BF8D8304693
:10C97400FBF751FD0A220021284401F029FE40EA78
:10C984000440F8BD2046FCE7AC040100F7B51346AB
:10C99400074601920E4615460B480A46002101F04F
:10C9A40021FE441C204602F09CFD386040B12B4619
:10C9B40032462146019501F015FE204603B0F0BD34
:10C9C4006FF00B00FAE700BF30010100012210B53F
:10C9D40011460548FEF794FABDE8104000210123F2
:10C9E40005220846FFF774BF1CCE00200FB473B5B0
:10C9F400069C00F083FA002832D0002C33D0214664
:10CA040007AA01A80092FFF7C1FF019B04466BB37C
:10CA1400184E4FF0FF31306802F0CDFC214602235E
:10CA240001220198FFF754FF044640B1306802F038
:10CA3400C0FC204602B0BDE8704004B070470E4D03
:10CA44002B681868FFF77EFF0446306802F0B1FCDB
:10CA54002B68186802F064FD286802F05EFDE8E7C0
:10CA64004FF0FF34E5E76FF00D04E2E76FF00B04DD
:10CA7400DFE700BF1CCE002024CE002070B5C368C1
:10CA84000546A72B03D0286802F04AFD08E00329D5
:10CA940008D0042919D0022902D101220E4B1A70A0
:10CAA40000200AE00D4E336843B100240068984723
:10CAB4002868346002F034FDE0B270BD0222084BF5
:10CAC40001241860044B1A70F6E7064B1B68002B10
:10CAD400D9D000689847D6E7BCD2002028CE0020E1
:10CAE40024CE002020CE002010B50446006808B1F2
:10CAF40002F016FD054BE2689A4205BF0120044B83
:10CB04000020187004BF034B1C6010BD1AE1AB1564
:10CB1400BDD200202CCE00202DE9F0410468074648
:10CB24000D46002C00F0868001F47043B3F5005FDD
:10CB340042D1DFF87C8198F80030012B31D15D4B74
:10CB440022681B88B3EB124F2BD163686BBB5A4B23
:10CB54001E681EB342F2090399421FD1304623894D
:10CB6400802240F8043B04F10A0102F0B9FF80225C
:10CB740004F18A0106F1840002F0B2FFD4F80A310C
:10CB8400C6F80431D4F80E31C6F80831D4F812319D
:10CB9400C6F80C31D4F81631C6F81031002388F8E1
:10CBA4000030386802F0BCFC44E047F6FF72934260
:10CBB4000CBF03230223F2E7404E3368002BF0D06E
:10CBC40044F2040291420BD8B1F5804FE9D9A1F5A2
:10CBD4008042023A022A0BD8DFE802F0454F59009E
:10CBE40044F20113994203D044F201239942D8D16B
:10CBF400334F386808B102F093FC44F201239D429C
:10CC0400304B1AD102223C6094F851401A702E4DD8
:10CC140014F0180733682A781FD01AB905209847EA
:10CC240001232B70E30702D50220336898470120C3
:10CC3400336898470020BDE8F08144F20112954220
:10CC44000BBF012200223C603C600BBF94F84140C2
:10CC540094F83D401A701A70D9E7002AE2D00620F1
:10CC640098472F70DEE7194C206808B102F058FC91
:10CC74003B68032023603368DBE7154C206808B168
:10CC840002F04EFC3B68042023603368D1E722782D
:10CC9400032A86D8DFE802F002050709072098472F
:10CCA4007FE70820FBE70920F9E70A20F7E700BF40
:10CCB400C0D20020A4CE002040CE002034CE0020DC
:10CCC4003CCE0020BFD20020BED2002038CE0020AF
:10CCD40030CE002010B50446044B186802F069FBFE
:10CCE400E30742BF0122024B1A7010BD44CE00205C
:10CCF400C1D2002008B5084B4FF4FA61186802F05D
:10CD04005AFB30B9054B1B78012B08BF6FF00400A8
:10CD140008BD6FF07300FBE744CE0020C1D20020B1
:10CD240000220023F0B52D4D2D4FC5E90223C5E99E
:10CD340004234FF400522B4B00241A6000F11C030F
:10CD44003B6043F0807343601C230372202301265D
:10CD54006FF07F024372244B04704470C27084727B
:10CD6400C472867040F080702C70C3F81006C3F84B
:10CD740014461E4B93B0224620461D491C70FEF7F4
:10CD840027FE2146402201A802F0B7FE02230293A7
:10CD940004230B93052301A811930996FEF730FE93
:10CDA4002146324613483F68FEF7AAF8124B009416
:10CDB4001C611B690093009BFFF79CFF044630B184
:10CDC40003232B70FEF73CFE204613B0F0BD3A68F7
:10CDD4000A4B9A42F8D06FF00404F3E7E8C6002047
:10CDE40048CE00204CCE002000A00240C1D200203A
:10CDF400D9CC000044CE002000560040010000A51C
:10CE040037B50125074C4FF4FA70656102F0C7FA93
:10CE1400002363610193256123690193019B03B09E
:10CE240030BD00BF0056004037B504460D4600F043
:10CE34006DF8002837D0002C38D0606A002838D02C
:10CE440000F040F8012D17D0FEF7B8F8236A6846C1
:10CE540000948DF80430FFF745FA044600BBFFF751
:10CE6400B5FD0446E0B9FFF775FC0446C0B9144BA0
:10CE74001D70204603B030BDE26963681344E26864
:10CE840013446269134442F21B02934214D920688A
:10CE9400FFF746FF044618B9022000F029F8E6E738
:10CEA400FFF7AEFFE5E74FF0FF34E2E76FF00D0464
:10CEB400DFE76FF01504DCE76FF00B04D9E700BF80
:10CEC400C2D20020014B1860704700BF50CE002032
:10CED40037B50C460546032000F00AF8034B6846B4
:10CEE400CDE900541B68984703B030BD50CE0020F4
:10CEF400014B1870704700BFC3D20020024B187852
:10CF0400431E584258417047C3D20020024B187840
:10CF1400B0FA80F040097047C3D200200E4B70B5C0
:10CF240053F82040013053F82060A64200D870BD69
:10CF3400D4E900352846984765B1EB6830B100283C
:10CF4400B8BF4042FF28A8BFFF2018705A7842F0AB
:10CF540001025A700834E8E7BC040100014B9868E8
:10CF64006430704754CE0020012208B5094B0220DA
:10CF74001A70FFF7D3FF00F091FF0320FFF7CEFFF5
:10CF840000F026F9FBF794FA034A137B23F001031C
:10CF9400137308BDC4D2002088C7002008B5034815
:10CFA400034A0021121A02F00BFB08BDC8C6002078
:10CFB400C8D20020882370B5134E012203FB0066FB
:10CFC400002386B0CDE904230F220193CDE9023278
:10CFD40018234FF4A0720D4D0D4903FB0055044670
:10CFE40002FB00110B4B3046009500F095F8737B63
:10CFF40009482C75013423F0040300EBC424737333
:10D00400EE606C6006B070BD00C7002054CE0020F6
:10D01400C8E200208DD2000008E4002080B52E4B29
:10D02400A8B003F5006282F3088883F30A88002419
:10D03400E0232A4D2A4E85F82230EC772C766C7644
:10D04400AC7685F820406B6A264F43F4E0236B628C
:10D0540085F82340FCF7C6FAFCF78EF84FF0FF334F
:10D06400AB62EB62FCF7CEFCFCF76CFB40F2011305
:10D0740006AD2846ADF82430CDE9204400F008FF81
:10D08400B56002F077FA2046FFF748FF0120164DFD
:10D09400FFF744FF00F05AFC144BF561059301239C
:10D0A40013494FF48052CDE9034328463B46CDE96A
:10D0B4000144009400F030F806466A7B284622F0CA
:10D0C40004026A7302F063FB2046FFF773FF3A46DB
:10D0D40031462846FCF75EF908E4002000ED00E044
:10D0E40054CE00206DCF000088C700203C0601000C
:10D0F400C8D2002038B5064C064DAC4201D30020FE
:10D1040038BD2046D4E9011202F05EFA1434F4E783
:10D114008CC60020A0C600202DE9FF410E9E00F120
:10D12400580506730426C0E91655002504464673BF
:10D134000D9EC0E906558673D61D0C9A26F0070687
:10D14400C0E91A168560C573056702920B9A01EB54
:10D15400060801920A9A00924246FCF7FBF8054B36
:10D1640065659B6803B15B6F4046636704B0BDE8C7
:10D17400F08100BF54CE0020F0B5002787B005979A
:10D18400109FDDE9126504970F9F044603970E9FD5
:10D1940002970D9F01970C9F0097FFF7BDFFB5F114
:10D1A400FF3F08BFB6F1FF3F05D055EA060305D19E
:10D1B400204600F0C5FA204607B0F0BD32462B46A3
:10D1C400024904F1180000F04BFDF4E7B3F7000046
:10D1D4002DE9F043294C2A4D87B02646AE4204F18E
:10D1E40030040FD300F0C6F94FF4004640F2E7379D
:10D1F400224CDFF89090AC4220D307B0BDE8F04356
:10D2040000F088BB54F8043C54E90C01059354F82D
:10D21400103C049354F8143C039354F8183C0293C0
:10D2240054F81C3C019354F8203C009354E90A231D
:10D23400FFF772FF54F8303C5E65CEE7636A5A1C10
:10D244000DD00021384623EAE373C3FB060151EAFB
:10D25400C333D4F8008004D1404600F071FA30346E
:10D26400C9E74FF47A720023FAF76AFF02460B46C5
:10D2740008F11800494600F0F3FCF0E78CC60020E2
:10D284008CC60020B3F7000008B50B4C0B4D4FF0D3
:10D294002002EFF3118382F31288BFF36F8F02F041
:10D2A4002DFB2B78A06113B9FBF76CFFEFE7FBF7BD
:10D2B4009FFE0028EBD1F7E754CE0020C4D2002013
:10D2C4002DE9F341044617461E464FF02003EFF3C1
:10D2D400118883F31288BFF36F8FC368324A6BB12E
:10D2E40080689168884219D057EA060318D188F3F8
:10D2F4001188BFF36F8F6FF00F000CE0916891F904
:10D304000E100133E36093682161A36088F31188F0
:10D31400BFF36F8F002002B0BDE8F0812169F0E710
:10D3240091F90E1090F90E306FF07E029942A8BF69
:10D3340019469142B8BF11468B422EDD02F0C6F960
:10D34400054622464146CDE90076184800F054FAD5
:10D354000028E0D04FF02003EFF3118683F3128806
:10D36400BFF36F8F236821699C420AD04BB193F9B4
:10D374000E309942A8BF19466FF07E039942B8BF98
:10D384001946A06802F0A2F900B945B13146074830
:10D3940000F0DEF86FF00A00BDE70025D1E786F360
:10D3A4001188BFF36F8FF5E754CE0020C5D200205B
:10D3B400836870B504466BB3194A926893422CD1C2
:10D3C400C368012B03D9013BC360002070BD4FF03B
:10D3D4002003EFF3118583F31288BFF36F8F016984
:10D3E400806802F073F9204602F02DFA0026A0604E
:10D3F40050B190F90E202261C66702F0C8F929469F
:10D40400084800F0A5F8E0E7E06085F31188BFF371
:10D414006F8FDAE76FF01500D8E74FF0FF30D5E7EC
:10D4240054CE0020C5D2002038B504464FF0200366
:10D43400EFF3118583F31288BFF36F8F02F003FAC1
:10D4440048B10022C26702F0A2F92946BDE838407B
:10D45400074800F07DB8D4E902329A4218BF01337C
:10D464000221A36004F1100002F001FBEDE700BF0C
:10D47400C5D2002013B54FF02004EFF3118184F3DB
:10D484001288BFF36F8F846844B1013C846081F3D8
:10D494001188BFF36F8F002002B010BD52EA03045D
:10D4A40006D181F31188BFF36F8F6FF00F00F3E79C
:10D4B400CDE900230246024800F09EF9ECE700BFE4
:10D4C400C5D2002038B5074D2C6854B1FDF71AFBBE
:10D4D400054B04441C6128680021BDE8384002F073
:10D4E4001DBA38BD84CE002054CE0020F8B50446C1
:10D4F4000D464FF02003EFF3118783F31288BFF337
:10D504006F8F00214FF4004C40F2E7300D4E0023A2
:10D5140031614FF47A72E4FB0C01FAF711FE002C2E
:10D52400094B0ADC1860094BB0681D60FFF7CAFF9D
:10D5340087F31188BFF36F8FF8BD0228B8BF0220AC
:10D54400F0E700BF54CE002084CE002080CE00201F
:10D5540049B9EFF3058030B9054BDA699B689A4203
:10D5640001D0FBF79DBE81F31188BFF36F8F704725
:10D5740054CE00204FF02003EFF3118183F312887F
:10D58400BFF36F8F044B9A68D37B013BD37381F352
:10D594001188BFF36F8F704754CE002038B5024610
:10D5A4000C4802F0EEF80C4D044600B9EC68AB6888
:10D5B4004AB95A7BD20606D1A26922B9DA897F2AEE
:10D5C40001D9EB6138BD9C4202D02046FFF77AFFB7
:10D5D400EC61F7E774CE002054CE002070B590F9CA
:10D5E4000D200146002A437B04DA03F07F034373D2
:10D5F40002F08BF84B7B154A63F07F034B7302F107
:10D604002005D2E90834AB421BD0D3B191F90E60A6
:10D6140093F90E0086420FD0801B00280CDD586859
:10D62400C1E90030016059609068BDE87040431A58
:10D6340058425841FFF7B2BFA34202D01B68002BE7
:10D64400E6D1C1E9005421605162EDE754CE0020D7
:10D6540038B54FF02003EFF3118583F31288BFF33D
:10D664006F8F174B174A9C6811688C4207D120466C
:10D67400FFF728FF85F31188BFF36F8F38BD0021B2
:10D684001160114A1268C2B1E2897F2A15D8627BFF
:10D69400D20612D10D4A94F90E10126891420CDB95
:10D6A4000B4A944209D01A69824203DC2046FFF7F0
:10D6B40095FFDCE7121A1A61DCE70022FBE700BFE2
:10D6C40054CE00207CCE002084CE002080CE0020CA
:10D6D40000C7002070B490F90D20437B002A2ADB98
:10D6E400DA0628D1826932BB144A63F07F0343739C
:10D6F40002F12005D2E90834AB4217D0B3B190F956
:10D704000E6093F90E108E420BD0891B002908DDA0
:10D714005A68C0E9003210605860002070BCFFF7FE
:10D724003DBFA34202D01B68002BEAD1C0E90054DC
:10D7340020605062F1E770BC704700BF54CE0020F7
:10D7440010B54FF02002EFF3118482F31288BFF377
:10D754006F8F427B510704D484F31188BFF36F8F1A
:10D7640010BD22F004024273FFF7B4FF2146BDE866
:10D7740010400148FFF7ECBEC5D2002008B590F96F
:10D784000D200146002A437B04DA03F07F03437330
:10D7940001F0BBFF044B9868431A58425841BDE856
:10D7A4000840FFF7FBBE00BF54CE00202DE9F04136
:10D7B400064615461C464FF02003EFF3118783F30A
:10D7C4001288BFF36F8F02F014F887F31188BFF348
:10D7D4006F8FB4F1FF3F08BFB5F1FF3F08D02A4671
:10D7E400234606F118000349BDE8F04100F038BAB9
:10D7F400BDE8F081B3F7000010B50C46064B1146A6
:10D804009868064B1860DDE90223FFF7CFFF204636
:10D81400BDE81040FBF744BD54CE00207CCE002070
:10D82400F8B504464FF02003EFF3118683F3128812
:10D83400BFF36F8F437B49B2DA0633D182698ABB67
:10D8440003F07F03437301F060FF437B174A63F0E7
:10D854007F0343738173104650F8203F83421BD0EB
:10D86400D3B1576A93F90E50A94210D06D1A002D06
:10D874000DDD5A68C4E9003214605C600120FFF7D2
:10D884008DFE012086F31188BFF36F8FF8BDBB4274
:10D8940002D01B68002BE5D1536AC4E900031C6065
:10D8A4005462EBE70020A173ECE700BF54CE0020E4
:10D8B40070B50446183002F00BF84FF02003EFF374
:10D8C400118683F31288BFF36F8F94F90D20637B65
:10D8D400002A05DA03F07F032046637301F015FF85
:10D8E4000B4D637BA86843F010036373031B58421A
:10D8F4005841FFF753FE86F31188BFF36F8FAB686F
:10D90400A34203D1BDE8704001F031BF70BD00BF38
:10D9140054CE002010B54FF02003EFF3118483F3AD
:10D924001288BFF36F8F084B00209A68D37B0133B2
:10D93400D373FFF733FE84F31188BFF36F8FBDE811
:10D94400104001F014BF00BF54CE00200021044B4E
:10D95400084603F12002C3E90822FFF7C7BD00BF50
:10D9640054CE0020F8B54FF02003EFF3118583F374
:10D974001288BFF36F8F1A498868437B03F07F03D3
:10D98400437301F0C2FE08468B685A7B62F07F0243
:10D994005A7350F8202F82421CD0DAB14F6A93F99F
:10D9A4000E6092F90E40A6420FD0A41B002C0CDD91
:10D9B4005168C3E900210B6053600120FFF7EEFDBD
:10D9C4002846BDE8F840FBF76BBCBA4202D01268A7
:10D9D400002AE6D14A6AC3E9000213604B62ECE70D
:10D9E40054CE002050EA01032DE9F04105460E46CD
:10D9F40003D1FFF7B7FF002033E06FF001044FF0CD
:10DA0400FF33241A63EB0103012C73F1000302DAE0
:10DA140001F09EFF44194FF02003EFF3118883F3C4
:10DA24001288BFF36F8F104F104BB8681860FFF760
:10DA3400A5FEB8680E492A463346183000F010F99E
:10DA4400BA684046537B43F010035373FBF728FC3A
:10DA540001F07EFF201A63EB0303012873F1000336
:10DA6400C9DBBDE8F08100BF54CE00207CCE00208D
:10DA7400B3F70000B1F1FF3F08BFB0F1FF3F08B5B5
:10DA840006D1084B9868FFF713FF4FF0FF3008BD2D
:10DA9400FFF7A8FF4FF47A7380FB0303C00B40EA3F
:10DAA4004340F4E754CE0020014B9868704700BF10
:10DAB40054CE00202DE9F04104464FF02003EFF34B
:10DAC400118683F31288BFF36F8F037BD9070BD5BD
:10DAD40086F31188BFF36F8F404080F311884FF0B5
