:108000005039012039A90000336C02000DA900008D
:108010000DA900000DA900000DA900000DA9000088
:108020000000000000000000000000005DA2000051
:108030000DA9000000000000FDA100000DA9000036
:10804000E1A20000E1A20000E1A20000E1A2000024
:10805000E1A20000E1A20000E1A20000E1A2000014
:10806000E1A20000E1A20000E1A20000E1A2000004
:10807000E1A20000E1A20000E1A20000E1A20000F4
:10808000E1A20000E1A20000E1A20000E1A20000E4
:10809000E1A20000E1A20000E1A20000E1A20000D4
:1080A000E1A20000E1A20000E1A20000E1A20000C4
:1080B00069730200E1A20000E1A20000E1A2000059
:1080C000E1A20000E1A20000E1A20000E1A20000A4
:1080D000E1A20000E1A20000E1A20000E1A2000094
:1080E000E1A20000E1A20000E1A20000E1A2000084
:1080F000E1A20000E1A20000E1A20000E1A2000074
:10810000E1A20000E1A20000E1A20000E1A2000063
:10811000E1A20000E1A20000E1A20000E1A2000053
:10812000E1A20000E1A20000E1A20000E1A2000043
:10813000E1A20000E1A20000E1A20000E1A2000033
:04814000E1A20000B8
:1081440053B94AB9002908BF00281CBF4FF0FF31BA
:108154004FF0FF3000F00CB8ADF1080C6DE904CE1F
:1081640000F008F8DDF804E0DDE9022304B070470C
:10817400704700BF2DE9F04F07468C460846099E1C
:1081840015463C461946002B40F0C5808242B2FA9F
:1081940082F746D94FB1C7F1200E00FA07F3BD406C
:1081A40024FA0EFEBC404EEA030C4FEA15481FFAAF
:1081B40085FE220CBCFBF8F908FB19C309FB0EFA77
:1081C40042EA03439A4528D9EB1809F1FF3004D257
:1081D4009A4502D9A9F102002B44A3EB0A03A4B2E5
:1081E400B3FBF8F208FB123302FB0EFE44EA03442D
:1081F400A64514D92C1902F1FF3303D2A64501D99F
:10820400931E2C44A4EB0E0443EA00401EB1FC4030
:10821400002334607360BDE8F08F4846DDE7134601
:10822400F0E702B9FFDE87BB831A01214FEA154E3E
:10823400AAB2200CB3FBFEFC0EFB1C330CFB02F8B1
:1082440040EA0343984562D9EB180CF1FF3004D29D
:10825400984502D9ACF102002B44A3EB0803A4B265
:10826400B3FBFEFC0EFB1C330CFB02F244EA03449A
:10827400A2424ED92C190CF1FF3304D2A24202D9E6
:10828400ACF102032C44A41ABEE7C7F1200CBD4094
:1082940000FA07F320FA0CF84FEA154E24FA0CFC06
:1082A400BC404CEA0302ABB2B8FBFEFC110C0EFB63
:1082B4001C800CFB03F941EA0040814523D92818AE
:1082C4000CF1FF3104D2814502D9ACF102012844FA
:1082D400A0EB090092B2B0FBFEFC0EFB1C000CFBF1
:1082E40003F842EA004398450FD9EB180CF1FF322A
:1082F40004D2984502D9ACF102022B44A3EB080343
:1083040042EA014192E76146E2E76246F6E76046E7
:10831400A3E76346B7E7834205D90EB1C6E9007007
:108324000021084677E7B3FA83F181B9834201D388
:10833400BA420AD8BC1A60EB030301209C46002E03
:1083440067D0C6E9004C002165E70846F7E7C1F1AC
:10835400200C8B4002FA01F522FA0CF420FA0CFBF3
:1083640027FA0CF28F401C4300FA01F34FEA144938
:1083740013431FFA84FE1A0CBBFBF9F809FB18BB64
:1083840008FB0EFA42EA0B4292453ED9A21808F1C4
:10839400FF3004D2924502D9A8F102002244A2EB94
:1083A4000A029BB2B2FBF9F809FB182208FB0EFE85
:1083B40043EA024296452AD9A21808F1FF3304D2AF
:1083C400964502D9A8F10203224443EA0040A2EBF5
:1083D4000E02A0FB05939A42CE46984602D306D1DC
:1083E4004F4504D20138B9EB050E63EB040886B19E
:1083F400B7EB0E0362EB080707FA0CFCCB40CF4047
:108404004CEA0303C6E900379DE74046C7E7434605
:10841400DBE73146FFE610F8012B11F8013B012A96
:1084240028BF9A42F7D0D01A7047034613F8012B9D
:10843400002AFBD1181A01387047000013B504460E
:10844400074801A983685B68984738B9012303FA90
:1084540004F0019B184214BF0120002002B010BD9B
:108464009831030001230A4603FA00F1074B186907
:108474000068014203D022B19B681B6903E0002A13
:10848400FAD09B68DB680148184700BF98310300A5
:1084940070B403460A460121064801FA03F406694A
:1084A4008568316821EA04012C6831601946234645
:1084B40070BC1847983103002DE9F0410124ADF553
:1084C400087D4C22002111A82AF0E7FB4C22002150
:1084D40025A81094139419941C942AF0DEFB4C22C2
:1084E400002139A8249426942D942F942AF0D5FBA6
:1084F4004C2200214DA838943E94419447942AF08C
:10850400CCFB4C22002161A84C94539455945C9468
:108514002AF0C3FB4C22002175A8CDE9684460947D
:1085240071942AF0BAFB4FF40031042074947894C7
:108534007D948194FFF7ACFF4FF480310820FFF75E
:10854400A7FF4FF480310720FFF7A2FF002104208A
:10855400FFF788FF454E30462AF02CF938B93146EA
:1085640043481DF085FD0DF5087DBDE8F0811DF043
:10857400D5FC09F0B9F880461DF0D0FC09F0B4F838
:1085840007461DF0CBFC09F0AFF804461DF0C6FC0D
:1085940009F0AAF837490546404609F009FD0023C9
:1085A40040461A46092121F0DBFA3846324909F0DF
:1085B400FFFC0F2300220921384621F0D1FA0EF0E6
:1085C40041FCB36830465B689847DFF8B0802C4FB5
:1085D40010A81DF0AFFC1DF0A8FC24A81DF0AAFCF7
:1085E4001DF0A3FC38A81DF0A5FC1DF09EFC4CA8B2
:1085F4001DF0A0FC1DF099FC60A81DF09BFC1DF073
:1086040094FC74A81DF096FC1DF08FFC0720FFF766
:1086140015FF0820FFF712FF06464146204609F0E1
:10862400C7FC33463A46202168461CF0A9FF2021A6
:108634000123144A0DEB01001CF07AFF6946204621
:1086440009F0B6FC002320461A46052121F088FAD9
:10865400284608A909F0ACFC6FF00E03002205219E
:10866400284621F07DFA0EF0EDFBB1E7F831030066
:10867400F64A03000C4B0300104B0300174B030096
:10868400224B03002D4B03002DE9F04F91B005461A
:108694009946DDF868B00092019151B90F4602780D
:1086A4004678807800EB82002844BE421AD8431BE7
:1086B400019395F802A0BAF1000F1BD00BF0010250
:1086C400EB78029313B11BF0020F15D1A2B9009BF2
:1086D4001BB14A46284601999847019E304611B07D
:1086E400BDE8F08F441C2046FFF79FFE0130204474
:1086F4000137DAE75246E3E72B781C4604939B00E4
:108704000393009B05EB8404002B5BD1019E8AB389
:108714001F46A24454451BD1DDF808A0DFF824C24B
:1087240089490BF00508A2440BF002025445D5D048
:1087340014F8010B55F82000604526D3884224D252
:108744001BF0010F3BD1B8F1000FEFD1013EEDE773
:1087540014F8013B55F82300FFF767FE1B9B01301B
:1087640033B11C9B9F423EBF1B9B23F8170001376C
:108774000644CFE7BAF1000F05D01BF00407CBD0B5
:1087840017465444C8E75746C6E7002ACED04FF0F0
:1087940000090092FFF749FE1B9BDFF8A8C1009A6D
:1087A4006949013033B11C9B9F423EBF1B9B23F898
:1087B400170001370644B9F1000FB7D0C3E74FF0F3
:1087C4000109E6E7002A40F0B080BAF1000F59D061
:1087D4001BF0040F40F0B2809046174654442146E3
:1087E400029B0BF0020204EB030C05920BF0010355
:1087F4000BF00406614548D1029A6E781BF0020F13
:10880400144406EB07020CBF40460020D2B2002BF2
:108814005FD11BF0040F14BF414600216A70A97098
:10882400E8704A4628460399009B9847B0F1000B2C
:1088340077DB049B6E702B70029B4A46EB704146BB
:10884400009B85F802A00CA89847061EFFF646AFC9
:10885400029B03999A44019B5144591A4A46204663
:10886400009B984700285EDB4FF000085E440644F6
:108874000DF1200B47452EDC00214A460846009B9B
:1088840098472BE7D0465746A8E711F8012BDFF8A5
:10889400B4E055F82200704503D3DFF8ACE070452E
:1088A4000BD3059850B90DF1400E08F10100F044C6
:1088B40008F8102C5FFA80F89CE73BB10DF1400EEC
:1088C400781C774407F8202CC7B293E7002E91D088
:1088D400E9E70021A2E718F80B3055F823A08DF83A
:1088E4001F301B9BDBB133F818404A460121009B23
:1088F4000DF11F009847002815DB064424B95046A3
:10890400FFF793FD441CA4B24A4621465046009BFF
:108914009847002807DB064408F10108AAE71B9CD6
:10892400E3E75E46DAE60646D8E657464FF0000827
:1089340008A8524621462AF076F94FE7D046174652
:108944000CA8F6E7F8300300709B0300014B1B688A
:10895400184700BF00C50020014B1860704700BFD6
:1089640000C5002007B50B460021024600910348CC
:1089740000F05CF903B05DF804FB00BF518900000E
:1089840030B5002587B0CDE903010446009503A95D
:108994000548059500F04AF9DDE904309842B8BF6E
:1089A400255407B030BD00BF4F6002002DE9F84FD9
:1089B400B0F81890044619F0080893460DD0012920
:1089C4000CBF49F0100949F02009A0F818908BF366
:1089D4001188BFF36F8FBDE8F88F09F007090229EA
:1089E40007D120461DF05EFB0028F0D00128238B20
:1089F4004ED16769218B002F15DA256821F0070114
:108A0400C4E9008841F0010121830026218B01F093
:108A1400070ACA4502D0A368002B5AD10DB9002E0B
:108A240071D0002356E001F007035A1F012A1ED813
:108A340021F00701062B256889B2C4E900880AD110
:108A44003DB12A46638B126801339BB2002AFAD1E6
:108A5400638341F00201204621831DF023FB064677
:108A64000028D3D0238B43F020032383CDE7042BAA
:108A74000CD121F0070189B2204621831DF012FB9D
:108A840005460028C1D041F0200121830025BCE720
:108A9400032809D1226923F00703166843F006036B
:108AA400002523832F46B1E7042806D1226923F049
:108AB4000703566843F00403F2E7052806D1226948
:108AC40023F00703966843F00503E9E700252E46E3
:108AD400E8E7012341F0080121838BF31188BFF3F8
:108AE4006F8FFBB985BB16B120461F49B0474FF0C5
:108AF4002003EFF3118B83F31288BFF36F8F238B63
:108B040023F008032383238BDA0625D5012123F0E0
:108B140010032383B4F8189009F0070900297FF49F
:108B24005EAF54E7A1680029DCD0D1F800903B4641
:108B340052462046D1F804B0D847B9F1000FD1D03D
:108B44004946D9F80090F2E729463B46524620466A
:108B54002D681DF0C3FAC5E713F020011EBF23F0F2
:108B6400200302212383D5E70D610200F0B50346FB
:108B740002680A270020064E11460C780132A55DD2
:108B84006D0701D41960F0BD07FB00403038F3E7EE
:108B9400359A03002DE9F84F15469A46D378224AB0
:108BA4006F2B13F802B080460F460BF0030B29D04D
:108BB40024D8582B14BF0A261026DDF828903246F4
:108BC400002340463946FFF7BBFA092AD4B21ED81F
:108BD4003034B045E4B277F1000309F8014D01D314
:108BE400D14511D82B789B0605D5082E15D1AB7825
:108BF40043F00803AB704846BDE8F88F03F0F70371
:108C0400702BD7E70826D8E780460F46D7E7BBF195
:108C1400010F0CBF37345734DBE7102EEBD1AB78A0
:108C240043F01003E6E700BF359A03002DE9F04F47
:108C340082468B4691461C46002593B099F8000065
:108C440008B9284641E309F101032528029306D017
:108C54005946D0470028C0F238830135F5E118227F
:108C640000210CA82AF019F899F80130252B5AD0C4
:108C740009F10102164612F8013B2B2B00F08B8000
:108C840079D8202B00F08C80232B00F08E809DF867
:108C9400383003F04402442A03D16FF386138DF86D
:108CA40038309DF83830059643F080038DF838301D
:108CB40033782A2B7ED19DF8393043F001038DF8A7
:108CC4003930731C05931A782E2A0CBF0121002118
:108CD4009DF8392061F341028DF839200BD15A1CDB
:108CE40005925A782A2A7BD19DF83920023342F022
:108CF40004028DF83920194611F8010B6C2800F094
:108D0400B6807DD8682800F084806A2800F0B98095
:108D14004C2800F0BD809DF8392019466FF3C60237
:108D24008DF8392080E009F1020202928DF83B307F
:108D34009DF83930D90740F14A8154F8048BB8F1D1
:108D4400000F07DA9DF83820C8F1000842F0040249
:108D54008DF838205A0740F1438154F8047B002FE2
:108D640080F242819DF839306FF341038DF8393038
:108D74004FF0FF3738E12D2B06D0302B87D19DF8EB
:108D8400383043F0400303E09DF8383043F00403E7
:108D94008DF838306EE79DF8383043F00803F7E774
:108DA4009DF8383043F01003F2E79DF8383043F073
:108DB4002003EDE705A8FFF7D9FE059BB34281D058
:108DC4009DF838100F90C1F3400242EAD07252006D
:108DD40062F07F0201F07D010A438DF8382071E7CB
:108DE40005A8FFF7C3FE9DF838301090C3F3400286
:108DF40042EAD07060F341038DF83830059B7AE77E
:108E040074289DF8392040D07A2884D1134606224C
:108E140028E05A78682A9DF8392021D1012161F38C
:108E2400C6028DF83920991C0B4613F8012B782AB9
:108E340002938DF83B209DF8393000F2C080572A08
:108E440033D8412A03D0453A022A00F2B8800422DA
:108E54009DF83A3062F302038DF83A30012385E03D
:108E64001346022262F3C6038DF83930DCE75A78E0
:108E74006C2A9DF8392001D10421D0E7134603223E
:108E8400F0E705229DF83930ECE713460722E9E7BD
:108E9400BDF8383023F4F04323F0020343F4804355
:108EA40043F00203ADF83830BEE7A2F1580120299F
:108EB40000F2858001A050F821F000BF858F0000EA
:108EC400C38F0000C38F0000C38F0000C38F000056
:108ED400C38F0000C38F0000C38F0000C38F000046
:108EE400538E0000C38F0000858F0000458F000063
:108EF400538E0000538E0000538E0000C38F000079
:108F0400458F0000C38F0000C38F0000C38F000093
:108F1400C38F00008D8F0000858F0000A98F000093
:108F2400C38F0000C38F0000A98F0000C38F00000F
:108F3400858F0000C38F0000C38F0000858F000061
:108F440001209DF83A1003F0780360F30201402BEE
:108F54008DF83A1002BF9DF8381041F001018DF8E8
:108F64003810632A31D1003B18BF01239DF8382003
:108F7400C2F340010B4363F341028DF83820D7E676
:108F840002209DF83A10DEE703219DF83A2003F011
:108F94007803A3F1400061F3020243428DF83A20C2
:108FA4004341E3E703219DF83A2013F0780F61F37E
:108FB400020214BF012300238DF83A20D6E79DF85E
:108FC400383043F001038DF838300023CEE79DF9A3
:108FD4003820002AACBF4FF0FF38DDF83C80B9E6FA
:108FE4009F077FF5C5AE109F0023CDE90F339DF891
:108FF4003A309DF8391003F00703012BC1F3C30184
:1090040036D1CB1E042B23D8DFE803F00309092251
:10901400220054F8043BDA17CDE90C3206E0073499
:1090240024F00704F4E80223CDE90C239DF838303A
:1090340013F003065AD04A4659465046029B1DF087
:109044003AFB0028C0F241810544DDF80890F5E5BB
:1090540054F8043B01294FEAE372CDE90C3202D102
:109064009DF93030D7E70229E0D1BDF93030D2E79D
:10907400022B29D1CB1E042B13D8DFE803F0030AFB
:109084000A12120000232268201D0C920D9304463C
:10909400CCE7E01D20F00700F0E80223CDE90C2323
:1090A400F5E754F8043B01290C934FF000030D93AA
:1090B40005D19DF830300C9300230D93B6E70229B7
:1090C400B4D1BDF83030F6E7042B09D1E31D23F009
:1090D400070303F10804D3E90023CDE90C23A5E732
:1090E400032B04BF54F8043B0C939FE79DF83B000B
:1090F4007828AAD8622820D825283FF4A9AD582872
:10910400A3D1DDE90C010DF12E0300930EAA06ABE9
:10911400FFF740FD8146002F0DF12E000BDB9DF87B
:109124003820A0EB09036FF386129F428DF8382094
:1091340001D9FB1A0F9307463DE06338152884D8FC
:1091440001A252F820F000BFCB9100002D92000044
:109154004F9000004F9000004F9000004F9000008F
:109164002D9200004F9000004F9000004F9000009F
:109174004F90000087920000559200005992000021
:109184004F9000004F900000A59100004F90000008
:10919400559200004F9000004F900000559200003F
:1091A400002FDDF830900ADB3946484629F01CFED2
:1091B400002609EB0007B9F1000F0CD145E748463A
:1091C400FFF733F9F4E700260C9B0DF119078DF82E
:1091D40018300DF11809A7EB090306B101339DF806
:1091E4003A20D00666D5023352060F9948BF109A2A
:1091F4000B4448BF9B18B8F1000F73DD9DF838206D
:10920400A8EB0308C2F38003039353076AD4500600
:109214005ED53EB159463046D047002855DB039B06
:1092240001351E46302354E01E070FD413F01006F8
:1092340018BF2026DDE90C23002BBFF662AF524293
:1092440063EB43032D26CDE90C235AE72B26F1E7E4
:10925400002656E70C9840B30DF12E03009300212D
:1092640006AB0EAAFFF796FCBDF83A30814603F030
:10927400EF0343F4F04343F010030026ADF83A3013
:1092840049E70C9B07293FF6E0AEDFE801F00C0448
:10929400060C08080C0C1D70D7E61D80D5E6EA17ED
:1092A400C3E90052D1E61D60CFE62E4F0646A7F172
:1092B400050990E7110748BF013395E71846594659
:1092C4000393D0470028039B04DA13B0BDE8F08F62
:1092D400202345444246002AA5EB080108F1FF3843
:1092E400ECDC0D462EB159463046D0470028ECDB65
:1092F40001359DF83A30D90601D41A0705D55946E7
:109304003020D0470028E0DB01359DF83A30DB06F9
:1093140006D559469DF83B00D0470028D5DB0135DA
:109324000F9E2E44731B002B15DC3B464A465946C0
:1093340050461DF0C0F90028C7DB0544A844A8EB3B
:109344000503002B7FF781AE59462020D047002823
:10935400BBDB0135F3E759463020D0470028B4DBA6
:109364000135DFE73C4B03004FF02002EFF311839C
:1093740082F31288BFF36F8F0121044AC2F84015AB
:1093840083F31188BFF36F8F002070470090034070
:1093940020B1034B800143F001031847704700BF1D
:1093A4000035030003F07CBB2DE9F0470446074673
:1093B4004FF00109DFF8508014B93846BDE8F08752
:1093C40094FAA4F5B5FA85F509FA05F32E0108EB2C
:1093D40005156FEA030A24EA03042B7B002BEBD068
:1093E40058F806301B694BB9464473680422284672
:1093F400196807EA0A0700F02BFADDE728469847C0
:109404000028D9D1F0E700BFB834030030B50022FA
:1094140089B00F490F4829F0D8FB0022002300240B
:10942400CDE906230E230C4DCDE903344FF44072ED
:109434002846CDE90144094B094900941AF05CFE21
:109444000849284629F03AFA204609B030BD00BF41
:109454006D94000088CB0020C0CB0020F59600005E
:1094640050260120414B030001481AF09DBF00BF64
:1094740078C700202DE9F84F81468846224BD3E86F
:10948400EF4F621CC3E8E12F0029F8D11CB100247E
:109494002046BDE8F88F27464FF0010A1B4D1C4EAD
:1094A400761B3611B74211DBB9F1000FF0D0002C56
:1094B400EDD02046FFF778FF0446B8F1000FF6D050
:1094C40000214FF4A4701BF08FFAF0E72B7B7BB1E3
:1094D400D5F800B0DBF80C300BB128469847DBF820
:1094E400103043B96B6804222846196800F0B0F9BB
:1094F40001371035D6E7284698470028F2D00AFAF3
:1095040007F31C43F4E700BF880D0120B8340300BF
:10951400C8340300014B53F820007047083503009A
:1095240010B5044C237813B903481AF03DFF012306
:10953400237010BD1A21012078C70020084BD3E8FE
:10954400EF2F0132C3E8E12F0029F8D138B1054BE0
:10955400D3E8EF2F013AC3E8E12F0029F8D170478F
:10956400840D0120800D012000200246034BD3E826
:10957400EF0FC3E8E12F0029F9D17047840D0120D2
:10958400F8B5FFF7F1FF00260746094C094D2D1BDE
:109594002D11AE4200DBF8BD63685B792BB1236803
:1095A4005B6813B139462046984701361034F0E71A
:1095B400B8340300C8340300014902481DF046B919
:1095C400143503008C0D012008B50023074A4FF41D
:1095D40000401370064A1360064B074A1A6000F0F5
:1095E40071FBBDE80840FFF7E7BF00BF1B21012066
:1095F400840D012004C50020276B020001460022CF
:10960400002301481DF043B98C0D012001481DF0D1
:10961400D7B900BF8C0D0120014601481DF01CBACA
:109624008C0D012001481DF04BBA00BF8C0D0120A8
:10963400F8B5174B187850B3FFF7E8FF054688B123
:10964400144BD3E8EF2F013AC3E8E12F0029F8D1F6
:109654000027114C114E361B3611B7420CDB28463D
:10966400FFF7DAFF0E4B1B68002B01DDFFF788FFC5
:10967400BDE8F840FFF7D6BF63685B7923B1236880
:10968400294620461B68984701371034E5E7F8BDA2
:109694001A210120800D0120B8340300C8340300CE
:1096A400840D0120F8B50F4F3D787DB9294601207E
:1096B400FFF7E0FE0C4C0D4E361B3611B54206DBAF
:1096C400FFF7B6FF0028FBD101233B70F8BD6368A8
:1096D4005B791BB1236820469B6898470135103499
:1096E400ECE700BF1B210120B8340300C834030099
:1096F40000212DE9F84F0846FFF7BCFE044680B36D
:1097040040F267684FF000091BF088F91D4B1860A0
:1097140030B11D4B1B68092B02DD1C481AF044FEB6
:1097240000271B4E1B4BDFF864B0F61A361144B108
:109734002046FFF739FE044618B94FF0FF384FF0C2
:10974400FF39FFF775FF054648B91FB18246114F2F
:10975400B2450BDB42464B4658461AF045FE2F46AF
:10976400E5E74FF0FF384FF0FF39CDE73B689B69E1
:109774001BB100223846114698470AF1010A1037F6
:10978400E6E700BFC40D0120800D012078C700204A
:10979400C8340300B83403001F4B13B51B680446D8
:1097A40098472146A0601D481DF0EAF81C4BD3E8F9
:1097B400EF2F511CC3E8E01F0028F8D1194B1B7888
:1097C4007BB14FF02003EFF3118483F31288BFF3CE
:1097D4006F8FFFF72DFF84F31188BFF36F8F02B0F3
:1097E40010BD114B1B68002BF9D052B90022002385
:1097F4000E48CDE900234FF4004200231BF032FB56
:10980400EDE70A2AEBD1094829F0EBF9084802B040
:10981400BDE810401AF0C8BD04C500208C0D01201D
:10982400800D01201B210120C40D012088CB0020C4
:1098340078C70020044A054B9B1AB1EBD30F34BF01
:1098440052F831000020704748340300B834030054
:10985400054A4368801A0122001101301871196009
:109864005A71FFF75DBE00BFB83403002DE9F04F15
:10987400C1F3CB45C1F3492681460C4690469A462E
:109884008DB01735002E3BD002234FF0040B00227D
:1098940009A807AF31460093CDF808B003460197F5
:1098A4004046CDE909220B920596FEF7EDFEC0F382
:1098B4000903581920F0070080081E4663F3522458
:1098C4000493FFF79BFE054678B1049B00220A939C
:1098D4000223103009900B9200934046CDE9017B9E
:1098E4000B4A059909ABFEF7CFFE66F352245346A3
:1098F4002246494628460DB0BDE8F04F1DF02FB969
:1099040025F007008008FFF779FE0546EDE700BF64
:10991400356B02000EB403B503AB53F8042B0146B8
:10992400044801931DF043F902B05DF804EB03B061
:10993400704700BFDB6B02002DE9F04F89B09A46F7
:109944009DF8483004460493DDE913830693159B80
:109954000F460593049B9346169E002B00F0158139
:1099640006F0080307931DF0E1F806F0020502462D
:10997400002800F0B38020468A49FFF7CBFF8146D8
:109984004DB116F0440F40F0AB803A46204686496C
:10999400FFF7C0FF814406F001035BB1834B049AD7
:1099A400204653F82220824B8249002A08BF1A46D7
:1099B400FFF7B0FF06F00803002B00F0BD807E4BDC
:1099C400049A204653F822207C49FFF7A3FF05465A
:1099D400BBF1000F05D05A4620467949FFF79AFF9C
:1099E4000544BAF1000F05D0524620467549FFF7E9
:1099F40091FF05444D44B8F1000F00F0CE80724849
:109A04004346224671491CF0D3FA059B002B4DD0E6
:109A1400DFF8BC81059F102F28BF1027F30607D459
:109A2400B00648BF6B49204658BF6B49FFF772FF29
:109A34004FF0000A554500F385804FF00009DFF828
:109A44009CA1DFF89CB1B94580F08C80069B5946F7
:109A5400204613F80920FFF75DFF09F10109B9F168
:109A6400100F76D120465F49FFF754FF4FF0000BEB
:109A7400DFF874A15F4540F28380069B514613F8DA
:109A84000B205A4B2046D35C13F0970F08BF2E22AD
:109A9400FFF740FF0BF1010BBBF1100F67D1069BE1
:109AA4003B440693059BDB1B0593B3D1049B7BB11D
:109AB400F10704D520463E4A3E49FFF72BFFF20644
:109AC40006D4B30620464CBF42494349FFF722FF60
:109AD400204609B0BDE8F04F1DF070B881464FE74D
:109AE400434B186800283FF455AF424B4FF461656F
:109AF40019684FF47A7EB7FBF1F7B7FBF0F1B1FBCD
:109B0400F5F200FB11770EFB07F7B7FBF0FC05FB42
:109B140012153C2100FB1C77B5FBF1F30EFB07F794
:109B2400B7FBF0F701FB135120460091CDE901C7C3
:109B34003149FFF7EFFE2DE706F0080548E7049DDD
:109B44002E485DE741462046FFF7E4FE0AF1010A8C
:109B540070E719F0070F7FF476AF41462046FFF710
:109B6400D9FE70E751462046FFF7D4FE75E71BF097
:109B7400070F7FF47FAF41462046FFF7CBFE79E71E
:109B840041462046FFF7C6FE84E7B8F1000FD6D160
:109B9400059B002B9CD0049D3AE7059B002B87D0A6
:109BA40036E700BF524B0300564B03002835030031
:109BB4004D4B0300129703003C3503007B4B03001D
:109BC400814B03007A5F0300DB6B0200B36B02007E
:109BD4008D4B030013990300129903008B4B030070
:109BE400854B03008F4B0300914B0300359A030010
:109BF400C80D0120CC0D01205F4B0300096C02004D
:109C04002DE9F0414B680F8805460C4690468E6856
:109C140086B0C7F382175BB113495B1A43F3CF01D4
:109C240000291FDB2078C0F3C200FFF703FE0346C0
:109C3400214651F8102B6088C2F34922002A01EB17
:109C4400020408BF0021C0F3CB00CDE90308CDE92D
:109C540001140022314628460097FFF76DFE06B036
:109C6400BDE8F0810023E3E74834030042F20F73B8
:109C740073B58B4228BF0B46056804460521684628
:109C84000D4A1CF002FA0646636828460B225B68FC
:109C94000A491CF07FFF63683246694628465B68C0
:109CA4001CF078FF63681B2228465B6804491CF09B
:109CB40071FF02B070BD00BF2A4B0300D04B0300FC
:109CC400B44B030001230021074A10B5074C13606D
:109CD400A04204D801B11360054B186010BD0121E6
:109CE40040085B00F4E700BFCC0D012040420F00A8
:109CF400C80D0120F8B50D460446064F4618B44277
:109D040001D12846F8BD386814F8011B83685B68E4
:109D14009847F4E7E80D0120014B002019607047D3
:109D2400D80D0120014B024A1A607047E80D01204A
:109D3400C83103000122024B02481A701CF03EBFD6
:109D44001C2101206C3503000148FFF78FBF00BFC1
:109D54006C350300064B10B518680C46FFF7DAFBA8
:109D64002146BDE8104003460F220248184700BFB1
:109D7400D80D01206C3503002DE9F84305464FF05A
:109D84002003EFF3118683F31288BFF36F8F0E4B1A
:109D94001C689CB14FF00C090C4FDFF83480D4E9F7
:109DA4000132002D08BF13462BB198F8142009FB8B
:109DB40002F2B85C98472468002CF0D186F311882D
:109DC400BFF36F8FBDE8F883EC0D0120000E012076
:109DD400A4200120012238B5174B1C7D04F01F0379
:109DE4009A40D043154B610903EB8103D3E8EF1F7D
:109DF40001EA0005C3E8EC5FBCF1000FF6D11142A3
:109E040013D00F4B0F4D8BB10C236343EA185178D9
:109E1400E85C1CF06DFE0020FFF7AEFF0C235C43F2
:109E240000232A192B51C2E9013338BD83F3118869
:109E3400BFF36F8FEFE700BFA42001200C0E0120B9
:109E4400F56A0200000E01202DE9F041314B07466E
:109E54001D7D4FF02003EFF3118883F31288BFF3C5
:109E64006F8F0C246C432C4B2C4E195D1A1900294E
:109E740045D007CA06EB040C8CE8070000221A55EB
:109E840088F31188BFF36F8F0C236B43F05CF218D7
:109E940098B37B1C0FD04FF400440021D2F808C0C3
:109EA4001F480023ECFB04011E4AFEF749F9012177
:109EB400381A28F03BFE1AF017FB0120FFF75CFF6D
:109EC400012105F01F029140174A6B0902EB83033D
:109ED400D3E8EF2F0A43C3E8E02F0028F8D1134B4F
:109EE40033B10C20684333185978305C1CF0F4FD0E
:109EF400FFF770FF1AF0C8FC0120BDE8F0810146AD
:109F0400284600F015F80028BAD007C8344484E87D
:109F14000700B5E7A4200120F40D0120000E012064
:109F24003F420F0040420F000C0E0120DD6A020088
:109F34002DE9F04F85B00E4603A900F041F84FF427
:109F440000474FF0000B039B441E0193194BDFF8AD
:109F54006880D3F800A024B2631C04D100252846ED
:109F640005B0BDE8F08FC4465946019B04EB440597
:109F740003EB850568680023E0FB07C10F4A6046D0
:109F8400FEF7DEF8C44659468146A8680023E0FB84
:109F940007C10A4A6046FEF7D3F8BAF1FF3F01D081
:109FA400824504D9721CDAD04844B042D7D9013C66
:109FB40024B2D1E708C500203F420F0040420F0001
:109FC40008B9024B0B600020704700BF7C350300CA
:109FD400014910220A60704710ED00E072B640405B
:109FE40080F31188BFF36F8FBFF34F8F30BF62B61A
:109FF400BFF36F8F704700BF72B6494081F3118879
:10A0040020BF80F3118862B6704700BF2DE9F04786
:10A0140081460C4600AF00294CD0D1E900126E46AF
:10A024008AB0A3686D464FF0050AA8462548C5E9DD
:10A034000723C5E9050148F810AF002342464FF451
:10A0440021512148FFF712FCD4E90312B546636994
:10A05400AD461E48C5E90723C5E90501C5F810A0AA
:10A06400002342464FF421511748FFF7FFFBB54642
:10A0740088B0E3696D464FF0030AA846144AC5E95F
:10A08400052348F810AF002342464FF4C2510E484E
:10A09400FFF7ECFBB546A369AD460E4AC5F810A020
:10A0A400C5E90523002342464FF4C2510648FFF791
:10A0B400DDFBB5462146484619F096FEBD46BDE88F
:10A0C400F08700BFF94B030090340300284C0300D1
:10A0D400574C0300664C030043B2002B08DB0122FB
:10A0E40000F01F0002FA00F0024A5B0942F8230064
:10A0F400704700BF00E100E043B2002B0DDB0122FA
:10A1040000F01F0002FA00F05B09044A203342F811
:10A114002300BFF34F8FBFF36F8F704700E100E060
:10A12400054B420953F82220012300F01F0003FAD3
:10A1340000F01040704700BF00E100E043B2002B84
:10A1440001F10101ACBF03F16043064B4FEA411139
:10A15400C9B2ABBF03F5614300F00F0083F80013ED
:10A164001954704714ED00E008B572B6044B9A69AF
:10A174001AB100229A6128F0A6FB62B608BD00BF9E
:10A18400A420012030BFFFF7FDBF00BF0B4A08B574
:10A194000B4B22F07F029A60BFF34F8FBFF36F8F98
:10A1A400D3F8882022F47002C3F8882019F0B4FE92
:10A1B4001AF09AFC00F0B2FB19F0EEFE00800000E9
:10A1C40000ED00E0094A0A499368096858679967ED
:10A1D40008494B6843F080534B60002383F3118894
:10A1E400BFF36F8F9368986F704700BFA42001205E
:10A1F400A446030000ED00E015498A6882F87DE07A
:10A204004FF030001044EFF3098C80E8F01F202059
:10A2140080F31288BFF36F8F0E4F4FF00066CA6948
:10A224008A603E6092F97DE0506F0023536780F3AB
:10A23400118802F1300090E8F01F8CF3098802F1D4
:10A24400000004B51CF0FAFCBDE8044070470000AF
:10A25400A420012004ED00E01EF0040F0CBFEFF376
:10A264000880EFF30980816911F8021C0229FFD0EC
:10A2740001B51CF0D4FC01BD42F8203C009B0C4904
:10A2840042F81C3C019B21F0010142F8183C029B5E
:10A2940042F8081C42F8143C4FF0807342F8043C26
:10A2A400002343674FF43C43203A0265C367704779
:10A2B400FF610200084B9860436E83F30B881046DD
:10A2C40081F30988002163B681F31188BFF36F8F8E
:10A2D400002200231BF091FFA420012001B572B6D7
:10A2E4000B4A906900281EBF0021916128F0EBFA07
:10A2F40062B6EFF30580A0F110004FEAC0000549F3
:10A30400014409C99847BDE80140034908470000D2
:10A31400A42001201032030021A30000044B9968FB
:10A32400D869884203D003494FF080520A607047CD
:10A33400A420012004ED00E02DE9F04186B006469A
:10A344000D4600AF0224414B4FF48251404807F1BF
:10A3540010027B613C611CF075FC3E4B9B6ADB0682
:10A3640009D53D4B4FF48251394807F11002C7E932
:10A3740004431CF067FC374B9B6A18070AD5374B1C
:10A384004FF482517B610223314807F110023B6193
:10A394001CF058FC2F4CA36A990722D5E846304B91
:10A3A40007F110027B6102234FF4825128483B617C
:10A3B4001CF048FC636BA26A120612D588B06A4688
:10A3C40028492348C2E9051303234FF4C25142F834
:10A3D400103F1CF037FCC5461EB1A36A23F080036E
:10A3E400A3621C4B9B6ADC070AD51F4B4FF48251B6
:10A3F4007B610223164807F110023B611CF022FC2A
:10A40400144B9B6A98060AD5184B4FF482517B6112
:10A4140002230F4807F110023B611CF013FC0020DB
:10A424000C4B18379A6AD10658BF9A6A9A6A9206F0
:10A4340042BF5A6A22F400525A62064A936A43F0AF
:10A44400FF0393622870BD46BDE8F081944C03007D
:10A454009034030000ED00E0AA4C0300DD4C03003F
:10A46400F04C0300084D03001E4D03003D4D030056
:10A474002DE9F04186B006460D4600AF02243E4B5E
:10A484004FF482513D4807F110027B613C611CF09E
:10A49400D9FB3B4B9B6AD90409D53A4B4FF4825103
:10A4A400364807F11002C7E904431CF0CBFB344BD8
:10A4B4009B6A1A050AD5344B4FF482517B610223FF
:10A4C4002E4807F110023B611CF0BCFB2C4CA36A24
:10A4D4009B0522D5E8462D4B28487B61022307F1D2
:10A4E40010024FF482513B611CF0ACFBA36BA26AD7
:10A4F400100412D588B06A4625492048C2E90513DC
:10A5040003234FF4C25142F8103F1CF09BFBC54695
:10A514001EB1A36A23F40043A362194B9B6A590535
:10A524000AD51C4B4FF482517B610223134807F177
:10A5340010023B611CF086FB114B9A6AD20515D5BB
:10A54400154B7B6102234FF482510C4807F1100232
:10A554003B611CF077FB0020094A1837936A43F4E7
:10A564007F4393622870BD46BDE8F0819B6A9B04DB
:10A57400F1D50A4BE5E700BF6C4D030090340300AE
:10A5840000ED00E0824D0300DD4C0300934D030019
:10A59400AC4D0300C14D0300DC4D03003D4D0300F1
:10A5A40010B586B002243A4B4FF48251394804AABC
:10A5B400059304941CF046FB374B9B6A9B0108D51A
:10A5C400364B4FF48251334804AACDE904431CF0BE
:10A5D40039FB314B9B6ADC0109D5314B4FF4825175
:10A5E400059302232B4804AA04931CF02BFB2A4B4B
:10A5F4009C6A14F4801409D002242A4B4FF482512B
:10A60400244804AA059304941CF01CFB224B9B6A67
:10A61400180309D5244B4FF48251059302231D4896
:10A6240004AA04931CF00EFB1B4B9B6A590309D527
:10A634001E4B4FF4825105930223164804AA049337
:10A644001CF000FB144B9B6A9A0309D5184B4FF47A
:10A654008251059302230F4804AA04931CF0F2FAD2
:10A664000D4B9B6ADB0309D5124B4FF482510593C2
:10A674000223084804AA04931CF0E4FA064A20467C
:10A68400936A6FEA03436FEA1343936206B010BD03
:10A69400F44D03009034030000ED00E00C4E030081
:10A6A4001F4E0300394E0300634E0300814E030026
:10A6B400A64E0300C04E03002DE9F04F8BB07F4B34
:10A6C4000546D3F804908A461446002600AFC9F321
:10A6D400080886F31188BFF36F8F02F07F43B3F14C
:10A6E4007F4F25D1D00723D4510603D422070FD49A
:10A6F40001260FE0724B4FF48251FB610223714833
:10A7040007F11802BB611CF09DFA14F0040601D095
:10A71400554600260023FB71A8F10303092B00F220
:10A72400AC80DFE803F0079FA29CAAAAAAAAAAA564
:10A734003546EFE7E9464FF0020A4FF0000B624B53
:10A74400DFF878814FF482515E4807F11802FB610B
:10A75400C7F818A01CF076FAD8F82C4087F807B090
:10A7640014EA0A040BD0594BC7E906A34FF48251EB
:10A77400544807F118021CF065FA00240DE0D8F8DB
:10A784002C30002B2BDA524B4FF482514D4807F1F9
:10A794001802C7E906A31CF055FAFB79DBB907F1E7
:10A7A400080205F1200C134628686968083503C3BC
:10A7B40065451A46F7D17B6A002E7AD0C3F30802A6
:10A7C40022B96FEA53236FEA43237B62204607F1E1
:10A7D4000801FFF71BFC2C37BD46BDE8F08FD8F805
:10A7E4002C305B00D9D53B4B07F118024FF4825152
:10A7F4003448C7E906A31CF025FAAB6933F8022CE8
:10A804004DF602739A4210D188B06A462B683249D9
:10A814002C48C2E9051303234FF4C25142F8103FF8
:10A824001CF010FACD462C68B7E7D8F82830DBB214
:10A834002BB10120F91DFFF77FFD0446ADE7D8F8E1
:10A84400283013F47F4F04D00120F91DFFF710FEC8
:10A85400F3E7D8F828301B0C1B04002B9DD0FFF71E
:10A864009FFEEAE70020F91DE5E70020F91DEDE76A
:10A874001A4BFB610223BB6178E7194A6C4619F451
:10A88400F87F8AB0174B18BF13466A4616490D481D
:10A89400C2E90513A8F11003D361022382F8203022
:10A8A400124B4FF4095142F8103F1CF0CBF9A54666
:10A8B40063E723F4FF7323F0010386E700ED00E070
:10A8C400194F0300903403003C4F0300534F03001F
:10A8D400744F0300824F0300A14F0300BD4F0300D8
:10A8E400004F0300EB4E0300E14F0300040000019E
:10A8F400044B5A6942F010025A615A6942F4806268
:10A904005A61704700ED00E0EFF30880EFF309812E
:10A9140001B57246FFF7D0FE01BD00BF0023202120
:10A924000348C2180133412B82F80013F9D1704750
:10A9340000E100E0002080F31488BFF36F8F002053
:10A9440080F30A8880F30B88FEF72CFD00200E4963
:10A954000860BFF34F8F0D4880F3088800F03EF87D
:10A96400202080F311880A484FF40061401880F3D6
:10A974000988EFF314800221084380F31488BFF39D
:10A984006F8FFFF703FC000094ED00E050390120C5
:10A99400903A0120BFF34F8F0549064BCA6802F471
:10A9A400E0621343CB60BFF34F8F00BFFDE700BFEE
:10A9B40000ED00E00400FA05002318460649D1F82A
:10A9C4009020C2F30722934200D17047C1F8983017
:10A9D400C1F8A0000133F6E700ED00E010B572B64F
:10A9E400002484F31388FFF7E7FF23464FF0FF307A
:10A9F4000B4A03F120010133102B42F82100F8D156
:10AA040000234FF0FF3003F160010133102B42F8B3
:10AA14002100F8D162B6BFF34F8FBFF36F8F10BD23
:10AA240000E100E0084B9B6883420BD1EFF3058300
:10AA340043B1064B5A6842F080525A605A6A22F473
:10AA440000425A6219F0F0BFA420012000ED00E09A
:10AA54001FB5094C094A23460121094800F02AF987
:10AA640000230393074B0121E41A01A801930294E4
:10AA740000F02AF904B010BD0000042000C5002035
:10AA84007C35030088C7002010B50B680C7A23F0CE
:10AA94001F0204F01F031A43CB68640923F01F0349
:10AAA400054943EA440343F00103C1F89800C1F89F
:10AAB4009C20C1F8A03010BD00ED00E080B500AFCF
:10AAC40088B06A46074BC2E90530032342F8103FB9
:10AAD40000234FF4C2510448FEF7C8FE6FF015007E
:10AAE400BD4680BDF84F0300803403002DE9F04FCC
:10AAF400144606464FF0000987B05F4D00AF7960F9
:10AB04007B68994535DAD6F80480B8F1000F54D043
:10AB1400B8F11F0F1BD918F01F0F18D1D6F800B0C9
:10AB24001BF01F0F13D158461CF091F8824608EB16
:10AB34000B0001381CF08BF882451FD06FF0150A0A
:10AB44006C4688B06A464D49C2E9051A05E06C4670
:10AB540088B06A464A4BC2E90539032342F8103FDC
:10AB640000234FF4C2514748FEF780FEA5466FF01C
:10AB7400150420461C37BD46BDE8F08F1AF1160FA8
:10AB8400DED05445DCDDC5F898A0D5F89C00C5F8A6
:10AB940098A0D5F8A02020F01F0042F01F08D6E9A5
:10ABA40000120A44884202F1FF3B1ED1D84508D165
:10ABB40031465FFA8AF01CF053F809F101090C36AA
:10ABC4009EE73146C5F898A0D5F89C3022F01F02C4
:10ABD40003F01F031343C5F89C30E0B21CF040F8A7
:10ABE40010F1160FC3D0441CE7E70139D845E0B291
:10ABF40021F01F01C5F898A008D1D5F8A03003F0C2
:10AC04001F031943C5F8A0103146E7E7D5F8A02083
:10AC140002F01F021143C5F8A01031461CF020F8C1
:10AC240010F1160FA3D0C5F898A0D5F89C203B7C52
:10AC340008F1FF3862F304033B74D5F8A0303A7C82
:10AC44005B0863F34712D6E900310B44BB6023F081
:10AC54001F034344441CA3EB0B0BE0B22BF01F0374
:10AC64000F283A747B6102D9FFF728FFB8E707F190
:10AC74000801FFF709FFB6E700ED00E041500300CB
:10AC84001E500300803403000522044BC3F89420B3
:10AC9400BFF34F8FBFF36F8F704700BF00ED00E02D
:10ACA400BFF35F8F0022024BC3F89420704700BFAC
:10ACB40000ED00E010B5034C2278FFF717FF207079
:10ACC40010BD00BF1E2101202DE9F74F294D8A46F2
:10ACD40006464FF00008AB46274FD0451BDAD6F89E
:10ACE4000490B9F1000F3FD03168084601911BF080
:10ACF400AEFF0199044609EB010001381BF0A7FFE0
:10AD040084424FF014021D4B08D06FF0150302FB70
:10AD140008F84BF8083003B0BDE8F08F14F1160FB3
:10AD24002C60F8D01978A142F5DD02FB08B0C7F811
:10AD34009840C7F89840D7F89C4000F10801007B80
:10AD440064F304000871D7F8A0000C79400860F39C
:10AD540047140C71D7F89C1021F01F016960D7F8D3
:10AD6400A01021F01F01296108F1010814350C36E7
:10AD7400B3E700BF100E012000ED00E01E2101200A
:10AD840038B50E4D2C68102C15D80020FFF788FF1D
:10AD94000B4B0C4AC3F8C020844205D10A4B002057
:10ADA4001C70FFF771FF38BD696801EB0011FFF7F4
:10ADB4006BFE0130F0E74FF0FF30F4E78835030015
:10ADC40000ED00E0AAFF44001E210120014B1860A1
:10ADD400704700BF10C50020F8B506460D46002494
:10ADE400064FAC4208DA3B6898470A28305504F10C
:10ADF400010401D00D28F4D12046F8BD0CC5002073
:10AE0400F8B50D46094F461EC0F10104A3199D4231
:10AE140001DC2846F8BD73780A2B02D10D203B686B
:10AE240098473B6816F8010F9847EFE710C50020D4
:10AE340010B5074C2368C2180648C0F1005101F54B
:10AE440080218A422EBF4FF0FF30C018226010BD0F
:10AE5400240E01209044012008B51D210448FFF769
:10AE6400CFFF404080F311884FF0030002DF00BFA2
:10AE740064500300084B70B5C31A0D4607499B1074
:10AE840004465943402206481BF055FF2B46014611
:10AE94002046BDE870401847380E0120B76DDBB678
:10AEA40080310300402373B50B4C0093041B0B4605
:10AEB4000D460A49A41061430646094A09481BF095
:10AEC40067FF011E05DA30462B4602B0BDE870402C
:10AED400184702B070BD00BF380E0120B76DDBB655
:10AEE400036E02008031030070B500220121044684
:10AEF4000520FFF723F90F4801F066FE0E4B984238
:10AF040015D101F071FE26690C4930461BF019F980
:10AF140000280BDB012524690849356404F11C0071
:10AF24001BF00FF9002801DB0020E56470BD6FF011
:10AF34000400FBE779AF00000000AD0BE43503002B
:10AF440001460C2300224B43084870B5C418403313
:10AF5400D4E90E561844A2631BF0DAFE2DB1324632
:10AF64002B46BDE870400248184770BD380E0120DA
:10AF74008031030010B1012804D07047034B1B6CCF
:10AF84005B0701D1FFF7DCBF704700BF380E01201B
:10AF940008B54FF02003EFF3118183F31288BFF358
:10AFA4006F8F114A136843F0020013F0010310601D
:10AFB4000BD00E4AD2F80C34D2F80C2413F001034F
:10AFC40003D00B481BF0A4FE012381F31188BFF3C7
:10AFD4006F8F23B1BDE808400020FFF7B1BF012007
:10AFE400BDE8084001F010BE880E0120005000406A
:10AFF400780E01201FB500220123CDE902236B4600
:10B00400084ACDF800D0CDF804D01BF0F1FE00289A
:10B0140005DB4FF480420023684619F0E5F905B0DA
:10B024005DF804FB216E0200074BD3E8EF2F22F0FA
:10B034000201C3E8E01F0028F7D1D30702D401209E
:10B044001CF0B7B9704700BF880E01202DE9F0410C
:10B05400012207463549D1E8EF3FC1E8E02F002837
:10B06400F9D133B9324933484B60CB608A601BF065
:10B074007BF87B1E012B2DD8012F06D12E4BD3F844
:10B084001C3403F00303022B24D027F011FC0446E4
:10B0940018B92A4B1B78002B41D14FF02003EFF352
:10B0A400118683F31288BFF36F8F0124224DDFF8DA
:10B0B4009080D5F81834D5F81824D2030CD503F0B1
:10B0C4000303022B01D0012F06D124B386F3118888
:10B0D400BFF36F8FBDE8F081C4B13046FEF78CFF3B
:10B0E400D5F81835DBB2012BE3D1D5F80421002AB9
:10B0F400DFD00022C5F80421D5F804210222C5F8C6
:10B1040018252022C8F88021AB60D2E70021212035
:10B1140019F06AFCE4E70223C5F80433DAE70222F3
:10B12400054B0646C3F80823C0E700BF8C0E012078
:10B13400280E0120540E0120005000404C2601200E
:10B1440000E100E008B50848084B186027F032FB1E
:10B1540038B10748FFF73AFE0548FDF7FDFB00202C
:10B1640008BD6FF01200FBE7C8310300900E012008
:10B1740079B100000A2838B50446074D04D128687F
:10B1840083680D215B68984728688368E1B25B682F
:10B194009847204638BD00BF900E01207FB5074B6D
:10B1A4004FF4825105930223054804AA04931BF02B
:10B1B40077FE6FF0850007B05DF804FBB65003001E
:10B1C400503403007FB5074B4FF48251059302239B
:10B1D400054804AA04931BF063FE6FF0850007B0D2
:10B1E4005DF804FBDA50030050340300F0B587B077
:10B1F4004468064600AF206827F0DCFAC0B923682B
:10B204006C4688B01B686A46A049A148C2E9051388
:10B21400022313779F4B4FF4D25142F8103F1BF097
:10B224003FFEA5466FF0120528461C37BD46F0BD0B
:10B23400E36823B1186827F0BDFA0028DFD0A069BD
:10B2440010B327F0B7FA58B9934B7B6102234FF43C
:10B2540082518F4807F110023B611BF021FEE1E7A8
:10B264004FF4B01104F118001BF0DBFD054658B192
:10B274008A4B7B6102234FF48251854807F1100207
:10B284003B611BF00DFECFE7206927F093FA08B964
:10B29400834BDAE74FF4003104F110001BF0C1FDD9
:10B2A400054608B17F4BE4E770688369E3B100F1B8
:10B2B4001804012120461BF017FE0021212019F05B
:10B2C40093FB294620461BF00FFE002140F65D70DB
:10B2D40019F08AFB002311211A4670681BF01BFE2B
:10B2E400041E15DA704B07E02B462A4601211BF099
:10B2F40012FE041EE9DA6D4B7B6102234FF4825186
:10B30400634807F110023B6125461BF0C9FD8BE73A
:10B31400002140F65D7019F067FB76680323B121C4
:10B32400304606F13A021BF0F6FD041E01DA604BCA
:10B33400E2E70323B221304606F13D021BF0EBFDA8
:10B34400041EF4DB0623B321304606F140021BF051
:10B35400E2FD041EEBDB0123B421304606F12F028B
:10B364001BF0D9FD041EE2DB0323C021304606F1A5
:10B3740030021BF0D0FD041ED9DB0123C12130466D
:10B3840006F133021BF0C7FD041ED0DB0223C221E9
:10B39400304606F134021BF0BEFD041EC7DB022357
:10B3A400C321304606F136021BF0B5FD041EBEDB98
:10B3B4000223C421304606F138021BF0ACFD041E02
:10B3C400B5DB0123C521304606F12E021BF0A3FD97
:10B3D400041EACDB96F86630002B54D000232121E8
:10B3E4001A4630461BF097FD002804469FDB0123D4
:10B3F4003621304606F124021BF08DFD041E96DB37
:10B4040001233A21304606F125021BF084FD041E77
:10B414008DDB04232A21304606F126021BF07BFD36
:10B42400041E84DB04232B21304606F12A021BF080
:10B4340072FD041EFFF67BAF1023E021304606F1B7
:10B4440046021BF068FD041EFFF671AF1023E121D4
:10B45400304606F156021BF05EFD041EFFF667AF90
:10B46400002313211A4630461BF055FD041EFFF637
:10B474005EAF002329211A4630461BF04CFD041E02
:10B48400BFF6D2AE53E71A462021AAE707510300BC
:10B4940050340300030000011C5103004251030017
:10B4A4005F5103007C510300B35103009C5103001E
:10B4B400C751030030B5406801F01F05047BB2F5A5
:10B4C400001F45EA441585B04FF0000405D1284615
:10B4D40001F056FE002005B030BDB2F5800FCDE975
:10B4E40002442ED1B3F1007F0CBF042305238DF851
:10B4F4000830836823FA01F1C90714D4B2F1A07F9C
:10B5040011D11B4A05F01F03803352F82330DB07A7
:10B5140009D40DF107042146284601F099FD154B85
:10B52400984219D0039400232846194602AA01F030
:10B5340065FC114B984218D10121284601F0DCFD2D
:10B54400C8E7B3F1C06F05D0B3F1007F0CBF02238D
:10B554000123CCE70323CAE7204601F0C7FD064BCD
:10B564009842DFD06FF00B00B5E76FF01500B2E73B
:10B57400002584400400AD0B0000AD0B10B501F0B4
:10B58400A5FD044668B901F079FD084B98420AD13B
:10B594002146074801F056FD224605213120FEF7D9
:10B5A400CDFD002010BD6FF00400FBE70000AD0BE3
:10B5B400B9B50000430970B510D1094B596869B198
:10B5C40001250C68074E85408A682A4002D030461F
:10B5D4004B68984714B121462468F5E770BD00BF55
:10B5E400940E0120983103002DE9F043D0F8048033
:10B5F40001F01F0698F80C3085B046EA431614464D
:10B604000F4630460DF1030101F022FD14F44035DC
:10B6140081460BD1304601F0DBFD424B994503D105
:10B624009DF8030001F05CFD002056E00023304645
:10B63400194602AACDE9023301F0E0FB394B9842E6
:10B6440002D06FF0150048E0814503D19DF8030056
:10B6540001F046FDA50352D540F206332340B3F56D
:10B66400837F3DD00CD8062B15D004D89BB1022B78
:10B67400E7D104230FE0B3F5807FE2D101230AE090
:10B6840040F2022293422DD0B3F5407F2CD0B3F583
:10B69400007FD6D102238DF8043084F48033C3F3C1
:10B6A4000043E0068DF805304CBF0323C4F3401378
:10B6B40021038DF8063019D50121D8F8043001FA98
:10B6C40007F79F600022304601A901F041FC154BA9
:10B6D400984214BF6FF01500002005B0BDE8F08358
:10B6E4000723D8E70523D6E70323D4E7620341BF42
:10B6F4000121D8F8043001FA07F7DF60E2E7E30636
:10B704004FF000034CBF0324C4F340141A463046E0
:10B7140001A98DF8044001F071FB024B984283D0DB
:10B724008FE700BF0000AD0B2DE9F04383B0446800
:10B7340000AF666A0569002130463A1D1BF0CEFD54
:10B74400002832DB7B6832681979186800F082FEC1
:10B7540000282ADB0126236A9847AC68D5E902321F
:10B7640003EBC2039C4204D328461BF013FD0020C4
:10B774001BE0206827F01EF8D8B9236819682379DC
:10B784006C468AB06A46D36102231B4882F8203093
:10B794001A4BC2E905011A484FF4095142F8103F07
:10B7A4001BF0BFFC6FF01200A5460C37BD46BDE888
:10B7B400F08320682179E388D0F810E0DA0754BFD9
:10B7C40043F4B01383F4D013DEF800C023F48012E2
:10B7D400D0F80890DB0706FA01F84CBF4CEA0803DE
:10B7E4002CEA0803CEF80030D9F800309847002836
:10B7F400DBDB0834B2E700BFFF51030004000001A3
:10B80400A83403007FB50569AB6C2C6D7BB99CB97A
:10B814000022284611461BF09BFC2C6305F12000F6
:10B8240018F0C2FD002385F85C3004B070BD002C14
:10B8340034D09C4228BF1C46696C466869B163B128
:10B8440001F06043B3F1005F07D0082C28BF08243F
:10B85400286E224627F0E7F9296E41F6FF729442DA
:10B8640028BF14466B6CAC6500911BB1AB6C002B0C
:10B8740018BF23460193EB6C02931BB12B6D002B75
:10B8840018BF2346002269463046039301F0F4FEB4
:10B89400034B9842C9D06FF00404B9E71C46CBE7C8
:10B8A4000000AD0B10B503780C4686B0002B54D1C4
:10B8B4008B6C63B18A6D9A421ED9294B4FF4825125
:10B8C40005930223274804AA04931BF02AFC236D42
:10B8D40063B1A26D9A4227D9214B4FF4825105934B
:10B8E4000223204804AA04931BF01BFC606D06B0DD
:10B8F400BDE81040FFF786BF9B1A8B6473B94B6B8E
:10B9040001F1480208334B638B6B04F13400013BB3
:10B914008B6338311BF0F4FB6064D8E74B6C002B6D
:10B92400D5D013444B64D2E79B1A23657BB9E36BF0
:10B9340004F150020833E363236C04F14001013B3A
:10B94400236404F13C001BF0DBFBE064CEE7E36C12
:10B95400002BCBD01344E364C8E706B010BD00BF8E
:10B9640023520300A83403002DE9F04F8BB000AF3D
:10B97400C7E902328B8883469B040E46046934D49B
:10B984004FF0FF324FF0FF3304F1100018F02CFD9C
:10B994006660DBF8108098F85D307B6023B1D8F8DE
:10B9A40000309E4200F0D280B6F804C01CF4006F50
:10B9B40022D09B4B6FF085057B6202234FF48251AA
:10B9C400984807F120023B621BF0ABFB23689B887D
:10B9D40013F4005304D1636004F1100018F0E4FC84
:10B9E40028462C37BD46BDE8F08FA369002BC7D18C
:10B9F40063689942C4D1CCE71CF0010F15D06D46A1
:10BA040088B0DBF800306A4687498648C2E90513E6
:10BA140002231377854B4FF4D25142F8103F1BF0A9
:10BA240080FBAD466FF01505D0E71CF0080F0BD076
:10BA34007F4B7B6202234FF482517A4807F1200244
:10BA44003B621BF06EFBEDE7CCF34513082B01D0F2
:10BA5400784BEEE73568784B9D4201D8774BE8E7A1
:10BA6400DBF8049007F1100ED9F8083009F10C0A3C
:10BA74003B60BAE80F00AEE80F00DAF80030CEF809
:10BA840000303B689D4228BF1D466D4B9D4245D901
:10BA94006C4B9D4245D96C4B9D4245D96B4B9D42A5
:10BAA40045D96B4B9D4245D96A4B9D4234BF4FF0FB
:10BAB40080454FF000451CF0020FBD610CF00403FB
:10BAC4003BD0002B14BF032302233B777B68CCF3CA
:10BAD400001C87F81DC02BB1484601F085FD0023EA
:10BAE40088F85D30434648465B4A07F1100101F08F
:10BAF400D9FC5A4B984224D06D4688B06A46584BBC
:10BB04004FF4C251C2E905300323464842F8103FBE
:10BB14001BF007FBAD466FF0040557E74FF00075C7
:10BB2400C9E74FF08065C6E74FF00065C3E74FF003
:10BB34008055C0E74FF00055BDE7003B18BF012317
:10BB4400C3E70123C8F8006088F85D30012384F856
:10BB54005C30FB68002B52D11A466363A26304F184
:10BB6400380104F1480204F134001BF0C9FABB683F
:10BB74006064002B4AD1E363236404F1500204F1AE
:10BB8400400104F13C001BF0BBFA002601213246BF
:10BB9400E064266320461BF0DBFA5846FFF732FECA
:10BBA400256DA36CA0469D4238BF1D464FF4FA5341
:10BBB4005D4358F8203B4FF4004C1B683146B5FBFD
:10BBC400F3F540F2E730C8354FF47A720023E5FB11
:10BBD4000C01FCF7B5FA02460B46404618F004FC8B
:10BBE400E0B1204B4FF482517B6202230D4807F1F0
:10BBF40020023B626FF073051BF093FAE6E6FB68E4
:10BC04001A686263002AA9D05A68A7E7BB681B6850
:10BC1400E363002BB0D0BB685B68ADE7256BD5E66A
:10BC240041520300A83403005B52030003000001E7
:10BC34007D5203009C52030047E80100CB520300ED
:10BC44008FD003001FA107003F420F007F841E0016
:10BC5400FF083D0000127A00A9B800000000AD0BF7
:10BC6400FC52030023530300F0B54B79012B26D07B
:10BC7400032B21D110268B79032B1DD1CC790CB148
:10BC8400012C19D10A7912B1022A15D10E220B689E
:10BC94004568B3F5164F2D6865D02DD8B3F5165FFA
:10BCA40064D016D8B3F5966F62D00AD8B3F5967FF0
:10BCB40061D0B3F5167F61D06FF0850052E00026A5
:10BCC400D9E7B3F5166F5CD0B3F5965FF4D1374B73
:10BCD4003CE0B3F5E14F57D007D8B3F5615F55D0D9
:10BCE400B3F5964FE8D1324B30E047F61227BB420A
:10BCF400E2D14FF4000329E0B3F5613F48D013D8F3
:10BD0400B3F5963F47D009D84DF6C027BB4244D07F
:10BD1400B3F5614FD0D14FF46B0317E0B3F5E13FB6
:10BD2400CAD14FF0EB7311E0B3F5612F38D008D8C6
:10BD3400204FBB4237D0B3F5E12FBDD14FF0E863BC
:10BD440004E01D4FBB42B7D14FF080530069344328
:10BD5400C5F824352243031DC5F86C2503C983E8BF
:10BD640003000020F0BD4FF41D03EFE7134BEDE794
:10BD74004FF49E23EAE74FF4A033E7E74FF41C3374
:10BD8400E4E74FF41D23E1E70D4BDFE70D4BDDE75F
:10BD94004FF06C73DAE70C4BD8E74FF46503D5E743
:10BDA4004FF07063D2E74FF08063CFE700B0130029
:10BDB40000A04E0090D0030040420F000050270026
:10BDC40000C0750000F03A0000903A012DE9F043FC
:10BDD400074687B0002201210820FEF7AFF90820AA
:10BDE400FEF77AF90021D7F804803E69D8F80040BC
:10BDF400D8F80C90C4F800156A46484637601BF022
:10BE04006DFA051E26DB009BD9F800201979186805
:10BE140000F020FB051E1DDB3846311DFFF724FF13
:10BE24000546B8B9D8F80430990723D506F11800A7
:10BE340000F05EFF244B984210D0244B059302235C
:10BE440004932B466FF004054FF48251204804AA52
:10BE5400FDF70CFD284607B0BDE8F083327E42F0C2
:10BE64000043C4F8A031C4F88C3001239340194A2C
:10BE7400C2F804350823C4F8003598F8083053B9DB
:10BE8400C4F81031D4F810317369C4F8343501237F
:10BE9400C4F838352360D8F804309A075CBF4FF4EF
:10BEA4008072C4F80423DB0644BF4FF48003C4F853
:10BEB40004333369C4F844350023C4F848350123F6
:10BEC400A360E360C6E700BF0000AD0B605303004E
:10BED400B034030000700140F8B504460D4607690C
:10BEE40026F0E6FC10B92D4B1B788BB94FF02003DC
:10BEF400EFF3118683F31288BFF36F8F60683146C6
:10BF04001BF08DF930BB86F31188BFF36F8FEDE71B
:10BF1400642660681BF083F970B901201BF047FAAE
:10BF2400013EF6D10021212018F05EFDF0E786F3F2
:10BF34001188BFF36F8FF5E74FF02003EFF31186FD
:10BF440083F31288BFF36F8F606831461BF067F983
:10BF54000028ECD03B691D70626838691368C3F827
:10BF640044050120C3F848050020C3F82001D3F894
:10BF74002041C3F858015268D3F85801D20641BF92
:10BF84000822C3F800254FF48002C3F804230122D9
:10BF94009A6081F31188BFF36F8FF8BD4C2601209E
:10BFA4000123834010B5DC430C4AD2E8EF1F01EAB9
:10BFB400040CC2E8EECFBEF1000FF6D14FF480328C
:10BFC40002FA00F0064AC2F80803BFF35F8FBFF31A
:10BFD4006F8F0B4214BF0120002010BDA40E01205E
:10BFE400005001401949F8B5044622F07F4508681D
:10BFF400C1E90023A5F50013101AB3F5400F22D2AE
:10C00400134B1B681A0A1B065E19124B42F10007F8
:10C01400C3E90067012618F045FEA30003F180433D
:10C0240003F5A833D3F84025AA420BD11EB94FF427
:10C034000002C3F840254FF48030074B00FA04F4A3
:10C04400C3F84443F8BD0026E5E700BF58CC002000
:10C05400A80E012040CC002000500140E1B1012392
:10C064000E4A8340D2E8EF1F1943C2E8EC1FBCF12B
:10C07400000FF7D14FF48033094A8340C2F80433E8
:10C08400084BD3E8AF3F23FA00F0C30742BF4FF495
:10C094000012054BC3F80021704700BFA40E012015
:10C0A40000500140A00E012000E100E00D4B186893
:10C0B400010A0006BFF35F8F0B4BD3F80435181841
:10C0C40041F10001B3F5801F0AD2084BD3E90023E4
:10C0D400904271EB030303D210F1807041F100012F
:10C0E400704700BFA80E01200050014040CC002042
:10C0F4002DE9F04F85B0164698460546FFF750FFE8
:10C104000090FFF7D3FFB04271EB080376D2434BA4
:10C11400301A68EB0101984271F100037BD2404B65
:10C1240003EB0513D3E902ABD84508BF564550D0FD
:10C134004FF4803326F07F4214464FEA850905F117
:10C14400500709F18049BF00AB4009F5A839BFB2D7
:10C1540007F180470193D9F84005324B07F5A8371A
:10C16400D3F80415401A20F07F4021F07F4C0128B9
:10C17400C9F840C507D1CDE90221132026F0F6FC09
:10C18400DDE90221274B01F1020CA4EB0C0020F0A5
:10C194007F40B0F5000F88BF6446002038603868DF
:10C1A4000198C3F8440324F07F40C9F84005D3F84C
:10C1B4000405814206D0201A023820F07F40B0F5F1
:10C1C400000F19D8A41A24F07F4414EB060A48F18E
:10C1D400000B002412490E982B0101EB0512C850E4
:10C1E400C2E902AB0F9B536028460099FFF736FF64
:10C1F400204605B0BDE8F08F2046B1E701230A4A86
:10C20400AB40D2E8EF1F1943C2E8E01F0028F8D181
:10C21400B246C346DDE76FF01504E5E7010000010F
:10C2240048CC002000500140A00E012073B500242A
:10C234004FF0FF304FF0FF31164D174BC5F808454E
:10C24400C3E902014FF4803302264FF40012C5F80B
:10C254000433124B0121C5F804631520C3F880216F
:10C264002246FDF76BFF1520FDF736FF01230C4A2C
:10C27400AB602B6013600B4B0B4A009320460023EA
:10C284000194FFF735FF3046FEF7E0FE204602B08A
:10C2940070BD00BF0050014048CC002000E100E028
:10C2A400A40E0120E9BF0000FFFF7F00354B2DE9FC
:10C2B400F743D3F8042391070BD5D3F8042142B1F3
:10C2C4000022C3F80421304AD3F80431136801333F
:10C2D40013604FF02003EFF3118183F31288BFF34F
:10C2E4006F8F284BD3F80423D2030ED5274AD2E804
:10C2F400EF0F20F00104C2E8E54F002DF7D100282C
:10C3040037D1D3F84021002A33D1002381F3118897
:10C31400BFF36F8F53B3FFF7C9FE4FF02003EFF362
:10C32400118783F31288BFF36F8F194BD3E902454A
:10C33400A04271EB05024FF0000221D3D3E90016AD
:10C344004FF0FF384FF0FF391A604FF48032C3E9E1
:10C3540002890C4BC3F8482387F31188BFF36F8F0E
:10C3640021B122462B4600200096884703B0BDE841
:10C37400F0830022C3F84021D3F840310123C5E7FC
:10C384001146E9E700500140A80E0120A00E01204B
:10C3940048CC0020431C13B520D0012820DDB0F583
:10C3A400000F1FDA441EFFF781FE0F4BD3E9001381
:10C3B400401AB0F5000F28BF0024013002190B48C1
:10C3C400824228BF02460020521809490190009178
:10C3D40043F10003FFF78CFE02B010BD0348E1E710
:10C3E4000024E0E7014CDEE758CC0020FFFF7F008B
:10C3F400E9BF000008B5FFF759FE024B1B68C01ADD
:10C4040008BD00BF58CC002000F01F030120984055
:10C41400024B09B9D8607047986070470025844082
:10C4240030B500F48054002C16BF002115460125B8
:10C434001B02C0F3811243EA820200F01F04044B82
:10C444000A4342EA4502803443F8242030BD00BF49
:10C45400002584402DE9F843164605460127DFF8F8
:10C46400108100EB81094D4502D10020BDE8F8831D
:10C474002C68230CC4F30322192B76D8DFE803F0CD
:10C484000D1B23282D4028757575754C55757575CC
:10C494007575757575755A666B7004F03F04C6F84A
:10C4A4000C452B6803F01F0307FA03F3C8F80830A0
:10C4B4001346012205E004F03F04C6F81445134670
:10C4C4000022114617E004F03F04C6F80845E8E7E7
:10C4D40004F03F04C6F81045F1E704F03F04C6F841
:10C4E40008452B68012103F01F0307FA03F3C8F87A
:10C4F4000C30134600222868FFF792FF0435B2E798
:10C5040004F03F04C6F80C452B6803F01F0307FA38
:10C5140003F3C8F80C30CBE704F03F04C6F8084531
:10C52400002A14BF13460623CAE704F03F04C6F8E2
:10C534000C45F5E704F03F04C6F860452868C0F3ED
:10C54400403100F03F00FFF75FFFB1E704F03F0424
:10C55400C6F86445F2E704F03F04C6F86845EDE721
:10C5640004F03F04C6F86C45E8E76FF085007DE70A
:10C574000025844070B51B4D1B4C2B7833B9C4E99E
:10C5840000331A4826F0AEF901232B7000222A202A
:10C594001146FDF7D3FD0021154817F085FB154D15
:10C5A40028604FF0FF324FF0FF33104817F048FE79
:10C5B400206880B10468043017F0F6FE5CB12046B0
:10C5C4002468F8E7D4E90031286898470834B4426D
:10C5D400F8D3002070BD054817F0AAFE064C074E9C
:10C5E400F5E700BF29210120B00E0120B80E01207B
:10C5F4005C370300AC0E0120689B0300709B0300B2
:10C60400104BF0B51A68104B01460A25002618464F
:10C614001F4604688C4211D08CB14468141BB44288
:10C62400C8BF034600F10800C8BF2646B84201D37C
:10C63400013DEED11846013A19605A60F0BD034637
:10C64400F8E700BF440F0120500F01200020054BE4
:10C65400C3E90000044BD3E8EF2FC3E8E10F00293E
:10C66400F9D17047480F0120440F01202DE9F0470C
:10C6740086B00C4626F09BF8814620B96FF06D0019
:10C6840006B0BDE8F08726F06FFA23680546002B54
:10C694000F4604D118F020F96FF00A00F0E7BCBF90
:10C6A4004FF0FF3323600122002102A826F021F974
:10C6B40001AE4FF02003EFF3118A83F31288BFF326
:10C6C4006F8F18F0ABF9FFF79BFFDFF81C8143680D
:10C6D400D8F8002093424FF0000307D10193434B55
:10C6E4005A68002A70D1C3E9006601E099464260A5
:10C6F4008AF31188BFF36F8FB9F1000F62D02368FA
:10C704005A1C64D04FF4004E40F2E730002123EA73
:10C71400E37C4FF47A720023CCFB0E01FBF710FD8F
:10C7240002460B4602A817F05FFE4FF02003EFF31A
:10C73400118983F31288BFF36F8F00212B4A13688A
:10C744005BB1B3424CD101985668002943D19E4253
:10C75400106000D150600023019318F05FF9FFF7D7
:10C764004FFFD8F80030436089F31188BFF36F8F0F
:10C7740026F01DF8002881D02668731C22D026F0EC
:10C78400F3F94FF47A7EA0FB0E30A5FB0E250EFBC9
:10C7940001010EFB0757DB0BD20B43EA414342EA8C
:10C7A40047429B1A4FEAD13161EBD7314FEAE67C1D
:10C7B400F31A6CEB01010029B8BF00232360002B9E
:10C7C4003FF46AAF00205BE716605E6090E74FF0CD
:10C7D400FF321346A6E79E42086008BF5160BAE7DD
:10C7E40019461B68ACE700BF440F0120480F012025
:10C7F40070B40468094B2CB19C4203D303F1500577
:10C80400AC4206D3064D2C78661C03EB04132E7041
:10C814000360006870BC26F06CB800BFF40E012001
:10C824002A2501204FF08052014BC3F800217047A4
:10C8340000E100E04FF08052014BC3F880217047C3
:10C8440000E100E010B5084BD3E8EF2F0132C3E854
:10C85400E12F0029F8D1054B1C6824B1201D17F0E5
:10C86400A3FD2468F9E710BD440F0120480F0120FF
:10C87400014600220023014825F0F3BFCC0E01201D
:10C884000146014825F0F7BFCC0E012001460022E5
:10C894000023014825F0E5BFE00E012001460148D0
:10C8A40025F0E9BFE00E012008B51AF06CFD4FF445
:10C8B40080620649064825F08BFFBDE808404FF426
:10C8C40000520449044825F083BF00BF2A210120F7
:10C8D400CC0E0120E8840020E00E012080B5D0E9D0
:10C8E400001300AF88B06A46D36104230648C2E946
:10C8F400050142F8103F00234FF401510348FCF7AF
:10C90400B5FFBD4680BD00BFB153030088340300AA
:10C914007FB5FCF7C7FE074B059302230493064833
:10C9240000234FF4825104AAFCF7A0FF0020FEF775
:10C9340031F800BFCD5303005834030098B51A48AA
:10C9440000AFFBF772FDA0B11749184816F08EFF2F
:10C9540078B16C4688B06A46154BC2E905300323AA
:10C9640042F8103F00234FF4C2511248FCF77EFFF7
:10C97400A5461148FBF759FDA0B10F490B4816F025
:10C9840075FF78B16C4688B06A460C4BC2E9053035
:10C99400032342F8103F00234FF4C2510548FCF72B
:10C9A40065FFA546BD4698BDEA53030012970300F0
:10C9B4000954030078340300365403004E54030032
:10C9C4002DE9F0411F46154B044693F800800D46AF
:10C9D4001646A2B0B8F1000F15D168461AF035F921
:10C9E4003A4631462846289BA047044668461AF032
:10C9F4002DF9B8F1000F02D0094817F099FC204630
:10CA040022B0BDE8F0814FF0FF324FF0FF3304480D
:10CA140017F016FC0028E0D01F24F0E74C26012074
:10CA240064C7002030B595B005460C46302200217D
:10CA340008A826F032F93F23079307AB0393342366
:10CA44000694CDE9043554B1012305AA00920021CE
:10CA54000448019303AA00F007F815B030BD20463E
:10CA6400FBE700BF0001004070B4DDE9035401F5A9
:10CA74000046B6F5803F0DD2FF2B0BD8FF2C09D80A
:10CA840044EA0324134644EA0142014670BC0348C5
:10CA9400FFF796BF6FF0800070BC7047217C0000E8
:10CAA400014B024A1A607047A0C500200090D003D1
:10CAB40070B501250268B2FA82F3C3F11F035E1C4C
:10CAC400DCB210D005FA03F322EA0303D0E8EF6FD7
:10CAD400964204D1C0E8EC3FBCF1000FF6D1E9D195
:10CAE40002480C7070BD0248FCE700BF0000AD0BAB
:10CAF4000200AD0B036810B5CB40DB0711D4012352
:10CB040003FA01F1036841EA0302D0E8EF4F9C42C3
:10CB140004D1C0E8EC2FBCF1000FF6D1F2D10248E9
:10CB240010BD0248FCE700BF0000AD0B0400AD0BD4
:10CB3400F7B5044618B1012823D003B0F0BD022292
:10CB4400204BC3F80823C3F80401D3F804210122BD
:10CB5400DA6001239C4218BF002542F21077194E77
:10CB64008DF8073008BF0DF10705A4B1012CE4D1FD
:10CB740025B1D6F80C3403F001032B70D6F80C342D
:10CB840011E000220F4BC3F80803C3F80021D3F8C7
:10CB940000215860DDE725B1D6F8183403F003030B
:10CBA4002B70D6F81834DB03C7D52DB901201AF041
:10CBB400FEFB013FD9D1C0E79DF80730012BF5D02A
:10CBC400BBE700BF00500040044B1A7922B9012290
:10CBD40018601A710248704702487047A00F01207C
:10CBE4000000AD0B0C00AD0B08B50520FDF798FA5D
:10CBF40010B90520FDF770FA0122024BC3F818257D
:10CC040008BD00BF0050004008B510B101282FD066
:10CC140008BD1C4AD2F81834D2F81814C90312D427
:10CC2400D2F81434DB0718D40123164AC2F8183595
:10CC34000023C2F80431D2F804310223C2F80433C9
:10CC440001239360E4E703F00303022BEDD0012BEF
:10CC5400EBD00020FFF76CFFE6E7D2F81C3403F0BA
:10CC64000303013B012BF4D80223C2F80433CFE7BA
:10CC74000022044BC3F80021D3F80021C3F80403B5
:10CC84001860C5E700500040174B10B5D3F80021D9
:10CC940052B10020C3F80001D3F800210122C3F8E7
:10CCA4000823124B1B6898470F4BD3F804218AB111
:10CCB4000022C3F80421D3F80421D3F81824D3F8AC
:10CCC400181402F00302012A4FF0020103D1C3F841
:10CCD40018159A6010BDC3F80813044B0120BDE871
:10CCE40010401B68184700BF00500040A00F0120EF
:10CCF40001460148FFF7DCBEA4C5002000F01F0276
:10CD0400054800EB8200D0F8003223F4403343EAB4
:10CD14000143C0F80032704700258440034B0830BB
:10CD240033F81000C0F34010704700BFA8C50020BE
:10CD340070B50D4C00F1080334F813300546DA05DC
:10CD44000E4607D5C3F3432304EBC302526854F8D9
:10CD540033309847A3682BB131462846E268BDE8D2
:10CD64007040184770BD00BFA8C50020124A0830A3
:10CD740032F8103010B4D9051BD5C3F3432123F482
:10CD8400F85322F81030002002F1100434F8023B6A
:10CD940013F4807F03D0C3F34323994209D00130B5
:10CDA4002028F3D10023054810BC42F83130FFF7A6
:10CDB400A1BE10BC704700BFA8C50020FCC5002060
:10CDC40038B50246FFF7AAFF0B4C02F1080560B123
:10CDD400002134F815305B0B9B0003F1804303F50D
:10CDE4004433C3F81015C3F810151046FFF7BEFFFF
:10CDF400002324F8153038BDA8C500202DE9F341DF
:10CE040004461D4609B34D4F00F1080837F8186071
:10CE1400B30706D5FFF782FF18B1494802B0BDE851
:10CE2400F081484B04F01F0003EB8000D0F800327F
:10CE3400097823F00F0326F0020643EA810346F043
:10CE44000106C0F8003227F8186092B13B4B04F198
:10CE5400080633F8161010788F0752680CD5002A8C
:10CE6400DBD133F8162022F01C0242EA800023F8BA
:10CE74001600CDBB3448D1E721F02001C904C90C08
:10CE840023F81610002AECD00328C6D892F800C064
:10CE94006246920002F1804202F5443220B9C2F89F
:10CEA4001005C2F81005DCE7D2F8107541EA4C31E0
:10CEB40027F00307C2F81075D2F8107541F020016D
:10CEC40027F4473727F44077C2F81075D2F810E5F5
:10CED400270207F4F8574EEA004E47EA0E07C2F855
:10CEE400107523F81610BCE72046D5E90067FFF754
:10CEF4003DFF002EBED0114D2B689E4204D16B68BD
:10CF04009F4201D1002209E010480DF10701FFF70B
:10CF1400CFFD0D4B984281D19DF8072005EBC2034C
:10CF240008345F6035F8143045F8326043EA422330
:10CF340043F4807325F814309CE700BFA8C5002093
:10CF44000400AD0B002584400000AD0BFCC500209F
:10CF5400F8B5044669B3374E00F1080736F81750A0
:10CF6400AB0704D4FFF7DAFE08B13348F8BD15F077
:10CF74001C0F4B7801D0012BF7D0304804F01F0C64
:10CF840000EB8C0CDCF8000291F800E05B0020F46C
:10CF9400E160897843EA0E2320F00700034343EA63
:10CFA400810343F0010345F00305CCF8003226F871
:10CFB40017500AB92248D9E71E4E04F1080736F87B
:10CFC40017008307D1D592F800C00023614620F0F2
:10CFD4002000890001F18041C00401F54431C00CF6
:10CFE400C1F8103526F81700C1F810355578002D12
:10CFF400E0D0D1F81035927823F4981323F4F85341
:10D00400C1F81035D1F810E5230203F4F8532D04C8
:10D0140043EA0E0305F4403512052B4302F4801253
:10D0240040EA4C30134340F02000C1F8103526F894
:10D034001700BFE7A8C500200400AD0B00258440FD
:10D044000000AD0B014BC3E902017047A8C50020E5
:10D0540008B50246FFF762FE38B1054B083233F8D3
:10D06400123004485B0B0B7008BD0348FCE700BF9B
:10D07400A8C500200000AD0B0400AD0B38B50F4C63
:10D0840094F85850BDB94022294604F1100025F007
:10D0940004FE3120FDF720F8094B0A48C3F87C51FF
:10D0A400D3F87C214FF00042C3F80423012384F811
:10D0B4005830636538BD0448FCE700BFA8C50020AC
:10D0C400001003400000AD0B0500AD0B034B93F8BB
:10D0D4005800003818BF0120704700BFA8C50020C1
:10D0E40001460148FFF706BDF8C500200146014886
:10D0F400FFF7DEBCF8C50020024610B5FFF70EFEB0
:10D104001B4B02F1080433F81430C8B113F00204C5
:10D1140016D118485B0B9A008450805802F1804263
:10D1240002F54432D2F8100540F00100C2F81005AF
:10D1340029B1012202FA03F30F4AC2F8043310BDE5
:10D14400C3F38203042B0ED0052B0ED00B4B1969AD
:10D1540002F01F03D94001F0010102311046BDE87D
:10D164001040FFF7CBBD0321F8E70221F6E700BF2B
:10D17400A8C500200011034000100340002584408E
:10D1840008B50246FFF7CAFDC0B10F4B02F1080112
:10D1940033F81130990711D401225B0B9A400B49E3
:10D1A4009B0003F18043C1F8082303F54433D3F80B
:10D1B400102522F00302C3F8102508BD0021BDE8A4
:10D1C40008401046FFF79ABDA8C500200010034090
:10D1D4000C4B00F1080233F8123010B5DB0704469B
:10D1E4000DD5FFF7CDFF2046FFF7EAFD0222064BDF
:10D1F40004F01F048034054843F8242010BD04487B
:10D20400FCE700BFA8C50020002584400000AD0B4A
:10D214000400AD0B2DE9F04F002501222C464D4BA7
:10D224004D484E4985B01E6836B1D0F804631642A5
:10D234001EBF1C601E68154304338B424FEA420232
:10D24400F1D1454FD7F87C3193B1454E0DF10C081F
:10D25400336A039333624FF00109039850B9C7F856
:10D264007C01D7F87C31336A03933362002BF2D10B
:10D27400012469E090FAA0FABAFA8AFA394A0AF162
:10D28400080332F813104FEADA0C0AF0070309FA1C
:10D2940003F418F80C30C1F3820223EA040308F8FB
:10D2A4000C3006EB8A03D3F80042C8069346C4F355
:10D2B400014418D5114650460193FFF739FD019BEF
:10D2C400E4B2D3F80032C3F301439C4207D10021F6
:10D2D4005046FFF713FD21465046FFF70FFD09FAAC
:10D2E4000AF03062B9E7022C0CBF03210221504638
:10D2F4000192FFF703FD019A032A04D0022C07D1FF
:10D30400BBF1010FEBD159465046FFF711FDE6E79B
:10D31400032CE4D1BBF1020FF4E795FAA5F3B3FAB9
:10D3240083F304FA03F29B0003F1804303F54433CF
:10D33400D3F81005D3F81015C0F30420C1F301414C
:10D3440025EA0205FFF7F4FC002DE6D105B0BDE89F
:10D35400F08F00BF00110340001003402011034070
:10D3640000258440A8C5002070B5084C0E462379DA
:10D37400154643B92A20FCF7AFFE01230448237164
:10D384002660A56070BD0348FCE700BFA80F01201C
:10D394000000AD0B0C00AD0B002330B50D4A50F866
:10D3A400234003F5A2710133082B42F82140F6D142
:10D3B4000023084A00F1200103F5B27451F8045B1C
:10D3C4000133082B42F82450F6D1036CC2F804331D
:10D3D40030BD00BF00A0024000234FF0FF31134ACC
:10D3E400C2F81035C2F81435C2F81835C2F81C3525
:10D3F400C2F82035C2F82435C2F82835C2F82C35D5
:10D40400C2F89035C2F89435C2F89835C2F89C3504
:10D41400C2F8A035C2F8A435C2F8A835C2F8AC35B4
:10D42400C2F80813024A1371704700BF00A00240FB
:10D43400A80F01200C4B30B4D3F80C03012403468D
:10D44400002523B930BC094B1A689968104793FA30
:10D45400A3F2B2FA82F204FA02F123EA01030449C4
:10D4640092008D50EDE700BF00A00240A80F0120FC
:10D4740000A10240431C06D00222034B00F01F000F
:10D48400803043F8202070470025844000F01F03BB
:10D4940001209840024B09B9D860704798607047E2
:10D4A400002584402DE9F84306460C464A4D31795F
:10D4B40010464F0105EB41110A7F002A40F08A8093
:10D4C4003268E8514B60E07B8B7F94F804C060F3D2
:10D4D40000036CF341038B77E378CB77D6F80090A5
:10D4E400002835D1217B2078012994BF0021012116
:10D4F400FFF7CCFF01212378DFF8E08003F01F035E
:10D50400803348F823106378FF2B08D003F01F03FF
:10D514009940C8F80C100321803348F82310A378ED
:10D52400FF2B06D0A17B03F01F038900803348F84A
:10D534002310E078FF280BD0217981F00101FFF757
:10D54400A5FF0321E37803F01F03803348F8231079
:10D55400237C93B963782078FF2B18BF1946A378EE
:10D5640008BF4FF0FF31FF2B08BF4FF0FF33C9F85E
:10D574000805C9F80C15C9F81035A368C2F8243594
:10D58400637B217B003B18BF012302291CD00329A4
:10D594001DD0012901D143F00203C2F85435A37907
:10D5A400C2F8C0350723C2F80035EB5923B13068FF
:10D5B40040F30730FCF790FD00233D446B770123D3
:10D5C40007482B77BDE8F88343F00403E5E743F00D
:10D5D4000603E2E70348F5E7B40F01200025844081
:10D5E4000000AD0B0500AD0BF8B503791F4D5E01CE
:10D5F40005EB4317AB590468B3B144F30730FCF7A8
:10D604007BFD1B4BC4F808337B7F6BB1012364277C
:10D614006361D4F8043123B9012019F0C8FE013F35
:10D62400F7D10022AB195A770023A919C4F80035A1
:10D634008B7FDB0715D4D4F80805FFF71BFFD4F85C
:10D644001005FFF717FFD4F80C05FFF713FFCB7F86
:10D65400FF2B06D00221074A03F01F03803342F850
:10D664002310002335442B77F8BD00BFB40F0120ED
:10D6740052010800002584402DE9F843364F037910
:10D68400144607EB431898F81D2081460D465E01A9
:10D69400002A5ED1BA592AB114F0140F04BF012232
:10D6A40088F81D2007EB060C0CF10C0C95E80F0014
:10D6B4008CE80F000121404619F07DFE296821B154
:10D6C40001F06043B3F1005F06D1AA6852B102F0E1
:10D6D4006043B3F1005F05D000233E441F487377D5
:10D6E400BDE8F883D9F800306868C3F84415E968E0
:10D6F400C3F84805C3F834250022C3F83815C3F825
:10D704001821D3F8182114F0010218BF0122C3F81C
:10D71400502514F0020218BF0122C3F8402514F06A
:10D72400080204BF01211961B95949B912B9D3F8E2
:10D734001821FBE70021404619F03DFE0848CFE7D9
:10D74400402214F0040F14BFC3F80823C3F80423C1
:10D75400F4E70448C4E700BFB40F01200A00AD0B8E
:10D764000000AD0B0B00AD0B0C4B10B5D3F818211A
:10D7740092B100240A4A2146C3F818411046D3F84E
:10D78400183119F018FED2E900311472547702F1FD
:10D794000800BDE81040184710BD00BF00B00040AD
:10D7A400B40F01202DE9F04F944C97B009902068F4
:10D7B4001CF046FF099B80461B689D6BEB6A0BB10E
:10D7C40028469847D8F8003053B901232068C8F890
:10D7D40010300768FA689169CE0710D4002311E06D
:10D7E400D8F80430002BF0D023681868D8F810302B
:10D7F400002BEAD0836A002BF8D09847F4E79269AB
:10D804009407EBD5C8F81430D8F814300E93099B5C
:10D814001B685A69BAB1D5E900541A7C12F0300F6A
:10D8240000F0D081510740F1CD813B7C03F006022A
:10D83400062A1FD1724B40F27A3200930320714BB7
:10D8440071490AF07BFAD8F8002082B1D8F8043084
:10D854006BB109990968097CC90701D50E9931B1E1
:10D86400D8F808108A4218BF1346C8F8083017B011
:10D87400BDE8F08F03F03002202A3BD14FF0FF3691
:10D88400B4F804E02288B4F806900EF101039B1A60
:10D89400618818B209F101035B1A1BB200FB03662D
:10D8A4004343304605EB4303A5F1020CA6EB000A03
:10D8B400824515D37B883846013B9BB2591AA3EBAA
:10D8C400090363803B88E180013B9BB29A1AA280E2
:10D8D40021462A46A3EB0E03238019F078FDB2E714
:10D8E40033F802AD3CF802BF0138A3F800B0ACF83D
:10D8F40000A0DBE7DA06A6D51CF0A2FE2388B4F963
:10D90400042007930390531C07989BB21E1A089394
:10D91400B3B20A93B4F9023036B20F936388B4F900
:10D9240000100593E388059801331B1A1BB2069374
:10D934004FF4A053B3FBF6F306988342A8BF034603
:10D9440010933B7C03F03003102B26D17B8807997E
:10D954005A1E521AE280089A9B1A63804FF0000AFA
:10D96400D34606EBD6735B101593731C03EBD3738A
:10D974005B10149326EAE6735B0012930A9B013B47
:10D984009BB20D93069B53450ADCBBF1000F3FF499
:10D994005AAF584609F0EEFF55E76180E280DDE7B3
:10D9A400069B109AA3EB0A039342A8BF1346049361
:10D9B4000123039ABDF910901361BAF1000F40F0EE
:10D9C400A880069B9E4200F3A480D1463B7CCDF800
:10D9D40010A003F030031193BDF91030159A93424F
:10D9E40058DA0D9B049A4FF0000CA3EB020E0FFAC9
:10D9F4008EF30B93734313932FE000BFD40F0120D6
:10DA0400BC540300E4540300885403000B980D999C
:10DA140002EB090E06FB02021398CB1A19B200FAA4
:10DA240083F3049806FB01011198302835F81E0091
:10DA3400ADF830001DD135F8110025F81E0035F879
:10DA440013E025F811E035F8121025F81310BDF88D
:10DA5400303025F812300CF1010C14990FFA8CF2C5
:10DA64008A421FFA8CF3D1DB049BB1440133049343
:10DA7400B2E735F8120025F81E0035F813E025F852
:10DA840012E035F8112025F81320BDF8303025F8C0
:10DA94001130E0E73B7C03F03003102B2CD10F9BBB
:10DAA4000A9A2380059B013B1344A380B146069A3E
:10DAB40009EB0A039A427DDC039B9B69DB0779D55A
:10DAC400039B9B69980775D50123039A21465361EB
:10DAD4003846BBF1000F14BF5A462A4619F077FCAA
